:020000040000FA
:040000002EEF00F0EF
:060008005F8282EF1FF091
:100018005F80D8CFB5F0E8CFB6F0E0CFB7F0D9CF52
:10002800B8F0DACFB9F0A3BEA4AE03D0A2EC13F0B7
:1000380005D0A3BCA4AC02D050EC27F0B9C0DAFFBD
:10004800B8C0D9FFB7C0E0FFB6C0E8FFB5C0D8FF59
:080058005F901000FEEF20F0A4
:101000000001000A006400E80310271B5B324A005D
:10101000256909001B5B480025750900257520001E
:101020000A0D0000780E406E9BEC24F0416ECDEF6F
:101030000CF0010E836F000E816F81C082F082C0C0
:1010400051F051C052F0000E806F000E556E000E30
:10105000896F000E546E000E536E000E886F1200E2
:10106000080E836F000E816F81C082F082C051F044
:1010700051C052F0000E806F000E556E000E896F49
:10108000000E546E000E536E000E886F12000A0E92
:10109000836F000E816F81C082F082C051F051C019
:1010A00052F0000E806F000E556E000E896F000E1C
:1010B000546E000E536E000E886F1200010E836F87
:1010C000000E816F81C082F082C051F051C052F099
:1010D000010E556E000E896F000E546E000E536E99
:1010E000000E806F000E886F120049EC26F012008F
:1010F00063EC1EF0120031EC1BF012000B0E836F3C
:10110000000E816F81C082F082C051F051C052F058
:10111000000E806F000E556E000E896F000E546E2B
:10112000000E536E000E886F120037EC1CF0120098
:101130000E0E836F000E816F81C082F082C051F06D
:1011400051C052F0000E556E000E896F000E546EA5
:10115000000E536E000E886F000E806F12000F0E8F
:10116000836F000E816F81C082F082C051F051C048
:1011700052F0000E556E000E896F000E546E000E78
:10118000536E000E886F000E806F1200100E836F7A
:10119000000E816F81C082F082C051F051C052F0C8
:1011A000000E556E000E896F000E546E000E536EC9
:1011B000000E886F000E806F12000B0E836F000E02
:1011C000816F81C082F082C051F051C052F0000E98
:1011D000556E000E896F000E546E010E536E000E98
:1011E000886F000E806F12005CEC24F0000E00018E
:1011F000836F000E816F81C082F082C051F051C0B8
:1012000052F0000E556E000E896F000E546E000EE7
:10121000536E000E886F000E806F1200000E836FF9
:10122000000E816F81C082F082C051F051C052F037
:10123000000E556E000E896F000E546E000E536E38
:10124000000E886F000E806F120041503F0AD8B424
:10125000CBD77C0AD8B483D7040AD8B4EAD60D0A0F
:10126000D8B463D7010AD8B446D7060AD8B460D731
:10127000030AD8B4F5D61F0AD8B43AD7030AD8B4AB
:1012800034D7010AD8B403D7070AD8B437D7020A2B
:10129000D8B414D7010AD8B490D70D0AD8B476D7E9
:1012A000BDD7300E4118D8B43CD0310E4118D8B457
:1012B00038D0320E4118D8B434D0330E4118D8B4D7
:1012C00030D0340E4118D8B42CD0350E4118D8B4D3
:1012D00028D0360E4118D8B424D0370E4118D8B4CF
:1012E00020D0380E4118D8B41CD0390E4118D8B4CB
:1012F00018D0410E4118D8B414D0420E4118D8B4B9
:1013000010D0430E4118D8B40CD0440E4118D8B4B4
:1013100008D0450E4118D8B404D0460E4118D8A4C0
:1013200005D041C052F0020E836F1200550E4118D5
:10133000D8A420D0000E836F8B94000E836F000E14
:10134000816F81C082F082C051F051C052F0000E16
:10135000806F000E556E000E896F000E546E000EE9
:101360008C6F000E8B6F000E8A6F000E566E000E93
:101370008E6F12005A0E4118D8A420D0000E836F31
:101380008B84000E836F000E816F81C082F082C05B
:1013900051F051C052F0000E806F000E8C6F000EA5
:1013A0008B6F000E8A6F000E566E000E8E6F000E51
:1013B000556E000E896F000E546E1200000E836F82
:1013C000000E816F81C082F082C051F051C052F096
:1013D000000E556E000E896F000E546E000E806F69
:1013E0001200300E4118D8B43CD0310E4118D8B498
:1013F00038D0320E4118D8B434D0330E4118D8B496
:1014000030D0340E4118D8B42CD0350E4118D8B491
:1014100028D0360E4118D8B424D0370E4118D8B48D
:1014200020D0380E4118D8B41CD0390E4118D8B489
:1014300018D0410E4118D8B414D0420E4118D8B477
:1014400010D0430E4118D8B40CD0440E4118D8B473
:1014500008D0450E4118D8B404D0460E4118D8A47F
:10146000ADD741C051F05550D8B41BD051C001F098
:10147000525084EC26F0566E830E00018925D96EF9
:10148000DA6A010EDA2256C0DFFF892B090E896560
:1014900005D0040E836F790E8C6F1200010E836FDE
:1014A0001200030E836F1200690E4118D8B414D0D5
:1014B0006C0E4118D8B410D06D0E4118D8B40CD0B1
:1014C000700E4118D8B408D0710E4118D8B404D0A9
:1014D0006F0E4118D8A405D041C08CF0040E836F64
:1014E0001200000E836F000E816F81C082F082C0F7
:1014F00051F051C052F0000E806F000E556E000E7C
:10150000896F000E546E000E8C6F1200300E411861
:10151000D8B404D0310E4118D8A406D041C08BF005
:10152000050E0001836F1200000E836F000E816FA5
:1015300081C082F082C051F051C052F0000E806F25
:10154000000E556E000E896F000E546E000E8C6FEB
:10155000000E8B6F12005550D8B403D0010E8A6F65
:101560003DD0090E54641ED001015F51D8B436D06D
:101570000D0E5F6133D060C113F061C114F062C120
:1015800015F063C116F064C117F065C118F0196A4F
:1015900066C11AF067C11BF068C11CF05F519EEC78
:1015A0001AF01CD05350D8B404D08851DEEC25F08A
:1015B00015D081C001F0825184EC26F0566E51C0E6
:1015C00001F0525084EC26F000018E6F80C001F0D3
:1015D000000E84EC26F000018D6FC0D7000E0001D4
:1015E000836F000E546E000E816F81C082F082C046
:1015F00051F051C052F00FD6000E836F000E816F74
:1016000081C082F082C051F051C052F0000E806F54
:10161000000E556E000E896F000E546E000E8C6F1A
:10162000000E8B6F000E8A6F12004150480AD8B42A
:1016300092D7E2D7300E4118D8B43CD0310E4118C1
:10164000D8B438D0320E4118D8B434D0330E411843
:10165000D8B430D0340E4118D8B42CD0350E41183F
:10166000D8B428D0360E4118D8B424D0370E41183B
:10167000D8B420D0380E4118D8B41CD0390E411837
:10168000D8B418D0410E4118D8B414D0420E411825
:10169000D8B410D0430E4118D8B40CD0440E411821
:1016A000D8B408D0450E4118D8B404D0460E41181D
:1016B000D8A484D641C082F0090E836F1200300E88
:1016C0004118D8B43CD0310E4118D8B438D0320EBD
:1016D0004118D8B434D0330E4118D8B430D0340EB9
:1016E0004118D8B42CD0350E4118D8B428D0360EB5
:1016F0004118D8B424D0370E4118D8B420D0380EB1
:101700004118D8B41CD0390E4118D8B418D0410EA5
:101710004118D8B414D0420E4118D8B410D0430E9A
:101720004118D8B40CD0440E4118D8B408D0450E96
:101730004118D8B404D0460E4118D8A43FD641C0B1
:1017400081F0ACD6300E4118D8B43CD0310E4118DF
:10175000D8B438D0320E4118D8B434D0330E411832
:10176000D8B430D0340E4118D8B42CD0350E41182E
:10177000D8B428D0360E4118D8B424D0370E41182A
:10178000D8B420D0380E4118D8B41CD0390E411826
:10179000D8B418D0410E4118D8B414D0420E411814
:1017A000D8B410D0430E4118D8B40CD0440E411810
:1017B000D8B408D0450E4118D8B404D0460E41180C
:1017C000D8A4FCD541C080F0080E836F1200300E03
:1017D0004118D8B43CD0310E4118D8B438D0320EAC
:1017E0004118D8B434D0330E4118D8B430D0340EA8
:1017F0004118D8B42CD0350E4118D8B428D0360EA4
:101800004118D8B424D0370E4118D8B420D0380E9F
:101810004118D8B41CD0390E4118D8B418D0410E94
:101820004118D8B414D0420E4118D8B410D0430E89
:101830004118D8B40CD0440E4118D8B408D0450E85
:101840004118D8B404D0460E4118D8A4B7D541C029
:1018500052F00C0E836F1200300E4118D8B43CD0F9
:10186000310E4118D8B438D0320E4118D8B434D023
:10187000330E4118D8B430D0340E4118D8B42CD01F
:10188000350E4118D8B428D0360E4118D8B424D01B
:10189000370E4118D8B420D0380E4118D8B41CD017
:1018A000390E4118D8B418D0410E4118D8B414D00C
:1018B000420E4118D8B410D0430E4118D8B40CD001
:1018C000440E4118D8B408D0450E4118D8B404D0FD
:1018D000460E4118D8A472D541C051F05350D8B427
:1018E00008D051C001F0525084EC26F00001886FFE
:1018F0000DD05F0E5424D96EDA6A010EDA2251C07F
:1019000001F0525084EC26F0DF6E542A080E546425
:1019100004D00D0E0001836F12005350D8A400D6DE
:101920000B0E0001836F1200300E4118D8B404D0A2
:10193000310E4118D8A442D55F0E5424D96EDA6A0C
:10194000010EDA2241C0DFFF542AEAD5610E4118A8
:10195000D8B408D0620E4118D8B404D0330E411860
:10196000D8A42CD541C0EEF0000E836F1200300ECB
:101970004118D8B404D0310E4118D8A41FD541C0A5
:10198000EDF0F2D7300E4118D8B404D0310E411822
:10199000D8A414D541C0ECF0E7D700018351000A68
:1019A000D8B453D4010AD8B47CD4030AD8B419D516
:1019B000010AD8B479D5070AD8B4A8D5010AD8B491
:1019C00034D6030AD8B41200010AD8B412000F0AA0
:1019D000D8B430D6010AD8B472D6030AD8B4B2D675
:1019E000010AD8B4F4D6070AD8B436D7010AD8B455
:1019F0009BD7030AD8B4AAD7010AD8B4B8D71F0A0C
:101A0000D8A41200BFD7000E0101A46F000EA36F6F
:101A1000000EA56F000EA66F000EA76F000EA86F38
:101A20000001D751140D100EF324D96E020EF420CC
:101A3000DA6EDECFBAF0DDCFBBF0000EBD6F0A0E5E
:101A4000BC6F35EC26F00001BAC0C7F0BBC0C8F0CF
:101A5000C96BCA6B000E5CEC19F0C7C097F1C8C027
:101A600098F1C9C099F1CAC09AF10001D751140D7B
:101A7000120EF324D96E020EF420DA6EDECFBAF025
:101A8000DDCFBBF0000EBD6F0A0EBC6F35EC26F04B
:101A90000001BAC0C7F0BBC0C8F0C96BCA6B000E6A
:101AA0005CEC19F0C7C09BF1C8C09CF1C9C09DF1A6
:101AB000CAC09EF10001D751020DF3CFD8F0F4CF88
:101AC000D9F0D851D525D96ED951D621DA6EDF504B
:101AD000B6EC26F0010E0101AF6F0F014351010179
:101AE000AF19FC0BAF190F01436FFF0E0101AE6F71
:101AF000E10EAD6FADC1D8F03F0E0001D817D84749
:101B0000D8470F0143510001D819030BD8190F0111
:101B1000436F000E0101B16F000EB06F000EB46F85
:101B2000FA0EB36F0001D751140D0A0EF324D96ECB
:101B3000020EF420DA6EDECF9FF1DDCFA0F1000EB1
:101B40000101A56F000EA66F000EA76F000EA86F13
:101B5000000EA26F000EA16F23D0B3C1C8F0B4C1B4
:101B6000C9F03BEC21F0C8C0A3F1C9C0A4F1010148
:101B7000A45104E10B0EA35DD8A00DD0A351A5255F
:101B8000A56FA451A621A66F000EA721A76F000E76
:101B9000A821A86F03D09F07D8A0A007A14BA22B14
:101BA0000001D751140D0A0EF324D96E020EF42051
:101BB000DA6EDE500101A15DDE50A259D8A0CDD76A
:101BC0009FC1BEF0A0C1BFF00001C06BC16BA5C139
:101BD000BAF0A6C1BBF0A7C1BCF0A8C1BDF07BECB8
:101BE00020F0BAC0C7F0BBC0C8F0BCC0C9F0BDC0CF
:101BF000CAF0000E5CEC19F0C7C0A9F1C8C0AAF188
:101C0000C9C0ABF1CAC0ACF1A9C1BAF0AAC1BBF05E
:101C1000ABC1BCF0ACC1BDF097C1BEF098C1BFF084
:101C200099C1C0F09AC1C1F02AEC1DF00001D8B0F2
:101C300017D09BC1BAF09CC1BBF09DC1BCF09EC146
:101C4000BDF0A9C1BEF0AAC1BFF0ABC1C0F0ACC12C
:101C5000C1F02AEC1DF00001D8B002D0010E01D075
:101C6000000E0101B26FB251D8A439D0B0C1BAF0A0
:101C7000B1C1BBF00BEC26F00001BAB111D0B0C17C
:101C8000BAF0B1C1BBF00BEC26F0020E0001BA2590
:101C90000101B06F000E0001BB210101B16F12D034
:101CA000020E0101B0250001D86F000E0101B12123
:101CB0000001D96FD81FD91FD84BD92BD8C0B0F18C
:101CC000D9C0B1F10101B351B025B36FB451B12105
:101CD000B46FF40EB35D010EB459D8A023D7B2513E
:101CE000D8A40AD0AD4BAE2BAEBF04D7AE5104E1A1
:101CF000200EAD5DD8A0FED6B251D8A404D0AF2B33
:101D0000030EAF65EAD6B251D8B412000001D75124
:101D1000D86FD96B010ED827000ED923D751140DD7
:101D2000000EF324D96E020EF420DA6ED8C0DEFF66
:101D3000D9C0DDFFD751140D020EF324D96E020E67
:101D4000F420DA6EB3C1DEFFB4C1DDFF0101AF5193
:101D50000001D86FD96BD751140D040EF324D96E3E
:101D6000020EF420DA6ED8C0DEFFD9C0DDFFD751F5
:101D7000140D060EF324D96E020EF420DA6EADC1F6
:101D8000DEFFAEC1DDFFA9C1BAF0AAC1BBF0ABC195
:101D9000BCF0ACC1BDF0C7EC1EF00001D751140D72
:101DA000080EF324D96E020EF420DA6EBAC0DEFFFC
:101DB000BBC0DDFF120021EE97F00B0EDE6AE806D5
:101DC000FDE2000E0101A46F000EA56FA551ACEC61
:101DD00015F00101A36F970EA525D96EDA6A010EE1
:101DE000DA22A3C1DFFFA451D8A402D0010E01D092
:101DF000000EA3150009D8B4BCD0010EA46FA551E4
:101E0000D8A40CD00001A2510109A26F0F0ECA6F15
:101E1000FF0ECB6F090E7BEC22F055D1A505D8A49F
:101E20000CD00001A2510209A26F0F0ECA6FFF0E63
:101E3000CB6F020E7BEC22F046D1020EA519D8A47E
:101E40000CD00001A2510409A26F0F0ECA6FFF0E41
:101E5000CB6F010E7BEC22F036D1030EA519D8A46E
:101E60000CD00001A2510809A26F0F0ECA6FFF0E1D
:101E7000CB6F030E7BEC22F026D1040EA519D8A45B
:101E80000CD00001A2511009A26F0F0ECA6FFF0EF5
:101E9000CB6F030E7BEC22F016D1050EA519D8A44A
:101EA0000CD00001A2512009A26F0F0ECA6FFF0EC5
:101EB000CB6F040E7BEC22F006D1060EA519D8A438
:101EC0000CD00001A2514009A26F0F0ECA6FFF0E85
:101ED000CB6F050E7BEC22F0F6D0070EA519D8A427
:101EE0000CD00001A2518009A26F0F0ECA6FFF0E25
:101EF000CB6F080E7BEC22F0E6D0080EA519D8A413
:101F00000CD00001A1510109A16F0F0ECA6FFF0E85
:101F1000CB6F060E7BEC22F0D6D0090EA519D8A403
:101F20000CD00001A1510209A16F0F0ECA6FFF0E64
:101F3000CB6F060E7BEC22F0C6D00A0EA519D8A4F2
:101F40000CD00001A1510409A16F0F0ECA6FFF0E42
:101F5000CB6F090E7BEC22F0B6D00001A15108092D
:101F6000A16F0F0ECA6FFF0ECB6F090E7BEC22F034
:101F7000AAD0A551D8A404D00001A251FE0B36D09E
:101F8000A505D8A404D00001A251FD0B2FD0020E4C
:101F9000A519D8A404D00001A251FB0B27D0030E31
:101FA000A519D8A404D00001A251F70B1FD0040E2C
:101FB000A519D8A404D00001A251EF0B17D0050E2B
:101FC000A519D8A404D00001A251DF0B0FD0060E32
:101FD000A519D8A404D00001A251BF0B07D0070E49
:101FE000A519D8A405D00001A2517F0BA26F1CD067
:101FF000080EA519D8A404D00001A151FE0B13D0DE
:10200000090EA519D8A404D00001A151FD0B0BD0D5
:102010000A0EA519D8A404D00001A151FB0B03D0CE
:102020000001A151F70BA16F000ECA6F000ECB6F1C
:10203000000E7BEC22F0000E0001CA6F000ECB6F89
:10204000010E7BEC22F0000E0001CA6F000ECB6F78
:10205000020E7BEC22F0000E0001CA6F000ECB6F67
:10206000030E7BEC22F0000E0001CA6F000ECB6F56
:10207000040E7BEC22F0000E0001CA6F000ECB6F45
:10208000050E7BEC22F0000E0001CA6F000ECB6F34
:10209000060E7BEC22F0000E0001CA6F000ECB6F23
:1020A000070E7BEC22F0000E0001CA6F000ECB6F12
:1020B000080E7BEC22F0000E0001CA6F000ECB6F01
:1020C000090E7BEC22F00101A52B0B0EA5657ED637
:1020D000310E0001ED19D8A41ED00101A405D8A429
:1020E0001AD0410E00019E6F430E9F6F0C0EA06F21
:1020F0009F51A025A225A1259E25200FA36F9E0EEE
:102100006B6F000E6C6F6BC0C8F06CC0C9F0060E30
:10211000CA6FC9EC22F0310E0001EC19D8A41200EC
:1021200093EC1DF0130E0001E86F440EE76F440EB0
:10213000E82EFED7E72FFCD7E82FFAD700F00B0EDA
:102140000001C66F100EC76F57EC17F0140E000198
:10215000C66F100EC76F57EC17F01200000E2E6EF0
:10216000000E2D6E000E2F6E000E306E000E316EC2
:10217000000E326E1E50140D100EF324D96E020E96
:10218000F420DA6EDECF01F0DDCF02F0000E046E37
:102190000A0E036E71EC26F001C00EF002C00FF0C3
:1021A000106A116A000EFEEC19F00EC021F00FC08B
:1021B00022F010C023F011C024F01E50140D120E96
:1021C000F324D96E020EF420DA6EDECF01F0DDCFFB
:1021D00002F0000E046E0A0E036E71EC26F001C0D0
:1021E0000EF002C00FF0106A116A000EFEEC19F03A
:1021F0000EC025F00FC026F010C027F011C028F047
:102200001E50020DF3CF1FF0F4CF20F01F501C24FE
:10221000D96E20501D20DA6EDF50D1EC26F0010E71
:102220003B6E0F0143513B18FC0B3B18436FFF0EF5
:10223000386EE10E376E37C01FF03F0E1F161F4677
:102240001F460F0143511F18030B1F18436F000E49
:102250003A6E000E396E000E3E6EFA0E3D6E1E5046
:10226000140D0A0EF324D96E020EF420DA6EDECFBE
:1022700029F0DDCF2AF0000E2F6E000E306E000E1A
:10228000316E000E326E000E2C6E000E2B6E22D0C0
:102290003DC00FF03EC010F070EC21F00FC02DF0EB
:1022A00010C02EF02E5004E10B0E2D5CD8A00DD0E6
:1022B0002D502F242F6E2E503020306E000E3120E6
:1022C000316E000E3220326E03D02906D8A02A06C5
:1022D0002B4A2C2A1E50140D0A0EF324D96E020E1E
:1022E000F420DA6EDE502B5CDE502C58D8A0D0D70C
:1022F00029C005F02AC006F0076A086A2FC001F05D
:1023000030C002F031C003F032C004F0BDEC20F068
:1023100001C00EF002C00FF003C010F004C011F0B5
:10232000000EFEEC19F00EC033F00FC034F010C0F8
:1023300035F011C036F033C001F034C002F035C0C2
:1023400003F036C004F021C005F022C006F023C01F
:1023500007F024C008F0FBEC1DF0D8B016D025C063
:1023600001F026C002F027C003F028C004F033C0FB
:1023700005F034C006F035C007F036C008F0FBECBD
:102380001DF0D8B002D0010E01D0000E3C6E3C50C2
:10239000D8A42FD039C001F03AC002F05DEC26F08D
:1023A00001B00DD039C001F03AC002F05DEC26F06A
:1023B000020E0124396E000E02203A6E0ED0020E7B
:1023C00039241F6E000E3A20206E1F1E201E1F4A49
:1023D000202A1FC039F020C03AF03D5039243D6E0C
:1023E0003E503A203E6EF40E3D5C010E3E58D8A0A1
:1023F00036D73C50D8A40AD0374A382A38BE1BD723
:10240000385004E1200E375CD8A015D73C50D8A432
:1024100004D03B2A030E3B6404D73C50D8B41200CE
:102420001E501F6E206A010E1F26000E20221E5015
:10243000140D000EF324D96E020EF420DA6E1FC0C4
:10244000DEFF20C0DDFF1E50140D020EF324D96EF6
:10245000020EF420DA6E3DC0DEFF3EC0DDFF3B50D1
:102460001F6E206A1E50140D040EF324D96E020E46
:10247000F420DA6E1FC0DEFF20C0DDFF1E50140DF9
:10248000060EF324D96E020EF420DA6E37C0DEFF9A
:1024900038C0DDFF33C001F034C002F035C003F0B6
:1024A00036C004F025EC1FF01E50140D080EF32466
:1024B000D96E020EF420DA6E01C0DEFF02C0DDFF2D
:1024C000120000018C51D8B412008B51D8B4120004
:1024D0008A51D8B412002ED15550D8B429D0000E4C
:1024E000CE6F830ECE25D96EDA6A010EDA22DF5066
:1024F000CD6FCD51280DF3CF67F0F4CF68F0685160
:10250000866F67C087F086C0CAF087C0CBF0CE5117
:102510007BEC22F0000E0001686F000E676F000E6A
:10252000876F000E866FCE2B090ECE65DAD75ED090
:10253000690E8C19D8A405D0400ECA6F8C510FECCF
:1025400025F06C0E00018C19D8A405D0400ECA6F7E
:102550008C51F3EC24F06D0E00018C19D8A405D039
:10256000400ECA6F8C51D7EC24F0700E00018C190C
:10257000D8A405D08EC0CAF056501CEC24F0710EC1
:1025800000018C19D8A405D08EC0CAF05650FCECBE
:1025900023F06F0E00018C19D8A428D08D05D8A483
:1025A00002D0020E1BD0020E8D19D8A402D0010E4B
:1025B00015D0060E8D19D8A402D0080E0FD0070E24
:1025C0008D19D8A402D0060E09D0090E8D19D8B4E1
:1025D00006D0080E8D19D8A402D0070E8D6F56C0F4
:1025E000CAF08EC0CBF08D517BEC22F0000E0001C2
:1025F0008C6F000E8B6F000E8A6F12005550D8B48E
:102600002DD0000ECE6F830ECE25D96EDA6A010E64
:10261000DA22DF50CD6FCD51280DF3CF67F0F4CF24
:1026200068F06851866F67C087F086C0CAF087C0BF
:10263000CBF0CE5154EC22F0000E0001686F000E7A
:10264000676F000E876F000E866FCE2B090ECE656A
:10265000DAD7000E556E000E896FC8D7690E8C1937
:10266000D8A405D0410ECA6F8C510FEC25F06C0E2A
:1026700000018C19D8A405D0410ECA6F8C51F3EC1F
:1026800024F06D0E00018C19D8A405D0410ECA6F3C
:102690008C51D7EC24F0700E00018C19D8A405D011
:1026A0008EC0CAF05650DCEC23F0710E00018C197C
:1026B000D8A405D08EC0CAF05650BCEC23F06F0EE3
:1026C00000018C19D8A492D78D05D8A402D0020E8F
:1026D0001BD0020E8D19D8A402D0010E15D0060E03
:1026E0008D19D8A402D0080E0FD0070E8D19D8A4CA
:1026F00002D0060E09D0090E8D19D8B406D0080EE6
:102700008D19D8A402D0070E8D6F56C0CAF08EC0A6
:10271000CBF08D5154EC22F069D7000E566E000EAE
:102720008E6F000E8D6F000E8C6F000E8B6F000E83
:102730008A6F12008B51300AD8B4CED6010AD8B4B1
:102740005DD7EBD7A49E6CAEFBD06C9E000E5A6E8C
:10275000000120EE03F07151D9267251DA22DECF4A
:10276000B3F0DDCFB4F0B3C0D9FFB4C0DAFF010ECF
:10277000DF6E000E716F000E726F1200000164B305
:10278000120062C071F063C072F062C0D9FF63C012
:10279000DAFFDF50596E20EE01F06251D926635105
:1027A000DA22DECF73F0DDCF74F0050E6227000E63
:1027B0006323AF0E621908E1000E6319D8A404D098
:1027C000AA0E626F000E636F64916051621904E19A
:1027D00061516319D8B464836B80020E5A6E120083
:1027E0006BAC06D00001662B040E7AEC23F01200CD
:1027F000D8905E300001B46F5D30B36FB3516F6E2F
:102800005DA003D00B0E5A6E1200030E5A6E12001A
:102810006BAC06D00001662B040E7AEC23F012009C
:102820006B825DC0B3F05EC0B4F0B4C0B3F0000121
:10283000B46B060EB317000EB417F00EB3115D6E35
:10284000B4515E6E5D80010E576EC7D75704D8B481
:102850001BD073C0D9FF74C0DAFFDECF5DF0DDCFCF
:102860005EF0000120EE03F07351D9267451DA2294
:10287000DECF6FF0DDCF70F020EE02F07351D9267D
:102880007451DA22DF50586E5DC06FFF5DA0BDD776
:10289000050E5A6E12006BAC07D00001662B6B9CC4
:1028A000050E7AEC23F0120058065828D8A40DD053
:1028B000050E00017327000E7423592E04D0000E5C
:1028C0007AEC23F012006B8288D76FC0D9FF70C0FA
:1028D000DAFFDF506F6E00016F4B702B12006BAC94
:1028E00007D00001662B040E7AEC23F06B9C1200DB
:1028F0006B86080E5A6E1200080E5A6E6B86120016
:102900006FC0D9FF70C0DAFF6FCFDFFF00016F4BE0
:10291000702B010E585ED8B404D06B9A060E5A6E16
:1029200003D06B8AC4EC26F06B881200000E7AECA0
:1029300023F012000001662B060E7AEC23F0120041
:102940005A50000AD8B41AD7010AD8B4BCD7030A1F
:10295000D8B47CD7010AD8B49ED7070AD8B4E6D732
:10296000010AD8B4BCD7030AD8B4C6D7010AD8B470
:10297000DDD70F0AD8B4C4D7020AD8B431D7010AB8
:10298000D8B446D7D7D7000E0001C36F000EC26F70
:10299000010EC225C06F000EC321C16FC2C0BAF0C4
:1029A000C3C0BBF0000EBD6F140EBC6F35EC26F03B
:1029B000000E0001BA25D96E020EBB21DA6EC0C02E
:1029C000DEFFC1C0DDFFC2C0BAF0C3C0BBF0000E65
:1029D000BD6F140EBC6F35EC26F0020E0001BA2557
:1029E000D96E020EBB21DA6E000EDE6E000EDD6EB9
:1029F000C2C0BAF0C3C0BBF0000EBD6F140EBC6FF6
:102A000035EC26F0040E0001BA25D96E020EBB216A
:102A1000DA6E000EDE6E000EDD6EC2C0BAF0C3C00C
:102A2000BBF0000EBD6F140EBC6F35EC26F0060E29
:102A30000001BA25D96E020EBB21DA6E000EDE6EE1
:102A4000000EDD6EC2C0BAF0C3C0BBF0000EBD6F99
:102A5000140EBC6F35EC26F0080E0001BA25D96EB5
:102A6000020EBB21DA6E000EDE6E000EDD6EC2C0FD
:102A7000BAF0C3C0BBF0000EBD6F140EBC6F35ECD6
:102A800026F00A0E0001BA25D96E020EBB21DA6EBD
:102A90000A0EDE6E000EDD6EC2C0BAF0C3C0BBF01F
:102AA000000EBD6F140EBC6F35EC26F00C0E00014D
:102AB000BA25D96E020EBB21DA6E280EDE6E000E2C
:102AC000DD6EC2C0BAF0C3C0BBF0000EBD6F140E05
:102AD000BC6F35EC26F00E0E0001BA25D96E020E41
:102AE000BB21DA6E040EDE6E000EDD6EC2C0BAF0DF
:102AF000C3C0BBF0000EBD6F140EBC6F35EC26F0EA
:102B0000100E0001BA25D96E020EBB21DA6E470EF7
:102B1000DE6E000EDD6EC2C0BAF0C3C0BBF0000EA8
:102B2000BD6F140EBC6F35EC26F0120E0001BA25F5
:102B3000D96E020EBB21DA6E450EDE6E000EDD6E22
:102B4000C24BC32BC3BF24D7C35105E10C0EC25DDA
:102B5000D8B012001DD712000001E66F000E000170
:102B6000DB6F000EDC6F000EDD6F000EDE6F000EFF
:102B7000E56FE651020D3B0EF324D96E010EF420F1
:102B8000DA6EDF50B6EC26F00001E651140D040EAB
:102B9000F324D96E020EF420DA6EDF50D56F0F01E8
:102BA00043510001D519FC0BD5190F01436F0001EA
:102BB000E651140D060EF324D96E020EF420DA6EDF
:102BC000DF50D56FD547D5470F0143510001D519C7
:102BD000030BD5190F01436F000E0001DF6F000ECC
:102BE000E06F000EE16F000EE26FE651140D0A0E69
:102BF000F324D96E020EF420DA6EDECFD9F0DDCFE9
:102C0000DAF0000ED86F000ED76F2BD0E651140DFE
:102C1000020EF324D96E020EF420DA6EDECFC8F075
:102C2000DDCFC9F03BEC21F0C8C0E3F0C9C0E4F04F
:102C30000001E45104E10B0EE35DD8A00DD0E35197
:102C4000DF25DF6FE451E021E06F000EE121E16F4D
:102C5000000EE221E26F03D0D907D8A0DA07D74BE4
:102C6000D82BE651140D0A0EF324D96E020EF4206F
:102C7000DA6EDE50D75DDE50D859D8A0C7D7D9C09C
:102C8000BEF0DAC0BFF0C06BC16BDFC0BAF0E0C00D
:102C9000BBF0E1C0BCF0E2C0BDF07BEC20F0BAC0FC
:102CA000C7F0BBC0C8F0BCC0C9F0BDC0CAF0000EC0
:102CB0005CEC19F0C7C0DBF0C8C0DCF0C9C0DDF0C7
:102CC000CAC0DEF0310E0001EC19D8A417D0DBC069
:102CD000BAF0DCC0BBF0DDC0BCF0DEC0BDF0C7ECBC
:102CE0001EF00001E651140D080EF324D96E020EF9
:102CF000F420DA6EBAC0DEFFBBC0DDFFDBC0BAF085
:102D0000DCC0BBF0DDC0BCF0DEC0BDF0C7EC1EF027
:102D1000BAC0C4F0BBC0C5F00001E651B5EC1CF070
:102D20000001E56FE5511200126E1250D8A402D0D6
:102D3000000E40D01204D8A402D0090E3BD0020EDF
:102D40001218D8A402D0120E35D0030E1218D8A42F
:102D500002D01B0E2FD0040E1218D8A402D0240EBD
:102D600029D0050E1218D8A402D02D0E23D0060E9D
:102D70001218D8A402D0360E1DD0070E1218D8A4EF
:102D800002D03F0E17D0080E1218D8A402D0480E59
:102D900011D0090E1218D8A402D0510E0BD00A0E71
:102DA0001218D8A402D05A0E05D00B0E1218D8A4AF
:102DB00002D0630E106E000E116E10C00EF00F6A7E
:102DC00068D01104D8A421D01150020DF3CF05F022
:102DD000F4CF06F01250140D000E076E020E086EAE
:102DE000F3500726F450082205500724D96E0650E8
:102DF0000820DA6EDECF09F0DDCF0AF0D8900A3075
:102E00000C6E09300B6E0B5034D0030E1118D8A481
:102E100019D01150020DF3CF05F0F4CF06F0125087
:102E2000140D000E076E020E086EF3500726F450C4
:102E3000082205500724D96E06500820DA6EDF50AC
:102E40001F0F17D01150020DF3CF05F0F4CF06F08D
:102E50001250140D000E076E020E086EF350072676
:102E6000F450082205500724D96E06500820DA6E67
:102E7000DF500D6E0EC001F00FC002F00DC003F068
:102E8000BAEC24F0112A040E1118D8B4112A0E4AF3
:102E90000F2A1050056E066A090E0526000E06223E
:102EA00005500E5C06500F58D8B012008AD7C80ED5
:102EB0000001CC6F000ECD6F9CD0250ED119D8B477
:102EC00004D0D15103EC27F094D0000ECE6F02D085
:102ED000CE8D18D0C6C0F6FFC7C0F7FFC64BC72BB4
:102EE000F86A0800F5CFD1F0D151000AD8B4120029
:102EF000640AD8B407D00D0AD8B404D01C0AD8B4D8
:102F0000E7D777D0CEBD15D0CCC0D9FFCDC0DAFF82
:102F1000DECFCFF0DDCFD0F0020ECC27000ECD23D8
:102F2000D0AF13D0030ECE13CF6DD01FD8B0D02B9F
:102F30000CD0CCC0D9FFCDC0DAFFDECFCFF0DDCFD3
:102F4000D0F0020ECC27000ECD23010ED16FD1514F
:102F5000020D010EF324F66E100EF420F76EF86ADF
:102F6000000EF8220900F550CF5D0900F550D05948
:102F7000D8A005D0D12B050ED119D8A4E8D7CEC042
:102F8000CAF0030ECA17D8B403D02D0E03EC27F0F5
:102F9000D1C0CBF029D0CB51020D010EF324F66E37
:102FA000100EF420F76EF86A000EF8220900F5CF33
:102FB000BCF00A00F5CFBDF0CFC0BAF0D0C0BBF076
:102FC000D7EC21F0BAC0C1F0BBC0C2F0000E0001C6
:102FD000C46F0A0EC36F36EC23F00001C151300FED
:102FE000D16FD15103EC27F00001CB07CB29D8A436
:102FF000D2D7C6C0F6FFC7C0F7FF0001C64BC72B2C
:10300000F86A0800F5CFD1F0D151D8B4120055D7E5
:103010000F0E136E000E146E99D0250E1818D8B42A
:1030200004D0185035EC27F091D0000E156E02D068
:10303000158C18D00DC0F6FF0EC0F7FF0D4A0E2AF2
:10304000F86A0800F5CF18F01850000AD8B412003A
:10305000640AD8B407D00D0AD8B404D01C0AD8B476
:10306000E7D774D015BC15D013C0D9FF14C0DAFF50
:10307000DECF16F0DDCF17F0020E1326000E14225D
:1030800017AE13D0030E1512166C171ED8B0172AE0
:103090000CD013C0D9FF14C0DAFFDECF16F0DDCF9D
:1030A00017F0020E1326000E1422010E186E18508F
:1030B000020D010EF324F66E100EF420F76EF86A7E
:1030C000000EF8220900F550165C0900F55017585B
:1030D000D8A005D0182A050E1818D8A4E8D715C00E
:1030E00011F0030E1116D8B403D02D0E35EC27F0D5
:1030F00018C012F027D01250020D010EF324F66E04
:10310000100EF420F76EF86A000EF8220900F5CFD1
:1031100003F00A00F5CF04F016C001F017C002F06A
:103120002BEC22F001C008F002C009F0000E0B6E7B
:103130000A0E0A6E9BEC23F00850300F186E1850E0
:1031400035EC27F012061228D8A4D5D70DC0F6FF0B
:103150000EC0F7FF0D4A0E2AF86A0800F5CF18F0E6
:103160001850D8B4120059D7000E0001CB6F000ED2
:10317000A76F000EA86F610EEE19D8A46ED083BEA3
:1031800006D0A8510109A86F010ECB6F03D0A8513A
:10319000FE0BA86F83BC06D0A8510209A86F010ED0
:1031A000CB6F03D0A851FD0BA86F83BA06D0A851EE
:1031B0000409A86F010ECB6F03D0A851FB0BA86FB9
:1031C00083B806D0A8510809A86F010ECB6F03D0B1
:1031D000A851F70BA86F83B606D0A8511009A86FA5
:1031E000010ECB6F03D0A851EF0BA86F83B406D0AC
:1031F000A8512009A86F010ECB6F03D0A851DF0B97
:10320000A86F81BC06D0A8514009A86F010ECB6FF2
:1032100003D0A851BF0BA86F81BE06D0A85180096A
:10322000A86F010ECB6F03D0A8517F0BA86F80B899
:1032300006D0A7510109A76F010ECB6F03D0A7518C
:10324000FE0BA76F82B206D0A7510209A76F010E2D
:10325000CB6F03D0A751FB0BA76F330EEE19D8B479
:1032600083B805D0A8510809A86F010ECB6F610E75
:10327000EE19D8A402D0010E01D0000ECB15000922
:10328000D8B41200410EA46F570EA56F0A0EA66F98
:10329000A551A625A825A725A425200FA96FA40E12
:1032A0006B6F000E6C6F6BC0C8F06CC0C9F0060E7F
:1032B000CA6FC9EC22F012000001CF6F0001CF519C
:1032C000D8A4CAAF1AD0C7C0CBF0C8C0CCF0C9C010
:1032D000CDF0CAC0CEF0CB1FCC1FCD1FCE1FCB2B45
:1032E000000ECC23CD23CE23CBC0D1F0CCC0D2F066
:1032F000CDC0D3F0CEC0D4F008D0C7C0D1F0C8C084
:10330000D2F0C9C0D3F0CAC0D4F0C751C811C91196
:10331000CA11D8A409D0000EC76F000EC86F000EE6
:10332000C96F000ECA6F1200960ED06F06D0D02B58
:10333000D890D433D333D233D133000ED115CB6FE1
:10334000000ED215CC6F000ED315CD6FFE0ED41526
:10335000CE6FCB51CC11CD11CE11D8B40DD0E7D753
:10336000D02B010ED127000ED223D323D423D89003
:10337000D433D333D233D133000ED115CB6F000EFB
:10338000D215CC6F000ED315CD6FFF0ED415CE6FB6
:10339000CB51CC11CD11CE11D8B407D0E1D7D00785
:1033A000D890D137D237D337D437D3BF03D0020E1A
:1033B000D061F5D7D0A1D39FD890D033D0C0CBF077
:1033C000CC6BCD6BCE6BCBC0CEF0CD6BCC6BCB6B67
:1033D000CB51D113CC51D213CD51D313CE51D413E1
:1033E000CF51D8A4CAAF01D0D48FD1C0C7F0D2C0BA
:1033F000C8F0D3C0C9F0D4C0CAF01200166E16507F
:10340000D8A411AE1AD00EC012F00FC013F010C025
:1034100014F011C015F0121E131E141E151E122AD0
:10342000000E13221422152212C018F013C019F036
:1034300014C01AF015C01BF008D00EC018F00FC051
:1034400019F010C01AF011C01BF00E500F10101020
:103450001110D8A409D0000E0E6E000E0F6E000ED3
:10346000106E000E116E1200960E176E06D0172AFF
:10347000D8901B321A3219321832000E1814126EFC
:10348000000E1914136E000E1A14146EFE0E1B1487
:10349000156E1250131014101510D8B40DD0E7D7B4
:1034A000172A010E1826000E19221A221B22D89064
:1034B0001B321A3219321832000E1814126E000E16
:1034C0001914136E000E1A14146EFF0E1B14156ED1
:1034D0001250131014101510D8B407D0E1D71706E6
:1034E000D890183619361A361B361ABE03D0020E7B
:1034F0001760F5D717A01A9ED890173217C012F090
:10350000136A146A156A12C015F0146A136A126AF3
:10351000125018121350191214501A1215501B126F
:103520001650D8A411AE01D01B8E18C00EF019C0D1
:103530000FF01AC010F01BC011F01200216E2150C4
:103540001D6E1E6A2150140DEC0EF324D96E010E6F
:10355000F420DA6E1DC0DEFF1EC0DDFF2150140D09
:10356000EE0EF324D96E010EF420DA6E1350020D24
:10357000F3CFDEFFF4CFDDFF14501D6E1E6A215025
:10358000140DF00EF324D96E010EF420DA6E1DC076
:10359000DEFF1EC0DDFFE10E1D6EFF0E1E6E15501C
:1035A0001F6E206A1D501F261E5020222150140D10
:1035B000F20EF324D96E010EF420DA6E1FC0DEFF86
:1035C00020C0DDFF16501D6E1E6A2150140DF60E30
:1035D000F324D96E010EF420DA6E1DC0DEFF1EC08A
:1035E000DDFF17501D6E1E6A2150140DF80EF324D6
:1035F000D96E010EF420DA6E1DC0DEFF1EC0DDFFA5
:103600002150140DFA0EF324D96E010EF420DA6E57
:1036100018C0DEFF19C0DDFF1A501D6E1E6A215052
:10362000140DFC0EF324D96E010EF420DA6E1DC0C9
:10363000DEFF1EC0DDFF1B501D6E1E6A2150140DE3
:10364000FE0EF324D96E010EF420DA6E1DC0DEFFEB
:103650001EC0DDFF1C50D8B41200210494EC16F0FB
:103660001200000E0C6E000E0B6E000E0E6E000EA1
:103670000F6E040E0F18D8B470D00BC001F00CC040
:1036800002F0DDEC26F00D6E0F04D8A41DD00F5013
:10369000020DF3CF03F0F4CF04F00E50140D000E22
:1036A000056E020E066EF3500526F45006220350F6
:1036B0000524D96E04500620DA6E0D50020DF3CFAA
:1036C000DEFFF4CFDDFF47D0030E0F18D8A426D0BD
:1036D000E10E036EFF0E046E0D50056E066A035078
:1036E0000526045006220F50020DF3CF07F0F4CF49
:1036F00008F00E50140D000E096E020E0A6EF35003
:103700000926F4500A2207500924D96E08500A20CD
:10371000DA6E05C0DEFF06C0DDFF1DD00D50036E62
:10372000046A0F50020DF3CF05F0F4CF06F00E50EF
:10373000140D000E076E020E086EF3500726F450AB
:10374000082205500724D96E06500820DA6E03C0FF
:10375000DEFF04C0DDFF0B4A0C2A0F2A090E0F649E
:1037600088D70E2A0B0E0E6482D71200000E0001BD
:10377000DB6F000EDA6F000EDD6F200EC66F100ECD
:10378000C76F57EC17F0000E0001DE6F040EDE1954
:10379000D8B464D0DE05D8A421D0DE51020DF3CF19
:1037A000D2F0F4CFD3F0DD51140D000ED46F020E21
:1037B000D56FF350D427F450D523D251D425D96EE8
:1037C000D351D521DA6EDECFD6F0DDCFD7F0D89049
:1037D000D731D96FD631D86FD85134D0030EDE1916
:1037E000D8A419D0DE51020DF3CFD2F0F4CFD3F02C
:1037F000DD51140D000ED46F020ED56FF350D42797
:10380000F450D523D251D425D96ED351D521DA6EB7
:10381000DF501F0F17D0DE51020DF3CFD2F0F4CFDF
:10382000D3F0DD51140D000ED46F020ED56FF3509E
:10383000D427F450D523D251D425D96ED351D521D4
:10384000DA6EDF50DC6FDAC0BAF0DBC0BBF0DCC090
:10385000BCF07CEC24F00001DA4BDB2BDE2B090EF4
:10386000DE6594D7DD2B0B0EDD6587D71200000EC9
:10387000226E000E216E000E246E200E0D6E100EB4
:103880000E6E08EC18F0000E256E040E2518D8B444
:1038900063D02504D8A421D02550020DF3CF19F010
:1038A000F4CF1AF02450140D000E1B6E020E1C6E85
:1038B000F3501B26F4501C2219501B24D96E1A50A9
:1038C0001C20DA6EDECF1DF0DDCF1EF0D8901E304A
:1038D000206E1D301F6E1F5034D0030E2518D8A443
:1038E00019D02550020DF3CF19F0F4CF1AF024505F
:1038F000140D000E1B6E020E1C6EF3501B26F450AE
:103900001C2219501B24D96E1A501C20DA6EDF506D
:103910001F0F17D02550020DF3CF19F0F4CF1AF076
:103920002450140D000E1B6E020E1C6EF3501B264D
:10393000F4501C2219501B24D96E1A501C20DA6E28
:10394000DF50236E21C001F022C002F023C003F03B
:10395000BAEC24F0214A222A252A090E256495D79B
:10396000242A0B0E246489D712000001D26F000EA6
:103970000001D16FD251140D080EF324D96E020E3E
:10398000F420DA6EDECFC6F0DDCFC7F0D251140DD1
:103990000C0EF324D96E020EF420DA6EDECFC8F0DE
:1039A000DDCFC9F0D890C931CB6FC831CA6FC651CD
:1039B000CA25CC6FC751CB21CD6FD251140D0C0E3F
:1039C000F324D96E020EF420DA6EDECFC6F0DDCF1E
:1039D000C7F0D890C731C96FC631C86FD251140D26
:1039E000080EF324D96E020EF420DA6EDECFCAF090
:1039F000DDCFCBF0C851CA5DCE6FC951CB59CF6F67
:103A0000000ED06F14D0C451CC5DC551CD59D8B083
:103A100002D0000E07D0CE51C45DCF51C559D8B0E9
:103A200002D0010ED16FD151D8B412D0D02BD251C7
:103A3000140D0E0EF324D96E020EF420DA6ED0515E
:103A4000C86FC96BDE50C85DDE50C959D8A0DBD73E
:103A5000D1511200000E0001BA15C26F000EBB1545
:103A6000C36F800EBC15C46F7F0EBD15C56FC251EC
:103A7000C311C411C511D8A408D0000EBA6F000E2E
:103A8000BB6F000EBC6F000EBD6F000EBE15C26F87
:103A9000000EBF15C36F800EC015C46F7F0EC11519
:103AA000C56FC251C311C411C511D8A408D0000EEE
:103AB000BE6F000EBF6F000EC06F000EC16FBDAFB6
:103AC00009D0BA6DBB1FD8B0BB2BBC1FD8B0BC2B64
:103AD000800EBD57C1AF09D0BE6DBF1FD8B0BF2B80
:103AE000C01FD8B0C02B800EC157000EBA1B000EED
:103AF000BB1B000EBC1B800EBD1B000EBE1B000EB0
:103B0000BF1B000EC01B800EC11BBE51BA5DBF5152
:103B1000BB59C051BC59C151BD59D8B002D0D89081
:103B20001200D8801200000E0001D66F200EC66F62
:103B3000100EC76F57EC17F0000E0001D76F030E81
:103B4000D719D8A421D0100EC66F100EC76FD75149
:103B5000020DF3CFD2F0F4CFD3F0D651140D000EF6
:103B6000D46F020ED56FF350D427F450D523D25121
:103B7000D425D96ED351D521DA6EDECFC8F0DDCF92
:103B8000C9F057EC17F020D0180EC66F100EC76F93
:103B9000D751020DF3CFD2F0F4CFD3F0D651140D9C
:103BA000000ED46F020ED56FF350D427F450D523F6
:103BB000D251D425D96ED351D521DA6EDECFC8F0DB
:103BC000DDCFC9F057EC17F00001D72B090ED765F0
:103BD000B6D7D62B0B0ED665A9D7200EC66F100E02
:103BE000C76F57EC17F0200E0001C66F100EC76F9D
:103BF00057EC17F01200000E0114096E000E0214AB
:103C00000A6E800E03140B6E7F0E04140C6E0950A6
:103C10000A100B100C10D8A408D0000E016E000E74
:103C2000026E000E036E000E046E000E0514096E87
:103C3000000E06140A6E800E07140B6E7F0E081419
:103C40000C6E09500A100B100C10D8A408D0000EEE
:103C5000056E000E066E000E076E000E086E04AEB6
:103C600009D0016C021ED8B0022A031ED8B0032A64
:103C7000800E045608AE09D0056C061ED8B0062A80
:103C8000071ED8B0072A800E0856000E011A000E33
:103C9000021A000E031A800E041A000E051A000EF6
:103CA000061A000E071A800E081A0550015C06500D
:103CB00002580750035808500458D8B002D0D89082
:103CC0001200D8801200000E1D6E200E0D6E100E18
:103CD0000E6E08EC18F0000E1E6E030E1E18D8A40F
:103CE00021D0100E0D6E100E0E6E1E50020DF3CF71
:103CF00019F0F4CF1AF01D50140D000E1B6E020EB9
:103D00001C6EF3501B26F4501C2219501B24D96E34
:103D10001A501C20DA6EDECF0FF0DDCF10F008EC69
:103D200018F020D0180E0D6E100E0E6E1E50020DE3
:103D3000F3CF19F0F4CF1AF01D50140D000E1B6EC6
:103D4000020E1C6EF3501B26F4501C2219501B242B
:103D5000D96E1A501C20DA6EDECF0FF0DDCF10F0D6
:103D600008EC18F01E2A090E1E64B7D71D2A0B0E88
:103D70001D64ABD7200E0D6E100E0E6E08EC18F001
:103D8000200E0D6E100E0E6E08EC18F012000001E1
:103D9000BC35BD35C36FC351D8A409D0000EBA6F6E
:103DA000000EBB6F000EBC6F000EBD6F1200BAC0DC
:103DB000BEF0BBC0BFF0BCC0C0F0BDC0C1F0200EA3
:103DC00005D0D890C133C033BF33BE33E82EF9D706
:103DD000BE51C26FBC8FFF0EBA17FF0EBB17FF0E8E
:103DE000BC17000EBD17960EC35FC3AF0DD0C351F5
:103DF000800A970FD8A0D2D7D890BD33BC33BB333D
:103E0000BA33C33FF9D70DD01F0EC36507D0C6D74D
:103E1000D890BA37BB37BC37BD37C307C351D8A416
:103E2000F7D7C251D8B408D0BD1FBC1FBB1FBA6D95
:103E3000000EBB23BC23BD23BAC0BAF0BBC0BBF08D
:103E4000BCC0BCF0BDC0BDF01200033404340A6E27
:103E50000A50D8A409D0000E016E000E026E000EAA
:103E6000036E000E046E120001C005F002C006F0E1
:103E700003C007F004C008F0200E05D0D890083227
:103E8000073206320532E82EF9D70550096E038E47
:103E9000FF0E0116FF0E0216FF0E0316000E04168B
:103EA000960E0A5E0AAE0DD00A50800A970FD8A06F
:103EB000D2D7D89004320332023201320A3EF9D707
:103EC0000DD01F0E0A6407D0C6D7D890013602362F
:103ED000033604360A060A50D8A4F7D70950D8B4D6
:103EE00008D0041E031E021E016C000E02220322D3
:103EF000042201C001F002C002F003C003F004C0BC
:103F000004F01200FACF43F0FBCF44F0E1CF45F0CC
:103F1000E2CF46F0D9CF47F0DACF48F0F3CF49F0FF
:103F2000F4CF4AF0F6CF4BF0F7CF4CF0F8CF4DF08E
:103F3000F5CF4EF09DBA9EAA0FD001D80AD0050049
:103F4000FA6E00017D51FD6E7E51FE6EFF6AFA50E1
:103F5000120012EC08F017D09DBC9EAC0FD056ECAE
:103F600027F08BA002D0010E01D0000EFF0A426E96
:103F70008B504218FE0B42188B6E05D0F2BAF2A499
:103F800002D020EC26F04EC0F5FF4DC0F8FF4CC02B
:103F9000F7FF4BC0F6FF4AC0F4FF49C0F3FF48C02B
:103FA000DAFF47C0D9FF46C0E2FF45C0E1FF44C089
:103FB000FBFF43C0FAFF5F9211000001BF6F0001D9
:103FC00064B139D0BCC0D9FFBDC0DAFF020EDF6ECC
:103FD00020EE01F06051D9266151DA22BAC0DEFF2D
:103FE000BBC0DDFF60C0D9FF61C0DAFFBFC0DFFF2B
:103FF00020EE03F06051D9266151DA22BCC0DEFF09
:10400000BDC0DDFF050E6027000E6123AF0E6019F5
:1040100008E1000E6119D8A404D0AA0E606F000E4A
:10402000616F6493605162190CE161516319D8A406
:1040300008D0648106D0BCC0D9FFBDC0DAFF010E34
:10404000DF6EBCC0D9FFBDC0DAFF020EDE18D8A4F7
:1040500012003FEC27F0A48E1200690E0001932598
:10406000D96EDA6A010EDA22000EDF6EABA414D02C
:10407000690E9325D96EDA6A010EDA220101DF8218
:1040800001D80AD00500FA6E00017951FD6E7A510F
:10409000FE6EFF6AFA501200ABA215D0690E000145
:1040A0009325D96EDA6A010EDA220101DF8401D884
:1040B0000AD00500FA6E00017751FD6E7851FE6E50
:1040C000FF6AFA501200690E00019325D96EDA6A70
:1040D000010EDA22DF50D8B40BD001D8120005004F
:1040E000FA6E7551FD6E7651FE6EFF6AFA5012003F
:1040F00097EC26F01200000E0001C26F000EC36F95
:10410000000EC46F000EC56FBE51BF11C011C111AA
:10411000D8B42AD0010EC66F06D0D890BE37BF37AC
:10412000C037C137C62BC1AFF8D7D890C237C33715
:10413000C437C537BE51BA5DBF51BB59C051BC5918
:10414000C151BD59D8A009D0BE51BA5FBF51BB5BA8
:10415000C051BC5BC151BD5BC281D890C133C0337B
:10416000BF33BE33C62FE1D7C2C0BAF0C3C0BBF065
:10417000C4C0BCF0C5C0BDF01200000E096E000E38
:104180000A6E000E0B6E000E0C6E05500610071026
:104190000810D8B42AD0010E0D6E06D0D89005367E
:1041A0000636073608360D2A08AEF8D7D8900936F5
:1041B0000A360B360C360550015C06500258075083
:1041C000035808500458D8A009D00550015E065085
:1041D000025A0750035A0850045A0980D8900832EE
:1041E0000732063205320D2EE1D709C001F00AC0B0
:1041F00002F00BC003F00CC004F01200020EF66EC9
:10420000440EF76E000EF86E01EE00F010EE53F063
:104210000900F5CFEEFFE550E150FAE1920EF66E9F
:104220004E0EF76E000EF86E00EEEAF010EE05F09E
:104230000900F5CFEEFFE550E150FAE102EE00F0A3
:10424000F00EEE6AE806FDE101EE53F0440EEE6A70
:10425000E806FDE100EE60F0500EEE6AE806FDE1D2
:1042600000EE4FF0100EEE6AE806FDE15F905F92FF
:10427000000147EF25F0F29C9D9A30EC27F00F01EA
:104280004583C8C0C0F0C9C0C1F0EFEC22F04EECCD
:1042900027F0F294F2A4FED74CEC27F00F014593DF
:1042A0004481C8C0C0F0C9C0C1F0EFEC22F04EECB0
:1042B00027F0F294F2A4FED74CEC27F00F014491C2
:1042C0009E9CC2829EACFED7C3CFCAF0C4CFCBF0B7
:1042D0009E9CF28C9D8ACAC0C8F0CBC0C9F0120067
:1042E000F29C9D9A3AEC27F00F0145830FC007F02E
:1042F00010C008F058EC23F054EC27F0F294F2A42C
:10430000FED752EC27F00F01459344810FC007F010
:1043100010C008F058EC23F054EC27F0F294F2A40B
:10432000FED752EC27F00F0144919E9CC2829EACB6
:10433000FED7C3CF11F0C4CF12F09E9CF28C9D8AA1
:1043400011C00FF012C010F012009D9A5A0E000119
:10435000BA6F400EBB6F1CEC27F0080EB86E900EC3
:10436000AB6E240EAC6EE10EAF6E040EB06EB20EEC
:104370000001BA6F4E0EBB6F26EC27F0860E0001CF
:10438000BA6F4E0EBB6F21EC27F08C0E0001BA6F96
:104390004E0EBB6F2BEC27F0000E0001916F000E4C
:1043A000936F000E5C6E000E5B6E9D8A1200000E15
:1043B0000001C06F000EBF6FBC51BD11D8B41CD03E
:1043C000010EBE6F04D0D890BC37BD37BE2BBDAF39
:1043D000FAD7D890BF37C037BC51BA5DBD51BB5971
:1043E000D8A005D0BC51BA5FBD51BB5BBF81D8908E
:1043F000BD33BC33BE2FEDD7BFC0BAF0C0C0BBF0D9
:1044000012002449643A42454E54574F4F442028E5
:104410004329204B2D54524F4E494320732E722E68
:104420006C2E3B202056657220312E302E30202DF0
:104430002031352E30352E31390F0010270A000873
:104440000009000B000D0000000100020003000540
:054450000006000C0055
:10445600000E066E000E056E03500410D8B41CD074
:10446600010E076E04D0D89003360436072A04AE30
:10447600FAD7D890053606360350015C0450025828
:10448600D8A005D00350015E0450025A0580D8908A
:1044960004320332072EEDD705C001F006C002F044
:1044A60012000001CC6F0001CC51040DF350060F31
:1044B600946F000E956F000E966FCBC097F0CA51A1
:1044C6000F0B986F940EC36F000EC46F050EC56F69
:1044D600000EC76F410EC66FAF0EC86F000EC96FD4
:1044E600A2EC22F0020E0001AF19D8A41200FAD7EE
:1044F6000001CC6F0001CC51040DF350060F946FF0
:10450600000E956F000E966FCBC097F0CA510F0B39
:10451600986F940EC36F000EC46F050EC56F000E24
:10452600C76F400EC66FAF0EC86F000EC96FA2EC04
:1045360022F0020E0001AF19D8A41200FAD700012A
:1045460064B11DD0920EBA6F010EBB6FC3C0BCF032
:10455600C4C0BDF0C5C0BEF0C6C0BFF0C7C0C0F085
:1045660013EC23F0920E0001BA6F010EBB6FC8C0A8
:10457600BCF0C9C0BDF0010EDDEC1FF01200C8C0D2
:10458600D9FFC9C0DAFF010EDF6E120019D09251B1
:10459600C825D96E000EC921DA6EDF500AEC27F065
:1045A6007D0E0001C16F000EC06FEFEC22F04EECE5
:1045B60027F0F294F2A4FED74CEC27F00001922BE0
:1045C6000001CA51925DD8A0E2D7CA519219D8A467
:1045D6001200000E926F1200C0C0BAF0C1C0BBF04C
:1045E600000E0001BD6F0C0EBC6F35EC26F0BAC094
:1045F600C4F0BBC0C5F00001C41DC66FC51DC76FA2
:10460600C751D76EC6C0D6FFD650D7CFC2F0C36B40
:10461600C2C0C3F0C26BC2114F6EC351506E1200BE
:10462600BFC0C1F0C0C0C2F0D8900001C137C237C8
:10463600BAC0D9FFBBC0DAFFC1C0DEFFC2C0DDFF12
:1046460020EE02F0BA51D926BB51DA22BEC0DFFFF6
:1046560020EE03F0BA51D926BB51DA22BCC0DEFFE8
:10466600BDC0DDFF12000001C351C411D8B418D07B
:10467600010EC56F04D0D890C337C437C52BC4AF5D
:10468600FAD7C351C15DC451C259D8A004D0C35191
:10469600C15FC451C25BD890C433C333C52FF1D7B1
:1046A600C1C0C1F0C2C0C2F0120007C001F008C00C
:1046B60002F0000E046E0C0E036E71EC26F001C0C3
:1046C6000BF002C00CF00B1C0D6E0C1C0E6E0E5087
:1046D600D76E0DC0D6FFD650D7CF09F00A6A09C0EB
:1046E6000AF0096A09104F6E0A50506E1200000156
:1046F600B26F6B84000120EE03F07151D92672511E
:10470600DA22DE50DE10D8B410D020EE03F071515C
:10471600D9267251DA22DECFB0F0DDCFB1F0B0C0CB
:10472600D9FFB1C0DAFFB2C0DFFF000E5A6E120029
:104736000A500B10D8B418D0010E0C6E04D0D890C5
:104746000A360B360C2A0BAEFAD70A50085C0B5009
:104756000958D8A004D00A50085E0B50095AD890C0
:104766000B320A320C2EF1D708C008F009C009F046
:1047760012000001CB6FFA0E0001946FCAC095F0CB
:10478600CB510F0B966F940EC36F000EC46F030EC2
:10479600C56F000EC76F410EC66FAF0EC86F000E15
:1047A600C96FA2EC22F0020E0001AF19D8A41200C4
:1047B600FAD70001CB6FFC0E0001946FCAC095F0CA
:1047C600CB510F0B966F940EC36F000EC46F030E82
:1047D600C56F000EC76F410EC66FAF0EC86F000ED5
:1047E600C96FA2EC22F0020E0001AF19D8A4120084
:1047F600FAD70001CB6FFA0E0001946FCAC095F08C
:10480600CB510F0B966F940EC36F000EC46F030E41
:10481600C56F000EC76F400EC66FAF0EC86F000E95
:10482600C96FA2EC22F0020E0001AF19D8A4120043
:10483600FAD70001CB6FFC0E0001946FCAC095F049
:10484600CB510F0B966F940EC36F000EC46F030E01
:10485600C56F000EC76F400EC66FAF0EC86F000E55
:10486600C96FA2EC22F0020E0001AF19D8A4120003
:10487600FAD7000E8D6E000E8C6E000E896E000E3D
:104886008A6E000E8B6E030E966E92689368BA0E51
:10489600946E9568000E0F013B6F3C0E3A6F3F0E0B
:1048A600396F070E3C6F2F0E386F000E616EF18E5A
:1048B600120021EE00F010EE02F0380EDBCFE3FF1F
:1048C600E806FCE2000E3C6E000E3B6E020E3B2438
:1048D600D96E000E3C20DA6EDF5011EC27F03B4A11
:1048E6003C2A3C5005E1390E3B5CD8B01200EED7AD
:1048F6001200000EF2BE010E0001BD6FBB51030B8C
:10490600AA6EBAC0A9FFBCC0A8FFA69EA69CA68494
:10491600F29E550EA76EAA0EA76EA682A6B2FED767
:10492600A6940001BDB102D0F29E01D0F28E120013
:104936005B50D8B4FDD7690E5C24D96EDA6A010ED5
:10494600DA22DF500001916F790E5C24D96EDA6AA3
:10495600010EDA22DF50016E5C2A070E5C6402D07B
:10496600000E5C6E9D9A5B069D8A01501200000E39
:10497600F2BE010E046E0250030BAA6E01C0A9FF1F
:1049860003C0A8FFA69EA69CA684F29E550EA76EFF
:10499600AA0EA76EA682A6B2FED7A69404B002D02F
:1049A600F29E01D0F28E12000001CB6FFE0E0001C6
:1049B600946FCBC095F0940EC36F000EC46F020EB9
:1049C600C56FCAC0C6F0C76BAF0EC86F000EC96F01
:1049D600A2EC22F0020E0001AF19D8A41200FAD7F9
:1049E6000001CB6F010E0001946FCBC095F0940EC1
:1049F600C36F000EC46F020EC56FCAC0C6F0C76B88
:104A0600AF0EC86F000EC96FA2EC22F0020E0001B5
:104A1600AF19D8A41200FAD70001CB6F000E00011F
:104A2600946FCBC095F0940EC36F000EC46F020E48
:104A3600C56FCAC0C6F0C76BAF0EC86F000EC96F90
:104A4600A2EC22F0020E0001AF19D8A41200FAD788
:104A5600D59CD7680F0ED66ED650D7CFBCF00001C6
:104A6600BD6BBCC0BDF0BC6BBC114F6EBD51506E72
:104A7600F294F28AB00EBA6F4E0EBB6F17EC27F0A7
:104A86009C0ED56ED59E120095EC25F0F28EF28C1A
:104A9600F28CD58CF29A4CEC27F04E0E0001E96FA1
:104AA600EB0EE82EFED7E92FFCD7F5EC25F0DBEC74
:104AB6000EF061EC12F0B4EC18F0F9D7AA0E000172
:104AC600626F000E636FAA0E606F000E616F6483E3
:104AD6006491000E666F800E6D6E280E6C6E000E71
:104AE600696E200E6E6EA49EA49CA38EA38C1200EB
:104AF60093820F0139839384398593863987938806
:104B06003989938A398B928038819282388392844C
:104B160038859286388796803C8196823C8393803E
:104B260039811200FCEC26F03CEC24F0F3EC26F084
:104B360061EC25F0E9EC26F0C6EC25F0A8EC26F0B1
:104B46002BEC25F0A5EC21F07BEC25F0AEEC25F066
:104B5600C3EC14F012000F01459F459B45994597FC
:104B6600459545934591448F9F0E44174489F30E0E
:104B7600441744934491030E43174351FC0B010918
:104B8600436FA4961200830EC216C292C280C19EC3
:104B9600FC0EC116F30EC116C08EC050C70B080915
:104BA600C06EC050F80B0609C06E000EC36E000E34
:104BB600C46E9D8C1200036E000E046E0350016ECF
:104BC600026A0450140D0C0EF324D96E020EF42062
:104BD600DA6E01C0DEFF02C0DDFF042A0B0E04649C
:104BE600EDD71200000E0001DF6F3B0ED56F010EF0
:104BF600D66FDFC0D7F003EC0DF00001DF2B0B0EF4
:104C0600DF65F3D7B6EC1BF0590E0AEC27F012005D
:104C16000001BBAF0DD0BAC0BCF0BBC0BDF0BC1F1D
:104C2600BD1FBC4BBD2BBCC0BAF0BDC0BBF0120053
:104C3600BAC0BAF0BBC0BBF01200F2945050D76EA7
:104C46004FC0D6FF00017B517C11D8B4120001D8A9
:104C560012000500FA6E7B51FD6E7C51FE6EFF6AF6
:104C6600FA5012000001BA51BC03F3CFBEF0F4CFE4
:104C7600BFF0BA51BD03F350BF27BB51BC03F3507D
:104C8600BF27BEC0BAF0BFC0BBF01200000E3F6E19
:104C96003B0E1C6E010E1D6E3FC01EF0AEEC10F0FA
:104CA6003F2A0B0E3F64F4D737EC1CF0590E11EC7B
:104CB60027F0120002AE0DD001C003F002C004F0CE
:104CC600031E041E034A042A03C001F004C002F0B6
:104CD600120001C001F002C002F0120001500302EE
:104CE600F3CF05F0F4CF06F001500402F350062688
:104CF60002500302F350062605C001F006C002F07A
:104D06001200036E390E036402D0090E0326390E13
:104D1600016402D0090E012601C002F00F0E021630
:104D26000338F00B02101200790E00019325D96E9C
:104D3600DA6A010EDA22AECFDFFF932B070E9365F8
:104D460002D0000E936F5B2A1200000ECC6EFB0E93
:104D5600CF6E500ECE6ECECF6DF0CFCF6EF09E9052
:104D6600010ECD6E12000001BB6FBBC0BAF0000190
:104D7600BA47BA47C250BA19830BBA19C26EC28073
:104D86001200050E00017327000E7423592E03D05E
:104D9600040E5A6E1200010E5A6E1200026E02C006
:104DA60001F001460146C2500118830B0118C26E7C
:104DB600C28012000250030BAA6E01C0A9FFA69C76
:104DC600A69EA68000F000F0A85012000A0E0F0161
:104DD600546F000E556F000E566FF30E48171200F3
:104DE600500ED36E040ED26E000E9B6ED2BE120013
:104DF600FDD7D08E9F8A9F8CF184A59EA59C12001C
:104E06000001BB6F0001BB510AEC27F01200000144
:104E1600BA6F9EA8FED7BAC0ADFF1200016E9EA85B
:104E2600FED701C0ADFF1200BAC07BF0BBC07CF05C
:104E36001200BAC07DF0BBC07EF01200BAC077F097
:104E4600BBC078F01200BAC079F0BBC07AF012008D
:104E5600BAC075F0BBC076F012000F01458F4491C1
:104E660044931200026E025011EC27F012000F015B
:104E7600458F4491449312005A50D8B41200FCD77F
:104E8600AB98AB88120097EC26F01200007D30300C
:014E960062B9
:104E9800D59E1200D58E1200A49C1200D59E120039
:0C4EA800D58E12009E9C12001200120019
:020000040020DA
:08000000FFFFFFFFFFFFFFFF00
:020000040030CA
:0E000000FF331F3CFFBF85FF0FC00FE00F4016
:00000001FF
