:020000040000fa
:080000000002040000000000f2
:020000040000fa
:100400002fb823000eff2d000e0188000000000011
:100410000c000700c0b52e00110020000f000700df
:10042000000020000000e000020032000000020096
:1004300000000000ba740200010000000040da0071
:100440000000fe0080ce25000000e0000200320027
:10045000002020009001880000000600a102880012
:10046000800078000000eb001a003700e2804000b6
:1004700054a0b4009101ba00e280400054a0b4003e
:100480009102ba00e280400054a0b4000002eb00e8
:10049000472bde00f507b200a6018800602ce100c2
:1004a00008003a000049eb000201e80002003900b0
:1004b0003420ec0002f0a0008301e900f9ff3e00c7
:1004c000040037006128e100010032000082eb00e7
:1004d000040007001101ba000200e000e3ff3a0047
:1004e0000000060004d0a300e20f49001c00390000
:1004f000810278003549ba000201e80002003900a3
:100500003420ec0002f0a0008301e9000f0032006b
:100510002549ba000201e800020039003420ec004d
:1005200002f0a0008301e900080032000400e000ae
:100530000600320015c9ba000201e80002003900c5
:100540003420ec0002f0a0008301e9008180e80083
:1005500054a0b4000300e000e2ff3a0000000600ef
:100560009102ba00055978008301e900f7ff3200d3
:10057000c82ade00055978008301e900f3ff320044
:100580000400e000f1ff320011d9ba00eeff37009d
:100590001ae30400010000002ee304000100000043
:1005a000d6dc040001000000a2dd04000100000010
:1005b0000040da000000fe0000e8a900674160008a
:1005c0004411dd0033842000f1c8b30093c0600003
:1005d00082c97000680060004300de004700dd0053
:1005e00001822000914078000174a10080c0700059
:1005f0000100780020e8b700000006000621ef00a7
:1006000061088800800888001061a90000000600c9
:100610001421ef00d1088800f00888001e61a900ad
:100620000000060003f0a200889fbe008a9fbe0063
:100630008c1f7800b9000700c00033006450e1004f
:100640004f0032006420e1005200320003826c004f
:1006500007003b000905d0000306d000820f5400bc
:100660000c065d00020039000200320089017800aa
:10067000030678008582550004003d000003fd005c
:100680008103fd008502ea008b854200840f720021
:1006900002003b0060001000e08018006011b8000c
:1006a0000005eb007a28e1000a0039000600780016
:1006b000c75ddd00f707b200878075002d003700a9
:1006c000828171000a017800610560008180d1009b
:1006d0000080d3008502e900f9ff3b0006044000da
:1006e0008784480002003b0060041400e0841c0082
:1006f0000988a300070032008a817100828171009d
:10070000610164008904d1000884d3008b05e800ee
:10071000170037000978a30013003a000b00e0002f
:10072000130034008b05e9000804440089844c0060
:100730000a4474000978a3000d003a000b00e000a1
:10074000070034008b05e9000804440089844c004c
:1007500001003a000b0020000978a300f7ff3200e7
:100760000001eb0002003700828171000a0178006d
:10077000440007000cf0a70001f0a000780037004b
:100780006420e10002003a00838f6c00780033009f
:100790000801be000200be0071003700839f6800a0
:1007a0000100e00002003d0060001000e080180041
:1007b0000300e00002003d0060011100e08119002b
:1007c000510107004f00e00002003b0060001000f4
:1007d000e080180000000600889fbe008a9fbe00cf
:1007e000010578000100e0000400350008003c002d
:1007f0000000e0002000320005003700600010001b
:10080000e080180002003b0001f02c001a003700c5
:100810000004be006011b8006b0920000982cf00ff
:10082000020039000882cf000441b0006942520042
:100830000e00320008003b008281710061016400fb
:100840008904d1000884d3008b05e8000442e80045
:10085000f9ff3a00050037000804440089844c0081
:100860008b05e9000442e900fbff3a0005000700a0
:100870000af0a70001f0a0004f05be004f04be0023
:100880000000060081002000618055000b003d0043
:100890000b00200061fe2f000100e1001d0034006c
:1008a00082817100610164008904d1000884d30051
:1008b0000000e800faff3a007100200061006400c7
:1008c000030070000200600009003200610444006f
:1008d000e0844c000988a500050032008b05e80083
:1008e0006808e10002003a008904d1000884d300be
:1008f000f20f20000258e10005003d00c75ddd0059
:10090000f907b20089807500080078000000060031
:100910000bf827008b007800000005000004be00e3
:10092000250307000003be000405be000200be0050
:1009300021030700844f7500000006000200be007e
:100940006450e100050036006420e100020036003a
:100950000968a30001003a000800be000160a00081
:100960004f0678004f05be004f04be000000060091
:10097000f0ff2f00f1ff2700f9ff37000c00fa000d
:10098000889fbe008a9fbe008c9fbe00e3ff0700c9
:100990000206be00840578000200be0002002000ae
:1009a000b902070005003a008b02b30012002000d4
:1009b000b502070001003a00f8856d000c01be0089
:1009c000c60007000800be009b0032000b08a30011
:1009d0009e003a000df0a7000be0a00009f0a70070
:1009e0000bf0a00009f0a1000801be00bb00070049
:1009f0000bf0a6009500320001003c000bd0a000d7
:100a00008acf7500b20033006000b8006250e10088
:100a100099003900a1003e000b28a300a2003a0073
:100a20000bf8a300060032000b58a300a700320009
:100a30000801be00a90007000800be0094003200b3
:100a40000800be00df0107000004be0005057800b5
:100a50000bf0a7000b30a6000bf0a1005b0798007d
:100a6000324f200053f32300ae02070005003d0083
:100a70000800be0012002000e40207000004be00cf
:100a80000a05e9004a0798006150b90052ff0700c3
:100a9000008fbe000c01be0055030700a502070031
:100aa000300798000100e00002003d0060001000e7
:100ab000e0801800f2ff2700820f5000e08f5800fe
:100ac00064003e000c00be009a0207002007980058
:100ad000f2072000820f5000e08f580005003c0014
:100ae00012f82f00f3ff2f00820f5000838f580061
:100af00009003d000a00e0000300320001003c0054
:100b00000201ea00020578006000b80020079800a2
:100b10003a079800190037003e0090006100b900c4
:100b20002dff0700809fbe000c00be004109dd00c4
:100b30004811de007208b100530207000005be0034
:100b40001e01be002a0307004f01be00b5fe0700cc
:100b5000809fbe000c00be000a01be00b1fe07006f
:100b60001e01be00220307004f01be00aefe0700bb
:100b70008221270013f323001d0307000005be0098
:100b80002e0090006100b90013ff070001f0a200e1
:100b90000c01be00a4fe07000006be000800be0057
:100ba000bc0207000c01be00110307000a01be00d1
:100bb0009dfe0700809fbe004a0007002e059000a2
:100bc0000af0a7000a05ea00050037000800be0089
:100bd0000801be00060307000004be000c00be00b2
:100be0000801be000a00a700010307000006be00be
:100bf0000a05d100f5ff3a005e01900002e0a60070
:100c0000030037000001be00360007007a0107002c
:100c10000004be004f00be00b90107000801be007d
:100c2000f30207003e01900078020700de05900005
:100c30000bf0a70001f0a2004f06be004f05be005a
:100c40004f04be000080fa000000060025000700e7
:100c5000f9ff3700270007006000b8000bd0a7009d
:100c60000bc0a0000be0a7000bc0a2000bc0a700a8
:100c700001f82700f0ff37000df8a3000200320052
:100c80001e000700190007000bf8a300eaff32005e
:100c90000b30a70001f0a200e7ff37000df8a3001a
:100ca000f9ff3a00f7ff37000801be000b0007000c
:100cb000e6ff320001003c000df0a2006000b80029
:100cc0000df0a70009000700dbff37000b0007004d
:100cd000f1ff2700f0ff2f00d7ff370001000700ca
:100ce0001002370001f823000000050001f827007a
:100cf0000000050020022000010037001002200043
:100d000000808800000006006022b8000602200073
:100d10000000d0008180d2000482d2008582d200ff
:100d20000000a0000202520083825a00030031003a
:100d30000202420083824a000000a1000603e9008b
:100d4000f3ff3a0000000600efff07000400be00ba
:100d500000000600881f7800000478005001be00e3
:100d60004000be00040040008580480006014900a4
:100d700087814900009cbe000294be000400e1008f
:100d80000588e1000690e1000798e10002003100cb
:100d9000680044001008e8004f04780000000600d6
:100da000f4874700889fbe008a9fbe008c9fbe00cc
:100db0008e1f78000205be000004be00d4b79f005d
:100dc000e5b79f00f6b79f0087bf9f000000eb00cc
:100dd000c0b79f00b0b79f00a0b79f0090b79f001b
:100de00080b79f000d042000bfb097004fb0970060
:100df000000140000000e0000f003d004f08de0051
:100e000000007100c0b79f004d00070001003d00c9
:100e1000120020005000070001003d0012002000d9
:100e20005500070061000700660007000f00400042
:100e3000c8ff0700220037004f08de0000067100df
:100e4000ccb79f003e00070001003d0012002000cb
:100e50004100070001003d0012002000460007008d
:100e6000520007000fb297009fb297002fb3970070
:100e7000bfb39700590007000000520081805a005c
:100e800002015b0083815b0080b79f0091b79f00e8
:100e9000a2b79f00b3b79f000007eb004f00070009
:100ea0000020e10001a8e10002b0e10003b8e10088
:100eb000010031001e0020000e005600c0b79f0048
:100ec0004fb297000400e00007003500100020003a
:100ed000010020006011b8000804700089847000cf
:100ee0000a0571008b8571008d06e900beff3a008e
:100ef0000400e00003003d00320007000f00400046
:100f000094ff07004fa897000000e00004003a009b
:100f10000fb497009fb497002fb59700bfb5970007
:100f20000800be000a01be004f0778004f06be0051
:100f30004f05be004f04be004f01b1000000060087
:100f40000180400090b79f000001eb008fb0970038
:100f50000100e000000006000200700090b79f0052
:100f60000180400080b79f000001eb00ffa89700c0
:100f70000100e000000006000200700080b79f0042
:100f8000018040006faa9700cf20de0001007000b2
:100f9000f0af9f00040242000800be000a01be003c
:100fa0004f18de000002720000000600e4af9f0050
:100fb0000804440089844c000a054d008b854d00cf
:100fc000000006003fb29700cfb297005fb39700d2
:100fd000efb3970000fe2f00000006003fb097001f
:100fe000cfb097005fb19700efb197000000060007
:100ff000881f780018002000881f780068ff07000d
:101000008f87e9004f04780000000600801feb0086
:1010100063ff07008f87e90000000600889fbe007d
:101020008a9fbe008c1f78000205be000004be002f
:10103000e00f5000e08f5800e00f5900e08f59009a
:101040000c003d006000b8006011b80008045000ba
:10105000898458000a0559008b8559001c0020001e
:101060001f00070008003d00180007000006eb0005
:10107000050037000006eb001900070002003d00e4
:101080000f0007001c0020000800be000a01be007f
:10109000d7ff07000203be000002be000c00e00004
:1010a00001003200060007000400be000601be0079
:1010b0004f0678004f05be004f04be00000006003a
:1010c0006000b8006011b800000037000402500052
:1010d00085825800060359008783590000000600e6
:1010e000e00f5200e08f5a00e00f5b00e08f5b00e2
:1010f00000000600889fbe008a9fbe008c1f7800fb
:101100000205be000004be00e00f5000e08f580052
:10111000e00f5900e08f59000a003d006000b80060
:101120006011b80008045000898458000a0559006d
:101130008b8559001c0020001800070007003d00a7
:10114000050037000006eb001400070003003d0017
:101150006000b8006011b800150007000800be006c
:101160000a01be00a9ff07000203be000002be0084
:101170000c00e000030032006000b8006011b8000d
:101180000b0007000400be000601be004f067800f9
:101190004f05be004f04be0000000600e00f5200e5
:1011a000e08f5a00e00f5b00e08f5b00000006005c
:1011b00004025000858258000603590087835900b5
:1011c000000006000003be00fb0007006220e100f3
:1011d000020032000600be0005000500e507b10070
:1011e000f107b20004f023008480700007f0a7002c
:1011f00001f0a00024000500889fbe008a9fbe0069
:101200008c1f7800c5fd0700ccfd330003866c0001
:101210006450e1002e0032006420e100330032000f
:101220006150e1002f0032006120e1003100320006
:1012300085855500eb07b000090020000804200058
:10124000050037000804440089844c000a0031007e
:101250000603430087834b000001530081815b003c
:10126000f8ff33000203be000800a0000804440099
:1012700089844c00f6ff3900c639dd008301730014
:1012800001003200130020008904d1000884d3003b
:101290000998a300050032000800a7000300a00081
:1012a0008904d1000884d3008b05e8008904d100ab
:1012b0000884d3000001eb000281d20071fd070019
:1012c00001f0a1000cf0a70001f0a000a4fd370080
:1012d0006420e100a6fd32000801be000200be004d
:1012e000f7ff37006120e100a1fd32006000b80087
:1012f000f3ff37000000200001f82700f0ff37005f
:10130000889fbe008a9fbe008c9fbe000004be0066
:10131000a90007000800be006420e10048003e006c
:101320005500320072212700132b24007f00070094
:1013300047003c000800be00c2ec2800e32c2c0053
:1013400078000700470035000800be0001f0a1004a
:10135000020020000338230072000700430035001c
:101360000800be00b2a32a0083fb2300200107006f
:101370000200200003f0230001f0a70003f0a0000a
:10138000a9fc07006b0007000005be0012fd070066
:1013900001f0a2000006be000200280013f32300a3
:1013a000130107000801be009ffc0700809fbe00dc
:1013b0000c00be0032082800e3952b000c0107004a
:1013c0004f01be0098fc07000006be000001be00f1
:1013d00007010700809fbe004241250083b823001b
:1013e000030107000200200003e823008efc070031
:1013f0000c01be00fe0007000006be004f00be004c
:10140000f2f92b00c3d42300f900070002002000ea
:1014100003f0230084fc07000c01be0081fc0700e0
:101420000001be000c00be0073ff07000200200098
:1014300003f023007cfc07006101450073000700f6
:101440004f06be004f05be004f04be000000060060
:1014500001f82700000020002202200002808800fe
:10146000f7ff37006000b800fbff370001f82300ea
:1014700000002000f2ff370009f8a300f0ff32005f
:101480006000b800eeff3700889fbe008a9fbe0054
:101490000003be00480007008505780082815200e5
:1014a000020020006220e10004003a00f307b100ce
:1014b000040035007718e100040035000600be0086
:1014c000140037006000b8000f003700f50f20004f
:1014d000faff2f008502d1000a85d3008301e900bd
:1014e000fcff3b008184620000046500890f7400ea
:1014f000f2ff32008582ea000a85ea0081846200f8
:1015000000046500dffc070007f0a70001f0a00061
:101510000081eb000200e0004f05be004f04be005a
:101520000000060014002000e5003700f4ff2f0043
:10153000e30037000001be001f0007000470a70091
:1015400003f0a1006509b100160032000d0035005e
:101550006828e10006003500f0ff2f00f1ff2700aa
:101560000300e00013003b0001002800000005001c
:1015700000004000818048008502e900fcff3a003d
:1015800008003700f88f420002003c008000eb00aa
:10159000000005008100d1000080d3008502e80032
:1015a000fcff3a000300e00002003b006000100076
:1015b000e080180000000600c70ade00f107b20054
:1015c000f50fb20008003200e1cf42000200320005
:1015d0000170a00024000500810f7000010032009e
:1015e0000408050044000500810f700002003a0065
:1015f000140005008502e9000000400081c0480099
:10160000fcff3b000170a000240005000003be00a9
:10161000e9ff07006220e100020032000600be0080
:101620000000060085024100e30f20000328e100ce
:1016300005003c00a3fe2f000328e10007003d0049
:101640000500200001003700f50f200020022000d7
:10165000008088006000b8000800370013002000f8
:101660008381520005003d008100d1000080d3003d
:101670008301e800fcff3a0005002000c72add00d6
:10168000f107b2008580700007f0a70001f0a0000c
:1016900000000600889fbe008a9fbe008c9fbe008f
:1016a000c8fe0700850478000005be006420e10044
:1016b00049003e006220e1000300320009003500cd
:1016c0000bf8a300440032000bf8a300080032001e
:1016d0001002200000808800f0ff2f00f1ff27009b
:1016e0003d00370001f82f00000020003a003700cd
:1016f0003d000700cbfb07000006be000a00be004d
:10170000324f200053f3230088ff07000600340007
:101710000c00be0034000700c2fb07000006be003c
:101720000a00be00020037008904e9000c00be0078
:101730002d0007002e0007002b000700bafb070052
:101740000001be000c00be00abfe07000005be009d
:101750000001be00260007000006be00a2f3230021
:10176000430d2c00b0fb0700809fbe000c00be00a4
:10177000d2e32700d3f02b001d0007004f01be006d
:101780009dfe07000006be000a01be00180007000b
:101790000a01be00a4fb07000006be006148b900b4
:1017a0000dfc07000005be0032082800e3952b0061
:1017b0000f0007000c01be009bfb07000006be00e7
:1017c0000a00be000200280013f3230008000700ef
:1017d0000c01be0094fb07004f06be004f05be0083
:1017e0004f04be000000060003f0230002000500c5
:1017f000889fbe008a9fbe008c1f780047fc0700b0
:101800004efc330003866c006450e100240032007b
:101810006420e100270032006150e1002200320024
:101820006120e100210032008b854200eb07b1000e
:101830000134b800003ab8000804420089844a0024
:10184000013ab8000030b8008880400009014a0021
:10185000040033000000400081804800020149007c
:101860008b05e900c909dd00830170000100320029
:1018700013002000c814de004814dd004709de0014
:101880001200b200c808de0008847000fdfb0700eb
:1018900001f0a1000cf0a70001f0a00030fc37001f
:1018a0006120e10032fc32000801be000200be00ef
:1018b000f7ff37006150e100fcff3a002cfc3700d5
:1018c000889fbe008a9fbe00841f780013fc07001b
:1018d0004f00780011003300f0ff2f00838f6c0061
:1018e00006003b00040565000a00a7000800370059
:1018f00009f0a6001000200008003700820f5400f5
:10190000838f5c00030039001000200001003e00be
:101910000000200009f0a7000000ea004f05be000b
:101920004f04be000000e0000000060080007800c8
:101930001104b100030035009101b10001003c0029
:101940000050a00000000600800078001106b100e1
:10195000030035009101b10001003c000050a100de
:10196000000006008000780000c2b30001003700cc
:101970008100e80011417800804f5100fcff3200e7
:10198000e94f5100faff3200d0c2b300804f51003e
:1019900003003a008100e80014c0b30005003700de
:1019a0000042eb00b0c2b300804f510001003a008a
:1019b0008100e8008001eb0005fd2f0004003700e6
:1019c000ea18b80002004000850140008100e800ec
:1019d0001101fb0005004100e90f5000f8ff36003f
:1019e0000404e000010032008301ea0003007800f3
:1019f00000000600000278008001eb0002003700c2
:101a0000015a78008301e800828f5100fcff3a0000
:101a10000000060010417800814f510004003200a0
:101a20000000e8000204e000faff3a000000eb00ca
:101a30000000060080017800000178003140780045
:101a4000005978000004e000fcff3a000300780031
:101a500000000600800078003004e000feff3a003d
:101a6000010050000000e90000000600800278003c
:101a70008001780002027800070037000402e900c4
:101a800031407800805978000004e00002003a00fc
:101a90000000eb000600370002804200808f5100fa
:101aa000f6ff3a00faff37008059eb000000e8002b
:101ab000840f5000fcff3a0005007800000006008b
:101ac0000c00fa00889fbe0000047800cfb0970099
:101ad000f0ff2700d0bf9f008004eb0099bf9f005c
:101ae00088bf9f00a8bf9f00200c2000b0bf9f00b0
:101af0007881570070805700080007000fb89700e2
:101b0000094878000fb897000804500008007800d2
:101b10004f04be000080fa0000000600fe87470068
:101b2000889fbe008a9fbe008c9fbe008e1f7800db
:101b3000f0b79f000107780082bf9f000000eb0014
:101b4000a0b79f009e0237008006eb0050c2b30092
:101b500080cf5000090032000100fb00ffb0970069
:101b600066030700e10f400095023200afb0970016
:101b70008100e800a1b79f00910237009e407800e5
:101b8000d0c2b30080cf50000c00320007003c00f0
:101b90006d40500080cf50000a0032006b40400082
:101ba00080cf50000e003a000800370000c3b30099
:101bb00080cf50000a003a00060037000d30a00028
:101bc000050037000d00a000030037000d10a00035
:101bd000010037000d20a0000e07e800e7ff3700e6
:101be0000d18a300010032000d00a1000d38a30064
:101bf000010032000d20a1000100fb0002fd2f00ba
:101c000002004000e90f50000d003e008001eb0093
:101c1000c3b79f004fb29700ea20b8009e00fb00b8
:101c20000100400002004000c0b79f005e00fb00c2
:101c300002004000e90f50000b003e00f5ff3700a6
:101c40008002eb00c5b79f00a0c2b30080cf500058
:101c500005003a000fbe97004c0078008cbf9f0033
:101c6000c0b79f000e07e8008000eb00b1b79f00ef
:101c7000e0c2b3009e4f100018003a000de0a00033
:101c80008e00e80064405000914f100002003200c6
:101c9000010778000c0037008fb9970043027800e5
:101ca00083bf9f00b4b79f000e87e8000b0037008a
:101cb000bfb29700ea28b8000100400002004000cf
:101cc000b0b79f000e07e8009e00fb0002fd2f004a
:101cd00002804000e90f5000f5ff3600be4078005a
:101ce000e1d79f00c0c6b30080cf50002200320071
:101cf0000f003c006940500080cf50007700320058
:101d000004003c000104e000310232006b4050004e
:101d10000f00370040c6b30080cf50009300320060
:101d20006540400080cf50008b003a008f003700a4
:101d300030c7b30080cf50001a00320007003c00cb
:101d40006440500080cf5000110032000040e80095
:101d500080cf500080003a000f00370050c7b3001a
:101d600080cf5000800032006340400080cf5000a0
:101d700079003a0009003700000028000d48a30050
:101d800001003a000001200080867600d3ff370072
:101d90000d60a000750037000d50a0000d70a00070
:101da000720037000fbe97004c0078008cbf9f0078
:101db000000478000000e00001003a00480323001e
:101dc0008004eb00010037008104e80089007800fe
:101dd000088044001004e000fbff3a003fb0970089
:101de0000000e00003003200890f500001003100c4
:101df000800478008000eb00e1af9f004fb19700b6
:101e0000890f51000200360009005100e0af9f0029
:101e10004368de00e10660001b003a000d06780012
:101e200009003700ffb0970000022000b30207004e
:101e3000e10f400003003200afb197008301e800da
:101e4000a3b79f000c06e8006faa9700840f560006
:101e5000f4ff3a008082eb00e5af9f000a003700f4
:101e6000880078003100fb0001047800ffb0970083
:101e7000a2020700e10f4000030032002fb69700d6
:101e80000c06e800acb79f000900e9008004780068
:101e9000e10f4000f2ff3a000006eb000d00e00009
:101ea0000a003a00c6013700ffb097000002200088
:101eb00092020700e10f4000030032002fb09700ac
:101ec0000000e800a0b79f000c06e800efa897000c
:101ed000810f5600f4ff3a00b90137000fb997009f
:101ee0004200780082bf9f00cf80de0001017800b1
:101ef000820178000205be000004be000203be009d
:101f00000002be004822de00482edd0004027600fa
:101f1000e4d79f000d48a3000a0032000404e0004b
:101f200008003200e14f42000600320071fd2f0030
:101f300001804700044878001840980029002000dc
:101f400002003700f0d79f001900200072fd2f001b
:101f500002844700a1ff370063fd2f000384470080
:101f6000190020009dff37000d0cb3000d00780014
:101f7000000cb20028003a000d00e00005003d0012
:101f80000fba97004405be004404be0084bf9f0002
:101f9000140037000d48a3000b0032008fba9700e1
:101fa0004500be0085bf9f004f89de00cf91de0057
:101fb0000002be0002037800820378000605be001e
:101fc0000404be00070037000fbe97004c007800e5
:101fd0008cbf9f0000047800cfc4de0009057800a4
:101fe0008a057800e00f5400e08f5c00e00f5d0090
:101ff000e08f5d001f003d003d00b3006000b800b1
:102000006011b80008045000898458000a0559007e
:102010008b855900170037000d00e00005003d00da
:102020000fb897004005be004004be0080bf9f006f
:10203000100037000d48a300070032000fba9700c8
:102040004400be0084bf9f006011b8000205be00be
:102050000004be00070037008fba970045007800e3
:1020600085bf9f0000047800090020000a002000be
:102070000b0020003fb697000c00e00007003a007c
:10208000e00f5400e08f5c00e00f5d00e08f5d002a
:1020900002003a0010002000b0b79f008d007800c9
:1020a000010cb200e1b79f0000042000808f5000b7
:1020b0003000320003003c000100e0000800320064
:1020c00040003700000820006fb19700800f5100da
:1020d00014003200000c2000800f510039003a003b
:1020e00014c0b30045f922000b0037000400fb00c8
:1020f0004300dd00050040005001be004000be006e
:102100000040e10001c8e10002d0e10003d8e10095
:102110002b0039000442e800f44f5200f3ff3a006c
:102120002700370000012000010020006011b800e6
:1021300014c0b3000040e10001c8e10002d0e1009a
:1021400003d8e1001e003900450020000000d00047
:102150008180d2000281d2008381d2008502e90011
:10216000faff3a000442e800f04f5200f1ff3a0053
:102170001300370080002000010020006011b8002b
:1021800014c0b3000040e10001c8e10002d0e1004a
:1021900003d8e1000a0039003c0020000000d00014
:1021a0008180d2000281d2008381d2000c06e90036
:1021b000faff3a000442e800f54f5200f1ff3a00fe
:1021c000e4d79f00efd097000100fb003fb19700dc
:1021d000820f500002003d00e2d79f00040037004c
:1021e000bfb19700808f510001003d00b0b79f0044
:1021f0004fb297000400e0000400320063806600e4
:10220000020032000402e900c4b79f000de8a300f9
:102210000b003200cfb297003fb697008c8f520070
:1022200003003c000000eb00c0b79f000400370033
:10223000cfb097003fb1970082805000c1b79f0098
:10224000efd197000300fb000002eb00d4af9f002a
:10225000cfb29700808f52000200340000805200fd
:10226000d0af9f000d28a30036003200e180660049
:102270000d18a3000c003200d00220000100e00085
:1022800001003a000080e900ffb097009b010700c1
:10229000e10f40000e0032002fb697000c06e80058
:1022a000acb79f000a0037000100e00008003200d0
:1022b000ffb097000002200090010700e10f4000ee
:1022c000030032002fb097000000e800a0b79f0085
:1022d000dfa897000100e0000f0032000006eb00cd
:1022e000ffb097000003200084010700e10f4000c9
:1022f000030032002fb197000201e800a2b79f004f
:102300000c06e800dfa99700830f5600f4ff3a009f
:102310000002eb00d4af9f00bfb297004328dd005e
:10232000c1f822000100400090b79f004228dd0064
:102330006400500080b79f00e32eb800fcaf9f0000
:10234000840037005fa897000000e0001100320011
:10235000688066000f003a0000067800ffb0970022
:102360000002200065010700e10f40000300320079
:10237000afb097008100e800a1b79f000c06e8000d
:102380005fa99700820f5600f4ff3a008001eb002e
:10239000d3af9f00e18066000d18a3000c0032004f
:1023a000d00220000100e00001003a000080e900b6
:1023b000ffb0970051010700e10f4000d6ff320047
:1023c0002fb297000402e800a4b79f00d2ff3700a5
:1023d0000100e000d0ff3200ffb0970000022000b3
:1023e00046010700e10f4000cbff3200afb297007b
:1023f0008502e800a5b79f00c7ff37000004200052
:10240000efb09700808f50003200320003003c0094
:102410000100e000080032003f0037000008200003
:102420006fb19700800f510011003200000c2000a6
:10243000800f510038003a009fb197003302be0070
:102440002303be000800be000a01be00e8fa070030
:10245000a4002000050020006033b800ebfa07005c
:1024600004c3b30004424000e4d79f002a003700b1
:10247000b5032300d5b79f000d58a30002003a0012
:10248000c0042300d0b79f001400200005002000e6
:102490006033b8008fb097008100e9000500330079
:1024a0000402d0008582d2000683d2008783d20046
:1024b000f9ff37000800be000a01be00ccfa070091
:1024c0006f0060005fb1970000004100104078008d
:1024d0001000370014002000050020006033b80011
:1024e0008c0178008301e900050033000402d0006c
:1024f0008582d2000683d2008783d200f9ff37009d
:102500000800be000a01be00b9fa0700674060007b
:102510000043b000e0d79f006fd297000400fb009b
:10252000ffb09700f5000700e10f40000300320004
:10253000afb297008502e800a5b79f001fb09700d3
:102540006800500090b79f008fb09700e480500063
:1025500081b79f0063065600d0ff2f003fb1970060
:102560008010b8007faa970000004200630050006e
:10257000800f5600a1ff3a000d38a3001000320072
:10258000dfaa97000500e0000d0034000006eb0014
:10259000ffb0970000022000d8000700e10f4000c4
:1025a000030032002fb097000000e800a0b79f00a2
:1025b0000c06e800dfa89700810f5600f4ff3a00f0
:1025c000be407800e1d79f000104e0005efd3a00c4
:1025d0002fb097004f0778004f06be004f05be0092
:1025e0004f04be00ef01b10000000600889fbe004e
:1025f0008a9fbe008c9fbe0000017800c13323007b
:102600001100e0000b003a0000342300e09989003b
:10261000c0998900019a8900d199890021409000d0
:102620000004a000a0409800614090000004a000b9
:10263000e0409800e7004100c208de00c20cdd0067
:10264000d49981002d38230020b823000d055000b7
:1026500022002000811f7800110009000205d80027
:1026600000067800cf007800c308dd00e485400054
:102670008001eb0026382300c5332300010037001a
:1026800001027800244090000008a30002003200fc
:102690000a003700110a7800940078002140900069
:1026a0000008a300fbff320009014200828f5000a6
:1026b00002003900840f5100450031009400780079
:1026c000848f5000eeff3e00868f500002003900dc
:1026d000858f5000eaff3900c0998100800f5200b9
:1026e0004e003a00858f50004c003a008301e8000c
:1026f000e18f5100e2ff36008c8f54000400360059
:102700008a8f5400020031000b047800110037005a
:10271000614ab8006151b900b0ff2f0001002000ec
:102720000200500083805800800f5200818f5a00b1
:102730000200350009047800060037000d805400bf
:1027400051b8230001004000110009000a80d800a0
:102750008a04b8000800780033010700800178007f
:10276000e10f40002d003200c0998100030878007d
:10277000c299810064004100a2409000808f510006
:10278000020032000104a000010037000104a10092
:1027900021419800088041006400500080097800c1
:1027a000c0998900c233230002087800c1998100d2
:1027b000214090000004a000a04098002340900019
:1027c0000004a100a041980002027800a8ff370091
:1027d000d2998900828f500009003600920078005b
:1027e00060332300a241900003487800a19989003a
:1027f000140978008040eb00d099810021409800b6
:10280000d0998100000a7800244090000004a000c4
:102810002042980064004200010037000000eb00f5
:102820004f06be004f05be004f04be00000006006c
:1028300064005000d0998900a04090000104a100dc
:102840002140980000000600889fbe008a9fbe00bd
:1028500000057800e401500013001000c285de007e
:10286000234090000008a30004003200d39989009f
:10287000234090000004a100a041980001007800ce
:102880005aff0700000478000000e0001700320043
:102890008a0f50001500320060b897000800500001
:1028a000c284de00898f550001003600890578005a
:1028b0004259dd008a007800080078009c0007007b
:1028c0008a0f5400090031004248dd000000440036
:1028d0008a0f5000050036000a0050000000440036
:1028e000a2998100b39981000288be000800780097
:1028f0004f05be004f04be0000000600889fbe00ca
:102900000001780001047800b10090000118a300d4
:10291000400032000198a30003003a001800900024
:102920000000e0003b003a000190a0003104980054
:1029300082047800f90fb200180090000000e00057
:1029400002003a0028009000000c7800ea8f540042
:1029500006003a00380090000078a30003003a0017
:1029600088007800d0002000e4ff070018029000e3
:102970006121b90058009000e8009000800f5100dc
:10298000818f59000b0032000400e8001004980009
:102990001800780009587800000c780011c0b300c6
:1029a000e01f230001487800ea8f5400060032003f
:1029b00019003700880078000940780019000700e6
:1029c0008004780014003700380090000088a300cd
:1029d0001100320018019000a800900048009000fb
:1029e0005b00070098009000810f50000400320047
:1029f000380090000003b300300498008084eb009e
:102a00000000eb001004980028009000000c7800f3
:102a1000010037008084eb00090078004f04be00fd
:102a2000000006000200fa00889fbe00a0ff9f0081
:102a300001047800b1009000810478000904b2001c
:102a4000020032000000fb00360037000118a3002e
:102a500005003a000103b3003104980019049800fe
:102a60000080eb002f003700580090000000e000cd
:102a700006003a004800900012002000e68057004f
:102a80003300070019049800240037002800900044
:102a90000000e00008003a00a01f23002004980076
:102aa000000c7800200020005004980010049800ca
:102ab0000130a0003104980018019000a800900097
:102ac000480090002200070028009000000c7800c9
:102ad0000080eb001004980018007800aff8970011
:102ae00001587800000c78002ff89700ea4f50004a
:102af0000a003a00380090000088a3000700320066
:102b000018019000a80090004800900010000700f5
:102b100019049800a8009000010c7800aff8970005
:102b20000100fb004f04be000080fa000000060018
:102b3000000278008001eb0002003700315a780073
:102b40008301e800828f5100fcff3a00000006007c
:102b50000a00fa0080017800e20f500027003e00d2
:102b6000f09b8100e10f500008003200802320001c
:102b70000000e0000500320004232000252320008f
:102b80004623200080017800040037000422200042
:102b9000252220004622200083222000144090009d
:102ba0000004e000040035008009eb0014409000b0
:102bb0000074a00010429800154090000028a30067
:102bc00003003a00154090000024a00090429800b5
:102bd0008001eb0006003700154090000008a300bc
:102be000fdff32003100fb00000b78008301e8009c
:102bf000828f5100f8ff3a000800370030002000b3
:102c0000b0bf9f00c3bf9f00d1bf9f00e2bf9f0026
:102c10006a80570000c0da006fb9970002007800a0
:102c20000080fa0000000600889fbe008004780043
:102c3000009c81000000e00003003a001000070043
:102c40000000e0000a003500009c81000900e0005f
:102c500002003a0000047800060037000004780003
:102c600009004000060007000000e00001003d00f0
:102c70000084eb00080078004f04be00000006004e
:102c8000800078000000e00004003a0020382300b3
:102c9000009c890001017800060037000081eb00ec
:102ca00020b82300808f500002003e00019c890064
:0c2cb0000001eb000200780000000600ac
:020000040000fa
:0200000401f009
:04000800cfff000026
:020000040000fa
:0200000401f009
:04000c007bff000076
:020000040000fa
:0200000401f009
:04001000baff000033
:020000040000fa
:0200000401f009
:040014006fff00007a
:020000040000fa
:0200000401f009
:04001800fbff0000ea
:020000040000fa
:0200000401f009
:04001c00ddff000004
:020000040000fa
:0200000401f009
:04002000cfff00000e
:020000040000fa
:10000800d802000066ee0100d80200006cee010084
:10001800d8020000d8020000d8020000d802000070
:10002800d8020000d8020000d8020000d802000060
:10003800d8020000d8020000d802000072ee0100c9
:10004800d8020000d8020000d8020000c6960100bd
:10005800e0960100d8020000d8020000d802000093
:10006800d8020000d8020000d8020000d802000020
:10007800d8020000d8020000d8020000d802000010
:10008800d8020000d8020000d8020000a8ee010043
:10009800d8020000d8020000d8020000d8020000f0
:1000a800d8020000d8020000d8020000d8020000e0
:1000b800d8020000d8020000d8020000d8020000d0
:1000c800d8020000d8020000d8020000d8020000c0
:1000d800d8020000d8020000d8020000d8020000b0
:1000e800d8020000d8020000d8020000d8020000a0
:1000f800d8020000d8020000d8020000d802000090
:10010800d8020000d8020000d8020000d80200007f
:10011800d8020000d8020000d8020000d80200006f
:10012800d8020000d8020000d8020000d80200005f
:10013800d8020000d8020000d8020000d80200004f
:10014800d8020000d8020000d8020000d80200003f
:10015800d8020000d8020000d8020000d80200002f
:10016800d8020000d8020000d8020000d80200001f
:10017800d8020000d802000090b20100d8020000a6
:10018800d8020000d8020000d8020000d8020000ff
:10019800d8020000d8020000d8020000d8020000ef
:1001a800d8020000d8020000d8020000d8020000df
:1001b800d8020000d8020000d8020000d8020000cf
:1001c800d8020000d8020000d8020000d8020000bf
:1001d800d8020000d8020000d8020000d8020000af
:1001e800d8020000d8020000d8020000d80200009f
:1001f800d8020000d8020000d8020000d80200008f
:10020800d8020000d8020000d8020000d80200007e
:10021800d8020000d8020000d8020000d80200006e
:10022800d8020000d8020000d8020000d80200005e
:10023800d8020000d8020000d8020000d80200004e
:10024800d8020000d8020000d8020000d80200003e
:10025800d8020000d8020000d8020000d80200002e
:020000040000fa
:102cbc000000000000000000000000000000000008
:102ccc0000000000000000000000000000000000f8
:102cdc0000000000000000000000000000000000e8
:102cec0000000000000000000000000000000000d8
:102cfc0000000000000000000000000000000000c8
:102d0c0000000000000000000000000000000000b7
:102d1c0000000000000000000000000000000000a7
:102d2c000000000000000000000000000000000097
:102d3c000000000000000000000000000000000087
:102d4c0000000000038000000380000003800000ee
:102d5c00038000000380000003800000038000005b
:102d6c00038000000380000003800000038000004b
:102d7c000380000000000000000000000380000041
:102d8c000380000003800000000000000000000031
:102d9c000000000000000000000000000000000027
:102dac000000000000000000000000000000000017
:102dbc000000000000000000000000000000000007
:102dcc00000000001ef000001ef000001ef00000cd
:102ddc001ef000000e700000063000000000000025
:102dec0000000000000000000000000000000000d7
:102dfc0000000000000000000000000000000000c7
:102e0c0000000000000000000000000000000000b6
:102e1c0000000000000000000000000000000000a6
:102e2c000000000000000000000000000000000096
:102e3c000000000000000000000000000000000086
:102e4c0000000000073800000738000007380000b9
:102e5c00073800000e3000007ffc00007ffc0000f3
:102e6c000e7000000e7000001c6000007ffc000063
:102e7c007ffc00001ce0000018e0000039c00000de
:102e8c0039c0000039c00000000000000000000044
:102e9c000000000000000000000000000000000026
:102eac000000000000000000000000000000000016
:102ebc000000000000000000000000000000000006
:102ecc000300000007c000001fe000001ff000001e
:102edc003ff000003b7800003b0000003f0000008a
:102eec001fc000000ff0000003f800000378000082
:102efc00033800003b3800003f7800001ff0000052
:102f0c001ff0000007c000000300000003000000d9
:102f1c0000000000000000000000000000000000a5
:102f2c000000000000000000000000000000000095
:102f3c000000000000000000000000000000000085
:102f4c00000000003030000078300000fc70000001
:102f5c00cc600000cc600000ccc00000fcc00000c5
:102f6c0079c000003180000001980000033c000093
:102f7c00037e000006660000066600000e66000078
:102f8c000c7e00000c3c0000181800000000000033
:102f9c000000000000000000000000000000000025
:102fac000000000000000000000000000000000015
:102fbc000000000000000000000000000000000005
:102fcc00000000000f8000001fe000003ce000004b
:102fdc0038f000003cf000003de000001fc0000095
:102fec001f8000003f8000007fdc0000f3fc00002d
:102ffc00f1fc0000e0fc0000f078000071fe000025
:10300c007ffe00001f8c000000000000000000008c
:10301c0000000000000000000000000000000000a4
:10302c000000000000000000000000000000000094
:10303c000000000000000000000000000000000084
:10304c00000000007800000078000000780000000c
:10305c007000000070000000700000000000000014
:10306c000000000000000000000000000000000054
:10307c000000000000000000000000000000000044
:10308c000000000000000000000000000000000034
:10309c000000000000000000000000000000000024
:1030ac000000000000000000000000000000000014
:1030bc000000000000000000000000000000000004
:1030cc000000000000e0000000e0000001c0000073
:1030dc0001c0000003c0000003800000038000005a
:1030ec0007800000078000000780000007800000b8
:1030fc0007800000078000000780000003800000ac
:10310c00038000000380000003c0000001c0000029
:10311c0001c0000000e0000000e000000000000022
:10312c000000000000000000000000000000000093
:10313c000000000000000000000000000000000083
:10314c0000000000070000000300000003800000e6
:10315c000380000001c0000001c0000001c000009d
:10316c0001e0000001e0000001e0000000e00000d0
:10317c0000e0000001e0000001e0000001e00000c0
:10318c0001c0000001c0000001c00000038000006d
:10319c000380000003000000070000000000000096
:1031ac000000000000000000000000000000000013
:1031bc000000000000000000000000000000000003
:1031cc000000000001c0000001c000001ffc000056
:1031dc001ffc000001c0000003e0000007700000ad
:1031ec000e3800000000000000000000000000008d
:1031fc0000000000000000000000000000000000c3
:10320c0000000000000000000000000000000000b2
:10321c0000000000000000000000000000000000a2
:10322c000000000000000000000000000000000092
:10323c000000000000000000000000000000000082
:10324c000000000000000000000000000000000072
:10325c0000000000038000000380000003800000d9
:10326c00038000003ff800003ff800003ff800002a
:10327c000380000003800000038000000380000036
:10328c000000000000000000000000000000000032
:10329c000000000000000000000000000000000022
:1032ac000000000000000000000000000000000012
:1032bc000000000000000000000000000000000002
:1032cc0000000000000000000000000000000000f2
:1032dc0000000000000000000000000000000000e2
:1032ec0000000000000000000000000000000000d2
:1032fc00000000000000000000000000780000004a
:10330c007800000078000000180000001800000091
:10331c003000000020000000000000000000000051
:10332c000000000000000000000000000000000091
:10333c000000000000000000000000000000000081
:10334c000000000000000000000000000000000071
:10335c000000000000000000000000000000000061
:10336c000000000000000000000000000fe0000062
:10337c000fe000000fe00000000000000000000063
:10338c000000000000000000000000000000000031
:10339c000000000000000000000000000000000021
:1033ac000000000000000000000000000000000011
:1033bc000000000000000000000000000000000001
:1033cc0000000000000000000000000000000000f1
:1033dc0000000000000000000000000000000000e1
:1033ec0000000000000000000000000000000000d1
:1033fc0000000000000000000000000003c00000fe
:10340c0003c0000003c0000000000000000000002a
:10341c0000000000000000000000000000000000a0
:10342c000000000000000000000000000000000090
:10343c000000000000000000000000000000000080
:10344c000000000000e0000000e0000000e00000d0
:10345c0000e0000000c0000001c0000001c000003e
:10346c0001c000000180000001800000038000000a
:10347c000380000003800000030000000700000030
:10348c000700000007000000000000000000000022
:10349c000000000000000000000000000000000020
:1034ac000000000000000000000000000000000010
:1034bc000000000000000000000000000000000000
:1034cc000000000007c000000fe000001ff000002b
:1034dc001c7000003c7800003c780000383800007c
:1034ec003838000038380000383800003838000010
:1034fc003c7800003c7800001c7000001ff00000bd
:10350c000fe0000007c000000000000000000000f9
:10351c00000000000000000000000000000000009f
:10352c00000000000000000000000000000000008f
:10353c00000000000000000000000000000000007f
:10354c000000000000e0000000e0000003e00000cc
:10355c0007e000000fe000000ee0000008e00000b3
:10356c0000e0000000e0000000e0000000e00000cf
:10357c0000e0000000e0000000e0000000e00000bf
:10358c0000e0000000e0000000000000000000006f
:10359c00000000000000000000000000000000001f
:1035ac00000000000000000000000000000000000f
:1035bc0000000000000000000000000000000000ff
:1035cc000000000007c000001ff000001ff8000002
:1035dc003c7800003c380000003800000078000007
:1035ec000070000000f0000001e0000007c00000c7
:1035fc000f8000000e0000001c0000003ff80000cf
:10360c003ff800003ff80000000000000000000040
:10361c00000000000000000000000000000000009e
:10362c00000000000000000000000000000000008e
:10363c00000000000000000000000000000000007e
:10364c000000000007c000000fe000001ff00000a9
:10365c001cf000003c7000000070000000f0000046
:10366c0003e0000003e000000070000000380000e0
:10367c00003800003c7800003c7800001ff000008f
:10368c001ff0000007c00000000000000000000058
:10369c00000000000000000000000000000000001e
:1036ac00000000000000000000000000000000000e
:1036bc0000000000000000000000000000000000fe
:1036cc000000000000f0000000f0000001f000001d
:1036dc0003f0000003f0000007f000000ff0000002
:1036ec000ef000001cf000003cf0000038f0000070
:1036fc007ffc00007ffc00007ffc000000f000005d
:10370c0000f0000000f000000000000000000000cd
:10371c00000000000000000000000000000000009d
:10372c00000000000000000000000000000000008d
:10373c00000000000000000000000000000000007d
:10374c00000000000ff800000ff800000ff8000058
:10375c001e0000001e0000001fe000001ff0000013
:10376c001ff800003c780000003800000038000012
:10377c00003800003c3800003c7800001ff00000ce
:10378c001ff0000007c00000000000000000000057
:10379c00000000000000000000000000000000001d
:1037ac00000000000000000000000000000000000d
:1037bc0000000000000000000000000000000000fd
:1037cc000000000007c000000ff000001ff0000018
:1037dc001e7800003c7800003c0000003fc0000058
:1037ec003ff000003ff000003c7800003c38000047
:1037fc003c3800003c3800001e7800001ff0000030
:10380c000ff0000007c000000000000000000000e6
:10381c00000000000000000000000000000000009c
:10382c00000000000000000000000000000000008c
:10383c00000000000000000000000000000000007c
:10384c00000000003ff800003ff800003ff80000c7
:10385c000070000000e0000001e0000001c000006a
:10386c0003c00000038000000380000007800000fc
:10387c0007000000070000000f0000000f00000010
:10388c000f0000000f00000000000000000000000e
:10389c00000000000000000000000000000000001c
:1038ac00000000000000000000000000000000000c
:1038bc0000000000000000000000000000000000fc
:1038cc000000000007c000001ff000001ff0000007
:1038dc003c7800003c7800003c7800001c70000034
:1038ec001ff000000fe000001ff000003c7800000b
:1038fc0038380000383800003c7800003ff80000f1
:10390c001ff0000007c000000000000000000000d5
:10391c00000000000000000000000000000000009b
:10392c00000000000000000000000000000000008b
:10393c00000000000000000000000000000000007b
:10394c000000000007c000001fe000001ff0000096
:10395c003cf000003c780000387800003c78000017
:10396c003c7800001ff800001ff8000007f800006a
:10397c00007800003c7800001cf000001ff00000f4
:10398c001fe0000007c00000000000000000000065
:10399c00000000000000000000000000000000001b
:1039ac00000000000000000000000000000000000b
:1039bc0000000000000000000000000000000000fb
:1039cc0000000000000000000000000000000000eb
:1039dc00000000000000000038000000380000006b
:1039ec003800000000000000000000000000000093
:1039fc000000000000000000000000003800000083
:103a0c00380000003800000000000000000000003a
:103a1c00000000000000000000000000000000009a
:103a2c00000000000000000000000000000000008a
:103a3c00000000000000000000000000000000007a
:103a4c00000000000000000000000000000000006a
:103a5c0000000000000000003800000038000000ea
:103a6c003800000000000000000000000000000012
:103a7c000000000000000000000000003800000002
:103a8c00380000003800000018000000180000008a
:103a9c0018000000300000000000000000000000d2
:103aac00000000000000000000000000000000000a
:103abc0000000000000000000000000000000000fa
:103acc0000000000000000000000000000080000e2
:103adc000038000001f8000007f000001fc00000d3
:103aec003f000000380000003f0000001fc0000035
:103afc0007f0000001f8000000380000000800008a
:103b0c0000000000000000000000000000000000a9
:103b1c000000000000000000000000000000000099
:103b2c000000000000000000000000000000000089
:103b3c000000000000000000000000000000000079
:103b4c000000000000000000000000000000000069
:103b5c0000000000000000003ff800003ff80000eb
:103b6c003ff8000000000000000000003ff80000db
:103b7c003ff800003ff800000000000000000000cb
:103b8c000000000000000000000000000000000029
:103b9c000000000000000000000000000000000019
:103bac000000000000000000000000000000000009
:103bbc0000000000000000000000000000000000f9
:103bcc0000000000000000000000000020000000c9
:103bdc00380000003e0000001fc0000007f000008d
:103bec0001f800000078000001f8000007f0000068
:103bfc001fc000003e000000380000002000000044
:103c0c0000000000000000000000000000000000a8
:103c1c000000000000000000000000000000000098
:103c2c000000000000000000000000000000000088
:103c3c000000000000000000000000000000000078
:103c4c000000000007e000001ff800001c3c000012
:103c5c003c3c0000001c0000001c0000003c00006c
:103c6c000078000000f0000001e0000001c000003e
:103c7c0001c0000001c000000000000001c00000f5
:103c8c0001c0000001c000000000000000000000a6
:103c9c000000000000000000000000000000000018
:103cac000000000000000000000000000000000008
:103cbc00000000000000000003c000000ff0000036
:103ccc001ff000001c3800003818000033f800000a
:103cdc0037ec00006fec00006eec00004ce40000d0
:103cec005ce400005ce400005cec000058cc0000dc
:103cfc0058cc00005cc800005df800005ff80000c4
:103d0c004ff000006fe0000070040000300c000069
:103d1c00381c00003c3800001ff800000ff00000b9
:103d2c0003e0000001c000000000000000000000e3
:103d3c000000000000000000000000000000000077
:103d4c000000000007c000000fc000000fc0000002
:103d5c000fe000001ee000001ef000001cf0000050
:103d6c003c7000003c780000387800007ff80000c0
:103d7c007ffc0000fffc0000f01e0000f01e0000a5
:103d8c00e01e0000e00e000000000000000000003b
:103d9c000000000000000000000000000000000017
:103dac000000000000000000000000000000000007
:103dbc0000000000000000000000000000000000f7
:103dcc0000000000ffe00000fff00000fff8000022
:103ddc00e07c0000e03c0000e03c0000e0780000eb
:103dec00fff00000fff00000fff00000e0380000e2
:103dfc00e01c0000e01c0000e03c0000fff80000ac
:103e0c00fff00000ffe000000000000000000000d8
:103e1c000000000000000000000000000000000096
:103e2c000000000000000000000000000000000086
:103e3c000000000000000000000000000000000076
:103e4c000000000007e000001ff800003ffc00002d
:103e5c007c3e0000781e0000f0000000f000000026
:103e6c00f0000000f0000000f0000000f000000086
:103e7c00f0000000781e00007c3e00003ffc0000bb
:103e8c001ff8000007e00000000000000000000028
:103e9c000000000000000000000000000000000016
:103eac000000000000000000000000000000000006
:103ebc0000000000000000000000000000000000f6
:103ecc0000000000ffc00000fff00000fff8000041
:103edc00e0780000e03c0000e01e0000e01e000066
:103eec00e01e0000e01e0000e01e0000e01e0000ce
:103efc00e01e0000e03c0000e0780000fff800004d
:103f0c00fff00000ffc000000000000000000000f7
:103f1c000000000000000000000000000000000095
:103f2c000000000000000000000000000000000085
:103f3c000000000000000000000000000000000075
:103f4c00000000003ffc00003ffc00003ffc0000b4
:103f5c003800000038000000380000003800000075
:103f6c003ff800003ff800003ff800003800000068
:103f7c003800000038000000380000003ffc000052
:103f8c003ffc00003ffc00000000000000000000af
:103f9c000000000000000000000000000000000015
:103fac000000000000000000000000000000000005
:103fbc0000000000000000000000000000000000f5
:103fcc00000000003ff800003ff800003ff8000040
:103fdc0038000000380000003800000038000000f5
:103fec003ff000003ff000003ff000003800000000
:103ffc0038000000380000003800000038000000d5
:10400c003800000038000000000000000000000034
:10401c000000000000000000000000000000000094
:10402c000000000000000000000000000000000084
:10403c000000000000000000000000000000000074
:10404c000000000007f000001ffc00003ffe000015
:10405c007c1e0000780e0000f0000000f000000054
:10406c00f0000000f0fe0000f0fe0000f0fe00008a
:10407c00f00e0000780e00007c1e00003ffe0000d9
:10408c001ffc000007f00000000000000000000012
:10409c000000000000000000000000000000000014
:1040ac000000000000000000000000000000000004
:1040bc0000000000000000000000000000000000f4
:1040cc0000000000701c0000701c0000701c000040
:1040dc00701c0000701c0000701c0000701c0000a4
:1040ec007ffc00007ffc00007ffc0000701c0000c7
:1040fc00701c0000701c0000701c0000701c000084
:10410c00701c0000701c000000000000000000008b
:10411c000000000000000000000000000000000093
:10412c000000000000000000000000000000000083
:10413c000000000000000000000000000000000073
:10414c0000000000038000000380000003800000da
:10415c000380000003800000038000000380000047
:10416c000380000003800000038000000380000037
:10417c000380000003800000038000000380000027
:10418c00038000000380000000000000000000001d
:10419c000000000000000000000000000000000013
:1041ac000000000000000000000000000000000003
:1041bc0000000000000000000000000000000000f3
:1041cc00000000000038000000380000003800003b
:1041dc0000380000003800000038000000380000f3
:1041ec0000380000003800000038000000380000e3
:1041fc003c3800003c3800001e7800001ff800001e
:10420c000ff0000007c000000000000000000000dc
:10421c000000000000000000000000000000000092
:10422c000000000000000000000000000000000082
:10423c000000000000000000000000000000000072
:10424c0000000000701e0000703c00007078000040
:10425c0070f0000071e0000073c00000738000007b
:10426c0077c000007fe000007fe000007cf00000e1
:10427c0078f8000070780000703c0000703e000080
:10428c00701e0000701e0000000000000000000006
:10429c000000000000000000000000000000000012
:1042ac000000000000000000000000000000000002
:1042bc0000000000000000000000000000000000f2
:1042cc00000000003800000038000000380000003a
:1042dc0038000000380000003800000038000000f2
:1042ec0038000000380000003800000038000000e2
:1042fc003800000038000000380000003ffc0000cf
:10430c003ffc00003ffc000000000000000000002b
:10431c000000000000000000000000000000000091
:10432c000000000000000000000000000000000081
:10433c000000000000000000000000000000000071
:10434c0000000000e00e0000f01e0000f83e00002f
:10435c00fc7e0000fc7e0000fc7e0000ec6e000089
:10436c00eeee0000eeee0000eeee0000e6ee0000d9
:10437c00e7ce0000e7ce0000e7ce0000e7ce00005d
:10438c00e3ce0000e38e00000000000000000000ff
:10439c000000000000000000000000000000000011
:1043ac000000000000000000000000000000000001
:1043bc0000000000000000000000000000000000f1
:1043cc0000000000781c0000781c00007c1c000021
:1043dc007c1c00007e1c00007e1c00007f1c00006a
:1043ec00771c0000739c000073dc000071dc000083
:1043fc0071fc000070fc000070fc0000707c000080
:10440c00703c0000703c0000000000000000000048
:10441c000000000000000000000000000000000090
:10442c000000000000000000000000000000000080
:10443c000000000000000000000000000000000070
:10444c000000000007e000000ff000001ff8000063
:10445c003c3c0000781e0000700e0000700e000046
:10446c00700e0000700e0000700e0000700e000048
:10447c00700e0000781e00003c3c00001ff800008d
:10448c000ff0000007e0000000000000000000003a
:10449c000000000000000000000000000000000010
:1044ac000000000000000000000000000000000000
:1044bc0000000000000000000000000000000000f0
:1044cc00000000003ff000003ff800003ffc00003f
:1044dc00383c0000381c0000381c0000381c000060
:1044ec00383c00003ffc00003ff800003fe00000bb
:1044fc0038000000380000003800000038000000d0
:10450c00380000003800000000000000000000002f
:10451c00000000000000000000000000000000008f
:10452c00000000000000000000000000000000007f
:10453c00000000000000000000000000000000006f
:10454c00000000000fc000003ff000007ff80000ea
:10455c00f87c0000f03c0000e01c0000e01c0000b7
:10456c00e01c0000e01c0000e01c0000e31c00004c
:10457c00e39c0000f1dc0000f8f800007ff0000084
:10458c003fb800000f1c0000000e000000000000ef
:10459c00000000000000000000000000000000000f
:1045ac0000000000000000000000000000000000ff
:1045bc0000000000000000000000000000000000ef
:1045cc00000000007ff000007ffc00007ffc00007a
:1045dc00703e0000701e0000701e0000703c000059
:1045ec007ffc00007ff800007fe0000071f000000d
:1045fc0070f8000070780000707c0000703e0000c5
:10460c00701e0000701e0000000000000000000082
:10461c00000000000000000000000000000000008e
:10462c00000000000000000000000000000000007e
:10463c00000000000000000000000000000000006e
:10464c00000000000fe000001ff000003ff8000029
:10465c0078780000783c00007c0000003f8000006f
:10466c003ff000000ff8000001fc0000003c0000cf
:10467c00701c0000781c00007c3c00003ff800001f
:10468c001ff800000fe00000000000000000000018
:10469c00000000000000000000000000000000000e
:1046ac0000000000000000000000000000000000fe
:1046bc0000000000000000000000000000000000ee
:1046cc00000000007ffe00007ffe00007ffe000067
:1046dc0001c0000001c0000001c0000001c00000ca
:1046ec0001c0000001c0000001c0000001c00000ba
:1046fc0001c0000001c0000001c0000001c00000aa
:10470c0001c0000001c0000000000000000000001b
:10471c00000000000000000000000000000000008d
:10472c00000000000000000000000000000000007d
:10473c00000000000000000000000000000000006d
:10474c0000000000380e0000380e0000380e00008b
:10475c00380e0000380e0000380e0000380e000035
:10476c00380e0000380e0000380e0000380e000025
:10477c00380e00003c1e00003e3e00001ffc0000f6
:10478c001ffc000007f0000000000000000000000b
:10479c00000000000000000000000000000000000d
:1047ac0000000000000000000000000000000000fd
:1047bc0000000000000000000000000000000000ed
:1047cc0000000000e00e0000e00e0000f01e0000f3
:1047dc00701c0000783c00003838000038380000ad
:1047ec003c7800001c7000001c7000001ef00000e3
:1047fc000ee000000ee000000fe0000007c000001b
:10480c0007c0000007c0000000000000000000000e
:10481c00000000000000000000000000000000008c
:10482c00000000000000000000000000000000007c
:10483c00000000000000000000000000000000006c
:10484c0000000000c3860000e38e0000e7ce0000ed
:10485c0067cc000066cc000066cc00006eec00005b
:10486c006c6c00006c6c00006c6c00006c6c0000dc
:10487c007c7c00007c7c00003c7800003c780000d4
:10488c003c78000018300000000000000000000020
:10489c00000000000000000000000000000000000c
:1048ac0000000000000000000000000000000000fc
:1048bc0000000000000000000000000000000000ec
:1048cc0000000000783c00007c3c00003c780000bc
:1048dc001e7800001ef000000fe0000007e0000052
:1048ec0007c0000007c0000007e000000fe0000058
:1048fc001ef000001e7800003c7800003c3c0000dc
:10490c00783c0000f81e00000000000000000000d1
:10491c00000000000000000000000000000000008b
:10492c00000000000000000000000000000000007b
:10493c00000000000000000000000000000000006b
:10494c0000000000f01e0000783c0000783c0000e5
:10495c003c7800001c7800001ef000000fe0000006
:10496c000fe0000007c0000003800000038000007f
:10497c00038000000380000003800000038000001f
:10498c000380000003800000000000000000000015
:10499c00000000000000000000000000000000000b
:1049ac0000000000000000000000000000000000fb
:1049bc0000000000000000000000000000000000eb
:1049cc00000000003ffc00003ffc00003ffc00002a
:1049dc000078000000f0000001f0000001e0000091
:1049ec0003c00000078000000f8000000f000000d3
:1049fc001e0000003c0000007c0000007ffc00005a
:104a0c007ffc00007ffc00000000000000000000a4
:104a1c00000000000000000000000000000000008a
:104a2c00000000000000000000000000000000007a
:104a3c00000000000000000000000000000000006a
:104a4c000000000007e0000007e0000007e00000a5
:104a5c00070000000700000007000000070000002e
:104a6c00070000000700000007000000070000001e
:104a7c00070000000700000007000000070000000e
:104a8c0007000000070000000700000007000000fe
:104a9c0007e0000007e0000007e000000000000055
:104aac0000000000000000000000000000000000fa
:104abc0000000000000000000000000000000000ea
:104acc0000000000070000000700000007000000c5
:104adc00030000000380000003800000038000003e
:104aec00018000000180000001c0000001c0000036
:104afc0001c0000000c0000000e0000000e0000069
:104b0c0000e0000000e000000000000000000000d9
:104b1c000000000000000000000000000000000089
:104b2c000000000000000000000000000000000079
:104b3c000000000000000000000000000000000069
:104b4c000000000007e0000007e0000007e00000a4
:104b5c0000e0000000e0000000e0000000e00000c9
:104b6c0000e0000000e0000000e0000000e00000b9
:104b7c0000e0000000e0000000e0000000e00000a9
:104b8c0000e0000000e0000000e0000000e0000099
:104b9c0007e0000007e0000007e000000000000054
:104bac0000000000000000000000000000000000f9
:104bbc0000000000000000000000000000000000e9
:104bcc00000000000380000007c0000007c00000c8
:104bdc000fc000000ee000000ee000001cf0000012
:104bec001c7000003c780000000000000000000079
:104bfc0000000000000000000000000000000000a9
:104c0c000000000000000000000000000000000098
:104c1c000000000000000000000000000000000088
:104c2c000000000000000000000000000000000078
:104c3c000000000000000000000000000000000068
:104c4c000000000000000000000000000000000058
:104c5c000000000000000000000000000000000048
:104c6c000000000000000000000000000000000038
:104c7c000000000000000000000000000000000028
:104c8c000000000000000000000000000000000018
:104c9c00000000007ffe00007ffe0000000000000e
:104cac0000000000000000000000000000000000f8
:104cbc0000000000000000000000000000000000e8
:104ccc000000000000000000780000003800000028
:104cdc001c0000000c0000000000000000000000a0
:104cec0000000000000000000000000000000000b8
:104cfc0000000000000000000000000000000000a8
:104d0c000000000000000000000000000000000097
:104d1c000000000000000000000000000000000087
:104d2c000000000000000000000000000000000077
:104d3c000000000000000000000000000000000067
:104d4c000000000000000000000000000000000057
:104d5c00000000000000000007e000001ff0000051
:104d6c001c7000003870000001f000001ff0000003
:104d7c003e70000038700000387000003cf00000fd
:104d8c003ff800001f380000000000000000000089
:104d9c000000000000000000000000000000000007
:104dac0000000000000000000000000000000000f7
:104dbc0000000000000000000000000000000000e7
:104dcc00000000003c0000003c0000003c00000023
:104ddc003c0000003c0000003df000003ff80000eb
:104dec003e3c00003c3c00003c1c00003c1c000015
:104dfc003c1c00003c1c00003c3c00003e38000009
:104e0c003ff800003de00000000000000000000042
:104e1c000000000000000000000000000000000086
:104e2c000000000000000000000000000000000076
:104e3c000000000000000000000000000000000066
:104e4c000000000000000000000000000000000056
:104e5c00000000000000000007e000000ff0000060
:104e6c001e7800003c3800003c00000038000000b8
:104e7c003c0000003c0000003c3800001e780000a4
:104e8c000ff0000007e00000000000000000000030
:104e9c000000000000000000000000000000000006
:104eac0000000000000000000000000000000000f6
:104ebc0000000000000000000000000000000000e6
:104ecc0000000000003c0000003c0000003c000022
:104edc00003c0000003c000007bc00001ffc000070
:104eec001e7c00003c3c00003c3c0000383c0000b8
:104efc00383c00003c3c00003c3c00001e7c0000a8
:104f0c001ffc0000079c00000000000000000000d7
:104f1c000000000000000000000000000000000085
:104f2c000000000000000000000000000000000075
:104f3c000000000000000000000000000000000065
:104f4c000000000000000000000000000000000055
:104f5c00000000000000000007c000001ff000006f
:104f6c001c7000003c780000383800003ff800004e
:104f7c003ff80000380000003c7800001c70000076
:104f8c001ff0000007c0000000000000000000003f
:104f9c000000000000000000000000000000000005
:104fac0000000000000000000000000000000000f5
:104fbc0000000000000000000000000000000000e5
:104fcc000000000001f0000003f00000078000006a
:104fdc0007800000078000001fe000001fe00000b9
:104fec000780000007800000078000000780000099
:104ffc000780000007800000078000000780000089
:10500c000780000007800000000000000000000086
:10501c000000000000000000000000000000000084
:10502c000000000000000000000000000000000074
:10503c000000000000000000000000000000000064
:10504c000000000000000000000000000000000054
:10505c00000000000000000007bc00001ffc000066
:10506c001e7c00003c3c00003c3c0000383c000036
:10507c00383c00003c3c00003c3c00001e7c000026
:10508c001ffc000007bc0000003c0000003c0000be
:10509c003c3800001ff800000fe00000000000008a
:1050ac0000000000000000000000000000000000f4
:1050bc0000000000000000000000000000000000e4
:1050cc00000000003800000038000000380000002c
:1050dc0038000000380000003be000003ff8000002
:1050ec003c7800003c3800003838000038380000ac
:1050fc0038380000383800003838000038380000e4
:10510c0038380000383800000000000000000000b3
:10511c000000000000000000000000000000000083
:10512c000000000000000000000000000000000073
:10513c000000000000000000000000000000000063
:10514c0000000000038000000380000003800000ca
:10515c00000000000000000003800000038000003d
:10516c000380000003800000038000000380000027
:10517c000380000003800000038000000380000017
:10518c00038000000380000000000000000000000d
:10519c000000000000000000000000000000000003
:1051ac0000000000000000000000000000000000f3
:1051bc0000000000000000000000000000000000e3
:1051cc000000000000e0000000e0000000e0000033
:1051dc00000000000000000000e0000000e0000003
:1051ec0000e0000000e0000000e0000000e0000033
:1051fc0000e0000000e0000000e0000000e0000023
:10520c0000e0000000e0000000e0000000e0000012
:10521c0001e0000007e0000007c0000000000000f3
:10522c000000000000000000000000000000000072
:10523c000000000000000000000000000000000062
:10524c0000000000380000003800000038000000aa
:10525c00380000003800000038f0000038e0000092
:10526c0039c000003b8000003f8000003f80000000
:10527c003fc000003dc0000039e0000038f00000e5
:10528c0038700000387800000000000000000000ba
:10529c000000000000000000000000000000000002
:1052ac0000000000000000000000000000000000f2
:1052bc0000000000000000000000000000000000e2
:1052cc000000000003800000038000000380000049
:1052dc0003800000038000000380000003800000b6
:1052ec0003800000038000000380000003800000a6
:1052fc000380000003800000038000000380000096
:10530c00038000000380000000000000000000008b
:10531c000000000000000000000000000000000081
:10532c000000000000000000000000000000000071
:10533c000000000000000000000000000000000061
:10534c000000000000000000000000000000000051
:10535c0000000000000000003c3800007e7c0000d3
:10536c00f7ee0000e3ce0000e38e0000e38e0000b9
:10537c00e38e0000e38e0000e38e0000e38e00005d
:10538c00e38e0000e38e000000000000000000002f
:10539c000000000000000000000000000000000001
:1053ac0000000000000000000000000000000000f1
:1053bc0000000000000000000000000000000000e1
:1053cc0000000000000000000000000000000000d1
:1053dc0000000000000000003bf000003ff800005f
:1053ec003c7800003c3800003838000038380000a9
:1053fc0038380000383800003838000038380000e1
:10540c0038380000383800000000000000000000b0
:10541c000000000000000000000000000000000080
:10542c000000000000000000000000000000000070
:10543c000000000000000000000000000000000060
:10544c000000000000000000000000000000000050
:10545c00000000000000000007e000000ff000005a
:10546c001e7800003c3c00003c1c0000381c000076
:10547c00381c00003c1c00003c3c00001e78000066
:10548c000ff0000007e0000000000000000000002a
:10549c000000000000000000000000000000000000
:1054ac0000000000000000000000000000000000f0
:1054bc0000000000000000000000000000000000e0
:1054cc0000000000000000000000000000000000d0
:1054dc0000000000000000007be000007ff00000f6
:1054ec007c7800007878000078380000783800006c
:1054fc007838000078380000787800007c70000064
:10550c007ff000007bc000007800000078000000f5
:10551c007800000078000000780000000000000017
:10552c00000000000000000000000000000000006f
:10553c00000000000000000000000000000000005f
:10554c00000000000000000000000000000000004f
:10555c00000000000000000007dc00001ffc000041
:10556c001e7c00003c3c00003c3c0000383c000031
:10557c00383c00003c3c00003c3c00001e7c000021
:10558c001ffc000007bc0000003c0000003c0000b9
:10559c00003c0000003c0000003c0000000000004b
:1055ac0000000000000000000000000000000000ef
:1055bc0000000000000000000000000000000000df
:1055cc0000000000000000000000000000000000cf
:1055dc00000000000000000007c000000fe0000009
:1055ec001e7000003c0000003c0000003c0000006d
:1055fc003c0000003c0000003c0000003c000000af
:10560c003c0000003c000000000000000000000016
:10561c00000000000000000000000000000000007e
:10562c00000000000000000000000000000000006e
:10563c00000000000000000000000000000000005e
:10564c00000000000000000000000000000000004e
:10565c0000000000000000000fe000001ff0000040
:10566c0038700000380000003f0000001fe0000010
:10567c000ff8000000f80000383800003c780000fb
:10568c001ff000000fe00000000000000000000010
:10569c0000000000000000000000000000000000fe
:1056ac0000000000000000000000000000000000ee
:1056bc0000000000000000000000000000000000de
:1056cc0000000000000000000080000001800000cd
:1056dc0003800000038000000ff000000ff00000ba
:1056ec0003800000038000000380000003800000a2
:1056fc0003800000038000000380000003c0000052
:10570c0003f0000001f000000000000000000000a9
:10571c00000000000000000000000000000000007d
:10572c00000000000000000000000000000000006d
:10573c00000000000000000000000000000000005d
:10574c00000000000000000000000000000000004d
:10575c00000000000000000038380000383800005d
:10576c00383800003838000038380000383800006d
:10577c003838000038380000383800003c78000019
:10578c003ff800000fb8000000000000000000000f
:10579c0000000000000000000000000000000000fd
:1057ac0000000000000000000000000000000000ed
:1057bc0000000000000000000000000000000000dd
:1057cc0000000000000000000000000000000000cd
:1057dc000000000000000000783c00003838000099
:1057ec003c7800003c7800001c7000001ef00000ab
:1057fc000ee000000ee0000007e0000007c0000013
:10580c0007c0000003800000000000000000000042
:10581c00000000000000000000000000000000007c
:10582c00000000000000000000000000000000006c
:10583c00000000000000000000000000000000005c
:10584c00000000000000000000000000000000004c
:10585c000000000000000000c3860000e38e000082
:10586c00e7ce000067cc000066cc000066cc0000e0
:10587c006eec00006c6c00006c6c00007c7c00001a
:10588c00383800001010000000000000000000007c
:10589c0000000000000000000000000000000000fc
:1058ac0000000000000000000000000000000000ec
:1058bc0000000000000000000000000000000000dc
:1058cc0000000000000000000000000000000000cc
:1058dc0000000000000000001e3800001e780000d0
:1058ec000f70000007e0000007e0000003c000009c
:1058fc0003e0000007e000000ff000000e7800004d
:10590c001e7800003c3c000000000000000000007d
:10591c00000000000000000000000000000000007b
:10592c00000000000000000000000000000000006b
:10593c00000000000000000000000000000000005b
:10594c00000000000000000000000000000000004b
:10595c000000000000000000387800003c780000d7
:10596c001c7000001c7000001e7000000ee0000097
:10597c000ee000000fe0000007e0000007c0000090
:10598c0003c0000003c0000003800000038000007f
:10599c00078000001f0000001e0000000000000037
:1059ac0000000000000000000000000000000000eb
:1059bc0000000000000000000000000000000000db
:1059cc0000000000000000000000000000000000cb
:1059dc0000000000000000003ff000003ff000005d
:1059ec0001e0000001c0000003c0000007800000bf
:1059fc00070000000f0000001e0000001c0000004b
:105a0c003ff800003ff8000000000000000000001c
:105a1c00000000000000000000000000000000007a
:105a2c00000000000000000000000000000000006a
:105a3c00000000000000000000000000000000005a
:105a4c000000000000f0000003f0000003f0000074
:105a5c00038000000380000003800000038000002e
:105a6c000380000003800000078000000f0000008e
:105a7c000f0000000780000003800000038000007e
:105a8c0003800000038000000380000003800000fe
:105a9c0003f0000001f0000000f000000000000026
:105aac0000000000000000000000000000000000ea
:105abc0000000000000000000000000000000000da
:105acc000000000001800000018000000180000047
:105adc0001800000018000000180000001800000b6
:105aec0001800000018000000180000001800000a6
:105afc000180000001800000018000000180000096
:105b0c000180000001800000018000000180000085
:105b1c0001800000018000000180000000000000f6
:105b2c000000000000000000000000000000000069
:105b3c000000000000000000000000000000000059
:105b4c00000000000f0000000f8000000f8000001c
:105b5c00038000000380000003800000038000002d
:105b6c000380000003c0000001c0000001f0000031
:105b7c0001f0000001c0000003c000000380000021
:105b8c0003800000038000000380000003800000fd
:105b9c000f8000000f8000000e00000000000000cd
:105bac0000000000000000000000000000000000e9
:105bbc0000000000000000000000000000000000d9
:105bcc0000000000000000000000000000000000c9
:105bdc0000000000000000000000000000000000b9
:106a3c000000000000000000c0c00000c0c000004a
:106a4c00ccc00000ccc00000ccc00000ccc000000a
:106a5c00edc000007f8000003f0000001e00000021
:106a6c000c0000000c00000001fe000001fe000004
:106a7c0001fe00000030000000300000003000007b
:106a8c00003000000030000000300000003000003a
:106a9c00003000000030000000300000003000002a
:106aac0000300000000000000000000000000000aa
:106abc000000000000000000ff000000ff8000004c
:106acc00e3c00000e1e00000e0e00000e0e00000d6
:106adc00e1e00000e3c00000ff800000ff000000c8
:106aec00e0000000e0000000e0000000e00000001a
:106afc00e7fc000007fc000007fc0000070000009a
:106b0c00070000000700000007e0000007e000009d
:106b1c0007000000070000000700000007fc000051
:106b2c0007fc000007fc0000000000000000000053
:106b3c00ffff0000ffff0000ffff0000ffff000051
:106b4c00ffff0000ffff0000ffff0000ffff000041
:106b5c00ffff0000ffff0000ffff0000ffff000031
:106b6c00ffff0000ffff0000ffff0000ffff000021
:106b7c00ffff0000ffff0000ffff0000ffff000011
:106b8c00ffff0000ffff0000ffff0000ffff000001
:106b9c00ffff0000ffff0000ffff0000ffff0000f1
:106bac00ffff0000ffff0000ffff0000ffff0000e1
:106bbc0000000000000000000000000000000000c9
:106bcc00000000000000000000000000ffc00000fa
:106bdc00ffc00000ffc00000e0000000e00000006b
:106bec00e0000000e0000000e1fe0000e1fe00001b
:106bfc00e1fe0000e0300000e0300000e03000007a
:106c0c00e0300000fff00000fff00000fff000009b
:106c1c0000300000003000000030000000300000a8
:106c2c000030000000000000000000000000000028
:106c3c000000000000000000000000000000000048
:106c4c00000000000000000000000000ffc0000079
:106c5c00ffc00000ffc00000e0000000e0000000ea
:106c6c00e0000000e0000000e1f80000e1f80000a6
:106c7c00e1f80000e1800000e1800000e18000000c
:106c8c00e1800000fffc0000fffc0000fffc0000a6
:106c9c00000c0000000c0000000c0000000c0000b8
:106cac0001fc000001fc00000000000000000000de
:106cbc00010000000380000007c000000fe000008e
:106ccc001ff000003ff800003ff8000003800000b8
:106cdc00038000000380000003800000038000009c
:106cec00038000000380000003800000000000000f
:106cfc000000000000000000000000000000000088
:106d0c000000000000000000000000000000000077
:106d1c000000000000000000000000000000000067
:106d2c000000000000000000000000000000000057
:106d3c00ffff0000ffff0000ffff0000ffff00004f
:106d4c00ffff0000fc7f0000fc7f0000fc7f0000c8
:106d5c00fc7f0000fc7f0000fc7f0000fc7f00003b
:106d6c00fc7f0000fc7f0000fc7f0000fc7f00002b
:106d7c00fc7f0000ffff0000ffff0000fc7f000015
:106d8c00fc7f0000fc7f0000ffff0000ffff000005
:106d9c00ffff0000ffff0000ffff0000ffff0000ef
:106dac00ffff0000ffff0000ffff0000ffff0000df
:106dbc00ffff0000ffff0000ffff0000ffff0000cf
:106dcc00ffff0000e10f0000e10f0000e10f0000e9
:106ddc00e10f0000f18f0000f9cf0000ffff000071
:106dec00ffff0000ffff0000ffff0000ffff00009f
:106dfc00ffff0000ffff0000ffff0000ffff00008f
:106e0c00ffff0000ffff0000ffff0000ffff00007e
:106e1c00ffff0000ffff0000ffff0000ffff00006e
:106e2c00ffff0000ffff0000ffff0000ffff00005e
:106e3c00ffff0000ffff0000ffff0000ffff00004e
:106e4c00ffff0000f8c70000f8c70000f8c70000fb
:106e5c00f8c70000f1cf00008003000080030000a1
:106e6c00f18f0000f18f0000e39f00008003000011
:106e7c0080030000e31f0000e71f0000c63f000076
:106e8c00c63f0000c63f0000ffff0000ffff0000f0
:106e9c00ffff0000ffff0000ffff0000ffff0000ee
:106eac00ffff0000ffff0000ffff0000ffff0000de
:106ebc00ffff0000ffff0000ffff0000ffff0000ce
:106ecc00fcff0000f83f0000e01f0000e00f000096
:106edc00c00f0000c4870000c4ff0000c0ff00000a
:106eec00e03f0000f00f0000fc070000fc870000f2
:106efc00fcc70000c4c70000c0870000e00f000002
:106f0c00e00f0000f83f0000fcff0000fcff000059
:106f1c00ffff0000ffff0000ffff0000ffff00006d
:106f2c00ffff0000ffff0000ffff0000ffff00005d
:106f3c00ffff0000ffff0000ffff0000ffff00004d
:106f4c00ffff0000cfcf000087cf0000038f0000b1
:106f5c00339f0000339f0000333f0000033f0000cd
:106f6c00863f0000ce7f0000fe670000fcc30000df
:106f7c00fc810000f9990000f9990000f1990000da
:106f8c00f3810000f3c30000e7e70000ffff0000ff
:106f9c00ffff0000ffff0000ffff0000ffff0000ed
:106fac00ffff0000ffff0000ffff0000ffff0000dd
:106fbc00ffff0000ffff0000ffff0000ffff0000cd
:106fcc00ffff0000f07f0000e01f0000c31f000067
:106fdc00c70f0000c30f0000c21f0000e03f0000fd
:106fec00e07f0000c07f0000802300000c03000045
:106ffc000e0300001f0300000f8700008e0100002d
:10700c0080010000e0730000ffff0000ffff0000a4
:10701c00ffff0000ffff0000ffff0000ffff00006c
:10702c00ffff0000ffff0000ffff0000ffff00005c
:10703c00ffff0000ffff0000ffff0000ffff00004c
:10704c00ffff000087ff000087ff000087ff0000a4
:10705c008fff00008fff00008fff0000ffff00007c
:10706c00ffff0000ffff0000ffff0000ffff00001c
:10707c00ffff0000ffff0000ffff0000ffff00000c
:10708c00ffff0000ffff0000ffff0000ffff0000fc
:10709c00ffff0000ffff0000ffff0000ffff0000ec
:1070ac00ffff0000ffff0000ffff0000ffff0000dc
:1070bc00ffff0000ffff0000ffff0000ffff0000cc
:1070cc00ffff0000ff1f0000ff1f0000fe3f00003d
:1070dc00fe3f0000fc3f0000fc7f0000fc7f000036
:1070ec00f87f0000f87f0000f87f0000f87f0000b8
:1070fc00f87f0000f87f0000f87f0000fc7f0000a4
:10710c00fc7f0000fc7f0000fc3f0000fe3f000005
:10711c00fe3f0000ff1f0000ff1f0000ffff0000ec
:10712c00ffff0000ffff0000ffff0000ffff00005b
:10713c00ffff0000ffff0000ffff0000ffff00004b
:10714c00ffff0000f8ff0000fcff0000fc7f0000c8
:10715c00fc7f0000fe3f0000fe3f0000fe3f0000f1
:10716c00fe1f0000fe1f0000fe1f0000ff1f00009e
:10717c00ff1f0000fe1f0000fe1f0000fe1f00008e
:10718c00fe3f0000fe3f0000fe3f0000fc7f0000c1
:10719c00fc7f0000fcff0000f8ff0000ffff000078
:1071ac00ffff0000ffff0000ffff0000ffff0000db
:1071bc00ffff0000ffff0000ffff0000ffff0000cb
:1071cc00ffff0000fe3f0000fe3f0000e003000058
:1071dc00e0030000fe3f0000fc1f0000f88f0000e1
:1071ec00f1c70000ffff0000ffff0000ffff0000e1
:1071fc00ffff0000ffff0000ffff0000ffff00008b
:10720c00ffff0000ffff0000ffff0000ffff00007a
:10721c00ffff0000ffff0000ffff0000ffff00006a
:10722c00ffff0000ffff0000ffff0000ffff00005a
:10723c00ffff0000ffff0000ffff0000ffff00004a
:10724c00ffff0000ffff0000ffff0000ffff00003a
:10725c00ffff0000fc7f0000fc7f0000fc7f0000b3
:10726c00fc7f0000c0070000c0070000c007000042
:10727c00fc7f0000fc7f0000fc7f0000fc7f000016
:10728c00ffff0000ffff0000ffff0000ffff0000fa
:10729c00ffff0000ffff0000ffff0000ffff0000ea
:1072ac00ffff0000ffff0000ffff0000ffff0000da
:1072bc00ffff0000ffff0000ffff0000ffff0000ca
:1072cc00ffff0000ffff0000ffff0000ffff0000ba
:1072dc00ffff0000ffff0000ffff0000ffff0000aa
:1072ec00ffff0000ffff0000ffff0000ffff00009a
:1072fc00ffff0000ffff0000ffff000087ff000002
:10730c0087ff000087ff0000e7ff0000e7ff000099
:10731c00cfff0000dfff0000ffff0000ffff0000b9
:10732c00ffff0000ffff0000ffff0000ffff000059
:10733c00ffff0000ffff0000ffff0000ffff000049
:10734c00ffff0000ffff0000ffff0000ffff000039
:10735c00ffff0000ffff0000ffff0000ffff000029
:10736c00ffff0000ffff0000ffff0000f01f000008
:10737c00f01f0000f01f0000ffff0000ffff0000e7
:10738c00ffff0000ffff0000ffff0000ffff0000f9
:10739c00ffff0000ffff0000ffff0000ffff0000e9
:1073ac00ffff0000ffff0000ffff0000ffff0000d9
:1073bc00ffff0000ffff0000ffff0000ffff0000c9
:1073cc00ffff0000ffff0000ffff0000ffff0000b9
:1073dc00ffff0000ffff0000ffff0000ffff0000a9
:1073ec00ffff0000ffff0000ffff0000ffff000099
:1073fc00ffff0000ffff0000ffff0000fc3f00004c
:10740c00fc3f0000fc3f0000ffff0000ffff0000fe
:10741c00ffff0000ffff0000ffff0000ffff000068
:10742c00ffff0000ffff0000ffff0000ffff000058
:10743c00ffff0000ffff0000ffff0000ffff000048
:10744c00ffff0000ff1f0000ff1f0000ff1f0000d8
:10745c00ff1f0000ff3f0000fe3f0000fe3f00004a
:10746c00fe3f0000fe7f0000fe7f0000fc7f00005e
:10747c00fc7f0000fc7f0000fcff0000f8ff000018
:10748c00f8ff0000f8ff0000ffff0000ffff000006
:10749c00ffff0000ffff0000ffff0000ffff0000e8
:1074ac00ffff0000ffff0000ffff0000ffff0000d8
:1074bc00ffff0000ffff0000ffff0000ffff0000c8
:1074cc00ffff0000f83f0000f01f0000e00f00007d
:1074dc00e38f0000c3870000c3870000c7c700000c
:1074ec00c7c70000c7c70000c7c70000c7c7000058
:1074fc00c3870000c3870000e38f0000e00f00008b
:10750c00f01f0000f83f0000ffff0000ffff00002d
:10751c00ffff0000ffff0000ffff0000ffff000067
:10752c00ffff0000ffff0000ffff0000ffff000057
:10753c00ffff0000ffff0000ffff0000ffff000047
:10754c00ffff0000ff1f0000ff1f0000fc1f0000da
:10755c00f81f0000f01f0000f11f0000f71f0000d3
:10756c00ff1f0000ff1f0000ff1f0000ff1f000097
:10757c00ff1f0000ff1f0000ff1f0000ff1f000087
:10758c00ff1f0000ff1f0000ffff0000ffff0000b7
:10759c00ffff0000ffff0000ffff0000ffff0000e7
:1075ac00ffff0000ffff0000ffff0000ffff0000d7
:1075bc00ffff0000ffff0000ffff0000ffff0000c7
:1075cc00ffff0000f83f0000e00f0000e0070000a4
:1075dc00c3870000c3c70000ffc70000ff8700007f
:1075ec00ff8f0000ff0f0000fe1f0000f83f00009f
:1075fc00f07f0000f1ff0000e3ff0000c007000077
:10760c00c0070000c0070000ffff0000ffff0000e4
:10761c00ffff0000ffff0000ffff0000ffff000066
:10762c00ffff0000ffff0000ffff0000ffff000056
:10763c00ffff0000ffff0000ffff0000ffff000046
:10764c00ffff0000f83f0000f01f0000e00f0000fb
:10765c00e30f0000c38f0000ff8f0000ff0f00003e
:10766c00fc1f0000fc1f0000ff8f0000ffc7000084
:10767c00ffc70000c3870000c3870000e00f0000b5
:10768c00e00f0000f83f0000ffff0000ffff0000cc
:10769c00ffff0000ffff0000ffff0000ffff0000e6
:1076ac00ffff0000ffff0000ffff0000ffff0000d6
:1076bc00ffff0000ffff0000ffff0000ffff0000c6
:1076cc00ffff0000ff0f0000ff0f0000fe0f000087
:1076dc00fc0f0000fc0f0000f80f0000f00f000082
:1076ec00f10f0000e30f0000c30f0000c70f0000f4
:1076fc00800300008003000080030000ff0f0000e7
:10770c00ff0f0000ff0f0000ffff0000ffff000055
:10771c00ffff0000ffff0000ffff0000ffff000065
:10772c00ffff0000ffff0000ffff0000ffff000055
:10773c00ffff0000ffff0000ffff0000ffff000045
:10774c00ffff0000f0070000f0070000f00700004a
:10775c00e1ff0000e1ff0000e01f0000e00f00006f
:10776c00e0070000c3870000ffc70000ffc7000050
:10777c00ffc70000c3c70000c3870000e00f000074
:10778c00e00f0000f83f0000ffff0000ffff0000cb
:10779c00ffff0000ffff0000ffff0000ffff0000e5
:1077ac00ffff0000ffff0000ffff0000ffff0000d5
:1077bc00ffff0000ffff0000ffff0000ffff0000c5
:1077cc00ffff0000f83f0000f00f0000e00f00008a
:1077dc00e1870000c3870000c3ff0000c03f00002a
:1077ec00c00f0000c00f0000c3870000c3c700001b
:1077fc00c3c70000c3c70000e1870000e00f000012
:10780c00f00f0000f83f0000ffff0000ffff00003a
:10781c00ffff0000ffff0000ffff0000ffff000064
:10782c00ffff0000ffff0000ffff0000ffff000054
:10783c00ffff0000ffff0000ffff0000ffff000044
:10784c00ffff0000c0070000c0070000c0070000d9
:10785c00ff8f0000ff1f0000fe1f0000fe3f000016
:10786c00fc3f0000fc7f0000fc7f0000f87f000064
:10787c00f8ff0000f8ff0000f0ff0000f0ff000030
:10788c00f0ff0000f0ff0000ffff0000ffff000012
:10789c00ffff0000ffff0000ffff0000ffff0000e4
:1078ac00ffff0000ffff0000ffff0000ffff0000d4
:1078bc00ffff0000ffff0000ffff0000ffff0000c4
:1078cc00ffff0000f83f0000e00f0000e00f000099
:1078dc00c3870000c3870000c3870000e38f00004c
:1078ec00e00f0000f01f0000e00f0000c387000055
:1078fc00c7c70000c7c70000c3870000c00700004f
:10790c00e00f0000f83f0000ffff0000ffff000049
:10791c00ffff0000ffff0000ffff0000ffff000063
:10792c00ffff0000ffff0000ffff0000ffff000053
:10793c00ffff0000ffff0000ffff0000ffff000043
:10794c00ffff0000f83f0000e01f0000e00f000008
:10795c00c30f0000c3870000c7870000c387000067
:10796c00c3870000e0070000e0070000f8070000f4
:10797c00ff870000c3870000e30f0000e00f00004a
:10798c00e01f0000f83f0000ffff0000ffff0000b9
:10799c00ffff0000ffff0000ffff0000ffff0000e3
:1079ac00ffff0000ffff0000ffff0000ffff0000d3
:1079bc00ffff0000ffff0000ffff0000ffff0000c3
:1079cc00ffff0000ffff0000ffff0000ffff0000b3
:1079dc00ffff0000ffff0000c7ff0000c7ff000013
:1079ec00c7ff0000ffff0000ffff0000ffff0000cb
:1079fc00ffff0000ffff0000ffff0000c7ff0000bb
:107a0c00c7ff0000c7ff0000ffff0000ffff0000e2
:107a1c00ffff0000ffff0000ffff0000ffff000062
:107a2c00ffff0000ffff0000ffff0000ffff000052
:107a3c00ffff0000ffff0000ffff0000ffff000042
:107a4c00ffff0000ffff0000ffff0000ffff000032
:107a5c00ffff0000ffff0000c7ff0000c7ff000092
:107a6c00c7ff0000ffff0000ffff0000ffff00004a
:107a7c00ffff0000ffff0000ffff0000c7ff00003a
:107a8c00c7ff0000c7ff0000e7ff0000e7ff000092
:107a9c00e7ff0000cfff0000ffff0000ffff00002a
:107aac00ffff0000ffff0000ffff0000ffff0000d2
:107abc00ffff0000ffff0000ffff0000ffff0000c2
:107acc00ffff0000ffff0000ffff0000fff70000ba
:107adc00ffc70000fe070000f80f0000e03f0000a9
:107aec00c0ff0000c7ff0000c0ff0000e03f000027
:107afc00f80f0000fe070000ffc70000fff70000b2
:107b0c00ffff0000ffff0000ffff0000ffff000071
:107b1c00ffff0000ffff0000ffff0000ffff000061
:107b2c00ffff0000ffff0000ffff0000ffff000051
:107b3c00ffff0000ffff0000ffff0000ffff000041
:107b4c00ffff0000ffff0000ffff0000ffff000031
:107b5c00ffff0000ffff0000c0070000c00700008f
:107b6c00c0070000ffff0000ffff0000c00700007f
:107b7c00c0070000c0070000ffff0000ffff00006f
:107b8c00ffff0000ffff0000ffff0000ffff0000f1
:107b9c00ffff0000ffff0000ffff0000ffff0000e1
:107bac00ffff0000ffff0000ffff0000ffff0000d1
:107bbc00ffff0000ffff0000ffff0000ffff0000c1
:107bcc00ffff0000ffff0000ffff0000dfff0000d1
:107bdc00c7ff0000c1ff0000e03f0000f80f0000ed
:107bec00fe070000ff870000fe070000f80f0000f2
:107bfc00e03f0000c1ff0000c7ff0000dfff0000f6
:107c0c00ffff0000ffff0000ffff0000ffff000070
:107c1c00ffff0000ffff0000ffff0000ffff000060
:107c2c00ffff0000ffff0000ffff0000ffff000050
:107c3c00ffff0000ffff0000ffff0000ffff000040
:107c4c00ffff0000f81f0000e0070000e3c3000086
:107c5c00c3c30000ffe30000ffe30000ffc300000c
:107c6c00ff870000ff0f0000fe1f0000fe3f00001a
:107c7c00fe3f0000fe3f0000ffff0000fe3f000043
:107c8c00fe3f0000fe3f0000ffff0000ffff000072
:107c9c00ffff0000ffff0000ffff0000ffff0000e0
:107cac00ffff0000ffff0000ffff0000ffff0000d0
:107cbc00ffff0000ffff0000fc3f0000f00f000082
:107ccc00e00f0000e3c70000c7e70000cc0700008e
:107cdc00c81300009013000091130000b31b0000a8
:107cec00a31b0000a31b0000a3130000a73300007c
:107cfc00a7330000a3370000a2070000a007000074
:107d0c00b00f0000901f00008ffb0000cff30000ad
:107d1c00c7e30000c3c70000e0070000f00f00003d
:107d2c00fc1f0000fe3f0000ffff0000ffff0000f3
:107d3c00ffff0000ffff0000ffff0000ffff00003f
:107d4c00ffff0000f83f0000f03f0000f03f000094
:107d5c00f01f0000e11f0000e10f0000e30f000026
:107d6c00c38f0000c3870000c78700008007000096
:107d7c0080030000000300000fe100000fe1000091
:107d8c001fe100001ff10000ffff0000ffff0000db
:107d9c00ffff0000ffff0000ffff0000ffff0000df
:107dac00ffff0000ffff0000ffff0000ffff0000cf
:107dbc00ffff0000ffff0000ffff0000ffff0000bf
:107dcc00ffff0000001f0000000f00000007000074
:107ddc001f8300001fc300001fc300001f8700008b
:107dec00000f0000000f0000000f00001fc7000074
:107dfc001fe300001fe300001fc30000000700008a
:107e0c00000f0000001f0000ffff0000ffff00003c
:107e1c00ffff0000ffff0000ffff0000ffff00005e
:107e2c00ffff0000ffff0000ffff0000ffff00004e
:107e3c00ffff0000ffff0000ffff0000ffff00003e
:107e4c00ffff0000f81f0000e0070000c003000067
:107e5c0083c1000087e100000fff00000fff00004e
:107e6c000fff00000fff00000fff00000fff0000ce
:107e7c000fff000087e1000083c10000c003000079
:107e8c00e0070000f81f0000ffff0000ffff0000ec
:107e9c00ffff0000ffff0000ffff0000ffff0000de
:107eac00ffff0000ffff0000ffff0000ffff0000ce
:107ebc00ffff0000ffff0000ffff0000ffff0000be
:107ecc00ffff0000003f0000000f00000007000053
:107edc001f8700001fc300001fe100001fe100000e
:107eec001fe100001fe100001fe100001fe1000086
:107efc001fe100001fc300001f87000000070000e7
:107f0c00000f0000003f0000ffff0000ffff00001b
:107f1c00ffff0000ffff0000ffff0000ffff00005d
:107f2c00ffff0000ffff0000ffff0000ffff00004d
:107f3c00ffff0000ffff0000ffff0000ffff00003d
:107f4c00ffff0000c0030000c0030000c0030000de
:107f5c00c7ff0000c7ff0000c7ff0000c7ff0000fd
:107f6c00c0070000c0070000c0070000c7ff0000ea
:107f7c00c7ff0000c7ff0000c7ff0000c0030000e0
:107f8c00c0030000c0030000ffff0000ffff000063
:107f9c00ffff0000ffff0000ffff0000ffff0000dd
:107fac00ffff0000ffff0000ffff0000ffff0000cd
:107fbc00ffff0000ffff0000ffff0000ffff0000bd
:107fcc00ffff0000c0070000c0070000c007000052
:107fdc00c7ff0000c7ff0000c7ff0000c7ff00007d
:107fec00c00f0000c00f0000c00f0000c7ff000052
:107ffc00c7ff0000c7ff0000c7ff0000c7ff00005d
:10800c00c7ff0000c7ff0000ffff0000ffff0000dc
:10801c00ffff0000ffff0000ffff0000ffff00005c
:10802c00ffff0000ffff0000ffff0000ffff00004c
:10803c00ffff0000ffff0000ffff0000ffff00003c
:10804c00ffff0000f80f0000e0030000c00100007b
:10805c0083e1000087f100000fff00000fff00001c
:10806c000fff00000f0100000f0100000f010000c6
:10807c000ff1000087f1000083e10000c001000057
:10808c00e0030000f80f0000ffff0000ffff0000fe
:10809c00ffff0000ffff0000ffff0000ffff0000dc
:1080ac00ffff0000ffff0000ffff0000ffff0000cc
:1080bc00ffff0000ffff0000ffff0000ffff0000bc
:1080cc00ffff00008fe300008fe300008fe3000050
:1080dc008fe300008fe300008fe300008fe30000cc
:1080ec008003000080030000800300008fe3000089
:1080fc008fe300008fe300008fe300008fe30000ac
:10810c008fe300008fe30000ffff0000ffff000083
:10811c00ffff0000ffff0000ffff0000ffff00005b
:10812c00ffff0000ffff0000ffff0000ffff00004b
:10813c00ffff0000ffff0000ffff0000ffff00003b
:10814c00ffff0000fc7f0000fc7f0000fc7f0000b4
:10815c00fc7f0000fc7f0000fc7f0000fc7f000027
:10816c00fc7f0000fc7f0000fc7f0000fc7f000017
:10817c00fc7f0000fc7f0000fc7f0000fc7f000007
:10818c00fc7f0000fc7f0000ffff0000ffff0000f1
:10819c00ffff0000ffff0000ffff0000ffff0000db
:1081ac00ffff0000ffff0000ffff0000ffff0000cb
:1081bc00ffff0000ffff0000ffff0000ffff0000bb
:1081cc00ffff0000ffc70000ffc70000ffc7000053
:1081dc00ffc70000ffc70000ffc70000ffc700007b
:1081ec00ffc70000ffc70000ffc70000ffc700006b
:1081fc00c3c70000c3c70000e1870000e007000010
:10820c00f00f0000f83f0000ffff0000ffff000030
:10821c00ffff0000ffff0000ffff0000ffff00005a
:10822c00ffff0000ffff0000ffff0000ffff00004a
:10823c00ffff0000ffff0000ffff0000ffff00003a
:10824c00ffff00008fe100008fc300008f8700004c
:10825c008f0f00008e1f00008c3f00008c7f0000f1
:10826c00883f0000801f0000801f0000830f00006b
:10827c00870700008f8700008fc300008fc10000ac
:10828c008fe100008fe10000ffff0000ffff000006
:10829c00ffff0000ffff0000ffff0000ffff0000da
:1082ac00ffff0000ffff0000ffff0000ffff0000ca
:1082bc00ffff0000ffff0000ffff0000ffff0000ba
:1082cc00ffff0000c7ff0000c7ff0000c7ff000052
:1082dc00c7ff0000c7ff0000c7ff0000c7ff00007a
:1082ec00c7ff0000c7ff0000c7ff0000c7ff00006a
:1082fc00c7ff0000c7ff0000c7ff0000c00300005d
:10830c00c0030000c0030000ffff0000ffff0000df
:10831c00ffff0000ffff0000ffff0000ffff000059
:10832c00ffff0000ffff0000ffff0000ffff000049
:10833c00ffff0000ffff0000ffff0000ffff000039
:10834c00ffff00001ff100000fe1000007c100005b
:10835c0003810000038100000381000013910000e1
:10836c001111000011110000111100001911000071
:10837c0018310000183100001831000018310000cd
:10838c001c3100001c710000ffff0000ffff00000b
:10839c00ffff0000ffff0000ffff0000ffff0000d9
:1083ac00ffff0000ffff0000ffff0000ffff0000c9
:1083bc00ffff0000ffff0000ffff0000ffff0000b9
:1083cc00ffff000087e3000087e3000083e3000069
:1083dc0083e3000081e3000081e3000080e3000000
:1083ec0088e300008c6300008c2300008e230000c7
:1083fc008e0300008f0300008f0300008f830000aa
:10840c008fc300008fc30000ffff0000ffff0000c0
:10841c00ffff0000ffff0000ffff0000ffff000058
:10842c00ffff0000ffff0000ffff0000ffff000048
:10843c00ffff0000ffff0000ffff0000ffff000038
:10844c00ffff0000f81f0000f00f0000e007000025
:10845c00c3c3000087e100008ff100008ff1000022
:10846c008ff100008ff100008ff100008ff1000000
:10847c008ff1000087e10000c3c30000e00700009b
:10848c00f00f0000f81f0000ffff0000ffff0000ce
:10849c00ffff0000ffff0000ffff0000ffff0000d8
:1084ac00ffff0000ffff0000ffff0000ffff0000c8
:1084bc00ffff0000ffff0000ffff0000ffff0000b8
:1084cc00ffff0000c00f0000c0070000c003000049
:1084dc00c7c30000c7e30000c7e30000c7e3000008
:1084ec00c7c30000c0030000c0070000c01f00008d
:1084fc00c7ff0000c7ff0000c7ff0000c7ff000058
:10850c00c7ff0000c7ff0000ffff0000ffff0000d7
:10851c00ffff0000ffff0000ffff0000ffff000057
:10852c00ffff0000ffff0000ffff0000ffff000047
:10853c00ffff0000ffff0000ffff0000ffff000037
:10854c00ffff0000f03f0000c00f0000800700009c
:10855c00078300000fc300001fe300001fe30000af
:10856c001fe300001fe300001fe300001ce30000fa
:10857c001c6300000e23000007070000800f0000a2
:10858c00c0470000f0e30000fff10000ffff000017
:10859c00ffff0000ffff0000ffff0000ffff0000d7
:1085ac00ffff0000ffff0000ffff0000ffff0000c7
:1085bc00ffff0000ffff0000ffff0000ffff0000b7
:1085cc00ffff0000800f000080030000800300000c
:1085dc008fc100008fe100008fe100008fc300000d
:1085ec008003000080070000801f00008e0f000039
:1085fc008f0700008f8700008f8300008fc1000061
:10860c008fe100008fe10000ffff0000ffff000082
:10861c00ffff0000ffff0000ffff0000ffff000056
:10862c00ffff0000ffff0000ffff0000ffff000046
:10863c00ffff0000ffff0000ffff0000ffff000036
:10864c00ffff0000f01f0000e00f0000c00700005b
:10865c008787000087c3000083ff0000c07f0000f5
:10866c00c00f0000f0070000fe030000ffc3000075
:10867c008fe3000087e3000083c30000c007000005
:10868c00e0070000f01f0000ffff0000ffff0000ec
:10869c00ffff0000ffff0000ffff0000ffff0000d6
:1086ac00ffff0000ffff0000ffff0000ffff0000c6
:1086bc00ffff0000ffff0000ffff0000ffff0000b6
:1086cc00ffff00008001000080010000800100001d
:1086dc00fe3f0000fe3f0000fe3f0000fe3f00009a
:1086ec00fe3f0000fe3f0000fe3f0000fe3f00008a
:1086fc00fe3f0000fe3f0000fe3f0000fe3f00007a
:10870c00fe3f0000fe3f0000ffff0000ffff0000e7
:10871c00ffff0000ffff0000ffff0000ffff000055
:10872c00ffff0000ffff0000ffff0000ffff000045
:10873c00ffff0000ffff0000ffff0000ffff000035
:10874c00ffff0000c7f10000c7f10000c7f10000f7
:10875c00c7f10000c7f10000c7f10000c7f100002d
:10876c00c7f10000c7f10000c7f10000c7f100001d
:10877c00c7f10000c3e10000c1c10000e00300002c
:10878c00e0030000f80f0000ffff0000ffff0000f7
:10879c00ffff0000ffff0000ffff0000ffff0000d5
:1087ac00ffff0000ffff0000ffff0000ffff0000c5
:1087bc00ffff0000ffff0000ffff0000ffff0000b5
:1087cc00ffff00001ff100001ff100000fe100008f
:1087dc008fe3000087c30000c7c70000c7c70000b5
:1087ec00c3870000e38f0000e38f0000e10f00005f
:1087fc00f11f0000f11f0000f01f0000f83f000007
:10880c00f83f0000f83f0000ffff0000ffff0000f2
:10881c00ffff0000ffff0000ffff0000ffff000054
:10882c00ffff0000ffff0000ffff0000ffff000044
:10883c00ffff0000ffff0000ffff0000ffff000034
:10884c00ffff00003c7900001c7100001831000093
:10885c009833000099330000993300009113000005
:10886c009393000093930000939300009393000064
:10887c008383000083830000c3870000c38700004c
:10888c00c3870000e7cf0000ffff0000ffff0000e0
:10889c00ffff0000ffff0000ffff0000ffff0000d4
:1088ac00ffff0000ffff0000ffff0000ffff0000c4
:1088bc00ffff0000ffff0000ffff0000ffff0000b4
:1088cc00ffff000087c3000083c30000c3870000c4
:1088dc00e1870000e10f0000f01f0000f81f00000e
:1088ec00f83f0000f83f0000f81f0000f01f0000e8
:1088fc00e10f0000e1870000c3870000c3c3000044
:10890c0087c3000007e10000ffff0000ffff00002d
:10891c00ffff0000ffff0000ffff0000ffff000053
:10892c00ffff0000ffff0000ffff0000ffff000043
:10893c00ffff0000ffff0000ffff0000ffff000033
:10894c00ffff00000fe1000087c3000087c3000099
:10895c00c3870000e3870000e10f0000f01f000058
:10896c00f01f0000f83f0000fc7f0000fc7f0000bf
:10897c00fc7f0000fc7f0000fc7f0000fc7f0000ff
:10898c00fc7f0000fc7f0000ffff0000ffff0000e9
:10899c00ffff0000ffff0000ffff0000ffff0000d3
:1089ac00ffff0000ffff0000ffff0000ffff0000c3
:1089bc00ffff0000ffff0000ffff0000ffff0000b3
:1089cc00ffff0000c0030000c0030000c003000054
:1089dc00ff870000ff0f0000fe0f0000fe1f0000cd
:1089ec00fc3f0000f87f0000f07f0000f0ff00006b
:1089fc00e1ff0000c3ff000083ff000080030000c4
:108a0c008003000080030000ffff0000ffff000058
:108a1c00ffff0000ffff0000ffff0000ffff000052
:108a2c00ffff0000ffff0000ffff0000ffff000042
:108a3c00ffff0000ffff0000ffff0000ffff000032
:108a4c00ffff0000f81f0000f81f0000f81f0000d7
:108a5c00f8ff0000f8ff0000f8ff0000f8ff00002e
:108a6c00f8ff0000f8ff0000f8ff0000f8ff00001e
:108a7c00f8ff0000f8ff0000f8ff0000f8ff00000e
:108a8c00f8ff0000f8ff0000f8ff0000f8ff0000fe
:108a9c00f81f0000f81f0000f81f0000ffff000087
:108aac00ffff0000ffff0000ffff0000ffff0000c2
:108abc00ffff0000ffff0000ffff0000ffff0000b2
:108acc00ffff0000f8ff0000f8ff0000f8ff0000b7
:108adc00fcff0000fc7f0000fc7f0000fc7f00001e
:108aec00fe7f0000fe7f0000fe3f0000fe3f000006
:108afc00fe3f0000ff3f0000ff1f0000ff1f0000b3
:108b0c00ff1f0000ff1f0000ffff0000ffff000021
:108b1c00ffff0000ffff0000ffff0000ffff000051
:108b2c00ffff0000ffff0000ffff0000ffff000041
:108b3c00ffff0000ffff0000ffff0000ffff000031
:108b4c00ffff0000f81f0000f81f0000f81f0000d6
:108b5c00ff1f0000ff1f0000ff1f0000ff1f000091
:108b6c00ff1f0000ff1f0000ff1f0000ff1f000081
:108b7c00ff1f0000ff1f0000ff1f0000ff1f000071
:108b8c00ff1f0000ff1f0000ff1f0000ff1f000061
:108b9c00f81f0000f81f0000f81f0000ffff000086
:108bac00ffff0000ffff0000ffff0000ffff0000c1
:108bbc00ffff0000ffff0000ffff0000ffff0000b1
:108bcc00ffff0000fc7f0000f83f0000f83f0000b2
:108bdc00f03f0000f11f0000f11f0000e30f000048
:108bec00e38f0000c3870000ffff0000ffff0000c1
:108bfc00ffff0000ffff0000ffff0000ffff000071
:108c0c00ffff0000ffff0000ffff0000ffff000060
:108c1c00ffff0000ffff0000ffff0000ffff000050
:108c2c00ffff0000ffff0000ffff0000ffff000040
:108c3c00ffff0000ffff0000ffff0000ffff000030
:108c4c00ffff0000ffff0000ffff0000ffff000020
:108c5c00ffff0000ffff0000ffff0000ffff000010
:108c6c00ffff0000ffff0000ffff0000ffff000000
:108c7c00ffff0000ffff0000ffff0000ffff0000f0
:108c8c00ffff0000ffff0000ffff0000ffff0000e0
:108c9c00ffff00008001000080010000ffff0000ca
:108cac00ffff0000ffff0000ffff0000ffff0000c0
:108cbc00ffff0000ffff0000ffff0000ffff0000b0
:108ccc00ffff0000ffff000087ff0000c7ff000050
:108cdc00e3ff0000f3ff0000ffff0000ffff0000b8
:108cec00ffff0000ffff0000ffff0000ffff000080
:108cfc00ffff0000ffff0000ffff0000ffff000070
:108d0c00ffff0000ffff0000ffff0000ffff00005f
:108d1c00ffff0000ffff0000ffff0000ffff00004f
:108d2c00ffff0000ffff0000ffff0000ffff00003f
:108d3c00ffff0000ffff0000ffff0000ffff00002f
:108d4c00ffff0000ffff0000ffff0000ffff00001f
:108d5c00ffff0000ffff0000f81f0000e00f000005
:108d6c00e38f0000c78f0000fe0f0000e00f000033
:108d7c00c18f0000c78f0000c78f0000c30f000019
:108d8c00c0070000e0c70000ffff0000ffff00006d
:108d9c00ffff0000ffff0000ffff0000ffff0000cf
:108dac00ffff0000ffff0000ffff0000ffff0000bf
:108dbc00ffff0000ffff0000ffff0000ffff0000af
:108dcc00ffff0000c3ff0000c3ff0000c3ff000053
:108ddc00c3ff0000c3ff0000c20f0000c00700006b
:108dec00c1c30000c3c30000c3e30000c3e3000021
:108dfc00c3e30000c3e30000c3c30000c1c700000d
:108e0c00c0070000c21f0000ffff0000ffff0000b2
:108e1c00ffff0000ffff0000ffff0000ffff00004e
:108e2c00ffff0000ffff0000ffff0000ffff00003e
:108e3c00ffff0000ffff0000ffff0000ffff00002e
:108e4c00ffff0000ffff0000ffff0000ffff00001e
:108e5c00ffff0000ffff0000f81f0000f00f0000f4
:108e6c00e1870000c3c70000c3ff0000c7ff00007c
:108e7c00c3ff0000c3ff0000c3c70000e187000070
:108e8c00f00f0000f81f0000ffff0000ffff0000c4
:108e9c00ffff0000ffff0000ffff0000ffff0000ce
:108eac00ffff0000ffff0000ffff0000ffff0000be
:108ebc00ffff0000ffff0000ffff0000ffff0000ae
:108ecc00ffff0000ffc30000ffc30000ffc3000052
:108edc00ffc30000ffc30000f8430000e0030000e4
:108eec00e1830000c3c30000c3c30000c7c300007c
:108efc00c7c30000c3c30000c3c30000e18300006c
:108f0c00e0030000f8630000ffff0000ffff00001b
:108f1c00ffff0000ffff0000ffff0000ffff00004d
:108f2c00ffff0000ffff0000ffff0000ffff00003d
:108f3c00ffff0000ffff0000ffff0000ffff00002d
:108f4c00ffff0000ffff0000ffff0000ffff00001d
:108f5c00ffff0000ffff0000f83f0000e00f0000e3
:108f6c00e38f0000c3870000c7c70000c0070000e4
:108f7c00c0070000c7ff0000c3870000e38f00009c
:108f8c00e00f0000f83f0000ffff0000ffff0000b3
:108f9c00ffff0000ffff0000ffff0000ffff0000cd
:108fac00ffff0000ffff0000ffff0000ffff0000bd
:108fbc00ffff0000ffff0000ffff0000ffff0000ad
:108fcc00ffff0000fe0f0000fc0f0000f87f000008
:108fdc00f87f0000f87f0000e01f0000e01f000099
:108fec00f87f0000f87f0000f87f0000f87f000099
:108ffc00f87f0000f87f0000f87f0000f87f000089
:10900c00f87f0000f87f0000ffff0000ffff00006a
:10901c00ffff0000ffff0000ffff0000ffff00004c
:10902c00ffff0000ffff0000ffff0000ffff00003c
:10903c00ffff0000ffff0000ffff0000ffff00002c
:10904c00ffff0000ffff0000ffff0000ffff00001c
:10905c00ffff0000ffff0000f8430000e0030000ea
:10906c00e1830000c3c30000c3c30000c7c30000fa
:10907c00c7c30000c3c30000c3c30000e1830000ea
:10908c00e0030000f8430000ffc30000ffc3000032
:10909c00c3c70000e0070000f01f0000ffff000046
:1090ac00ffff0000ffff0000ffff0000ffff0000bc
:1090bc00ffff0000ffff0000ffff0000ffff0000ac
:1090cc00ffff0000c7ff0000c7ff0000c7ff000044
:1090dc00c7ff0000c7ff0000c41f0000c00700004e
:1090ec00c3870000c3c70000c7c70000c7c7000084
:1090fc00c7c70000c7c70000c7c70000c7c700002c
:10910c00c7c70000c7c70000ffff0000ffff00003b
:10911c00ffff0000ffff0000ffff0000ffff00004b
:10912c00ffff0000ffff0000ffff0000ffff00003b
:10913c00ffff0000ffff0000ffff0000ffff00002b
:10914c00ffff0000fc7f0000fc7f0000fc7f0000a4
:10915c00ffff0000ffff0000fc7f0000fc7f000011
:10916c00fc7f0000fc7f0000fc7f0000fc7f000007
:10917c00fc7f0000fc7f0000fc7f0000fc7f0000f7
:10918c00fc7f0000fc7f0000ffff0000ffff0000e1
:10919c00ffff0000ffff0000ffff0000ffff0000cb
:1091ac00ffff0000ffff0000ffff0000ffff0000bb
:1091bc00ffff0000ffff0000ffff0000ffff0000ab
:1091cc00ffff0000ff1f0000ff1f0000ff1f00003b
:1091dc00ffff0000ffff0000ff1f0000ff1f00004b
:1091ec00ff1f0000ff1f0000ff1f0000ff1f0000fb
:1091fc00ff1f0000ff1f0000ff1f0000ff1f0000eb
:10920c00ff1f0000ff1f0000ff1f0000ff1f0000da
:10921c00fe1f0000f81f0000f83f0000ffff0000d9
:10922c00ffff0000ffff0000ffff0000ffff00003a
:10923c00ffff0000ffff0000ffff0000ffff00002a
:10924c00ffff0000c7ff0000c7ff0000c7ff0000c2
:10925c00c7ff0000c7ff0000c70f0000c71f0000ba
:10926c00c63f0000c47f0000c07f0000c07f00002c
:10927c00c03f0000c23f0000c61f0000c70f000027
:10928c00c78f0000c7870000ffff0000ffff000032
:10929c00ffff0000ffff0000ffff0000ffff0000ca
:1092ac00ffff0000ffff0000ffff0000ffff0000ba
:1092bc00ffff0000ffff0000ffff0000ffff0000aa
:1092cc00ffff0000fc7f0000fc7f0000fc7f000023
:1092dc00fc7f0000fc7f0000fc7f0000fc7f000096
:1092ec00fc7f0000fc7f0000fc7f0000fc7f000086
:1092fc00fc7f0000fc7f0000fc7f0000fc7f000076
:10930c00fc7f0000fc7f0000ffff0000ffff00005f
:10931c00ffff0000ffff0000ffff0000ffff000049
:10932c00ffff0000ffff0000ffff0000ffff000039
:10933c00ffff0000ffff0000ffff0000ffff000029
:10934c00ffff0000ffff0000ffff0000ffff000019
:10935c00ffff0000ffff0000c3c700008183000077
:10936c00081100001c3100001c7100001c71000071
:10937c001c7100001c7100001c7100001c710000ad
:10938c001c7100001c710000ffff0000ffff0000bb
:10939c00ffff0000ffff0000ffff0000ffff0000c9
:1093ac00ffff0000ffff0000ffff0000ffff0000b9
:1093bc00ffff0000ffff0000ffff0000ffff0000a9
:1093cc00ffff0000ffff0000ffff0000ffff000099
:1093dc00ffff0000ffff0000c40f0000c0070000eb
:1093ec00c3870000c3c70000c7c70000c7c7000081
:1093fc00c7c70000c7c70000c7c70000c7c7000029
:10940c00c7c70000c7c70000ffff0000ffff000038
:10941c00ffff0000ffff0000ffff0000ffff000048
:10942c00ffff0000ffff0000ffff0000ffff000038
:10943c00ffff0000ffff0000ffff0000ffff000028
:10944c00ffff0000ffff0000ffff0000ffff000018
:10945c00ffff0000ffff0000f81f0000f00f0000ee
:10946c00e1870000c3c30000c3e30000c7e30000b2
:10947c00c7e30000c3e30000c3c30000e1870000a2
:10948c00f00f0000f81f0000ffff0000ffff0000be
:10949c00ffff0000ffff0000ffff0000ffff0000c8
:1094ac00ffff0000ffff0000ffff0000ffff0000b8
:1094bc00fffe0000fffe0000fffe0000fffe0000ac
:1094cc00fffe0000fffe0000fffe0000fffe00009c
:1094dc00fffe0000fffe0000841e0000800e000056
:1094ec00838600008786000087c6000087c60000c0
:1094fc0087c6000087c6000087860000838e0000a8
:10950c00800e0000843e000087fe000087fe0000f5
:10951c0087fe000087fe000087fe0000fffe0000b3
:10952c00fffe0000fffe0000fffe0000fffe00003b
:10953c00ffff0000ffff0000ffff0000ffff000027
:10954c00ffff0000ffff0000ffff0000ffff000017
:10955c00ffff0000ffff0000f8230000e003000005
:10956c00e1830000c3c30000c3c30000c7c30000f5
:10957c00c7c30000c3c30000c3c30000e1830000e5
:10958c00e0030000f8430000ffc30000ffc300002d
:10959c00ffc30000ffc30000ffc30000ffff00007b
:1095ac00ffff0000ffff0000ffff0000ffff0000b7
:1095bc00ffff0000ffff0000ffff0000ffff0000a7
:1095cc00ffff0000ffff0000ffff0000ffff000097
:1095dc00ffff0000ffff0000f83f0000f01f00003d
:1095ec00e18f0000c3ff0000c3ff0000c3ff0000b9
:1095fc00c3ff0000c3ff0000c3ff0000c3ff000057
:10960c00c3ff0000c3ff0000ffff0000ffff0000ce
:10961c00ffff0000ffff0000ffff0000ffff000046
:10962c00ffff0000ffff0000ffff0000ffff000036
:10963c00ffff0000ffff0000ffff0000ffff000026
:10964c00ffff0000ffff0000ffff0000ffff000016
:10965c00ffff0000ffff0000f01f0000e00f000004
:10966c00c78f0000c7ff0000c0ff0000e01f000014
:10967c00f0070000ff070000c7c70000c387000009
:10968c00e00f0000f01f0000ffff0000ffff0000d4
:10969c00ffff0000ffff0000ffff0000ffff0000c6
:1096ac00ffff0000ffff0000ffff0000ffff0000b6
:1096bc00ffff0000ffff0000ffff0000ffff0000a6
:1096cc00ffff0000ffff0000ff7f0000fe7f000097
:1096dc00fc7f0000fc7f0000f00f0000f00f00008a
:1096ec00fc7f0000fc7f0000fc7f0000fc7f000082
:1096fc00fc7f0000fc7f0000fc7f0000fc3f0000b2
:10970c00fc0f0000fe0f0000ffff0000ffff000039
:10971c00ffff0000ffff0000ffff0000ffff000045
:10972c00ffff0000ffff0000ffff0000ffff000035
:10973c00ffff0000ffff0000ffff0000ffff000025
:10974c00ffff0000ffff0000ffff0000ffff000015
:10975c00ffff0000ffff0000c7c70000c7c70000e5
:10976c00c7c70000c7c70000c7c70000c7c70000b5
:10977c00c7c70000c7c70000c7c70000c3870000e9
:10978c00c0070000f0470000ffff0000ffff0000d3
:10979c00ffff0000ffff0000ffff0000ffff0000c5
:1097ac00ffff0000ffff0000ffff0000ffff0000b5
:1097bc00ffff0000ffff0000ffff0000ffff0000a5
:1097cc00ffff0000ffff0000ffff0000ffff000095
:1097dc00ffff0000ffff000087c30000c7c70000a9
:1097ec00c3870000c3870000e38f0000e10f000077
:1097fc00f11f0000f11f0000f81f0000f83f0000ef
:10980c00f83f0000fc7f0000ffff0000ffff00009e
:10981c00ffff0000ffff0000ffff0000ffff000044
:10982c00ffff0000ffff0000ffff0000ffff000034
:10983c00ffff0000ffff0000ffff0000ffff000024
:10984c00ffff0000ffff0000ffff0000ffff000014
:10985c00ffff0000ffff00003c7900001c710000be
:10986c001831000098330000993300009933000040
:10987c0091130000939300009393000083830000e6
:10988c00c7c70000efef0000ffff0000ffff000064
:10989c00ffff0000ffff0000ffff0000ffff0000c4
:1098ac00ffff0000ffff0000ffff0000ffff0000b4
:1098bc00ffff0000ffff0000ffff0000ffff0000a4
:1098cc00ffff0000ffff0000ffff0000ffff000094
:1098dc00ffff0000ffff0000e1c70000e187000070
:1098ec00f08f0000f81f0000f81f0000fc3f000084
:1098fc00fc1f0000f81f0000f00f0000f1870000b3
:10990c00e1870000c3c30000ffff0000ffff000061
:10991c00ffff0000ffff0000ffff0000ffff000043
:10992c00ffff0000ffff0000ffff0000ffff000033
:10993c00ffff0000ffff0000ffff0000ffff000023
:10994c00ffff0000ffff0000ffff0000ffff000013
:10995c00ffff0000ffff0000c7870000c387000067
:10996c00e38f0000e38f0000e18f0000f11f000087
:10997c00f11f0000f01f0000f81f0000f83f00006e
:10998c00fc3f0000fc3f0000fc7f0000fc7f00005f
:10999c00f87f0000e0ff0000e1ff0000ffff000087
:1099ac00ffff0000ffff0000ffff0000ffff0000b3
:1099bc00ffff0000ffff0000ffff0000ffff0000a3
:1099cc00ffff0000ffff0000ffff0000ffff000093
:1099dc00ffff0000ffff0000c00f0000c00f0000e1
:1099ec00fe1f0000fe3f0000fc3f0000f87f00005f
:1099fc00f8ff0000f0ff0000e1ff0000e3ff0000b3
:109a0c00c0070000c0070000ffff0000ffff0000c0
:109a1c00ffff0000ffff0000ffff0000ffff000042
:109a2c00ffff0000ffff0000ffff0000ffff000032
:109a3c00ffff0000ffff0000ffff0000ffff000022
:109a4c00ffff0000ff0f0000fc0f0000fc0f0000e8
:109a5c00fc7f0000fc7f0000fc7f0000fc7f00000e
:109a6c00fc7f0000fc7f0000f87f0000f0ff00008e
:109a7c00f0ff0000f87f0000fc7f0000fc7f00007e
:109a8c00fc7f0000fc7f0000fc7f0000fc7f0000de
:109a9c00fc0f0000fe0f0000ff0f0000ffff000096
:109aac00ffff0000ffff0000ffff0000ffff0000b2
:109abc00ffff0000ffff0000ffff0000ffff0000a2
:109acc00ffff0000fe7f0000fe7f0000fe7f000015
:109adc00fe7f0000fe7f0000fe7f0000fe7f000086
:109aec00fe7f0000fe7f0000fe7f0000fe7f000076
:109afc00fe7f0000fe7f0000fe7f0000fe7f000066
:109b0c00fe7f0000fe7f0000fe7f0000fe7f000055
:109b1c00fe7f0000fe7f0000fe7f0000ffff0000c4
:109b2c00ffff0000ffff0000ffff0000ffff000031
:109b3c00ffff0000ffff0000ffff0000ffff000021
:109b4c00ffff0000f0ff0000f07f0000f07f00003e
:109b5c00fc7f0000fc7f0000fc7f0000fc7f00000d
:109b6c00fc7f0000fc3f0000fe3f0000fe0f0000e9
:109b7c00fe0f0000fe3f0000fc3f0000fc7f0000d9
:109b8c00fc7f0000fc7f0000fc7f0000fc7f0000dd
:109b9c00f07f0000f07f0000f1ff0000ffff0000ed
:109bac00ffff0000ffff0000ffff0000ffff0000b1
:109bbc00ffff0000ffff0000ffff0000ffff0000a1
:109bcc00ffff0000ffff0000ffff0000ffff000091
:109bdc00ffff0000ffff0000ff3f0000ff1f000021
:109bec00ff8f0000ffc70000000300000001000011
:109bfc0000030000ffc70000ff8f0000ff1f0000e4
:109c0c00ff3f0000ffff0000ffff0000ffff000010
:109c1c00ffff0000ffff0000ffff0000ffff000040
:109c2c00ffff0000ffff0000ffff0000ffff000030
:109c3c00ffff0000ffff0000ffff0000ffff000020
:109c4c00ffff0000ffff0000ffff0000ffff000010
:109c5c00ffff0000ffff0000f9ff0000f1ff000014
:109c6c00e3ff0000c7ff00008001000000010000be
:109c7c0080010000c7ff0000e3ff0000f1ff0000bf
:109c8c00f9ff0000ffff0000ffff0000ffff0000d6
:109c9c00ffff0000ffff0000ffff0000ffff0000c0
:109cac00ffff0000ffff0000ffff0000ffff0000b0
:109cbc000000000000000000000000000000000098
:109ccc000000000000000000000000000000000088
:109cdc000000000000000000000000000000000078
:109cec000000000000000000000000000000000068
:109cfc000000000000000000000000000600000052
:109d0c00060000000600000006000000060000002f
:109d1c000600000006000000060000000000000025
:109d2c000600000000000000000000000000000021
:109d3c000000000000000000000000001b000000fc
:109d4c001b0000000a0000000000000000000000e2
:109d5c0000000000000000000000000000000000f7
:109d6c0000000000000000000000000000000000e7
:109d7c0000000000000000000480000004800000cf
:109d8c000d8000003fc00000090000000900000029
:109d9c001b0000007f800000120000001200000079
:109dac003600000000000000000000000000000071
:109dbc000000000004000000040000001f00000070
:109dcc003500000024000000340000001e000000dc
:109ddc000700000045800000748000003580000002
:109dec001f00000004000000040000000000000040
:109dfc000000000000000000780000004840000057
:109e0c0048c00000498000007b00000002000000f8
:109e1c00040000000de000001920000031200000bb
:109e2c002120000001e00000000000000000000004
:109e3c000000000000000000000000000e00000008
:109e4c0011000000130000001a0000000c000000bc
:109e5c003c000000260000002300000033800000be
:109e6c001ec0000000000000000000000000000008
:109e7c0000000000000000000000000006000000d0
:109e8c0006000000060000000000000000000000ba
:109e9c0000000000000000000000000000000000b6
:109eac0000000000000000000000000000000000a6
:109ebc00000000000100000003000000060000008c
:109ecc000c0000000c0000000c0000000c00000056
:109edc000c0000000c0000000c0000000c00000046
:109eec000c00000006000000030000000100000050
:109efc0000000000080000000c000000060000003c
:109f0c000300000003000000030000000300000039
:109f1c000300000003000000030000000300000029
:109f2c0003000000060000000c0000000800000008
:109f3c00000000000000000004000000040000000d
:109f4c001f000000040000000a00000011000000c7
:109f5c0000000000000000000000000000000000f5
:109f6c0000000000000000000000000000000000e5
:109f7c0000000000000000000000000000000000d5
:109f8c0000000000060000000600000006000000b3
:109f9c001f80000006000000060000000600000004
:109fac0000000000000000000000000000000000a5
:109fbc000000000000000000000000000000000095
:109fcc000000000000000000000000000000000085
:109fdc000000000000000000000000003000000045
:109fec003000000010000000200000000000000005
:109ffc000000000000000000000000000000000055
:10a00c000000000000000000000000000000000044
:10a01c00000000000f000000000000000000000025
:10a02c000000000000000000000000000000000024
:10a03c000000000000000000000000000000000014
:10a04c000000000000000000000000000000000004
:10a05c0000000000000000000000000006000000ee
:10a06c0006000000000000000000000000000000de
:10a07c00000000000000000000c000000080000094
:10a08c0000800000018000000300000006000000ba
:10a09c0006000000060000000c0000001800000084
:10a0ac001000000010000000300000000000000054
:10a0bc000000000000000000000000000e00000086
:10a0cc001b00000011000000110000001100000036
:10a0dc001100000011000000110000001b00000026
:10a0ec000e00000000000000000000000000000056
:10a0fc000000000000000000000000000100000053
:10a10c00030000000f00000001000000010000002f
:10a11c00010000000100000001000000010000002f
:10a12c000100000000000000000000000000000022
:10a13c000000000000000000000000000f00000004
:10a14c0019000000118000000180000003000000d5
:10a15c00060000000c0000001800000010000000b9
:10a16c003f80000000000000000000000000000024
:10a17c000000000000000000000000000e000000c5
:10a18c0011000000010000000300000006000000a8
:10a19c00010000000100000001000000110000009f
:10a1ac001e00000000000000000000000000000085
:10a1bc000000000000000000000000000200000091
:10a1cc0006000000060000000a0000001a00000053
:10a1dc0012000000320000003f800000020000006e
:10a1ec000200000000000000000000000000000061
:10a1fc000000000000000000000000000f00000044
:10a20c001800000010000000100000001e000000ec
:10a21c00010000000100000001000000110000001e
:10a22c001e00000000000000000000000000000004
:10a23c000000000000000000000000000f00000003
:10a24c001980000010000000100000001f0000002a
:10a25c0019800000108000001080000019800000a0
:10a26c000f000000000000000000000000000000d3
:10a27c000000000000000000000000001f80000033
:10a28c0001000000030000000600000006000000b2
:10a29c00040000000c0000000c000000180000007e
:10a2ac001000000000000000000000000000000092
:10a2bc000000000000000000000000000e00000084
:10a2cc001b000000110000001b0000000e0000002d
:10a2dc001b00000011000000110000001b0000001a
:10a2ec000e00000000000000000000000000000054
:10a2fc000000000000000000000000000e00000044
:10a30c001b00000011000000110000001b000000e9
:10a31c000f00000001000000010000001b00000005
:10a32c000e00000000000000000000000000000013
:10a33c000000000000000000000000000000000011
:10a34c0000000000060000000600000000000000f5
:10a35c0000000000000000000000000006000000eb
:10a36c0006000000000000000000000000000000db
:10a37c0000000000000000000000000000000000d1
:10a38c0000000000000000000600000000000000bb
:10a39c0000000000000000000000000006000000ab
:10a3ac000600000002000000040000000000000095
:10a3bc000000000000000000000000000000000091
:10a3cc0000000000018000000600000018000000e2
:10a3dc0020000000180000000600000001800000b2
:10a3ec000000000000000000000000000000000061
:10a3fc000000000000000000000000000000000051
:10a40c0000000000000000003f8000000000000081
:10a41c00000000003f800000000000000000000071
:10a42c000000000000000000000000000000000020
:10a43c000000000000000000000000000000000010
:10a44c0000000000300000000c00000003000000c1
:10a45c0000800000030000000c0000003000000031
:10a46c0000000000000000000000000000000000e0
:10a47c000000000000000000078000000cc000007d
:10a48c000840000000c00000018000000300000034
:10a49c00060000000600000000000000060000009e
:10a4ac00060000000000000000000000000000009a
:10a4bc000000000000000000000000001f800000f1
:10a4cc0030c0000060600000ce2000009b20000027
:10a4dc0091200000912000009160000091c00000cc
:10a4ec00df80000040000000706000001fc0000012
:10a4fc00000000000000000000000000040000004c
:10a50c000e0000000a0000001b00000011000000fb
:10a51c00118000003f8000002080000060c000001f
:10a52c00404000000000000000000000000000009f
:10a53c000000000000000000000000003f000000d0
:10a54c002180000020800000208000003f8000005f
:10a55c00208000002080000020800000218000006e
:10a56c003f000000000000000000000000000000a0
:10a57c000000000000000000000000000f000000c0
:10a58c001980000030c000002000000020000000f6
:10a59c00200000002000000030c0000019800000e6
:10a5ac000f00000000000000000000000000000090
:10a5bc000000000000000000000000003f00000050
:10a5cc0021800000208000002080000020800000fe
:10a5dc0020800000208000002080000021800000ee
:10a5ec003f00000000000000000000000000000020
:10a5fc000000000000000000000000003f80000090
:10a60c002000000020000000200000003f0000009f
:10a61c0020000000200000002000000020000000ae
:10a62c003f8000000000000000000000000000005f
:10a63c000000000000000000000000003f8000004f
:10a64c002000000020000000200000003f0000005f
:10a65c00200000002000000020000000200000006e
:10a66c0020000000000000000000000000000000be
:10a67c000000000000000000000000000f8000003f
:10a68c0018c0000030400000200000002000000036
:10a69c0023c00000204000003040000018c0000023
:10a6ac000f8000000000000000000000000000000f
:10a6bc0000000000000000000000000020800000ee
:10a6cc002080000020800000208000003f800000df
:10a6dc0020800000208000002080000020800000ee
:10a6ec0020800000000000000000000000000000be
:10a6fc00000000000000000000000000040000004a
:10a70c00040000000400000004000000040000002d
:10a71c00040000000400000004000000040000001d
:10a72c000400000000000000000000000000000019
:10a73c00000000000000000000000000010000000c
:10a74c0001000000010000000100000001000000f9
:10a75c000100000001000000110000001b000000bf
:10a76c000e000000000000000000000000000000cf
:10a77c0000000000000000000000000020c00000ed
:10a78c002180000023000000260000003c00000097
:10a79c003c00000026000000230000002180000087
:10a7ac0020c00000000000000000000000000000bd
:10a7bc00000000000000000000000000100000007d
:10a7cc00100000001000000010000000100000003d
:10a7dc00100000001000000010000000100000002d
:10a7ec001f800000000000000000000000000000be
:10a7fc0000000000000000000000000060c000002d
:10a80c0060c0000071c000005140000051400000c9
:10a81c005b4000004a4000004e4000004e400000eb
:10a82c004440000000000000000000000000000098
:10a83c00000000000000000000000000308000005c
:10a84c003080000038800000288000002480000048
:10a85c002480000022800000238000002180000062
:10a86c00218000000000000000000000000000003b
:10a87c000000000000000000000000001f000000ad
:10a88c003180000060c000004040000040400000eb
:10a89c00404000004040000060c0000031800000db
:10a8ac001f0000000000000000000000000000007d
:10a8bc000000000000000000000000003f0000004d
:10a8cc0020800000208000002080000020800000fc
:10a8dc003f000000200000002000000020000000cd
:10a8ec00200000000000000000000000000000003c
:10a8fc000000000000000000000000000f0000003d
:10a90c001980000030c000002040000020400000f2
:10a91c00204000002040000032c0000019800000e0
:10a92c000f80000000c0000000400000000000008c
:10a93c000000000000000000000000003f8000004c
:10a94c0020c000002040000020c00000218000003a
:10a95c003f000000230000002100000021800000c7
:10a96c0020c00000000000000000000000000000fb
:10a97c000000000000000000000000001f000000ac
:10a98c003180000020800000300000001e0000001c
:10a99c000380000000800000208000003180000057
:10a9ac001f0000000000000000000000000000007c
:10a9bc000000000000000000000000003f800000cc
:10a9cc00040000000400000004000000040000006b
:10a9dc00040000000400000004000000040000005b
:10a9ec000400000000000000000000000000000057
:10a9fc0000000000000000000000000020800000ab
:10aa0c0020800000208000002080000020800000ba
:10aa1c002080000020800000208000003180000099
:10aa2c001f000000000000000000000000000000fb
:10aa3c00000000000000000000000000606000004a
:10aa4c002040000030c0000030c00000108000002a
:10aa5c001980000019800000090000000f000000a0
:10aa6c0006000000000000000000000000000000d4
:10aa7c000000000000000000000000008420000026
:10aa8c008e2000008a200000ca600000db600000fd
:10aa9c005b4000005140000071c0000071c000001c
:10aaac0020800000000000000000000000000000fa
:10aabc0000000000000000000000000031800000d9
:10aacc00110000001b0000000e000000040000003c
:10aadc000e0000000a0000001b0000001100000026
:10aaec0031800000000000000000000000000000a9
:10aafc0000000000000000000000000060c000002a
:10ab0c0031800000110000001b0000000e0000004e
:10ab1c000400000004000000040000000400000019
:10ab2c000400000000000000000000000000000015
:10ab3c000000000000000000000000001f8000006a
:10ab4c00018000000300000002000000060000006d
:10ab5c000c0000000800000018000000300000008d
:10ab6c003f8000000000000000000000000000001a
:10ab7c0000000000000000000e00000008000000b3
:10ab8c000800000008000000080000000800000099
:10ab9c000800000008000000080000000800000089
:10abac0008000000080000000e000000000000007b
:10abbc000000000000000000300000001000000049
:10abcc0010000000180000000c000000060000003f
:10abdc0006000000060000000300000001800000d9
:10abec00008000000080000000c000000000000099
:10abfc0000000000000000000e0000000200000039
:10ac0c000200000002000000020000000200000030
:10ac1c000200000002000000020000000200000020
:10ac2c0002000000020000000e0000000000000006
:10ac3c000000000000000000040000000e000000f6
:10ac4c001b0000003180000020800000000000008c
:10ac5c0000000000000000000000000000000000e8
:10ac6c0000000000000000000000000000000000d8
:10ac7c0000000000000000000000000000000000c8
:10ac8c0000000000000000000000000000000000b8
:10ac9c0000000000000000000000000000000000a8
:10acac0000000000000000003f80000000000000d9
:10acbc000000000000000000000000002000000068
:10accc003000000010000000000000000000000038
:10acdc000000000000000000000000000000000068
:10acec000000000000000000000000000000000058
:10acfc000000000000000000000000000000000048
:10ad0c0000000000000000000f000000190000000f
:10ad1c00010000000f0000001100000011000000f5
:10ad2c001f80000000000000000000000000000078
:10ad3c0000000000000000000000000018000000ef
:10ad4c0018000000180000001f000000198000000f
:10ad5c001980000019800000198000001980000083
:10ad6c001f000000000000000000000000000000b8
:10ad7c0000000000000000000000000000000000c7
:10ad8c000000000000000000078000000c800000a4
:10ad9c001800000010000000180000000c800000db
:10adac000780000000000000000000000000000010
:10adbc000000000000000000000000000080000007
:10adcc000080000000800000078000000d80000063
:10addc000880000008800000088000000d80000042
:10adec0007800000000000000000000000000000d0
:10adfc000000000000000000000000000000000047
:10ae0c0000000000000000000e0000001b0000000d
:10ae1c00110000001f0000001000000019000000cd
:10ae2c000e00000000000000000000000000000008
:10ae3c0000000000000000000000000007000000ff
:10ae4c0004000000040000000f00000004000000db
:10ae5c0004000000040000000400000004000000d6
:10ae6c0004000000000000000000000000000000d2
:10ae7c0000000000000000000000000000000000c6
:10ae8c0000000000000000000e0000001b0000008d
:10ae9c001100000011000000110000001b00000058
:10aeac000f00000001000000110000001e00000057
:10aebc000000000000000000000000001000000076
:10aecc0010000000100000001e0000001b0000001d
:10aedc001100000011000000110000001100000022
:10aeec001100000000000000000000000000000045
:10aefc000000000000000000000000000400000042
:10af0c00000000000000000004000000040000002d
:10af1c000400000004000000040000000400000015
:10af2c000400000000000000000000000000000011
:10af3c0000000000030000000300000000000000ff
:10af4c0000000000030000000300000003000000ec
:10af5c0003000000030000000300000003000000d9
:10af6c0003000000030000000e00000000000000c1
:10af7c0000000000000000000000000018000000ad
:10af8c001800000018000000198000001a000000d2
:10af9c001c0000001e0000001a0000001900000038
:10afac0019800000000000000000000000000000fc
:10afbc000000000000000000000000000400000081
:10afcc000400000004000000040000000400000065
:10afdc000400000004000000040000000400000055
:10afec000400000000000000000000000000000051
:10affc000000000000000000000000000000000045
:10b00c0000000000000000007dc000006640000051
:10b01c00666000006660000066600000666000000c
:10b02c00666000000000000000000000000000004e
:10b03c000000000000000000000000000000000004
:10b04c0000000000000000001f00000019000000bc
:10b05c0011000000110000001100000011000000a0
:10b06c0011000000000000000000000000000000c3
:10b07c0000000000000000000000000000000000c4
:10b08c0000000000000000000f000000198000000c
:10b09c00108000001080000010800000198000005b
:10b0ac000f00000000000000000000000000000085
:10b0bc000000000000000000000000000000000084
:10b0cc0000000000000000001f00000019800000bc
:10b0dc001980000018800000198000001980000001
:10b0ec001f00000018000000180000000000000005
:10b0fc000000000000000000000000000000000044
:10b10c0000000000000000000f800000198000000b
:10b11c0019800000118000001980000019800000c7
:10b12c000f80000001800000018000000000000082
:10b13c000000000000000000000000000000000003
:10b14c0000000000000000000e0000000c000000d9
:10b15c0008000000080000000800000008000000c3
:10b16c0008000000000000000000000000000000cb
:10b17c0000000000000000000000000000000000c3
:10b18c0000000000000000000e0000001100000094
:10b19c00180000000f00000001000000110000006a
:10b1ac000e00000000000000000000000000000085
:10b1bc000000000000000000000000000000000083
:10b1cc0004000000040000000e0000000400000059
:10b1dc000400000004000000040000000400000053
:10b1ec00070000000000000000000000000000004c
:10b1fc000000000000000000000000000000000043
:10b20c000000000000000000110000001100000010
:10b21c001100000011000000110000001b000000d4
:10b22c001f000000000000000000000000000000f3
:10b23c000000000000000000000000000000000002
:10b24c000000000000000000318000001100000030
:10b25c001b0000000a0000000a0000000e000000a5
:10b26c0004000000000000000000000000000000ce
:10b27c0000000000000000000000000000000000c2
:10b28c000000000000000000c4600000c46000006a
:10b29c004e4000005b4000007bc00000318000008d
:10b2ac001100000000000000000000000000000081
:10b2bc000000000000000000000000000000000082
:10b2cc000000000000000000318000001b000000a6
:10b2dc000e000000040000000e0000001b00000027
:10b2ec0031800000000000000000000000000000a1
:10b2fc000000000000000000000000000000000042
:10b30c00000000000000000031800000110000006f
:10b31c00110000001b0000000a0000000e000000dd
:10b32c00040000000c0000001800000000000000e9
:10b33c000000000000000000000000000000000001
:10b34c0000000000000000001f800000030000004f
:10b35c00060000000c000000180000003000000087
:10b36c003f00000000000000000000000000000092
:10b37c0000000000000000000300000006000000b8
:10b38c00060000000600000006000000040000009b
:10b39c000800000004000000060000000600000089
:10b3ac000600000006000000030000000000000082
:10b3bc0000000000000000000c0000000c00000069
:10b3cc000c0000000c0000000c0000000c00000041
:10b3dc000c0000000c0000000c0000000c00000031
:10b3ec000c0000000c0000000c000000000000002d
:10b3fc0000000000000000000c000000060000002f
:10b40c00060000000600000006000000020000001c
:10b41c000100000002000000060000000600000011
:10b42c0006000000060000000c00000000000000f8
:10b43c000000000000000000000000000000000000
:10b44c0000000000000000000000000000000000f0
:10b45c0000000000000000000000000000000000e0
:10b46c0000000000000000000000000000000000d0
:10bb7c0000000000c3000000db000000db00000040
:10bb8c007e0000003c0000001800000003c0000014
:10bb9c0007e000000180000001800000018000002f
:10bbac000180000001800000018000000000000006
:10bbbc0000000000fc000000c6000000c2000000f5
:10bbcc00c6000000fc000000c0000000c000000027
:10bbdc00cfe000000fc000000c0000000f000000c0
:10bbec000c0000000fc000000fe00000000000007f
:10bbfc00ffff0000ffff0000ffff0000ffff000041
:10bc0c00ffff0000ffff0000ffff0000ffff000030
:10bc1c00ffff0000ffff0000ffff0000ffff000020
:10bc2c00ffff0000ffff0000ffff0000ffff000010
:10bc3c00000000000000000000000000ff000000f9
:10bc4c00ff000000c0000000c0000000c7e00000c2
:10bc5c00c7e00000c1800000ff800000ff800000f2
:10bc6c000180000001800000018000000000000045
:10bc7c00000000000000000000000000ff000000b9
:10bc8c00ff000000c0000000c0000000c7e0000082
:10bc9c00c7e00000c6000000ffe00000ffe000006d
:10bcac000060000007e0000007e00000000000005a
:10bcbc00040000000e0000001f0000003f80000088
:10bccc007fc000000e0000000e0000000e000000ff
:10bcdc000e0000000e0000000e000000000000002e
:10bcec000000000000000000000000000000000048
:10bcfc00ffff0000ffff0000ffff0000f9ff000046
:10bd0c00f9ff0000f9ff0000f9ff0000f9ff000047
:10bd1c00f9ff0000f9ff0000f9ff0000ffff000031
:10bd2c00f9ff0000ffff0000ffff0000ffff000015
:10bd3c00ffff0000ffff0000ffff0000e4ff00001a
:10bd4c00e4ff0000f5ff0000ffff0000ffff000014
:10bd5c00ffff0000ffff0000ffff0000ffff0000df
:10bd6c00ffff0000ffff0000ffff0000ffff0000cf
:10bd7c00ffff0000ffff0000fb7f0000fb7f0000c7
:10bd8c00f27f0000c03f0000f6ff0000f6ff00004d
:10bd9c00e4ff0000807f0000edff0000edff0000dd
:10bdac00c9ff0000ffff0000ffff0000ffff0000c5
:10bdbc00ffff0000fbff0000fbff0000e0ff0000a6
:10bdcc00caff0000dbff0000cbff0000e1ff00001a
:10bddc00f8ff0000ba7f00008b7f0000ca7f0000d4
:10bdec00e0ff0000fbff0000fbff0000ffff000076
:10bdfc00ffff0000ffff000087ff0000b7bf00003f
:10be0c00b73f0000b67f000084ff0000fdff00007c
:10be1c00fbff0000f21f0000e6df0000cedf000099
:10be2c00dedf0000fe1f0000ffff0000ffff000030
:10be3c00ffff0000ffff0000ffff0000f1ff00000c
:10be4c00eeff0000ecff0000e5ff0000f3ff000038
:10be5c00c3ff0000d9ff0000dcff0000cc7f000016
:10be6c00e13f0000ffff0000ffff0000ffff0000ac
:10be7c00ffff0000ffff0000ffff0000f9ff0000c4
:10be8c00f9ff0000f9ff0000ffff0000ffff0000ba
:10be9c00ffff0000ffff0000ffff0000ffff00009e
:10beac00ffff0000ffff0000ffff0000ffff00008e
:10bebc00ffff0000feff0000fcff0000f9ff000088
:10becc00f3ff0000f3ff0000f3ff0000f3ff00009e
:10bedc00f3ff0000f3ff0000f3ff0000f3ff00008e
:10beec00f3ff0000f9ff0000fcff0000feff000064
:10befc00ffff0000f7ff0000f3ff0000f9ff000058
:10bf0c00fcff0000fcff0000fcff0000fcff000039
:10bf1c00fcff0000fcff0000fcff0000fcff000029
:10bf2c00fcff0000f9ff0000f3ff0000f7ff00002a
:10bf3c00ffff0000ffff0000fbff0000fbff000005
:10bf4c00e0ff0000fbff0000f5ff0000eeff00002b
:10bf5c00ffff0000ffff0000ffff0000ffff0000dd
:10bf6c00ffff0000ffff0000ffff0000ffff0000cd
:10bf7c00ffff0000ffff0000ffff0000ffff0000bd
:10bf8c00ffff0000f9ff0000f9ff0000f9ff0000bf
:10bf9c00e07f0000f9ff0000f9ff0000f9ff00004e
:10bfac00ffff0000ffff0000ffff0000ffff00008d
:10bfbc00ffff0000ffff0000ffff0000ffff00007d
:10bfcc00ffff0000ffff0000ffff0000ffff00006d
:10bfdc00ffff0000ffff0000ffff0000cfff00008d
:10bfec00cfff0000efff0000dfff0000ffff0000ad
:10bffc00ffff0000ffff0000ffff0000ffff00003d
:10c00c00ffff0000ffff0000ffff0000ffff00002c
:10c01c00ffff0000f0ff0000ffff0000ffff00002b
:10c02c00ffff0000ffff0000ffff0000ffff00000c
:10c03c00ffff0000ffff0000ffff0000ffff0000fc
:10c04c00ffff0000ffff0000ffff0000ffff0000ec
:10c05c00ffff0000ffff0000ffff0000f9ff0000e2
:10c06c00f9ff0000ffff0000ffff0000ffff0000d2
:10c07c00ffff0000ffff0000ff3f0000ff7f0000fc
:10c08c00ff7f0000fe7f0000fcff0000f9ff0000b6
:10c09c00f9ff0000f9ff0000f3ff0000e7ff0000cc
:10c0ac00efff0000efff0000cfff0000ffff0000dc
:10c0bc00ffff0000ffff0000ffff0000f1ff00008a
:10c0cc00e4ff0000eeff0000eeff0000eeff0000ba
:10c0dc00eeff0000eeff0000eeff0000e4ff0000aa
:10c0ec00f1ff0000ffff0000ffff0000ffff00005a
:10c0fc00ffff0000ffff0000ffff0000feff00003d
:10c10c00fcff0000f0ff0000feff0000feff00003f
:10c11c00feff0000feff0000feff0000feff00001f
:10c12c00feff0000ffff0000ffff0000ffff00000c
:10c13c00ffff0000ffff0000ffff0000f0ff00000a
:10c14c00e6ff0000ee7f0000fe7f0000fcff000019
:10c15c00f9ff0000f3ff0000e7ff0000efff000015
:10c16c00c07f0000ffff0000ffff0000ffff00008a
:10c17c00ffff0000ffff0000ffff0000f1ff0000c9
:10c18c00eeff0000feff0000fcff0000f9ff0000c6
:10c19c00feff0000feff0000feff0000eeff0000af
:10c1ac00e1ff0000ffff0000ffff0000ffff0000a9
:10c1bc00ffff0000ffff0000ffff0000fdff00007d
:10c1cc00f9ff0000f9ff0000f5ff0000e5ff00009b
:10c1dc00edff0000cdff0000c07f0000fdff000060
:10c1ec00fdff0000ffff0000ffff0000ffff00004d
:10c1fc00ffff0000ffff0000ffff0000f0ff00004a
:10c20c00e7ff0000efff0000efff0000e1ff000080
:10c21c00feff0000feff0000feff0000eeff00002e
:10c22c00e1ff0000ffff0000ffff0000ffff000028
:10c23c00ffff0000ffff0000ffff0000f0ff000009
:10c24c00e67f0000efff0000efff0000e0ff0000c2
:10c25c00e67f0000ef7f0000ef7f0000e67f00002c
:10c26c00f0ff0000ffff0000ffff0000ffff0000d9
:10c27c00ffff0000ffff0000ffff0000e07f000059
:10c28c00feff0000fcff0000f9ff0000f9ff0000ba
:10c29c00fbff0000f3ff0000f3ff0000e7ff0000ce
:10c2ac00efff0000ffff0000ffff0000ffff00009a
:10c2bc00ffff0000ffff0000ffff0000f1ff000088
:10c2cc00e4ff0000eeff0000e4ff0000f1ff0000bf
:10c2dc00e4ff0000eeff0000eeff0000e4ff0000b2
:10c2ec00f1ff0000ffff0000ffff0000ffff000058
:10c2fc00ffff0000ffff0000ffff0000f1ff000048
:10c30c00e4ff0000eeff0000eeff0000e4ff000081
:10c31c00f0ff0000feff0000feff0000e4ff000045
:10c32c00f1ff0000ffff0000ffff0000ffff000017
:10c33c00ffff0000ffff0000ffff0000ffff0000f9
:10c34c00ffff0000f9ff0000f9ff0000ffff0000f5
:10c35c00ffff0000ffff0000ffff0000f9ff0000df
:10c36c00f9ff0000ffff0000ffff0000ffff0000cf
:10c37c00ffff0000ffff0000ffff0000ffff0000b9
:10c38c00ffff0000ffff0000f9ff0000ffff0000af
:10c39c00ffff0000ffff0000ffff0000f9ff00009f
:10c3ac00f9ff0000fdff0000fbff0000ffff000095
:10c3bc00ffff0000ffff0000ffff0000ffff000079
:10c3cc00ffff0000fe7f0000f9ff0000e7ff000008
:10c3dc00dfff0000e7ff0000f9ff0000fe7f000018
:10c3ec00ffff0000ffff0000ffff0000ffff000049
:10c3fc00ffff0000ffff0000ffff0000ffff000039
:10c40c00ffff0000ffff0000c07f0000ffff0000e7
:10c41c00ffff0000c07f0000ffff0000ffff0000d7
:10c42c00ffff0000ffff0000ffff0000ffff000008
:10c43c00ffff0000ffff0000ffff0000ffff0000f8
:10c44c00ffff0000cfff0000f3ff0000fcff000027
:10c45c00ff7f0000fcff0000f3ff0000cfff000097
:10c46c00ffff0000ffff0000ffff0000ffff0000c8
:10c47c00ffff0000ffff0000f87f0000f33f00000b
:10c48c00f7bf0000ff3f0000fe7f0000fcff000034
:10c49c00f9ff0000f9ff0000ffff0000f9ff0000aa
:10c4ac00f9ff0000ffff0000ffff0000ffff00008e
:10c4bc00ffff0000ffff0000ffff0000e07f000017
:10c4cc00cf3f00009f9f000031df000064df0000c1
:10c4dc006edf00006edf00006e9f00006e3f0000fc
:10c4ec00207f0000bfff00008f9f0000e03f000096
:10c4fc00ffff0000ffff0000ffff0000fbff00003c
:10c50c00f1ff0000f5ff0000e4ff0000eeff00006b
:10c51c00ee7f0000c07f0000df7f00009f3f000027
:10c52c00bfbf0000ffff0000ffff0000ffff000087
:10c53c00ffff0000ffff0000ffff0000c0ff000036
:10c54c00de7f0000df7f0000df7f0000c07f000087
:10c55c00df7f0000df7f0000df7f0000de7f000058
:10c56c00c0ff0000ffff0000ffff0000ffff000006
:10c57c00ffff0000ffff0000ffff0000f0ff0000c6
:10c58c00e67f0000cf3f0000dfff0000dfff000070
:10c59c00dfff0000dfff0000cf3f0000e67f000060
:10c5ac00f0ff0000ffff0000ffff0000ffff000096
:10c5bc00ffff0000ffff0000ffff0000c0ff0000b6
:10c5cc00de7f0000df7f0000df7f0000df7f0000e8
:10c5dc00df7f0000df7f0000df7f0000de7f0000d8
:10c5ec00c0ff0000ffff0000ffff0000ffff000086
:10c5fc00ffff0000ffff0000ffff0000c07f0000f6
:10c60c00dfff0000dfff0000dfff0000c0ff0000c5
:10c61c00dfff0000dfff0000dfff0000dfff000096
:10c62c00c07f0000ffff0000ffff0000ffff0000c5
:10c63c00ffff0000ffff0000ffff0000c07f0000b5
:10c64c00dfff0000dfff0000dfff0000c0ff000085
:10c65c00dfff0000dfff0000dfff0000dfff000056
:10c66c00dfff0000ffff0000ffff0000ffff0000e6
:10c67c00ffff0000ffff0000ffff0000f07f000045
:10c68c00e73f0000cfbf0000dfff0000dfff00002e
:10c69c00dc3f0000dfbf0000cfbf0000e73f000021
:10c6ac00f07f0000ffff0000ffff0000ffff000015
:10c6bc00ffff0000ffff0000ffff0000df7f000016
:10c6cc00df7f0000df7f0000df7f0000c07f000005
:10c6dc00df7f0000df7f0000df7f0000df7f0000d6
:10c6ec00df7f0000ffff0000ffff0000ffff0000e6
:10c6fc00ffff0000ffff0000ffff0000fbff00003a
:10c70c00fbff0000fbff0000fbff0000fbff000035
:10c71c00fbff0000fbff0000fbff0000fbff000025
:10c72c00fbff0000ffff0000ffff0000ffff000009
:10c73c00ffff0000ffff0000ffff0000feff0000f6
:10c74c00feff0000feff0000feff0000feff0000e9
:10c75c00feff0000feff0000eeff0000e4ff000003
:10c76c00f1ff0000ffff0000ffff0000ffff0000d3
:10c77c00ffff0000ffff0000ffff0000df3f000095
:10c78c00de7f0000dcff0000d9ff0000c3ff0000cb
:10c79c00c3ff0000d9ff0000dcff0000de7f0000bb
:10c7ac00df3f0000ffff0000ffff0000ffff000065
:10c7bc00ffff0000ffff0000ffff0000efff000085
:10c7cc00efff0000efff0000efff0000efff0000a5
:10c7dc00efff0000efff0000efff0000efff000095
:10c7ec00e07f0000ffff0000ffff0000ffff0000e4
:10c7fc00ffff0000ffff0000ffff00009f3f000055
:10c80c009f3f00008e3f0000aebf0000aebf000097
:10c81c00a4bf0000b5bf0000b1bf0000b1bf000055
:10c82c00bbbf0000ffff0000ffff0000ffff000088
:10c83c00ffff0000ffff0000ffff0000cf7f0000a4
:10c84c00cf7f0000c77f0000d77f0000db7f000098
:10c85c00db7f0000dd7f0000dc7f0000de7f00005e
:10c86c00de7f0000ffff0000ffff0000ffff000065
:10c87c00ffff0000ffff0000ffff0000e0ff0000d3
:10c88c00ce7f00009f3f0000bfbf0000bfbf000075
:10c89c00bfbf0000bfbf00009f3f0000ce7f000065
:10c8ac00e0ff0000ffff0000ffff0000ffff0000a3
:10c8bc00ffff0000ffff0000ffff0000c0ff0000b3
:10c8cc00df7f0000df7f0000df7f0000df7f0000e4
:10c8dc00c0ff0000dfff0000dfff0000dfff0000f3
:10c8ec00dfff0000ffff0000ffff0000ffff000064
:10c8fc00ffff0000ffff0000ffff0000f0ff000043
:10c90c00e67f0000cf3f0000dfbf0000dfbf00006c
:10c91c00dfbf0000dfbf0000cd3f0000e67f00005e
:10c92c00f07f0000ff3f0000ffbf0000ffff000092
:10c93c00ffff0000ffff0000ffff0000c07f0000b2
:10c94c00df3f0000dfbf0000df3f0000de7f0000a4
:10c95c00c0ff0000dcff0000deff0000de7f0000f7
:10c96c00df3f0000ffff0000ffff0000ffff0000a3
:10c97c00ffff0000ffff0000ffff0000e0ff0000d2
:10c98c00ce7f0000df7f0000cfff0000e1ff000042
:10c99c00fc7f0000ff7f0000df7f0000ce7f0000e7
:10c9ac00e0ff0000ffff0000ffff0000ffff0000a2
:10c9bc00ffff0000ffff0000ffff0000c07f000032
:10c9cc00fbff0000fbff0000fbff0000fbff000073
:10c9dc00fbff0000fbff0000fbff0000fbff000063
:10c9ec00fbff0000ffff0000ffff0000ffff000047
:10c9fc00ffff0000ffff0000ffff0000df7f0000d3
:10ca0c00df7f0000df7f0000df7f0000df7f0000a2
:10ca1c00df7f0000df7f0000df7f0000ce7f0000a3
:10ca2c00e0ff0000ffff0000ffff0000ffff000021
:10ca3c00ffff0000ffff0000ffff00009f9f0000b2
:10ca4c00dfbf0000cf3f0000cf3f0000ef7f0000b2
:10ca5c00e67f0000e67f0000f6ff0000f0ff00001c
:10ca6c00f9ff0000ffff0000ffff0000ffff0000c8
:10ca7c00ffff0000ffff0000ffff00007bdf000056
:10ca8c0071df000075df0000359f0000249f00005f
:10ca9c00a4bf0000aebf00008e3f00008e3f000020
:10caac00df7f0000ffff0000ffff0000ffff000022
:10cabc00ffff0000ffff0000ffff0000ce7f000023
:10cacc00eeff0000e4ff0000f1ff0000fbff0000a0
:10cadc00f1ff0000f5ff0000e4ff0000eeff000096
:10caec00ce7f0000ffff0000ffff0000ffff0000f3
:10cafc00ffff0000ffff0000ffff00009f3f000052
:10cb0c00ce7f0000eeff0000e4ff0000f1ff00000c
:10cb1c00fbff0000fbff0000fbff0000fbff000021
:10cb2c00fbff0000ffff0000ffff0000ffff000005
:10cb3c00ffff0000ffff0000ffff0000e07f000090
:10cb4c00fe7f0000fcff0000fdff0000f9ff00006d
:10cb5c00f3ff0000f7ff0000e7ff0000cfff00002d
:10cb6c00c07f0000ffff0000ffff0000ffff000080
:10cb7c00ffff0000ffff0000f1ff0000f7ff0000c7
:10cb8c00f7ff0000f7ff0000f7ff0000f7ff0000c1
:10cb9c00f7ff0000f7ff0000f7ff0000f7ff0000b1
:10cbac00f7ff0000f7ff0000f1ff0000ffff00009f
:10cbbc00ffff0000ffff0000cfff0000efff0000b1
:10cbcc00efff0000e7ff0000f3ff0000f9ff00009b
:10cbdc00f9ff0000f9ff0000fcff0000fe7f0000e1
:10cbec00ff7f0000ff7f0000ff3f0000ffff000001
:10cbfc00ffff0000ffff0000f1ff0000fdff000041
:10cc0c00fdff0000fdff0000fdff0000fdff000028
:10cc1c00fdff0000fdff0000fdff0000fdff000018
:10cc2c00fdff0000fdff0000f1ff0000ffff000012
:10cc3c00ffff0000ffff0000fbff0000f1ff000002
:10cc4c00e4ff0000ce7f0000df7f0000ffff00004c
:10cc5c00ffff0000ffff0000ffff0000ffff0000d0
:10cc6c00ffff0000ffff0000ffff0000ffff0000c0
:10cc7c00ffff0000ffff0000ffff0000ffff0000b0
:10cc8c00ffff0000ffff0000ffff0000ffff0000a0
:10cc9c00ffff0000ffff0000ffff0000ffff000090
:10ccac00ffff0000ffff0000c07f0000ffff00003f
:10ccbc00ffff0000ffff0000ffff0000dfff000090
:10cccc00cfff0000efff0000ffff0000ffff0000a0
:10ccdc00ffff0000ffff0000ffff0000ffff000050
:10ccec00ffff0000ffff0000ffff0000ffff000040
:10ccfc00ffff0000ffff0000ffff0000ffff000030
:10cd0c00ffff0000ffff0000f0ff0000e6ff000047
:10cd1c00feff0000f0ff0000eeff0000eeff000041
:10cd2c00e07f0000ffff0000ffff0000ffff00009e
:10cd3c00ffff0000ffff0000ffff0000e7ff000007
:10cd4c00e7ff0000e7ff0000e0ff0000e67f0000c7
:10cd5c00e67f0000e67f0000e67f0000e67f000033
:10cd6c00e0ff0000ffff0000ffff0000ffff0000de
:10cd7c00ffff0000ffff0000ffff0000ffff0000af
:10cd8c00ffff0000ffff0000f87f0000f37f0000b2
:10cd9c00e7ff0000efff0000e7ff0000f37f00005b
:10cdac00f87f0000ffff0000ffff0000ffff000006
:10cdbc00ffff0000ffff0000ffff0000ff7f0000ef
:10cdcc00ff7f0000ff7f0000f87f0000f27f000073
:10cddc00f77f0000f77f0000f77f0000f27f000074
:10cdec00f87f0000ffff0000ffff0000ffff0000c6
:10cdfc00ffff0000ffff0000ffff0000ffff00002f
:10ce0c00ffff0000ffff0000f1ff0000e4ff000047
:10ce1c00eeff0000e0ff0000efff0000e6ff000067
:10ce2c00f1ff0000ffff0000ffff0000ffff00000c
:10ce3c00ffff0000ffff0000ffff0000f8ff0000f5
:10ce4c00fbff0000fbff0000f0ff0000fbff0000f9
:10ce5c00fbff0000fbff0000fbff0000fbff0000de
:10ce6c00fbff0000ffff0000ffff0000ffff0000c2
:10ce7c00ffff0000ffff0000ffff0000ffff0000ae
:10ce8c00ffff0000ffff0000f1ff0000e4ff0000c7
:10ce9c00eeff0000eeff0000eeff0000e4ff0000dc
:10ceac00f0ff0000feff0000eeff0000e1ff0000bd
:10cebc00ffff0000ffff0000ffff0000efff00007e
:10cecc00efff0000efff0000e1ff0000e4ff0000b7
:10cedc00eeff0000eeff0000eeff0000eeff000092
:10ceec00eeff0000ffff0000ffff0000ffff00004f
:10cefc00ffff0000ffff0000ffff0000fbff000032
:10cf0c00ffff0000ffff0000fbff0000fbff000025
:10cf1c00fbff0000fbff0000fbff0000fbff00001d
:10cf2c00fbff0000ffff0000ffff0000ffff000001
:10cf3c00ffff0000fcff0000fcff0000ffff0000f3
:10cf4c00ffff0000fcff0000fcff0000fcff0000e6
:10cf5c00fcff0000fcff0000fcff0000fcff0000d9
:10cf6c00fcff0000fcff0000f1ff0000ffff0000d1
:10cf7c00ffff0000ffff0000ffff0000e7ff0000c5
:10cf8c00e7ff0000e7ff0000e67f0000e5ff000080
:10cf9c00e3ff0000e1ff0000e5ff0000e6ff0000fa
:10cfac00e67f0000ffff0000ffff0000ffff000016
:10cfbc00ffff0000ffff0000ffff0000fbff000071
:10cfcc00fbff0000fbff0000fbff0000fbff00006d
:10cfdc00fbff0000fbff0000fbff0000fbff00005d
:10cfec00fbff0000ffff0000ffff0000ffff000041
:10cffc00ffff0000ffff0000ffff0000ffff00002d
:10d00c00ffff0000ffff0000823f000099bf0000ff
:10d01c00999f0000999f0000999f0000999f000024
:10d02c00999f0000ffff0000ffff0000ffff0000c2
:10d03c00ffff0000ffff0000ffff0000ffff0000ec
:10d04c00ffff0000ffff0000e0ff0000e6ff000014
:10d05c00eeff0000eeff0000eeff0000eeff000010
:10d06c00eeff0000ffff0000ffff0000ffff0000cd
:10d07c00ffff0000ffff0000ffff0000ffff0000ac
:10d08c00ffff0000ffff0000f0ff0000e67f000044
:10d09c00ef7f0000ef7f0000ef7f0000e67f0000d5
:10d0ac00f0ff0000ffff0000ffff0000ffff00008b
:10d0bc00ffff0000ffff0000ffff0000ffff00006c
:10d0cc00ffff0000ffff0000e0ff0000e67f000014
:10d0dc00e67f0000e77f0000e67f0000e67f0000af
:10d0ec00e0ff0000e7ff0000e7ff0000ffff00008b
:10d0fc00ffff0000ffff0000ffff0000ffff00002c
:10d10c00ffff0000ffff0000f07f0000e67f000043
:10d11c00e67f0000ee7f0000e67f0000e67f000067
:10d12c00f07f0000fe7f0000fe7f0000ffff00008c
:10d13c00ffff0000ffff0000ffff0000ffff0000eb
:10d14c00ffff0000ffff0000f1ff0000f3ff0000f5
:10d15c00f7ff0000f7ff0000f7ff0000f7ff0000eb
:10d16c00f7ff0000ffff0000ffff0000ffff0000c3
:10d17c00ffff0000ffff0000ffff0000ffff0000ab
:10d18c00ffff0000ffff0000f1ff0000eeff0000ba
:10d19c00e7ff0000f0ff0000feff0000eeff0000c4
:10d1ac00f1ff0000ffff0000ffff0000ffff000089
:10d1bc00ffff0000ffff0000ffff0000ffff00006b
:10d1cc00fbff0000fbff0000f1ff0000fbff000075
:10d1dc00fbff0000fbff0000fbff0000fbff00005b
:10d1ec00f8ff0000ffff0000ffff0000ffff000042
:10d1fc00ffff0000ffff0000ffff0000ffff00002b
:10d20c00ffff0000ffff0000eeff0000eeff00003c
:10d21c00eeff0000eeff0000eeff0000e4ff000058
:10d22c00e0ff0000ffff0000ffff0000ffff000019
:10d23c00ffff0000ffff0000ffff0000ffff0000ea
:10d24c00ffff0000ffff0000ce7f0000eeff00009c
:10d25c00e4ff0000f5ff0000f5ff0000f1ff000007
:10d26c00fbff0000ffff0000ffff0000ffff0000be
:10d27c00ffff0000ffff0000ffff0000ffff0000aa
:10d28c00ffff0000ffff00003b9f00003b9f0000e2
:10d29c00b1bf0000a4bf0000843f0000ce7f00009f
:10d2ac00eeff0000ffff0000ffff0000ffff00008b
:10d2bc00ffff0000ffff0000ffff0000ffff00006a
:10d2cc00ffff0000ffff0000ce7f0000e4ff000026
:10d2dc00f1ff0000fbff0000f1ff0000e4ff000085
:10d2ec00ce7f0000ffff0000ffff0000ffff0000eb
:10d2fc00ffff0000ffff0000ffff0000ffff00002a
:10d30c00ffff0000ffff0000ce7f0000eeff0000db
:10d31c00eeff0000e4ff0000f5ff0000f1ff00004d
:10d32c00fbff0000f3ff0000e7ff0000ffff000021
:10d33c00ffff0000ffff0000ffff0000ffff0000e9
:10d34c00ffff0000ffff0000e07f0000fcff00007b
:10d35c00f9ff0000f3ff0000e7ff0000cfff000023
:10d36c00c0ff0000ffff0000ffff0000ffff0000f8
:10d37c00ffff0000ffff0000fcff0000f9ff0000b2
:10d38c00f9ff0000f9ff0000f9ff0000fbff0000af
:10d39c00f7ff0000fbff0000f9ff0000f9ff0000a1
:10d3ac00f9ff0000f9ff0000fcff0000ffff000088
:10d3bc00ffff0000ffff0000f3ff0000f3ff000081
:10d3cc00f3ff0000f3ff0000f3ff0000f3ff000089
:10d3dc00f3ff0000f3ff0000f3ff0000f3ff000079
:10d3ec00f3ff0000f3ff0000f3ff0000ffff00005d
:10d3fc00ffff0000ffff0000f3ff0000f9ff00003b
:10d40c00f9ff0000f9ff0000f9ff0000fdff00002c
:10d41c00feff0000fdff0000f9ff0000f9ff000017
:10d42c00f9ff0000f9ff0000f3ff0000ffff000010
:10d43c00ffff0000ffff0000ffff0000fdff0000ea
:10d44c00fcff0000fc7f0000003f0000001f0000fc
:10d45c00003f0000fc7f0000fcff0000fdff00000f
:10d46c00ffff0000ffff0000ffff0000ffff0000b8
:10d47c00ffff0000ffff0000ffff0000f7ff0000b0
:10d48c00e7ff0000c7ff0000801f0000001f000026
:10d49c00801f0000c7ff0000e7ff0000f7ff00003f
:10d4ac00ffff0000ffff0000ffff0000ffff000078
:10d4bc004f41000020280000585800005858000028
:10d4cc0058580000585800005820000028580000f8
:10d4dc005858000058290000292000002d20000079
:10d4ec004b2d0000547200006f6e00006963000049
:10d4fc00202d0000204200005858000058770000f2
:10d50c00585800005820000020760000302e0000f3
:10d51c003034000020310000342f00003033000084
:10d52c002f31000039000000444900005341000035
:10d53c00424c000045000000454e000041420000f6
:10d54c004c450000006d0000656e0000752e00005b
:10d55c00696e0000690000007365000074740000bf
:10d56c00696e0000677300002e6900006e69000090
:10d57c0000620000775f0000667700002e680000f4
:10d58c0065780000004e0000455700004d45000036
:10d59c004e5500005300000061000000627700004f
:10d5ac002e7400007874000000250000752c00001b
:10d5bc00257500000d0a00000056000049450000ca
:10d5cc0057200000414e0000474c00004520000051
:10d5dc005345000054540000494e0000473d0000e4
:10d5ec002575000000720000002a00002e2a0000a1
:10d5fc0000770000006800006f6d0000652e0000d1
:10d60c00626d000070000000323200003232000007
:10d61c00323200003232000032320000007700005b
:10d62c006f7200006b2d00006d2e0000626d00000b
:10d63c0070000000776f0000726b00002d6100001d
:10d64c002e6200006d700000004d0000657400003b
:10d65c00746500007265000000660000696c0000d3
:10d66c00747200006f0000007361000063630000bf
:10d67c0068650000747400006f00000050720000b8
:10d68c006570000061720000617a0000696f000033
:10d69c006e6500000074000061720000617400008f
:10d6ac007572000061000000312f00003420000072
:10d6bc0073610000636300006f000000312f0000f5
:10d6cc003220000073610000636300006f000000f3
:10d6dc003120000073610000636300006f000000e4
:10d6ec0031200000646f0000736500000032000000
:10d6fc00206400006f7300006900000033200000fc
:10d70c00646f000073690000007400003a20000090
:10d71c00257500003a25000030320000752e0000ff
:10d72c00257500003020000020000000253400008a
:10d73c006c6400002e2500003032000075200000c3
:10d74c0067000000202000002020000020200000a6
:10d75c00202000002020000020200000002d0000d0
:10d76c003e200000257500003a25000030320000f4
:10d77c00752e0000253000003275000020200000be
:10d78c00002000002020000046610000747400009e
:10d79c006f2e000020200000200000006d650000ae
:10d7ac006e750000257500005f25000075000000f7
:10d7bc0062610000636b0000696d0000670000008f
:10d7cc00615f000073250000750000006d650000ae
:10d7dc006e750000006f000000730000746f000095
:10d7ec0070000000536500007475000070000000ac
:10d7fc0073690000006e00006f00000054490000c7
:10d80c004d45000044000000454e00004142000020
:10d81c004c45000044000000444900005341000006
:10d82c00424c00004544000000250000730000003d
:10d83c00257500002025000073200000200000004a
:10d84c002575000020200000002500006c750000ec
:10d85c00202500007320000020000000256c000033
:10d86c0075200000200000005365000069200000b6
:10d87c007369000063750000726f00003f000000c8
:10d88c00627700004545000000530000415600003f
:10d89c00494e000047200000444100005441000064
:10d8ac002e2e0000004600003d250000752c0000c7
:10d8bc0065720000723a000025750000200000001f
:10d8cc005b6f0000707a0000696f00006e690000e9
:10d8dc005d0d00000a00000062610000636b000037
:10d8ec006c69000067680000740000007370000031
:10d8fc006c61000073680000007400006573000028
:10d90c00740000005b70000061720000616d00002b
:10d91c0065740000726900005d0d00000a000000d3
:10d92c005456000069620000726f00003100000064
:10d93c005456000069620000726f00003200000053
:10d94c00257300003d250000640d00000a00000056
:10d95c00257300003d250000730d00000a00000037
:10d96c00772b00000056000069620000726f000007
:10d97c00312f000070720000653a00000064000056
:10d98c002e7300000056000069620000726f0000e8
:10d99c00312f0000706f0000737400003a0000001b
:10d9ac0056690000627200006f3200002f70000098
:10d9bc00726500003a0000005669000062720000b7
:10d9cc006f3200002f7000006f730000743a00007b
:10d9dc000056000069620000726f0000310d0000fb
:10d9ec000a72000069730000747200006574000014
:10d9fc00746f00003a00000056690000627200006b
:10da0c006f3100000d0a000031200000746100002d
:10da1c007a7a0000613a000000560000696200004a
:10da2c00726f0000310d00000a32000020740000fb
:10da3c00617a00007a6500003a0000005669000027
:10da4c00627200006f3100000d0a0000312f0000df
:10da5c003420000073610000636300006f3a000023
:10da6c000056000069620000726f0000310d00006a
:10da7c000a3100002f3200002073000061630000a7
:10da8c00636f00003a0000005669000062720000eb
:10da9c006f3100000d0a000031200000736100009e
:10daac00636300006f3a00000056000069620000da
:10dabc00726f0000320d00000a72000069730000e2
:10dacc007472000065740000746f00003a0000006e
:10dadc0056690000627200006f3200000d0a0000ef
:10daec0031200000746100007a7a0000613a000075
:10dafc000056000069620000726f0000320d0000d9
:10db0c000a32000020740000617a00007a6500007f
:10db1c003a00000056690000627200006f3200008b
:10db2c000d0a0000312f000034200000736100004a
:10db3c00636300006f3a0000005600006962000049
:10db4c00726f0000320d00000a3100002f3200000d
:10db5c002073000061630000636f00003a00000056
:10db6c0056690000627200006f3200000d0a00005e
:10db7c003120000073610000636300006f3a000005
:10db8c0000540000656d0000706f0000206d0000f7
:10db9c0061630000696e000061720000697300002f
:10dbac007472000065740000746f00003a0000008d
:10dbbc00632e000073000000546500006d700000bf
:10dbcc006f2000006d610000636900006e61000051
:10dbdc0031200000746100007a7a0000613a000084
:10dbec0000540000656d0000706f0000206d000097
:10dbfc0061630000696e0000613200002074000057
:10dc0c00617a00007a6500003a000000546500005b
:10dc1c006d7000006f2000006d61000063690000f2
:10dc2c006e610000312f0000342000007361000091
:10dc3c00636300006f3a000000540000656d000043
:10dc4c00706f0000206d000061630000696e0000c1
:10dc5c00613100002f32000020730000616300006e
:10dc6c00636f00003a000000546500006d70000006
:10dc7c006f2000006d610000636900006e610000a0
:10dc8c003120000073610000636300006f3a0000f4
:10dc9c0000560000656c00002e6d000061630000f2
:10dcac00696e0000613a000000720000706d0000a7
:10dcbc0000560000656c00002e76000069620000c2
:10dccc00726f0000313a0000002500000056000081
:10dcdc00656c00002e76000069620000726f000017
:10dcec00323a000000460000696c000074720000bb
:10dcfc006f3a00000053000061630000636800008d
:10dd0c0065740000746f00003a0000005345000079
:10dd1c004c4600002054000045530000543a0000cb
:10dd2c0000420000616300006b6c0000696700003a
:10dd3c00687400003a000000436f00006e7400002d
:10dd4c0072610000737400006f3a00000053000011
:10dd5c004554000055500000204500004e41000085
:10dd6c00424c0000454400003a0000005370000093
:10dd7c006c61000073680000207300006372000087
:10dd8c00656500006e3a0000000000000000000015
:10dd9c000b000000000000003200000044310000c5
:10ddac0001000000b9ec0000c5ec0000000100000f
:10ddbc000b000000000000003200000045310000a4
:10ddcc0001000000c9ec0000c5ec000000020000de
:10dddc000b00000000000000320000004631000083
:10ddec0001000000d6ec0000c5ec000000030000b0
:10ddfc000b00000000000000320000004731000062
:10de0c0001000000e2ec0000c5ec00000004000082
:10de1c000b00000000000000010000005631000063
:10de2c0000000000efec0000000000000005000006
:10de3c000b00000000000000010000005731000042
:10de4c000000000002ed00000000000000060000d1
:10de5c000b00000000000000010000005831000021
:10de6c000000000013ed000000000000000700009f
:10de7c000b00000000000000010000005931000000
:10de8c000000000024ed000000000000000800006d
:10de9c000b00000000000000010000005a310000df
:10deac000000000037ed0000000000000009000039
:10debc000b00000000000000010000005b310000be
:10decc00000000004aed000000000000000a000005
:10dedc000b00000000000000010000005c3100009d
:10deec00000000005bed000000000000000b0000d3
:10defc000b00000000000000010000005d3100007c
:10df0c00000000006eed000000000000000c00009e
:10df1c000b00000000000000010000005e3100005a
:10df2c00000000007fed000000000000000d00006c
:10df3c000b00000000000000010000005f31000039
:10df4c000000000090ed000000000000000e00003a
:10df5c000b00000000000000010000006031000018
:10df6c0000000000a3ed000000000000000f000006
:10df7c000b000000000000000100000061310000f7
:10df8c0000000000b6ed00000000000000100000d2
:10df9c000e00000000000000307500004831000049
:10dfac0002000000c7ed0000deed000000110000d3
:10dfbc000e00000000000000307500004a31000027
:10dfcc0002000000e2ed0000deed00000012000097
:10dfdc000e00000000000000307500004c31000005
:10dfec0002000000f7ed0000deed00000013000061
:10dffc000e00000000000000307500004e310000e3
:10e00c00020000000cee0000deed00000014000029
:10e01c000e000000000000003075000050310000c0
:10e02c000200000023ee0000deed000000150000f1
:10e03c000e0000000000000030750000523100009e
:10e04c00020000003aee0000deed000000160000b9
:10e05c000d0000002c010000dc0500005431000014
:10e06c00020000004fee00005bee00000017000005
:10e07c000700000000000000640000006231000096
:10e08c00010000005fee00006bee000000180000c5
:10e09c000700000000000000640000006331000075
:10e0ac00010000006dee00006bee00000019000096
:10e0bc0006000000000000000100000064310000b8
:10e0cc000000000079ee000000000000001a0000c3
:10e0dc000800000000000000010000006531000095
:10e0ec000000000081ee000000000000001b00009a
:10e0fc000a00000000000000010000006731000071
:10e10c00000000008cee000000000000001c00006d
:10e11c000a00000000000000020000006b3100004b
:10e12c000100000097ee000000000000001d000040
:10e13c000a00000000000000020000006b3100002b
:10e14c0001000000a2ee000000000000001e000014
:10e15c000e00000000000000010000006d31000006
:10e16c0000000000adee000000000000001f0000e9
:10e17c000e00000000000000010000006e310000e5
:10e18c0000000000bcee0000000000003031000078
:10e19c0032330000343500003637000038390000c7
:10e1ac0061620000636400006566000000520000bc
:10e1bc004420000066610000743d0000256c0000e6
:10e1cc00752c00002066000061740000736900006b
:10e1dc007a6500003d2500006c75000020000000f1
:10e1ec004c4400003220000066610000743d0000c9
:10e1fc00256c0000752c0000206600006972000080
:10e20c0073740000733d0000256c0000752c000039
:10e21c00207200006f6f0000743d0000256c000040
:10e22c007520000000660000617400007369000036
:10e23c007a6500003d2500006c7500002c20000064
:10e24c0073650000634300006f7500006e7400007e
:10e25c003d2500006c7500002c200000536500006b
:10e26c006350000065720000436c00007573000081
:10e27c003d25000075200000006600006174000060
:10e28c00736900007a6500004e650000773d000060
:10e29c00256c00007500000064690000736b0000c1
:10e2ac002d3e000066610000743d0000256c0000ee
:10e2bc00752c000020640000697300006b2d0000b9
:10e2cc003e6600006972000073740000733d00002c
:10e2dc00256c0000752c0000207200006f6f000090
:10e2ec00743d0000256c0000752000000043000008
:10e2fc00464500003a200000256c0000752c0000fb
:10e30c00202500006c7500002c20000025750000f5
:10e31c002c200000257500002c200000256c00002e
:10e32c0075200000006c000065670000676f00003e
:10e33c003a200000256c0000752c00002025000000
:10e34c00752c0000202500006c7500000064000096
:10e35c00697200003a200000256c00005820000073
:10e36c00004600004545000064690000723d000055
:10e37c002558000020000000666900006c65000054
:10e38c0070740000723d0000255800002c20000025
:10e39c00666900006e6100006c3d00002575000090
:10e3ac002e20000000430000325300003a200000f1
:10e3bc00256c0000752c0000202500006c750000f9
:10e3cc002c200000256c00007520000000000000cf
:10e3dc00000100000001000000010000000100002d
:10e3ec00ff000000ff000000ff000000fe00000026
:10e3fc00fe000000fd000000fc000000fb0000001f
:10e40c00fa000000f9000000f8000000f70000001e
:10e41c00f6000000f5000000f3000000f200000020
:10e42c00f1000000ef000000ed000000ec00000027
:10e43c00ea000000e8000000e6000000e400000034
:10e44c00e2000000e0000000de000000db00000045
:10e45c00d9000000d7000000d4000000d20000005a
:10e46c00cf000000cc000000ca000000c700000074
:10e47c00c4000000c1000000be000000bb00000092
:10e48c00b8000000b5000000b2000000af000000b2
:10e49c00ab000000a8000000a5000000a1000000d7
:10e4ac009e0000009a0000009600000093000000ff
:10e4bc008f0000008b00000088000000840000002a
:10e4cc00800000007c000000780000007400000058
:10e4dc00700000006c000000680000006400000088
:10e4ec00600000005c0000005800000053000000b9
:10e4fc004f0000004b0000004700000042000000ed
:10e50c003e0000003a000000350000003100000021
:10e51c002c00000028000000240000001f00000058
:10e52c001b00000016000000120000000d0000008f
:10e53c00090000000400000000000000009500002d
:10e54c00000000000000000001f9000000000000c5
:10e55c00000000000887000004000000000000001c
:10e56c0009af000000000000010000000a1b0000c1
:10e57c0000000000010000000cc3000001000000be
:10e58c00000000000daf00000200000000000000c1
:10e59c0010ff0000000000000000000011ff000050
:10e5ac00000000000100000012ff0000000000004d
:10e5bc000100000018ff0000000000000100000036
:10e5cc0019ff0000000000000100000020ff000007
:10e5dc00000000000000000021ff0000000000000f
:10e5ec000000000026df0000010000000000000019
:10e5fc003773000000000000000000003a25000006
:10e60c0004000000000000003b250000000000009a
:10e61c000000000029ff00000400000000000000c2
:10e62c0017ff000000000000000000003031000067
:10e63c003233000034350000363700003839000022
:10e64c00616200006364000065660000002e00003b
:10e65c002e00000030310000323300003435000051
:10e66c003637000038390000616200006364000036
:10e67c0065660000002e00002e00000072000000f5
:020000040000fa
:10e68c0080d7220012c0b300b1d722000258780004
:10e69c00808f5000fdff3a008040eb0040cd2200ff
:10e6ac0001487800e0cc2200014878000080eb00a3
:10e6bc008080eb00709a8900819a8900909a890079
:10e6cc00a19a890040e32200a80107008000eb001a
:10e6dc000004e0002d003a0041e32200b09a8100d2
:10e6ec00010878008000eb00b09a8100510098007e
:10e6fc00b09a8100610098006011b800b09a810056
:10e70c007200980003089800b09a810012089800d3
:10e71c0023089800c1c5b300b09a810041589800f5
:10e72c001100200002c2b300b09a810000804000aa
:10e73c00425898008100e800eb8f5000faff3a0035
:10e74c000001eb00b09a81004210980001012000fa
:10e75c00b09a810061109800b09a8100346c8100ed
:10e76c00456c81007410980005189800b09a8100cf
:10e77c00346c8100456c81001418980025189800a1
:10e78c00a0d8220002487800110020000100780077
:10e79c0000000600e8874700889fbe008a9fbe00e5
:10e7ac008c9fbe008e1f7800000678000107780051
:10e7bc0082f79f0093f79f0040109000e0b79f00f6
:10e7cc007c1090008c189000101e9800211e980050
:10e7dc006e1090000080ea00f0b79f006fb09700b9
:10e7ec000000e00007003a0012c0b300f4805700ac
:10e7fc000c0078009a0a07000000e00085003a003f
:10e80c00820037006f0060008200320012c0b3003b
:10e81c00f48057000c007800910a07000000e0001b
:10e82c007c003a0079003700f48057000c00780027
:10e83c00190e0700e24f5000780032000004e0008f
:10e84c0063003a00ec109000f103b2001ff1970046
:10e85c000204e00003003200e14f510065003a0071
:10e86c0016003700e88f5000620032007c0546002d
:10e87c00fc044700bbc0b3001a80fb00960c0200de
:10e88c0000000000000478001980fb00960c0200c8
:10e89c0000000000800f540051003a008b45e90045
:10e8ac000a05e8008904e8000b04e0004e00320081
:10e8bc00f1ff3700b8002000230037007fb197002c
:10e8cc00010061004b003a00ef8f5000490032000c
:10e8dc00ce589000a0c2b30080cf50001900320077
:10e8ec00fc0546007c0547008dc0b3009b407800ba
:10e8fc009a447800a0c2b30080cf540011003200bb
:10e90c007540400080cf5400090032000180fb00ac
:10e91c00960c020000000000000478000980fb0047
:10e92c00960c020000000000800f5400e1ff3a003a
:10e93c008d46e9008b05e8000a05e8000d04e000af
:10e94c00eaff3a000004eb00ce609000a0c2b300d6
:10e95c0080cf5000270032000800e00025003a006c
:10e96c004b0220008c8545004a0220000e05450014
:10e97c003dc0b3009b4078009a447800a0c2b3001d
:10e98c0080cf54001a0032007540400080cf5400f4
:10e99c00090032000180fb00960c02000000000010
:10e9ac00000478000980fb00960c020000000000b7
:10e9bc00800f54000a003a008d46e9008b05e800f0
:10e9cc000a05e8000d04e00009003200e9ff3700f9
:10e9dc000ff097000004e000030032000500370040
:10e9ec00b8002000030037000004eb0001003700e2
:10e9fc000004eb00efb097008100e800e1b79f0046
:10ea0c000800e0000500320087ff3700b801200045
:10ea1c0002003700b800200083ff370008007800a0
:10ea2c004f0778004f06be004f05be004f04be00d6
:10ea3c008f00b10000000600889fbe008a9fbe00b8
:10ea4c008c9fbe008e1f78000004be000247780029
:10ea5c00100678003c6090007d0020000004e0006f
:10ea6c005a0032007810900088189000101c980002
:10ea7c00211c9800190078000000e00006003a0004
:10ea8c0012c0b3000800be00f50907000000e0004a
:10ea9c000a003a00070037006f00600007003200e0
:10eaac0012c0b3000800be00ed0907000000e00032
:10eabc0002003a00bd012000010037008006eb0087
:10eacc000800be00740d07000004e00002003200d4
:10eadc00bd0020003d0037006000b80070049800b5
:10eaec00010c980018009000a800900030049800c9
:10eafc00410498000000eb0050049800600498005a
:10eb0c0018019000a80190000c007800001107007b
:10eb1c000005be0020cd22001004e00005003200ec
:10eb2c004e1207000004e000020032009d0020009d
:10eb3c002600370088668900909a8100a19a81008e
:10eb4c00800f5500818f5d000e00320040cd2200f9
:10eb5c000048eb001c80fb001c4190004811dd00bc
:10eb6c00000171000a00be0016e602000100000060
:10eb7c000004e00001003a008d0020009a9a890000
:10eb8c00ab9a8900380890000020a100300c980046
:10eb9c0070c7b300804f570003003200764050001e
:10ebac00804f570005003a00380890000000a00084
:10ebbc000010a100300c98000400370038089000b9
:10ebcc000000a1000010a000300c98000d0078008f
:10ebdc004f0778004f06be004f05be004f04be0025
:10ebec0000000600ea874700889fbe008a9fbe008f
:10ebfc008c9fbe008e1f7800800678000205be0038
:10ec0c00100678002c609000e14f50000300320099
:10ec1c00e34f50000a003a001200370080ff20003a
:10ec2c0001002000d0b79f00e1b79f00f0ff2f003c
:10ec3c0001002000f0b79f0081bf9f00110037003a
:10ec4c0080ff2f0001002000d0b79f00e1b79f008c
:10ec5c00f0ff2f0001002000f0b79f0081bf9f0044
:10ec6c000800370080ff2f00f1ff2000d0b79f0075
:10ec7c00e1b79f00f0ff2f00f1ff2000f0b79f00dd
:10ec8c0081bf9f000a04be000047eb003d019000cd
:10ec9c00cd0190000c007800ea1407000002be00c1
:10ecac007fb097008fb89700800f5200818f5a0069
:10ecbc0002003a008ec0b30016003700cc50900012
:10eccc008180fb005c5090004800dd000101700069
:10ecdc00ec5090008180fb007c5090004800dd00df
:10ecec008101700062014100e0814900820f5200f5
:10ecfc00838f5a0001003900aec0b3005fb097009b
:10ed0c00efb09700800f5200818f5a00010039003c
:10ed1c00cec3b300b4069800c50698006104540035
:10ed2c00e0845c000080eb000050b8000a815000c9
:10ed3c008b0051000000450081804d00880f500071
:10ed4c00898f5800020032000e04e000cfff320021
:10ed5c000e80fb004f0778004f06be004f05be002b
:10ed6c004f04be00af00b10000000600881f780001
:10ed7c00000478000040eb003064980080322200e0
:10ed8c00004c78004800de001044980088e3020034
:10ed9c0001000000000178001004e00004003200c3
:10edac0061c0b300a0d822000148780020003700d1
:10edbc0000102000120060001100320012009000c0
:10edcc0001002000005c98004800de00105c9800f8
:10eddc000000eb00205c9800305c980092009000e2
:10edec0000202000808f50000500360011c2b300b7
:10edfc00a0d8220001487800100220000d00370036
:10ee0c00080078000d000700804078000004e00046
:10ee1c0007003a0008007800d60007008040780010
:10ee2c000004e00002003a0010c0b3003064980007
:10ee3c000180fb004f04780000000600881f78005a
:10ee4c00000478001080fb00184190004811dd0090
:10ee5c00000171006000b80016e60200010000001d
:10ee6c00e14f50000500320081c0b300a0d8220051
:10ee7c000148780001407800bb0037009880fb0007
:10ee8c00184090004800dd0001017000e2f893008a
:10ee9c0050c5b30080cf50006d003a00f2f89300db
:10eeac00a0cab30080cf500069003a006103200073
:10eebc0002007800fa0f070061c4b300814f5000c4
:10eecc002d003a009880fb00184090004800dd00af
:10eedc000100700071032000f10f070011c4b30092
:10eeec00814f500024003a009880fb00184090009d
:10eefc004800dd000100700081032000e80f0700ce
:10ef0c0041c5b300814f50001b003a009880fb00b4
:10ef1c00184090004800dd000100700091032000b3
:10ef2c00df0f070011c3b300814f500012003a00ed
:10ef3c009880fb00184090004800dd000100700034
:10ef4c0061022000d60f070091c2b300814f500020
:10ef5c0009003a000040eb0020449800304498002f
:10ef6c00404498005044980020c0b300206498009e
:10ef7c000000eb007d0037009880fb0018409000eb
:10ef8c004800dd000100700021052000c40f0700bf
:10ef9c0061c4b300814f50002d003a009880fb00f3
:10efac00184090004800dd00010070003105200081
:10efbc00bb0f070011c4b300814f500024003a006e
:10efcc009880fb00184090004800dd0001007000a4
:10efdc0041052000b20f070041c5b300814f50001e
:10efec001b003a009880fb00184090004800dd00a0
:10effc000100700051052000a90f070031c3b300b8
:10f00c00814f500012003a009880fb00184090008d
:10f01c004800dd000100700021042000a00f070053
:10f02c0091c2b300814f500009003a000040eb0040
:10f03c002044980030449800404498005044980074
:10f04c0030c0b300206498000000eb00470037008c
:10f05c009880fb00184090004800dd000101700012
:10f06c00e2f8930050c5b30080cf500004003a0082
:10f07c00f2f89300a0cab30080cf50000500320014
:10f08c0041c0b300a0d822000148780001407800ac
:10f09c0035003700e41b20000202420045c0b300db
:10f0ac00f60f2000844890008180fb0014489000eb
:10f0bc004800dd0001017000a44890008180fb0035
:10f0cc00344890004800dd008101700006006100aa
:10f0dc00204498004810de003044980006806100ff
:10f0ec00404498004818de0050449800444090007a
:10f0fc00ee4f500015003e000000fb0012002000f7
:10f10c008010dd00000524000080600007003a003c
:10f11c00008021000080600008003a000118a30064
:10f12c000a003200226498001000370020c0b3009f
:10f13c00206498000000eb000c00370030c0b300d6
:10f14c00206498000000eb000800370070024200b9
:10f15c008542e900d3ff3a0051c0b300a0d8220089
:10f16c0001487800014078000080fb004f047800d3
:10f17c0000000600ea874700889fbe008a9fbe00f9
:10f18c008c9fbe008e1f7800800478001080fb00de
:10f19c00194190004811dd000001710029429000d6
:10f1ac000482fb00b9419000c819dd000480710095
:10f1bc00494290000482fb00d9419000c819dd003f
:10f1cc008480710016e602000100000082c0b300ca
:10f1dc00e14f5000ad013a009980fb0019409000be
:10f1ec004800dd00010570008005eb000b0778007e
:10f1fc00010037001b002000eaf8930050c5b30053
:10f20c0080cf500024013a00faf89300a0cab30052
:10f21c0080cf500020013a009980fb0019409000eb
:10f22c004800dd0001007000e10020001f0f070006
:10f23c00000478009980fb00194090004800dd0024
:10f24c0001007000d1002000150f07009064980099
:10f25c006140b800f0b79f0081bf9f00a9419000aa
:10f26c008381fb00394190004811dd0003007100df
:10f27c00c94190008381fb00594190004811dd0089
:10f28c00830071007fb197008fb997000000410097
:10f29c0081804900e04498004801de00f244980067
:10f2ac00814c98004808de00904c98009980fb0037
:10f2bc00194090004800dd000100700001012000a1
:10f2cc00f70e0700806498009980fb0019409000ad
:10f2dc004800dd000100700061012000f30e070002
:10f2ec006101b800fc0f2000c25c98004811de00e0
:10f2fc00d25c98008000eb00e15c9800f15c980017
:10f30c000000e0000e003a009980fb0019409000cc
:10f31c004800dd000100700041022000ea0e0700e9
:10f32c000c016000c25c98004801de00d25c9800c1
:10f33c000c816000e25c98004808de00f05c9800ec
:10f34c00e94090008180fb00794090004800dd008e
:10f35c0001037000894890008180fb0019489000df
:10f36c004800dd0081037000096090000086fb00fe
:10f37c000d002000c95890008180fb005958900066
:10f38c004800dd0001027000e95890008180fb000c
:10f39c00795890004800dd00810270000460b800cc
:10f3ac008561b80081004100060340008783480056
:10f3bc00f30f200003006300a04c98004830de00df
:10f3cc00b04c980003806300c04c98004838de00b5
:10f3dc00d04c98009980fb00194090004800dd004b
:10f3ec000100700011012000b00e0700f20f200088
:10f3fc0082006000a15498004800de00b0549800d0
:10f40c009980fb00194090004800dd00010070005d
:10f41c0031012000a50e07006106b8000000e000d5
:10f42c0007003a009980fb00194090004800dd006d
:10f43c000100700001022000a30e07000006be00b0
:10f44c009980fb00194090004800dd00010070001d
:10f45c00b1002000950e0700000478000000e000c9
:10f46c008f0032000008a3008d003a00a9509000d4
:10f47c008180fb00395090004800dd0001007000d5
:10f48c004500dd00000044000000e9001100090007
:10f49c000880d8006101b800d2b79f00e3b79f0085
:10f4ac00096090000083fb0007002000c958900001
:10f4bc008180fb00595890004800dd00010270006b
:10f4cc00e95890008180fb00795890004800dd00dd
:10f4dc00810270000430b8008531b8008100410011
:10f4ec007fb197008fb997000200400083804800dd
:10f4fc005fb19700efb19700020040008380480095
:10f50c000000560081805e00196190000281fb00b2
:10f51c000300200084060200000000000001be0071
:10f52c00f10f200001006100c05498004810de006b
:10f53c00d054980001806100e05498004818de0017
:10f54c00f054980040ff2000800f5100e08f5900cc
:10f55c0003003e0010c0b300a06498000800370000
:10f56c00ec0f4100e08f590003003e0020c0b300b7
:10f57c00a06498000200370030c0b300a06498006b
:10f58c0029609000e34f500020003a009980fb0066
:10f59c00194090004800dd0001007000c1022000fd
:10f5ac00490e0700306c8900416c8900a948900015
:10f5bc008180fb00394890004800dd00010170009b
:10f5cc00c94890008180fb00594890004800dd003c
:10f5dc00810170005fb09700efb09700000141000f
:10f5ec0081814900f10f200001006100e04c98007e
:10f5fc004810de00f04c98000180610080549800a7
:10f60c004818de00905498001e0037006000b800c7
:10f61c00306c8900416c8900a94890008180fb0006
:10f62c00394890004800dd0001027000c948900084
:10f63c008180fb00594890004800dd008102700079
:10f64c00295190000281fb00395090004800dd00e8
:10f65c00020070004400de0000004200e0804a001e
:10f66c00f30f200003016000e24c98004801de001b
:10f67c00f24c980003816000825498004808de0028
:10f68c00905498000041eb0000202000800f5400a3
:10f69c00040036000200370032c0b300010037000e
:10f6ac0012c2b30029609000e34f500007003200f3
:10f6bc000204e000770032002ac0900081cdb30034
:10f6cc0001404000e14f500070003e00ba509000e5
:10f6dc008180fb004a5090004800dd000100700062
:10f6ec002c003a004a7090000004e00029003a0017
:10f6fc005a7090000004e00026003a006a709000f6
:10f70c000004e00023003a007a7090000004e0004e
:10f71c0020003a000a7890000004e0001d003a0036
:10f72c001a7890000004e0001a003a002a78900041
:10f73c000004e00017003a003a7890000004e00062
:10f74c0014003a004a7890000004e00011003a00de
:10f75c005a7890000004e0000e003a006a7890009d
:10f76c000004e0000b003a007a7890000004e000fe
:10f77c0008003a002ac0900081cdb300014040003f
:10f78c00e14f500003003e000204e00002003a008a
:10f79c004000370032c0b3000b00e0001e003a00fe
:10f7ac001980fb00194190004811dd000001710027
:10f7bc00a94090008180fb00394090004800dd009a
:10f7cc0001027000c94090008180fb0059409000fc
:10f7dc004800dd0081027000aa7190008381fb005b
:10f7ec003a7090004800dd000300700000004200f9
:10f7fc00e0804a0016e6020001000000e14f5000d4
:10f80c007cfe320081c0b300a0d8220001487800f1
:10f81c0080002000200037000e00e0001b003a00a2
:10f82c001980fb00194190004811dd0000017100a6
:10f83c00294290000482fb00b9419000c819dd00f8
:10f84c0004807100494290000482fb00d941900071
:10f85c00c819dd008480710066004000e08048001b
:10f86c0016e6020001000000e14f500002003a00d1
:10f87c001e00200060fe370081c0b300a0d822001b
:10f88c00014878008000200003003700a0d8220037
:10f89c00024878000280fb004f0778004f06be003c
:10f8ac004f05be004f04be00af00b10000000600c3
:10f8bc00000178002008900001002000c000dd004d
:10f8cc00000020005209900003002000020070008c
:10f8dc008380700000000600e6874700889fbe000a
:10f8ec008a9fbe008c9fbe008e1f78000006be0053
:10f8fc00f2b79f0083bf9f00e00f5000e08f5800cd
:10f90c00a4003200e10f5100e08f5900a100360035
:10f91c0061005100e0805900800f5600818f5e001d
:10f92c009c003e0020cd22001004e00003003200b9
:10f93c00ca0e07000004e00096003a00883222004c
:10f94c00022020008000eb0008007800fa0c020076
:10f95c00000000000807780012ec230003002000d0
:10f96c000c00be0084060200000000000004be0073
:10f97c004e48dd00c244de00890470004e44dd00b8
:10f98c0012ec2300030020000c00be00a4060200b1
:10f99c00000000000005be00f20320000300200060
:10f9ac0084060200000000004609dd00ca00de00eb
:10f9bc00810071004600dd00000474008184740035
:10f9cc00f2032000030020000a00be00a40602007f
:10f9dc000000000061004000e0804800000474005a
:10f9ec00818474004048de0001002000724e220029
:10f9fc0000497800c849dd004840de0000807100f5
:10fa0c00c848de00824e220000497800904e220049
:10fa1c00084878007fb097008fb897000c01500011
:10fa2c008d81580022cf9b004810de0030cf9b0008
:10fa3c0043cf9b004818de0050cf9b008103210070
:10fa4c00810f5100e08f590003003e0010c0b3003d
:10fa5c0020c79b0007003700f0d52f00f1032000d2
:10fa6c00800f5100818f59004a003e0060c0b300e6
:10fa7c0020c79b006cc79b004860de0070c79b00d2
:10fa8c000dcf9b004868de0010cf9b007fb1970024
:10fa9c008fb997000c0441008d8449006104540017
:10faac00e0845c0012ec2300030020000800be0080
:10fabc008406020000000000ce09dd00c205de0055
:10facc008b8571004e05dd0012ec23000300200035
:10fadc000800be00a4060200000000000004be00e6
:10faec00f203200003002000840602000000000046
:10fafc004609dd00ca00de00810071004600dd0011
:10fb0c000005750081857500f203200003002000bc
:10fb1c000800be00a40602000000000061004000c6
:10fb2c00e080480000057500818575004058de00b6
:10fb3c0001002000b24e220000497800c859dd00b7
:10fb4c004850de0000807100c858de00c24e220012
:10fb5c0000497800d04e22000a4878000040eb00a3
:10fb6c00607f9b0050c5b30060ff9b00a0cab30030
:10fb7c0070ff9b0013c0b300823222006000b800fb
:10fb8c0092e60200010000008000eb00e14f500003
:10fb9c00010032008080eb00010078004f077800f4
:10fbac004f06be004f05be004f04be006f00b100f3
:10fbbc0000000600af02b000889fbe008a9fbe0006
:10fbcc008c9fbe008e1f7800804478000205be001a
:10fbdc0001077800a8d822008040eb00014c780087
:10fbec0040cd220001487800e0cc2200014878008a
:10fbfc000080eb008080eb00709a8900819a89006c
:10fc0c00909a8900a19a890080322200d0a79f0087
:10fc1c0088e30200010000001004e0000400320040
:10fc2c0060c0b300004c78000080eb00e3043700a8
:10fc3c00823222006000b80016e6020001000000cb
:10fc4c000004e00005003a00b1c1b300a0d82200c6
:10fc5c00014878000080eb00d80437005fa19700c2
:10fc6c00e2f8930050c5b30080cf500047003a0033
:10fc7c00f2f89300a0cab30080cf500043003a00c2
:10fc8c006103200002007800850c070061c4b300fa
:10fc9c00814f50002f003a00710320005fa09700a5
:10fcac007f0c070011c4b300814f500029003a00ab
:10fcbc00810320005fa09700790c070041c5b300b9
:10fccc00814f500023003a00910320005fa0970061
:10fcdc00730c070011c3b300814f50001d003a0094
:10fcec00610220005fa097006d0c070091c2b30069
:10fcfc00814f500017003a000904e0000800320060
:10fd0c000002eb00e1cf540025003a00f1c1b30032
:10fd1c00a0d82200014878000080eb00a70437002f
:10fd2c006000b800e0a79f00f1a79f00a0fc2f0087
:10fd3c000f0040000ffd07000004e000fa02320043
:10fd4c00b1c1b300a0d82200014878000080eb00bc
:10fd5c009a04370084322200e4c093008180fb00b7
:10fd6c0074c093004800dd000101700084c893004a
:10fd7c008180fb0014c893004800dd0081017000f5
:10fd8c00e2a79f00f3a79f000500370041c0b30016
:10fd9c00a0d82200014878000080eb0087043700cf
:10fdac000904e000e0023200e1cf5400e8023a001e
:10fdbc00a4c893008180fb0034c893004800dd0088
:10fdcc0001067000c4c893008180fb0054c89300e6
:10fddc004800dd008106700080032100800f560072
:10fdec00e08f5e003a003e00c9ef9f0029c29b00e5
:10fdfc0089417800823222006000b80092e602004d
:10fe0c00010000000004e00005003a0091c0b300be
:10fe1c00a0d82200014878000080eb00670437006e
:10fe2c0071022100810f5600e08f5e000300360046
:10fe3c0020c0b300b0ef9f000200370010c0b30029
:10fe4c00b0ef9f0008202000080178008000eb0034
:10fe5c0080322200fa0c02000000000021c3b30023
:10fe6c0020362200014878003fe897000080fb0014
:10fe7c00521520008201b8000281e800cf91de000b
:10fe8c0000004000cf80de000c0040008d80480058
:10fe9c0002004000838048002002b1000180b100c4
:10feac008406020000000000f0b79f0081bf9f0095
:10febc0020c0b300a0ef9f00e8af9f007fb1970078
:10fecc008fb99700b2b79f00c3b79f00930037005c
:10fedc00f0d52f00f1032000800f5600818f5e00bb
:10feec004f003e0020c0b300c0ef9f0060c0b300c5
:10fefc0020c29b0013c0b300823222006000b80005
:10ff0c0092e60200010000000004e00005003a0047
:10ff1c0091c0b300a0d82200014878000080eb000b
:10ff2c00260437000c01be008221b1000380b10011
:10ff3c0010c0b300b0ef9f00f30f4100e08f5900e9
:10ff4c000c00360080407800d4fe2f000500200005
:10ff5c000180fb0000004000804078008301d1004c
:10ff6c000281d300840f5100858f5900f8ff3e00a9
:10ff7c00b0ef9f00bfe8970000c8b30080cf5000df
:10ff8c000500360041c0b300a0d82200014878001b
:10ff9c000080eb00090437000820200008017800dd
:10ffac008000eb0080322200fa0c020000000000fe
:10ffbc0061c3b30020362200014878003fe8970067
:10ffcc000080fb004801dd000281e800cf91de00db
:10ffdc0000004000cf80de000c0040008d80480007
:10ffec0002004000838048002002b1000180b10073
:10fffc008406020000000000f0b79f0081bf9f0044
:020000040001f9
:10000c0020c0b300a0ef9f00e8af9f007fb0970027
:10001c008fb89700b0b79f00c1b79f003f00370063
:10002c0030c0b300c0ef9f00b0c0b30020c29b0033
:10003c0013c0b300823222006000b80092e60200c6
:10004c00010000000004e00005003a0091c0b3007c
:10005c00a0d82200014878000080eb00d7033700bd
:10006c000c01be0011c0b300e4ff2b00f50320000f
:10007c000180fb0000004000804078008301d1002b
:10008c000281d300840f5100858f5900f8ff3e0088
:10009c00b0ef9f0000c8b30080cf500005003600c1
:1000ac0041c0b300a0d82200014878000080eb00ca
:1000bc00c203370008202000080178008000eb0004
:1000cc0080322200fa0c0200000000003fe9970089
:1000dc000281fb004711dd000201e800cf91de0038
:1000ec000200460083804e001002b1000180b10076
:1000fc008406020000000000f0b79f0081bf9f0043
:10010c0020c0b300a0ef9f00e8af9f007fb1970025
:10011c008fb99700b2b79f00c3b79f00b1ceb300a1
:10012c008032220001487800c1c3b3009032220013
:10013c000148780001c9b300a032220001487800c0
:10014c00d1c4b300b032220001487800eac050009c
:10015c00c032220001487800e5c04000d0322200b5
:10016c0001487800e8c04000e032220001487800e5
:10017c0001c2b300f03222000148780061c4b30020
:10018c000033220001487800e5c0500010332200f3
:10019c0001487800f3c04000203322000148780069
:1001ac000043eb00303322000648780022c0b30035
:1001bc00403322000248780050332200bfe99700f8
:1001cc00034878004fe897000040e900e14f5000e9
:1001dc00b7003e0081c0b3006033220001487800b4
:1001ec0070332200064878006fa29700ffa2970098
:1001fc0068004200e0804a0080af9f0091af9f00f2
:10020c0080332200024878009033220006487800a0
:10021c00a033220002487800b03322000648780050
:10022c00c03322000648780081cfb300d0332200bf
:10023c0001487800e0332200efeb97000748780084
:10024c007fb197008fb99700c81bdd004810de0006
:10025c0000807300c818de00f233220000497800d9
:10026c00f1c3b3000034220001487800103422009e
:10027c00064878002034220000c8eb0030342200fd
:10028c00064878006fa09700850078004234220061
:10029c0000497800c809de00480add004801de008c
:1002ac000201720054342200024a78004009de0038
:1002bc000300200064342200024a78004808de0063
:1002cc007234220000497800803422000c487800f7
:1002dc00c86bdd004860de0000807300c868de007b
:1002ec0092342200004978004068de0001002000b2
:1002fc00a2342200004978004868de00010020008a
:10030c00b234220000497800c0342200064878003c
:10031c00d03422000648780091c2b300e0342200a9
:10032c0001487800f03422000a4878000a00be0028
:10033c00e00f5500e08f5d0002003d00f00fb000b3
:10034c000180b0004809dd004800de0000007100ab
:10035c00c888de0002352200004978000a00be0081
:10036c00e00f5500e08f5d0004003d00f0ff2f0012
:10037c00010020000a0040008b8048004088de000d
:10038c00cf80de0012352200004978000a00be0042
:10039c00e00f5500e08f5d0004003d00f0ff2f00e2
:1003ac00f10f20000a0040008b8048004888de00d6
:1003bc00cf80de0022352200004978000e00e000dc
:1003cc00ef023a00200037006011b80031352200ee
:1003dc00b400200005002000804878006101410035
:1003ec00e081490002004700104078000004e00062
:1003fc0004003a00ea0f5100e08f590018003e004b
:10040c00050037008100e800840f5100858f5900ea
:10041c0013003200f0ff370030352200000041009d
:10042c0001c2b300b4002000050020000158780080
:10043c0061014100e0814900840f5100858f590012
:10044c0007003200f9ff3700303522000041eb0085
:10045c00e135220002587800810f5000fdff3a0070
:10046c0061c4b300e035220001487800e5c05000bb
:10047c00f035220001487800f3c04000003622001d
:10048c000148780011c3b3001036220001487800ef
:10049c00f1c050003036220001487800403622006e
:1004ac00014878005036220001487800fd003700e2
:1004bc0001c2b30060332200014878008042eb0097
:1004cc0070332200054878006fa19700ffa19700b8
:1004dc000200be000002b0000180b00080af9f009f
:1004ec0091af9f0026c0b3008033220006487800ed
:1004fc009033220005487800a0332200054878008c
:10050c00b033220005487800c0332200054878003b
:10051c0081cfb300d033220001487800e0332200b1
:10052c0005487800f033220005487800f1c3b30089
:10053c00003422000148780010342200054878006d
:10054c002034220000c8eb0030342200054878002b
:10055c006fa0970083007800423422000049780095
:10056c00c809de00480add004801de000201720005
:10057c0054342200024a78004009de0003002000b7
:10058c0064342200024a78004808de0072342200eb
:10059c0000497800803422000c487800c86bdd00dc
:1005ac004860de0000807300c868de0092342200d0
:1005bc00004978004068de0001002000a2342200cf
:1005cc00004978004868de0001002000b2342200a7
:1005dc0000497800c0342200efe897000148780009
:1005ec007fb197008fb99700481add004810de00e4
:1005fc0000007200c818de00d234220000497800d6
:10060c007fb197008fb997004018de0001002000e1
:10061c00e2342200004978007fb197008fb997002f
:10062c004818de0001002000f23422000049780056
:10063c000035220005487800103522000548780066
:10064c002035220005487800303522000548780016
:10065c0040352200064878005035220005487800c5
:10066c006035220005487800703522000548780076
:10067c0011c0b3008035220001487800903522006b
:10068c0005487800a035220005487800b0352200d6
:10069c0005487800c035220005487800d035220086
:1006ac0005487800e035220005487800f035220036
:1006bc0005487800003622000548780010362200e4
:1006cc000548780020362200054878003036220094
:1006dc000548780040362200054878005036220044
:1006ec0005487800603622000548780070362200f4
:1006fc0005487800803622000548780090362200a4
:10070c000548780091c2b300a03622000148780059
:10071c00b03622000a4878000a00be00e00f5500ef
:10072c00e08f5d0002003d00f00fb0000180b000d2
:10073c00c809dd004800de0000807100c888de00ba
:10074c00c2362200004978000a00be00e00f5500b6
:10075c00e08f5d0004003d00f0ff2f000100200041
:10076c000a0040008b8048004088de00cf80de000d
:10077c00d2362200004978000a01be00e00f550075
:10078c00e08f5d0004003d00f0ff2f00f10f200012
:10079c000a0140008b8148004898de00cf80de00c3
:1007ac00e2362200004978000e00e000ef013a002a
:1007bc00200037006011b800f1362200b400200090
:1007cc00050020008048780061014100e08149006b
:1007dc0002004700104078000004e00004003a00da
:1007ec00ea0f5100e08f590018003e000500370059
:1007fc008100e800840f5100858f590013003200ee
:10080c00f0ff3700f03622000000410001c2b300b7
:10081c00b40020000500200001587800610141005f
:10082c00e0814900840f5100858f59000700320088
:10083c00f9ff3700f03622000041eb00a13722000f
:10084c0002587800808f5000fdff3a0061c4b3005d
:10085c00a037220001487800e5c05000b0372200d4
:10086c0001487800f3c04000c037220001487800ee
:10087c0031c3b300d0372200014878008140e90031
:10088c00e037220001487800f2c05000f037220017
:10089c000148780000382200014878001038220006
:1008ac000148780051c5b30060522200014878001d
:1008bc00a1cab30070522200014878000faa970019
:1008cc009faa97002fe897000084fb0009002000e6
:1008dc003fb19700cfb197000240b8008341b800f8
:1008ec00810041000402400085824800a4af9f00b3
:1008fc00b5af9f006fa09700ffa097008041eb0061
:10090c008232220092e60200010000000004e000a6
:10091c0014003a0091c0b300a0d82200014878001e
:10092c000080eb00a5013700a0fc2f000f00400059
:10093c0010fa07000004e0000a003200b1c1b30055
:10094c00a0d82200014878000080eb009b01370002
:10095c00f1c1b300a0d82200014878000080eb0060
:10096c009601370088322200022020008000eb0024
:10097c0008007800fa0c0200000000004fe9970014
:10098c00e34f5100bf003a0080cfb300004c780019
:10099c0000c1eb009032220002487800a032220005
:1009ac0002487800b0322200024878008040eb0008
:1009bc00c032220001487800d03222000148780071
:1009cc00e032220001487800c1c0b300f0322200ae
:1009dc0001487800003322000248780010332200ce
:1009ec00024878002033220002487800303322007d
:1009fc00024878002fe897000080fb000000e90017
:100a0c00e10f400015003200000578008085eb00f6
:100a1c000fa897009fa897006154b8003fb29700a9
:100a2c00cfb297000441b8008542b8008301420060
:100a3c0000004100818049008041eb00823222009d
:100a4c0092e60200010000000004e00043013200c5
:100a5c000a05e9008b0f5500edff3a006000b80065
:100a6c004019890051198900c23222000089be0048
:100a7c00023322000089be000fa997009fa997009e
:100a8c0061044100e08449003fb09700cfb097006b
:100a9c000201400083814800820f5400838f5c0068
:100aac00230031002fe897000080fb000000e900d4
:100abc00e10f400013003200000578008085eb0048
:100acc006153b8003fb19700cfb197000230b80026
:100adc008331b80081004100080040008980480043
:100aec008041eb008232220092e6020001000000fd
:100afc000004e000190132000a05e9008b0f5500d3
:100b0c00efff3a0061044400e0844c000fa9970009
:100b1c009fa997003fb09700cfb09700020140000b
:100b2c0083814800820f5400838f5c00ddff390005
:100b3c003fe89700e14f50001400360018002000e9
:100b4c00090020002fa89700bfa8970008004000bc
:100b5c00898048008041eb008232220092e602003c
:100b6c00010000000004e000fc00320061044400bd
:100b7c00e0844c003fe897000080fb00010020005f
:100b8c00800f5400818f5c00eeff39000e00e000f6
:100b9c0005013a00320037006011b80081322200a2
:100bac00b40020000500200080487800610141005d
:100bbc00e081490002004700104078000004e0008a
:100bcc0004003a00ea0f5100e08f590011003e007a
:100bdc00050037008100e800840f5100858f590013
:100bec000c003200f0ff3700803222000000410080
:100bfc0001c2b300b40020000500200001587800a9
:100c0c0061014100e0814900840f5100858f59003a
:100c1c00faff3a0081c0b30030332200014878005b
:100c2c0011c1b3009033220001487800b033220088
:100c3c0001487800f0332200014878002fa8970073
:100c4c00bfa897008041eb008232220092e602009e
:100c5c00010000000004e000c2003a00bf003700b1
:100c6c002fa89700bfa897008041eb00823222008a
:100c7c0092e60200010000000004e000b9003a0016
:100c8c00b600370081cfb3008032220001487800d3
:100c9c0080c0eb009032220001487800a032220084
:100cac0001487800e24f510002003a00b0322200b5
:100cbc00014878002fe897000080fb000000e90055
:100ccc00e10f400015003200000578008085eb0034
:100cdc000fa897009fa897006154b8003fb29700e7
:100cec00cfb297000441b8008542b800830142009e
:100cfc0000004100818049008041eb0082322200db
:100d0c0092e60200010000000004e00093003200b3
:100d1c000a05e9008b0f5500edff3a006000b800a2
:100d2c0040198900511989000fa997009fa99700b4
:100d3c0061044100e08449003fb09700cfb09700b8
:100d4c000201400083814800820f5400838f5c00b5
:100d5c00230031002fe897000080fb000000e90021
:100d6c00e10f400013003200000578008085eb0095
:100d7c006153b8003fb19700cfb197000230b80073
:100d8c008331b80081004100080040008980480090
:100d9c008041eb008232220092e60200010000004a
:100dac000004e0006d0032000a05e9008b0f5500cd
:100dbc00efff3a0061044400e0844c000fa9970057
:100dcc009fa997003fb09700cfb097000201400059
:100ddc0083814800820f5400838f5c00ddff390053
:100dec00002020000100200090b79f00a1b79f00b9
:100dfc006fa897004500dd0001002000f01fb00037
:100e0c000180b000c90cde00470add004904de0099
:100e1c00080472001000200001002000800f540014
:100e2c00818f5c00100036000005be002fa89700d3
:100e3c00bfa897000a0040008b8048008041eb005f
:100e4c008232220092e60200010000000004e00061
:100e5c004200320061054500e0854d008a0f5400c8
:100e6c008b8f5c00f1ff3a000e00e00049003a0065
:100e7c00320037006011b80081322200b40020002b
:100e8c00050020008048780061014100e0814900a4
:100e9c0002004700104078000004e00004003a0013
:100eac00ea0f5100e08f590011003e000500370099
:100ebc008100e800840f5100858f59000c0032002e
:100ecc00f0ff3700803222000000410001c2b30065
:100edc00b400200005002000015878006101410099
:100eec00e0814900840f5100858f5900faff3a00c8
:100efc0081c0b300303322000148780011c1b30027
:100f0c009033220001487800b03322000148780069
:100f1c00f0332200014878002fa89700bfa8970053
:100f2c008041eb008232220092e6020001000000b8
:100f3c000004e0000b003a00080037002fa89700cf
:100f4c00bfa897008041eb008232220092e602009b
:100f5c00010000000004e00002003a000080eb00f9
:100f6c00160037000000eb00140037001e4078001c
:100f7c006011b8000004e00022fe32000dfe3700c4
:100f8c001e4078006011b8000004e00022fd320021
:100f9c000dfd37001e4078006011b8000004e00021
:100fac00c8ff3200b3ff37001e4078006011b80054
:100fbc000004e0000cff3200f7fe37004f0778000a
:100fcc004f06be004f05be004f04be00af02b1007d
:100fdc0000000600889fbe008a9fbe0010047800a7
:100fec00101d9000a01d9000110078000100200041
:100ffc00885a90008582fb00185a90004822dd0028
:10100c0005017200a85a90008582fb00385a9000a6
:10101c004822dd00850172004b1add004511de000f
:10102c0002017200c519de008406020000000000f7
:10103c008044780028609000e14f50001600390081
:10104c00e24f500009003600e34f500012003a0006
:10105c000980fb00186190000281fb00110009005f
:10106c000280d800814478000b003700306c81007e
:10107c00416c8100800f5500818f5d0006003200ad
:10108c000980fb00186190000281fb00110009002f
:10109c000280d800814478000a01be000800780064
:1010ac009b0707009881fb00184190004811dd0058
:1010bc00030171000982fb000500200000004200c2
:1010cc0081804a008041eb0092e6020001000000a2
:1010dc000080fb000000e9004f00de000004a200cd
:1010ec000080fb004f05be004f04be000000060050
:1010fc000800fa00889fbe008a9fbe008c9fbe002d
:10110c000005be000206780022609000e14f5000fe
:10111c0003003200e34f50000a003a00120037007f
:10112c00f0ff2f0001002000e0b79f00f1b79f00f7
:10113c0082ff20000300200082bf9f0093bf9f000e
:10114c0011003700f0ff2f0001002000e0b79f00d6
:10115c00f1b79f0082ff2f000300200082bf9f0089
:10116c0093bf9f0008003700f0ff2f00f1ff200015
:10117c00e0b79f00f1b79f0082ff2f00f3ff200024
:10118c0082bf9f0093bf9f00e10f5500e08f5d0071
:10119c00210036000a01be000c007800a90b0700e4
:1011ac000004be006fb09700ffb09700880f50008e
:1011bc00898f58001a003200e10f5400e08f5c0058
:1011cc00150036002d0020000fb997009fb997002d
:1011dc00880f5100898f5900010036008006eb0002
:1011ec008040eb006022b8000a01be000c007800c1
:1011fc00c80c07006fb19700ffb19700800f51002a
:10120c00818f5900060032000805be000d00e00079
:10121c0004003a00dfff37002d00200001003700ea
:10122c001d00200011c0b3006022b8000401be00f4
:10123c000c007800b70c07000d0078000010a2001d
:10124c000000ea004f00de00610010004f06be00f7
:10125c004f05be004f04be000080fa0000000600df
:10126c00ee874700889fbe008a9fbe008c9fbe0001
:10127c008e1f780000067800f1b79f0082f79f0060
:10128c001004780070129000801a9000101d9000cd
:10129c00a01d900011037800885890008180fb00fd
:1012ac00185890004800dd0001017000a85890000b
:1012bc008180fb00385890004800dd0081017000ef
:1012cc004b18dd004511de0002017000c519de006f
:1012dc008286fb00110009000d83d8008044780041
:1012ec0028609000e34f50000b003a000980fb008f
:1012fc00186190000281fb00110009000280d800e7
:10130c008144780080ff2f00f1ff2000b0b79f00d0
:10131c00c1b79f001100370080ff2f000100200093
:10132c00b0b79f00c1b79f00e00f5200e08f5a008a
:10133c000a0032000980fb00186190000281fb005a
:10134c00110009000280d8008144780080ff2f0032
:10135c0001002000b0b79f00c1b79f008ff097002d
:10136c000104e00002003a006f00630083003a00c1
:10137c000904e00002003a008d0f53000300310015
:10138c000ff097000004e0001d003200e00f520047
:10139c00e08f5a0002003a000405be001800370026
:1013ac008ff097000104e0000800320018619000f3
:1013bc000281fb008269b800110009000283d80089
:1013cc0000017800024778000b0037001ec0b30004
:1013dc000a01be00080078001a0b07000005be00c9
:1013ec003fb29700cfb29700800f5200818f5a0006
:1013fc00030036000e47e9000e04e000f4ff3a004b
:10140c003fb09700cfb09700800f5500818f5d00e3
:10141c00550031001a1e98002b1e98000a01be00c0
:10142c0008007800ba060700d0b79f00e1b79f000c
:10143c00306c8100416c8100800f5500818f5d0004
:10144c0017003a000982fb00050020005fb09700ee
:10145c00efb097000002420081824a00e8489000f9
:10146c008180fb00784890004800dd00010170008d
:10147c00885090008180fb00185090004800dd00df
:10148c0081017000820f5200838f5a0004003900d2
:10149c00286090000001eb00e34f500042003a003e
:1014ac0020cd22001004e00004003200eb070700fe
:1014bc000001eb000004e0003b003a000005eb00eb
:1014cc008a66890040cd22000a4878001880fb000b
:1014dc00184190004811dd00000171000980fb00eb
:1014ec00010020005fb29700efb2970004004000ab
:1014fc008580480016e6020001000000e14f500014
:10150c00020032000a017800120037008ff29700b7
:10151c000504e0000b0032001880fb00184190001d
:10152c004811dd0000017100ffb097001100780038
:10153c00110009000d80d800c508dd000101410033
:10154c00040037009880fb00184090004800dd0034
:10155c00010170000080eb008080eb00909a890004
:10156c00a19a89001000370011c0b30030cd2200c1
:10157c00014878000001eb000b0037001880fb00dd
:10158c0098409000c808dd0080807000811f7800b2
:10159c00110009000d83d80001007800cf007800fd
:1015ac004500dd0000814000020078004f07780004
:1015bc004f06be004f05be004f04be00ef00b10049
:1015cc0000000600889fbe008a9fbe008004780041
:1015dc00010478000245780083057800a0d8220029
:1015ec000048eb008008eb0009007800350007008c
:1015fc00410120000004e0000c003a000a41780090
:10160c008800780009007800750007008080fb00d6
:10161c000004e00005003a000b00e000030032007b
:10162c00090078000700070080007800a0d822008d
:10163c0001487800010078004f05be004f04be0041
:10164c00000006000600fa00889fbe0080047800a7
:10165c0040109000d0bf9f00ea805700090078002e
:10166c009b050700800078000000e00011003a00a4
:10167c00668457008800780009007800e4020700af
:10168c00bfb8970051089800cfb89700f2ff200020
:10169c00828060002108980088007800090078009a
:1016ac004cfe070091002000e14f500001003a0071
:1016bc008000eb00010078004f04be000080fa00af
:1016cc0000000600889fbe008a9fbe008004780040
:1016dc00010478009105780080189000701090003b
:1016ec00901c9800a11c980012c0b30088007800d0
:1016fc0009007800dafe07000045eb000000e0006e
:10170c0025003a002c00370010457800180ce80032
:10171c000000e00005003200fb4f45002a003200bb
:10172c000a04e000280032001b0037001919900051
:10173c00a9199000306c8100416c8100800f510020
:10174c00818f59000c003a0019007800206090003d
:10175c00e34f50001a003a00b2049800c3049800fa
:10176c0011c0b30009007800b2000700f54f50001b
:10177c0015003a0012003700b2049800c304980018
:10178c0011c0b30009007800aa000700f54f500003
:10179c000d003a000a003700980578000041eb0074
:1017ac008800780009007800adfe07000000e0001a
:1017bc00d5ff3a00d5ff370010c0b3000300370047
:1017cc0020c0b300010037000040eb000b0c780088
:1017dc000080fb004f05be004f04be000000060059
:1017ec00889fbe008a9fbe008004780001057800a7
:1017fc00824578008018900070109000901c980022
:10180c00a11c980012c0b3008a007800090078006f
:10181c0093fe070000047800b00120000800e000ef
:10182c0037003200fc804400b20020000800780031
:10183c00360d020000000000f2cf550003003a0004
:10184c0000c1b300304c98000200370000c2b30056
:10185c00304c98000040eb00404c98000000eb002e
:10186c00200c9800500c98006000b800600c980098
:10187c00710c980025000700b0d7220010407800aa
:10188c00504c9800e16b810071049800f06b810062
:10189c00000c9800016c8100110c9800106c8100f8
:1018ac00300c9800216c8100410c98006808900065
:1018bc00f8089000900c9800a10c9800f80090008b
:1018cc00c10c980008089000d00c98003848900083
:1018dc000080fb00e01498009a007800c114980076
:1018ec008a00780009007800bafd070091c0b300a7
:1018fc00e14f500001003a008040eb000180fb00fa
:10190c004f05be004f04be000000060070622000b0
:10191c009040780010407800e24160002706a80053
:10192c002726a8002031800022318000263180003b
:10193c00253180000108a300010032002706a80011
:10194c000304e000010032002726a800ef0060002d
:10195c00000fb2004400de00ea00b80080804000b6
:10196c00f48040004908dd00a400200002c8a30058
:10197c0001003a000002eb0003f02000830061003c
:10198c00c808de0081004200c508dd00810070003f
:10199c00040f2000040061004400de00ea00b800df
:1019ac006f0161000200400080807000f16b8900c3
:1019bc00216c8900016c8900040163004411de0074
:1019cc00ea11b8006f006300000141004b11dd000b
:1019dc004c28de00ea00b80083816200c819de00e2
:1019ec00030040004500dd0000017100048262002c
:1019fc004422de00ea22b8006f80620080014200bf
:101a0c000308a3000400320041c6b300b0d7220083
:101a1c000148780002003700b0d722000048eb00e4
:101a2c000300d10000007100e06b8900106c89008c
:101a3c0000000600889fbe008a9fbe008c1f7800a5
:101a4c000005780001467800900578003100070009
:101a5c000004be0050012000e00f5400e08f5c0039
:101a6c00280032002b609000e14f500007003a0034
:101a7c008040eb0084ff2000050020000801be0020
:101a8c000b007800a30a07000f003700e24f50004c
:101a9c0007003a008040eb0084ff2f000500200077
:101aac000801be000b0078009a0a070006003700f8
:101abc008040eb0084ff2f00f5ff20000801be00e2
:101acc000b007800930a07003a019000ca019000bd
:101adc008040eb000802be000b0078008d0a070066
:101aec0038059800490598000000eb00e14f5600be
:101afc0004003a000801be000b007800a7040700a0
:101b0c000080fb004f0678004f05be004f04be005e
:101b1c00000006000800fa00889fbe008a9fbe00e5
:101b2c008c1f78001006780030059000c0059000de
:101b3c002c609000e14f500003003200e34f500046
:101b4c000a003a001200370070ff2000010020004c
:101b5c0090bf9f00a1bf9f00f2ff2f000300200049
:101b6c00f2b79f0083bf9f001100370070ff2f005a
:101b7c000100200090bf9f00a1bf9f00f2ff2f002b
:101b8c0003002000f2b79f0083bf9f0008003700be
:101b9c0070ff2f00f1ff200090bf9f00a1bf9f009e
:101bac00f2ff2f00f3ff2000f2b79f0083bf9f00ce
:101bbc00e10f5500e08f5d0002003e002a0020007e
:101bcc000b0020000a01be000c0078001d09070064
:101bdc00e00f5500e08f5d0002003a000a04be00e1
:101bec002c0037000a04be000801be000c0078006f
:101bfc00140907007fb197008fb99700800f51002f
:101c0c00818f590022003200e00f5000e08f580005
:101c1c002000320061044400e0844c001fb997009e
:101c2c00afb99700800f5100818f59000f0032001f
:101c3c00cc5090008180fb005c5090004800dd008f
:101c4c0001017000ec5090008180fb007c509000f2
:101c5c004800dd008101700062014100e081490013
:101c6c00820f5400838f5c00020039002800200092
:101c7c0009002000880f5500898f5d000400320098
:101c8c00e00f5400e08f5c0002003200d6ff3700fa
:101c9c006044b8000800be004f0678004f05be0037
:101cac004f04be000080fa0000000600889fbe00b2
:101cbc000004780090019000e18f51004f003a0031
:101ccc0042e32200020878006000b800000c980083
:101cdc00110c98000000eb0010049800326090008a
:101cec00e14f5000020032002304980087003700b7
:101cfc00f00f200020049800180278002460900057
:101d0c0060449800845890008180fb001458900027
:101d1c004800dd000101700042049800146090003e
:101d2c00204c9800c45090008180fb0054509000cf
:101d3c004800dd0001017000e45090008180fb0040
:101d4c00745090004800dd0081017000620498001e
:101d5c007304980024609000e24f50000e00320093
:101d6c00e34f500003003200e14f50001b003a00db
:101d7c001200370070ff2f00f1ff2000600c98005c
:101d8c00710c9800f0ff2f00f1ff20000014980058
:101d9c00111498001100370070ff2f000100200073
:101dac00600c9800710c9800f0ff2f0001002000cf
:101dbc0000149800111498000800370070ff2000e0
:101dcc0001002000600c9800710c9800f0ff2f00af
:101ddc00010020000014980011149800220020002b
:101dec0003002000220c9800330c9800420c980041
:101dfc00530c980018007800920807001800e000b7
:101e0c0009003a0010002000200498003f00370021
:101e1c0020002000200498003c0037000000eb005c
:101e2c002004980039003700a8009000f00f200023
:101e3c00808f500035003a0080c4eb0028099000d8
:101e4c00b8099000180078007e0807000001be0059
:101e5c000810900098109000800f5100818f59004d
:101e6c00ebff3200e00f5100e08f590006003a0002
:101e7c00080890009808900061004000e08048003d
:101e8c00000c9800110c980028089000b8089000dd
:101e9c0061024000e0824800240c9800350c980048
:101eac0068089000f8089000800f5100818f59004d
:101ebc000700320068009000f800900062004000bb
:101ecc00e0804800800f5200818f5a0004003900d6
:101edc002000200001002000200c9800310c9800fc
:101eec0028099000b809900048089000d808900084
:101efc00800f5100818f5900c8ff32008944e900de
:101f0c00ceff3a00f00f2000200498004f04be00d2
:101f1c00000006000200fa00889fbe000004780052
:101f2c00a0d822000048eb0048109000d0bf9f00c2
:101f3c0038089000820420000008a30043003200ff
:101f4c0020cd22001004e0000800320043050700f9
:101f5c000004e0000500320091c0b300a0d82200bc
:101f6c00014878000081eb004700370011c0b30036
:101f7c006022b8000401be00180078006509070053
:101f8c006000b800709a8900819a8900380190002d
:101f9c00c8019000180078002a080700e680570056
:101fac00080078009a000700800478000000e00028
:101fbc0005003a00b1c1b300a0d822000148780056
:101fcc000081eb003000370050fe0700116c8100df
:101fdc00b10c9800206c8100c00c9800180890007f
:101fec00a8089000e00c9800f10c9800c8689000cc
:101ffc00b14c9800e680570008007800f5fb07000c
:10200c000004e0000a003200e68057000800780067
:10201c007f0007000001eb000900370080d7220089
:10202c000080400011c0b300014878001200370056
:10203c0091c0b300a0d82200014878000081eb00c9
:10204c00380890000000a100300c9800380890006f
:10205c000010a100300c98008000eb0060cd220035
:10206c00800f5400edff32008100e8006003b000e7
:10207c00e38f5000faff3a0080042000800f5100db
:10208c0001003a000001eb00020078004f04be0092
:10209c000080fa0000000600889fbe008a9fbe00e8
:1020ac008c9fbe008e1f7800000678000107780018
:1020bc00910078006f8060000c003a000100e00095
:1020cc000a0032007c1090008c189000101e9800b2
:1020dc00211e980012c0b3008e0078000c0078000e
:1020ec005ffc070080057800050037000041eb001d
:1020fc008e0078000c00780059fc070080057800f1
:10210c000b00e0003b0032001b40780018c0b3000d
:10211c00fb4f4000380032000004e0003500320074
:10212c008b0478007c0446000045eb003980fb00f2
:10213c00a40c020000000000005c78000a45e800d6
:10214c00e84f5500f9ff3a00e88645008004eb00a3
:10215c00094445000884fb007c0444000c04440042
:10216c003d80fb00a40c020000000000004c780035
:10217c008904e800e38f5400f5ff3a001e0778004d
:10218c004e16980050ceb3001b4068000080fb0038
:10219c000000e9004f04de006b089000fb08900083
:1021ac00100e9800210e98000b007800c0f5070067
:1021bc0010069800210698003b4890000080fb0018
:1021cc00601698000048a30005003200fb00900048
:1021dc00410e98008b0d90005b0e980006003700a6
:1021ec003b089000400e9800cb0d90005b0e9800c1
:1021fc000100370028c0b3000880fb004f077800af
:10220c004f06be004f05be004f04be000000060086
:10221c00889fbe000004be008018900070109000d3
:10222c00101c9800211c980012c0b3000800be00be
:10223c000bfc0700800078000000e0001300320067
:10224c00104078000004e00012003200fb4f400008
:10225c001000320031489000ef4f50000e003a0051
:10226c00990ce8000041eb000800be00fcfb0700e5
:10227c00800078000000e00004003200304890003c
:10228c00ef4f500004003a00f5ff37008000eb00e0
:10229c00010037008000eb00010078004f04be0005
:1022ac0000000600889fbe008a9fbe008c1f78002d
:1022bc0080047800010578008245780010067800cb
:1022cc0012c0b300a0d82200024878007910900008
:1022dc0089189000901c9800a11c98008a00780026
:1022ec0009007800defb070000047800b101200033
:1022fc000000e00025003200104078000004e000ef
:10230c0021003200fb4f40001f00320050ceb300c2
:10231c00004c78008a007800090078002dfb07003b
:10232c00110020000004e0001800320008007800c2
:10233c005ff507000002be001a0de900306c810049
:10234c00416c8100840f5000858f58000a003200c8
:10235c000b04e000080032000c0178000400be0001
:10236c0063fb07008000eb000004e00003003a0070
:10237c0011002000010037008000eb00a0d82200e3
:10238c000148780001003700b100200001007800fe
:10239c004f0678004f05be004f04be00000006003b
:1023ac006e00fa00889fbe008a9fbe0080047800f1
:1023bc0081057800a8d82200004ceb0018e7020039
:1023cc00010000000004e0000400320080c1b300f2
:1023dc00004c78008080eb0053003700c0f82f00d1
:1023ec00008447008b007800080078002d0207005d
:1023fc000041eb0088007800090078001105070007
:10240c000004e00005003a0021c1b300a0d822006e
:10241c00014878008080eb0043003700c2f82f00a1
:10242c00028547008004eb00a99f9f00b09a8100b1
:10243c007011900080199000d29f9f00e39f9f0025
:10244c0010199000a0199000f29f9f0083a79f0085
:10245c0028fc2f00088447008a00780008007800c8
:10246c00100207008941780012c0b3008a0078007e
:10247c0008007800c7f00700eb0f500026003a0068
:10248c00cb119000d3879f00a1f82f008f804000c4
:10249c000b0078005eff070080027800fc8145008d
:1024ac0080007800a0f82f000f0040007e01400053
:1024bc00000378009602b0009249780005c05000e5
:1024cc00e74f500002003e009248780001003700b0
:1024dc00924878000201e8008301e8008100e800de
:1024ec00820f5300f4ff3a00a1f82f008f804000b8
:1024fc000b007800b7fa07008000eb000004e00046
:10250c0009003a0091c0b300a0d82200014878001d
:10251c008080eb000400370011c1b300a0d822006a
:10252c00014878008080eb00010078004f05be0068
:10253c004f04be000080fa00000006000200fa0002
:10254c00889fbe008a9fbe008c9fbe00000478004e
:10255c0081067800914478000945780018e702005c
:10256c00010000000004e0000b00320020c7b300a3
:10257c0080cf54000800320020c5b30080cf540037
:10258c000500320081c1b300a0d8220001487800b8
:10259c000006eb00520137008005eb0080d72200cb
:1025ac001004e0000900320080d7220000804500b2
:1025bc000048eb00620320008259b80060cd220075
:1025cc00000641000a003a00040037008b05e800c1
:1025dc000000e800e38f5500f1ff3a0001c2b300a0
:1025ec00a0d82200014878000006eb003c0137001f
:1025fc000041eb008c007800080078009104070083
:10260c000004e00009003a0080d722000080450059
:10261c0011c0b3000148780021c1b300a0d822003a
:10262c00014878000006eb002d01370040e3220042
:10263c00000e78006000b800100698002106980083
:10264c0030069800410698000004eb0048169800ec
:10265c000002200060169800b09a81007011900062
:10266c008019900072169800031e9800b09a810091
:10267c0010199000a0199000121e9800231e9800ab
:10268c008c00780080dc22008601070088417800ed
:10269c0012c0b30081dc22000c0078003df0070072
:1026ac000000e000be003a0070c5b300804f55003a
:1026bc001200320007003e0076405000804f55005b
:1026cc003b00320071404000804f5500af003a0093
:1026dc009600370020c7b300804f5500930032009e
:1026ec0065404000804f5500040032007640500099
:1026fc00804f5500a5003a002d003700cc119000fa
:10270c0093bf9f0012c0b300ee8057000c007800fe
:10271c00e4fe0700000478000000e000df003a004f
:10272c001300200000417800ee8057000c00780068
:10273c00a4fb0700000478000000e000d7003a007a
:10274c0072c7b300ee8057000c007800baf0070097
:10275c00000478006c1090000048a30005003200c3
:10276c00f1c1b300a0d8220001487800f80f200076
:10277c00ca0037000800e000c8003a002100200021
:10278c006011b8000c007800800507000004780088
:10279c009d409000b0c2b30080cf5000bf003a0003
:1027ac003c0890000010a000300e9800bb003700d1
:1027bc001c089000ac089000e00f5000e08f58000f
:1027cc00280032004c10900090bf9f0072c7b300dd
:1027dc00ee8057000c00780097f00700000478009a
:1027ec006c1090000048a30005003200f1c1b3004a
:1027fc00a0d8220001487800f80f2000a70037006d
:10280c000800e000a5003a00210020006011b8008b
:10281c000c0078005d050700000478000000e00063
:10282c0004003200a1c1b300a0d8220001487800f6
:10283c00040037003c019000cc01900040e32200e2
:10284c00000607009d409000b0c2b30080cf50003e
:10285c0092003a003c0890000010a000300e980046
:10286c008e0037004c11900092bf9f0012c0b30035
:10287c00ee8057000c0078008afe070000047800f8
:10288c000000e00085003a001300200000417800b1
:10289c00ee8057000c0078004afb0700000478001b
:1028ac000000e0007d003a0072c7b300ee805700d4
:1028bc000c00780060f00700000478006c109000a9
:1028cc000048a30005003200f1c1b300a0d82200db
:1028dc0001487800f80f2000700037000800e00075
:1028ec006e003a00210020006011b8000c00780046
:1028fc0026050700000478000000e0000300320009
:10290c00a1c1b300a0d82200014878009d409000de
:10291c00b0c2b30080cf500060003a003c08900079
:10292c000010a000300e98005c003700cc11900015
:10293c0093bf9f0022c7b300ee8057000c007800b5
:10294c003df00700000478000000e00053003a005e
:10295c009d409000b0c2b30080cf50004e003a00b2
:10296c003c019000cc01900040e32200b50507002b
:10297c006c1090000048a30047003a003c089000ff
:10298c000000a000300e980044003700f1c1b300e5
:10299c00a0d8220001487800f80f20003f00370033
:1029ac0081dc22000c007800be00070070c7b30069
:1029bc0080cf54000900320070c5b30080cf5400a2
:1029cc00060032006a40400080cf54000300320001
:1029dc0010c4b30080cf54002a003a000001eb0071
:1029ec0092bf9f0013002000ee8057000c0078006f
:1029fc00f4fa0700000478000000e00027003a0019
:102a0c0072c7b300ee8057000c0078000af0070084
:102a1c00000478006c1090000048a3000500320000
:102a2c00f1c1b300a0d8220001487800f80f2000b3
:102a3c001a0037000800e00018003a0021002000be
:102a4c006011b8000c007800d00407000004780076
:102a5c000000e00003003200a1c1b300a0d82200a6
:102a6c00014878009d409000b0c2b30080cf500068
:102a7c000a003a003c0890000010a000300e9800ac
:102a8c0006003700b1c0b300a0d82200014878007e
:102a9c00b8002000010037000004eb0018e702002a
:102aac00010000000004e000030032003c0890002c
:102abc000000a100300e98000800e0000600320073
:102acc0080d722000080450011c0b3000148780077
:102adc000006eb0002003700a0d822000048eb00f3
:102aec000c0078004f06be004f05be004f04be0020
:102afc000080fa0000000600a1d822008048eb00fc
:102b0c00800890007000900000000600889fbe00b6
:102b1c0000047800a9d82200804ceb0018e70200d2
:102b2c00010000000004e0000400320080c1b3008a
:102b3c00804c78000080eb00420037000041eb0035
:102b4c0021d92200080078003e0307000004e000b1
:102b5c0005003a0021c1b300a0d82200014878003a
:102b6c000080eb003700370028d9220040e3220018
:102b7c00000c78006000b800a06c8900b16c890072
:102b8c00c06c8900d16c89008004eb00d96d890080
:102b9c0000022000f06d8900b09a81007011900045
:102bac0080199000026e8900136e89001019900034
:102bbc00a0199000226e8900336e8900880078007d
:102bcc0080dc2200370007008941780012c0b30076
:102bdc0081dc220008007800eeee07000000e00027
:102bec0005003200b1c0b300a0d822000148780023
:102bfc000080eb0013003700e0db220010007800af
:102c0c00700060000500320031c1b300a0d8220072
:102c1c00014878000080eb000a00370012c0b300b6
:102c2c00a1db220020d922009efd07000000e0005d
:102c3c000400320011c0b300a0d822000148780073
:102c4c000080eb004f04be0000000600881f7800d7
:102c5c000004780020cd22001004e00001003200b6
:102c6c00fe0107006000b80070049800010c980089
:102c7c000000eb00600498005004980018019000cc
:102c8c00a8019000320498004304980080668900e3
:102c9c004f04780000000600a0d822001080fb0032
:102cac000000060000027800810178000001eb00b2
:102cbc006503200084004100030041009048780027
:102ccc000201e800850f5100faff3a0000000600ef
:102cdc00889fbe0081047800100478008dfb0700eb
:102cec000001be00808cbe0050012000e00f51009e
:102cfc00e08f59002700320028609000e14f50000f
:102d0c0009003a008040eb0084ff20000500200001
:102d1c0008007800ff050700e10f4000e08f580025
:102d2c0018003a0015003700e24f500009003a0035
:102d3c008040eb0084ff2f00050020000800780085
:102d4c00f4050700e10f4000e08f58000d003a0039
:102d5c000a0037008040eb0084ff2f00f5ff2000b5
:102d6c0008007800eb050700f2ff2f00f3ff2000ae
:102d7c00820f5000838f580002003a009000200010
:102d8c00040037001901be0008007800030007009a
:102d9c000080fb004f04be0000000600889fbe00b0
:102dac008a1f78008c9fbe00000578005800070031
:102dbc000006be0020cd22001004e000040032000a
:102dcc00a6010700910020000004e0002f003a004b
:102ddc000002eb008466890048cd22001804e00054
:102dec000e003a008a5890008180fb001a5890001f
:102dfc004800dd00010170009a80fb001a40900031
:102e0c004800dd000100700084007800fa0c02001c
:102e1c000000000010c0b300004c78001a60900055
:102e2c000041eb000004e000170032000c02be0071
:102e3c0061044200e0844a001a80fb001a419000b1
:102e4c004811dd00000171008041eb000400be0060
:102e5c0092e602000100000092c0b300e14f500066
:102e6c0001003a000041eb008c4054001a609000c5
:102e7c00814f5000040036000204e00002003a00ca
:102e8c000802be00eaff37008280fb0001007800d8
:102e9c004f06be004f0578004f04be000000060030
:102eac00010040001080fb00000006008100400083
:102ebc000100e8001080fb004800dd009180fb0061
:102ecc000100700000000600889fbe008a9fbe00b3
:102edc0080047800010478008180e800f3ff07008b
:102eec0001002000c005dd000a00200088007800e9
:102efc0009007800edff07000100200000007500bc
:102f0c00818075004f05be004f04be000000060016
:102f1c00881f7800000478000203be002060900037
:102f2c00e34f500015003a0062015100e081590056
:102f3c00186090000083fb00070020000612b80008
:102f4c008330b80085024000e84890008180fb0087
:102f5c00784890004800dd00010170008850900016
:102f6c008180fb00185090004800dd00810170004a
:102f7c00040041008580490024003700e10f510016
:102f8c00e08f59000d003e00a84890008180fb00a6
:102f9c00384890004800dd0001017000c8489000de
:102fac008180fb00584890004800dd0081017000d2
:102fbc00060041008780490014003700620151006f
:102fcc00e0815900186090000083fb00070020008e
:102fdc000612b8008330b80085024000e848900023
:102fec008180fb00784890004800dd0001017000f2
:102ffc00885090008180fb00185090004800dd0044
:10300c008101700004004100858049004f04780064
:10301c0000000600f6874700889fbe008a9fbe000e
:10302c008c9fbe008e1f7800010778000304780087
:10303c008209b8006112b800f4b79f0085bf9f00e9
:10304c00e0b79f0033089000e101600005003a00f2
:10305c00d1c1b300a0d822000148780083007800c9
:10306c00f70037000200e00002003a00820078000e
:10307c00f300370018e70200010000000004e00034
:10308c000500320081c1b300a0d8220001487800ad
:10309c008000eb00ea00370040cd22000048eb0036
:1030ac0098047800680690007800900088089000da
:1030bc00c0b79f00d1b79f0038019000c8019000a5
:1030cc000900780092ff07005801900002054000ab
:1030dc00e085480080668100800f54000c003200af
:1030ec0020cd22001004e00008003200db000700b5
:1030fc000004e0000500320091c0b300a0d822000b
:10310c00014878008000eb00cd003700886689000c
:10311c000001eb00909a8100a19a8100800f55006c
:10312c00818f5d001d00320020cd22001004e000d4
:10313c0008003200c90007000004e000050032005e
:10314c0091c0b300a0d82200014878008000eb00a9
:10315c00bb00370040cd22000048eb001980fb007b
:10316c00194190004811dd00000171000a00be00f9
:10317c0016e60200010000000001eb000004e00074
:10318c0004003a00b1c1b300a0d822000148780075
:10319c00820020009a9a8900ab9a8900180a900044
:1031ac00a80a9000a4b79f00b5b79f000200e000ea
:1031bc00180032004fb59700dfb597008006eb0082
:1031cc009500370091c0b300a0d8220001487800c8
:1031dc008000eb009a003700a0d82200014878004c
:1031ec008000eb00960037000006eb008a003700e9
:1031fc00b1c1b300a0d82200014878000080eb00d8
:10320c008080eb00909a8900a19a89008000eb00e5
:10321c008b0037004fb59700dfb597006000b80002
:10322c00f0af9f0081b79f00ffae97002fb19700c2
:10323c00bfb197008a0f51008b8f590003003a00e1
