Microchip MPLAB XC8 Compiler V2.05 ()

Linker command line:

-W-3 --edf=C:\Program Files (x86)\Microchip\xc8\v2.05\pic\dat\en_msgs.txt \
  -cs -h+dist/default/production\Bentwood_Tastiera.X.production.sym \
  --cmf=dist/default/production\Bentwood_Tastiera.X.production.cmf -z \
  -Q18F46K22 -oC:\Users\firmware\AppData\Local\Temp\s7jk.2 \
  --defsym=__MPLAB_BUILD=1 \
  -Mdist/default/production/Bentwood_Tastiera.X.production.map -E1 -ver=XC8 \
  --acfsm=1493 -ASTACK=0611h-0F37h -pstack=STACK -ACODE=00h-0FFFFh \
  -ACONST=00h-0FFFFh -ASMALLCONST=01000h-010FFhx240 \
  -AMEDIUMCONST=01000h-0FFFFh -ACOMRAM=01h-05Fh -AABS1=00h-0F37h \
  -ABIGRAM=01h-0F37h -ARAM=060h-0FFh,0100h-01FFhx14,0F00h-0F37h \
  -ABANK0=060h-0FFh -ABANK1=0100h-01FFh -ABANK2=0200h-02FFh \
  -ABANK3=0300h-03FFh -ABANK4=0400h-04FFh -ABANK5=0500h-05FFh \
  -ABANK6=0600h-06FFh -ABANK7=0700h-07FFh -ABANK8=0800h-08FFh \
  -ABANK9=0900h-09FFh -ABANK10=0A00h-0AFFh -ABANK11=0B00h-0BFFh \
  -ABANK12=0C00h-0CFFh -ABANK13=0D00h-0DFFh -ABANK14=0E00h-0EFFh \
  -ABANK15=0F00h-0F37h -ASFR=0F38h-0F5Fh,0F60h-0FFFh \
  -preset_vec=00h,intcode=08h,intcodelo=018h,powerup,init -pramtop=01000h \
  -psmallconst=SMALLCONST -pmediumconst=MEDIUMCONST -pconst=CONST \
  -AFARRAM=00h-00h -ACONFIG=0300000h-030000Dh -pconfig=CONFIG \
  -AIDLOC=0200000h-0200007h -pidloc=IDLOC -AEEDATA=0F00000h-0F003FFh \
  -peeprom_data=EEDATA \
  -prdata=COMRAM,nvrram=COMRAM,nvbit=COMRAM,rbss=COMRAM,rbit=COMRAM \
  -pfarbss=FARRAM,fardata=FARRAM,nvFARRAM=FARRAM \
  -pintsave_regs=BIGRAM,bigbss=BIGRAM,bigdata=BIGRAM -pbss=RAM \
  -pidata=CODE,irdata=CODE,ibigdata=CODE,ifardata=CODE -prparam=COMRAM \
  C:\Users\firmware\AppData\Local\Temp\s7jk.o \
  dist/default/production\Bentwood_Tastiera.X.production.o 

Object code version is 3.11

Machine type is 18F46K22

Call graph: (short form)




                Name                               Link     Load   Length Selector   Space Scale
C:\Users\firmware\AppData\Local\Temp\s7jk.o
                init                                 5C       5C        4        C       0
                reset_vec                             0        0        4        0       0
                idloc                            200000   200000        8   200000       0
                config                           300000   300000        E   300000       0
dist/default/production\Bentwood_Tastiera.X.production.o
                intcodelo                            18       18       44        C       0
                intcode                               8        8        6        4       0
                temp                                 5F       5F        1        1       1
                smallconst                         1000     1000       2C      800       0
                text106                            59C4     59C4        4     253D       0
                text105                            584A     584A       22     253D       0
                text104                            59AA     59AA        6     253D       0
                text103                            59CA     59CA        2     253D       0
                text102                            59A4     59A4        6     253D       0
                text101                            4B1A     4B1A       9A     253D       0
                text100                            5824     5824       26     253D       0
                text99                             58D8     58D8       18     253D       0
                text98                             40A0     40A0      10A      816       0
                text97                             5566     5566       3A     253D       0
                text96                             3762     3762      186      816       0
                text95                             3F7A     3F7A      126      816       0
                text94                             547A     547A       3E     253D       0
                text93                             5940     5940        C     253D       0
                text92                             53FC     53FC       40     253D       0
                text91                             58C0     58C0       18     253D       0
                text90                             5992     5992        A     253D       0
                text89                             57FE     57FE       26     253D       0
                text88                             52F4     52F4       44     253D       0
                text87                             59C0     59C0        4     253D       0
                text86                             59BC     59BC        4     253D       0
                text85                             4E78     4E78       5C     253D       0
                text84                             454A     454A       D0      816       0
                text83                             4858     4858       BA      816       0
                text82                             4CCC     4CCC       82     253D       0
                text81                             4FD4     4FD4       52     253D       0
                text80                             3E3A     3E3A      140      816       0
                text79                             57D6     57D6       28     253D       0
                text78                             237A     237A      45E      816       0
                text77                             537A     537A       42     253D       0
                text76                             5988     5988        A     253D       0
                text75                             3A4A     3A4A      158      816       0
                text74                             42AC     42AC       FC      816       0
                text73                             57AE     57AE       28     253D       0
                text72                             461A     461A       C8      816       0
                text71                             102C     102C      A24      816       0
                text70                             59C8     59C8        2     253D       0
                text69                             575C     575C       2A     253D       0
                intcode_body                       4912     4912       B6      816       0
                text67                             59B8     59B8        4     253D       0
                text66                             58A4     58A4       1C     253D       0
                text65                             5338     5338       42     253D       0
                text64                             32CE     32CE      250      816       0
                text62                             5888     5888       1C     253D       0
                text61                             597E     597E        A     253D       0
                text60                             5786     5786       28     253D       0
                text59                             510A     510A       48     253D       0
                text58                             59B4     59B4        4     253D       0
                text57                             59B0     59B0        4     253D       0
                text56                             4E1C     4E1C       5C     253D       0
                text55                             43A8     43A8       D2      816       0
                text54                             46E2     46E2       BC      816       0
                text53                             4C48     4C48       84     253D       0
                text52                             4F80     4F80       54     253D       0
                text51                             3CF6     3CF6      144      816       0
                text50                             5732     5732       2A     253D       0
                text49                             1EF0     1EF0      48A      816       0
                text48                             543C     543C       3E     253D       0
                text47                             52B0     52B0       44     253D       0
                text46                             5932     5932        E     253D       0
                text45                             5924     5924        E     253D       0
                text44                             38E8     38E8      162      816       0
                text43                             41AA     41AA      102      816       0
                text42                             5706     5706       2C     253D       0
                text41                             479E     479E       BA      816       0
                text40                             27D8     27D8      30E      816       0
                text39                             50C2     50C2       48     253D       0
                text38                             2AE6     2AE6      2C0      816       0
                text37                             447A     447A       D0      816       0
                text36                             5076     5076       4C     253D       0
                text35                             599C     599C        8     253D       0
                text34                             4A7A     4A7A       A0     253D       0
                text33                             526A     526A       46     253D       0
                text32                             5026     5026       50     253D       0
                text31                             4F2A     4F2A       56     253D       0
                text30                             3044     3044      28A      816       0
                text29                             1A50     1A50      4A0      816       0
                text28                             3BA2     3BA2      154      816       0
                text27                             56D6     56D6       30     253D       0
                text26                             58F0     58F0       14     253D       0
                text25                             56A6     56A6       30     253D       0
                text24                             351E     351E      244      816       0
                text23                             5640     5640       34     253D       0
                text22                             5974     5974        A     253D       0
                text21                             596A     596A        A     253D       0
                text20                             5960     5960        A     253D       0
                text19                             5956     5956        A     253D       0
                text18                             4DB6     4DB6       66     253D       0
                text17                             560C     560C       34     253D       0
                text16                             5916     5916        E     253D       0
                text15                             5904     5904       12     253D       0
                text14                             53BC     53BC       40     253D       0
                text13                             594C     594C        A     253D       0
                text12                             55A0     55A0       38     253D       0
                text11                             586C     586C       1C     253D       0
                text10                             5674     5674       32     253D       0
                text9                              5224     5224       46     253D       0
                text8                              51DE     51DE       46     253D       0
                text7                              5198     5198       46     253D       0
                text6                              5152     5152       46     253D       0
                text5                              4ED4     4ED4       56     253D       0
                text4                              552C     552C       3A     253D       0
                text3                              54F2     54F2       3A     253D       0
                text2                              54B8     54B8       3A     253D       0
                text1                              2DA6     2DA6      29E      816       0
                text0                              55D8     55D8       34     253D       0
                cstackCOMRAM                          1        1       4F        1       1
                cstackBANK0                          60       60       70       60       1
                cstackBANK1                         1EB      1EB       15      100       1
                bssBIGRAM                           2B1      2B1      360      2B1       1
                dataBANK2                           200      200       B1      200       1
                dataBANK1                           183      183       68      100       1
                bssBANK1                            100      100       83      100       1
                dataBANK0                            EA       EA        1       60       1
                bssBANK0                             D0       D0       1A       60       1
                bssCOMRAM                            50       50        F        1       1
                cinit                              4BB4     4BB4       94     253D       0
                idataBANK2                         49C8     49C8       B1      816       0
                idataBANK1                         4D4E     4D4E       68     253D       0
                idataBANK0                         59CC     59CC        1     253D       0

TOTAL           Name                               Link     Load   Length     Space
        CLASS   STACK          

        CLASS   CODE           
                intcodelo                            18       18       44         0
                intcode                               8        8        6         0
                init                                 5C       5C        4         0
                reset_vec                             0        0        4         0
                text106                            59C4     59C4        4         0
                text105                            584A     584A       22         0
                text104                            59AA     59AA        6         0
                text103                            59CA     59CA        2         0
                text102                            59A4     59A4        6         0
                text101                            4B1A     4B1A       9A         0
                text100                            5824     5824       26         0
                text99                             58D8     58D8       18         0
                text98                             40A0     40A0      10A         0
                text97                             5566     5566       3A         0
                text96                             3762     3762      186         0
                text95                             3F7A     3F7A      126         0
                text94                             547A     547A       3E         0
                text93                             5940     5940        C         0
                text92                             53FC     53FC       40         0
                text91                             58C0     58C0       18         0
                text90                             5992     5992        A         0
                text89                             57FE     57FE       26         0
                text88                             52F4     52F4       44         0
                text87                             59C0     59C0        4         0
                text86                             59BC     59BC        4         0
                text85                             4E78     4E78       5C         0
                text84                             454A     454A       D0         0
                text83                             4858     4858       BA         0
                text82                             4CCC     4CCC       82         0
                text81                             4FD4     4FD4       52         0
                text80                             3E3A     3E3A      140         0
                text79                             57D6     57D6       28         0
                text78                             237A     237A      45E         0
                text77                             537A     537A       42         0
                text76                             5988     5988        A         0
                text75                             3A4A     3A4A      158         0
                text74                             42AC     42AC       FC         0
                text73                             57AE     57AE       28         0
                text72                             461A     461A       C8         0
                text71                             102C     102C      A24         0
                text70                             59C8     59C8        2         0
                text69                             575C     575C       2A         0
                intcode_body                       4912     4912       B6         0
                text67                             59B8     59B8        4         0
                text66                             58A4     58A4       1C         0
                text65                             5338     5338       42         0
                text64                             32CE     32CE      250         0
                text62                             5888     5888       1C         0
                text61                             597E     597E        A         0
                text60                             5786     5786       28         0
                text59                             510A     510A       48         0
                text58                             59B4     59B4        4         0
                text57                             59B0     59B0        4         0
                text56                             4E1C     4E1C       5C         0
                text55                             43A8     43A8       D2         0
                text54                             46E2     46E2       BC         0
                text53                             4C48     4C48       84         0
                text52                             4F80     4F80       54         0
                text51                             3CF6     3CF6      144         0
                text50                             5732     5732       2A         0
                text49                             1EF0     1EF0      48A         0
                text48                             543C     543C       3E         0
                text47                             52B0     52B0       44         0
                text46                             5932     5932        E         0
                text45                             5924     5924        E         0
                text44                             38E8     38E8      162         0
                text43                             41AA     41AA      102         0
                text42                             5706     5706       2C         0
                text41                             479E     479E       BA         0
                text40                             27D8     27D8      30E         0
                text39                             50C2     50C2       48         0
                text38                             2AE6     2AE6      2C0         0
                text37                             447A     447A       D0         0
                text36                             5076     5076       4C         0
                text35                             599C     599C        8         0
                text34                             4A7A     4A7A       A0         0
                text33                             526A     526A       46         0
                text32                             5026     5026       50         0
                text31                             4F2A     4F2A       56         0
                text30                             3044     3044      28A         0
                text29                             1A50     1A50      4A0         0
                text28                             3BA2     3BA2      154         0
                text27                             56D6     56D6       30         0
                text26                             58F0     58F0       14         0
                text25                             56A6     56A6       30         0
                text24                             351E     351E      244         0
                text23                             5640     5640       34         0
                text22                             5974     5974        A         0
                text21                             596A     596A        A         0
                text20                             5960     5960        A         0
                text19                             5956     5956        A         0
                text18                             4DB6     4DB6       66         0
                text17                             560C     560C       34         0
                text16                             5916     5916        E         0
                text15                             5904     5904       12         0
                text14                             53BC     53BC       40         0
                text13                             594C     594C        A         0
                text12                             55A0     55A0       38         0
                text11                             586C     586C       1C         0
                text10                             5674     5674       32         0
                text9                              5224     5224       46         0
                text8                              51DE     51DE       46         0
                text7                              5198     5198       46         0
                text6                              5152     5152       46         0
                text5                              4ED4     4ED4       56         0
                text4                              552C     552C       3A         0
                text3                              54F2     54F2       3A         0
                text2                              54B8     54B8       3A         0
                text1                              2DA6     2DA6      29E         0
                text0                              55D8     55D8       34         0
                cinit                              4BB4     4BB4       94         0
                idataBANK2                         49C8     49C8       B1         0
                idataBANK1                         4D4E     4D4E       68         0
                idataBANK0                         59CC     59CC        1         0

        CLASS   CONST          

        CLASS   SMALLCONST     
                smallconst                         1000     1000       2C         0

        CLASS   MEDIUMCONST    

        CLASS   COMRAM         
                temp                                 5F       5F        1         1
                cstackCOMRAM                          1        1       4F         1
                bssCOMRAM                            50       50        F         1

        CLASS   ABS1           

        CLASS   BIGRAM         
                bssBIGRAM                           2B1      2B1      360         1

        CLASS   RAM            

        CLASS   BANK0          
                cstackBANK0                          60       60       70         1
                dataBANK0                            EA       EA        1         1
                bssBANK0                             D0       D0       1A         1

        CLASS   BANK1          
                cstackBANK1                         1EB      1EB       15         1
                dataBANK1                           183      183       68         1
                bssBANK1                            100      100       83         1

        CLASS   BANK2          
                dataBANK2                           200      200       B1         1

        CLASS   BANK3          

        CLASS   BANK4          

        CLASS   BANK5          

        CLASS   BANK6          

        CLASS   BANK7          

        CLASS   BANK8          

        CLASS   BANK9          

        CLASS   BANK10         

        CLASS   BANK11         

        CLASS   BANK12         

        CLASS   BANK13         

        CLASS   BANK14         

        CLASS   BANK15         

        CLASS   SFR            

        CLASS   FARRAM         

        CLASS   CONFIG         
                config                           300000   300000        E         0

        CLASS   IDLOC          
                idloc                            200000   200000        8         0

        CLASS   EEDATA         



SEGMENTS        Name                           Load    Length   Top    Selector   Space  Class

                reset_vec                      000000  000004  000004         0       0  CODE    
                cstackCOMRAM                   000001  00005F  000060         1       1  COMRAM  
                intcode                        000008  000006  00000E         4       0  CODE    
                intcodelo                      000018  000048  000060         C       0  CODE    
                cstackBANK0                    000060  00008B  0000EB        60       1  BANK0   
                bssBANK1                       000100  000100  000200       100       1  BANK1   
                dataBANK2                      000200  0000B1  0002B1       200       1  BANK2   
                bssBIGRAM                      0002B1  000360  000611       2B1       1  BIGRAM  
                smallconst                     001000  00002C  00102C       800       0  SMALLCON
                text71                         00102C  003A4D  004A79       816       0  CODE    
                text34                         004A7A  000F53  0059CD      253D       0  CODE    
                idloc                          200000  000008  200008    200000       0  IDLOC   
                config                         300000  00000E  30000E    300000       0  CONFIG  


UNUSED ADDRESS RANGES

        Name                Unused          Largest block    Delta
        BANK0            0000EB-0000FF               15
        BANK10           000A00-000AFF              100
        BANK11           000B00-000BFF              100
        BANK12           000C00-000CFF              100
        BANK13           000D00-000DFF              100
        BANK14           000E00-000EFF              100
        BANK15           000F00-000F37               38
        BANK6            000611-0006FF               EF
        BANK7            000700-0007FF              100
        BANK8            000800-0008FF              100
        BANK9            000900-0009FF              100
        BIGRAM           0000EB-0000FF               15
                         000611-000F37              927
        CODE             000004-000007                4
                         00000E-000017                A
                         000060-000FFF              FA0
                         004A79-004A79                1
                         0059CD-00FFFF             A633
        CONST            000004-000007                4
                         00000E-000017                A
                         000060-000FFF              FA0
                         004A79-004A79                1
                         0059CD-00FFFF             A633
        EEDATA           F00000-F003FF              400
        MEDIUMCONST      004A79-004A79                1
                         0059CD-00FFFF             A633
        RAM              0000EB-0000FF               15
                         000611-000F37              100
        SFR              000F38-000FFF               28
        SMALLCONST       004A79-004A79                1
                         0059CD-00FFFF              100
        STACK            000611-000F37              927

                                  Symbol Table

?_CTMU_GetVoltage                                  cstackBANK0  000078
?___fladd                                          cstackBANK0  000085
?___fldiv                                          cstackBANK0  00006A
?___flsub                                          cstackBANK0  000095
?___fltol                                          cstackBANK0  00009D
?___lldiv                                          cstackBANK0  00006A
?___lwdiv                                          cstackBANK0  000070
?___lwmod                                          cstackBANK0  000077
?___wmul                                           cstackBANK0  00006A
?___xxtofl                                         cstackBANK0  000077
?_abs                                              cstackBANK0  00006A
?_printf                                           cstackBANK0  00007C
?i2_CTMU_GetVoltage                                cstackCOMRAM 00000F
?i2___fltol                                        cstackCOMRAM 000001
?i2___lldiv                                        cstackCOMRAM 000001
?i2___lwdiv                                        cstackCOMRAM 000007
?i2___lwmod                                        cstackCOMRAM 00000E
?i2___wmul                                         cstackCOMRAM 000001
?i2___xxtofl                                       cstackCOMRAM 00000E
?i2_abs                                            cstackCOMRAM 000001
?i2_printf                                         cstackCOMRAM 000013
ADC_SelectChannel@channel                          cstackBANK0  00006B
ASCIItoHEX@LSB                                     cstackCOMRAM 000001
ASCIItoHEX@MSB                                     cstackCOMRAM 000003
CTMU_Acquisition@i                                 cstackBANK0  0000CB
CTMU_ButtonEvaluation@avg_cap                      cstackBANK1  0001F7
CTMU_ButtonEvaluation@check                        cstackBANK1  0001FB
CTMU_ButtonEvaluation@i                            cstackBANK1  0001FF
CTMU_ButtonEvaluation@j                            cstackBANK1  0001FD
CTMU_ButtonEvaluation@ok_button_pressed            cstackBANK1  0001FC
CTMU_ButtonEvaluation@premuto                      cstackBANK1  0001FE
CTMU_ButtonEvaluation@vect_cap                     cstackBANK1  0001EB
CTMU_ChannelCalibs@VadcLimH                        cstackBANK0  0000AD
CTMU_ChannelCalibs@VadcLimL                        cstackBANK0  0000B1
CTMU_ChannelCalibs@Vread                           cstackBANK0  0000B7
CTMU_ChannelCalibs@Vread_med                       cstackBANK0  0000C2
CTMU_ChannelCalibs@Vsum                            cstackBANK0  0000B9
CTMU_ChannelCalibs@buttons                         cstackBANK0  0000A7
CTMU_ChannelCalibs@calib_ok                        cstackBANK0  0000C8
CTMU_ChannelCalibs@channel                         cstackBANK0  0000A9
CTMU_ChannelCalibs@current                         cstackBANK0  0000BF
CTMU_ChannelCalibs@delay                           cstackBANK0  0000C9
CTMU_ChannelCalibs@i                               cstackBANK0  0000C6
CTMU_ChannelCalibs@iTrim                           cstackBANK0  0000BD
CTMU_ChannelCalibs@num_element                     cstackBANK0  0000B5
CTMU_ChannelCalibs@var                             cstackBANK0  0000C0
CTMU_ChannelEvaluation@Vread                       cstackBANK0  0000BF
CTMU_ChannelEvaluation@Vread_med                   cstackBANK0  0000C4
CTMU_ChannelEvaluation@Vsum                        cstackBANK0  0000BB
CTMU_ChannelEvaluation@channel                     cstackBANK0  0000C8
CTMU_ChannelEvaluation@delta_stop_th               cstackBANK0  0000C2
CTMU_ChannelEvaluation@i                           cstackBANK0  0000B7
CTMU_ChannelEvaluation@num_element                 cstackBANK0  0000B9
CTMU_ChannelEvaluation@ok_button_pressed           cstackBANK0  0000C1
CTMU_ChannelProximity@Vadc_H                       cstackBANK0  0000AF
CTMU_ChannelProximity@Vadc_L                       cstackBANK0  0000B1
CTMU_ChannelProximity@Vread                        cstackBANK0  0000A7
CTMU_ChannelProximity@button_pressed               cstackBANK0  0000B3
CTMU_ChannelProximity@channel                      cstackBANK0  0000B4
CTMU_GetVoltage@Vread                              cstackBANK0  00007A
CTMU_GetVoltage@delay                              cstackBANK0  000078
CTMU_Inizialize_MatrixCapSense@i                   cstackBANK0  000072
CTMU_Print@i                                       cstackBANK0  00008C
CTMU_Print@j                                       cstackBANK0  00008D
CTMU_ReadMatrixEE@col                              cstackCOMRAM 00000F
CTMU_ReadMatrixEE@count_add                        cstackCOMRAM 00000B
CTMU_ReadMatrixEE@row                              cstackCOMRAM 00000E
CTMU_ReadMatrixEE@val_mem                          cstackCOMRAM 00000D
CTMU_SetCalibValue@Trim                            cstackCOMRAM 000015
CTMU_SetCalibValue@VadcLimitH                      cstackCOMRAM 00001A
CTMU_SetCalibValue@VadcLimitL                      cstackCOMRAM 00001B
CTMU_SetCalibValue@W_EE                            cstackCOMRAM 00001C
CTMU_SetCalibValue@channel                         cstackCOMRAM 000021
CTMU_SetCalibValue@current                         cstackCOMRAM 000014
CTMU_SetCalibValue@hysteresis                      cstackCOMRAM 000017
CTMU_SetCalibValue@numSampleCheck                  cstackCOMRAM 000016
CTMU_SetCalibValue@overHys                         cstackCOMRAM 000018
CTMU_SetCalibValue@time                            cstackCOMRAM 000013
CTMU_WriteButtonEE@channel                         cstackCOMRAM 000012
CTMU_WriteButtonEE@col                             cstackCOMRAM 000011
CTMU_WriteButtonEE@i                               cstackCOMRAM 00000E
CTMU_WriteButtonEE@s_add                           cstackCOMRAM 000010
CTMU_WriteButtonEE@val_mem                         cstackCOMRAM 00000D
CTMU_WriteMatrixEE@count_add                       cstackBANK0  000090
CTMU_WriteMatrixEE@i                               cstackBANK0  000093
CTMU_WriteMatrixEE@j                               cstackBANK0  000094
CTMU_WriteMatrixEE@val_mem                         cstackBANK0  000092
DATAEE_ReadByte@bAdd                               cstackCOMRAM 000001
DATAEE_WriteByte@GIEBitValue                       cstackBANK0  00006D
DATAEE_WriteByte@bAdd                              cstackBANK0  00006A
DATAEE_WriteByte@bData                             cstackBANK0  00006C
EUSART1_BufferWrite@buff                           cstackBANK0  000078
EUSART1_BufferWrite@num_elem                       cstackBANK0  00007A
EUSART1_Read@readValue                             cstackCOMRAM 000001
EUSART1_SetErrorHandler@interruptHandler           cstackBANK0  00006A
EUSART1_SetFramingErrorHandler@interruptHandler    cstackBANK0  00006A
EUSART1_SetOverrunErrorHandler@interruptHandler    cstackBANK0  00006A
EUSART1_SetRxInterruptHandler@interruptHandler     cstackBANK0  00006A
EUSART1_Write@txData                               cstackBANK0  00006A
I2C2_ISR@i2c_10bit_address_restart                 bssBANK0     0000D8
I2C2_ISR@i2c_address                               bssCOMRAM    00005D
I2C2_ISR@i2c_bytes_left                            bssBANK0     0000D9
I2C2_ISR@pi2c_buf_ptr                              bssBANK1     000145
I2C2_MasterRead@trBlock                            bssBANK1     000174
I2C2_MasterTRBInsert@count                         cstackBANK0  00006F
I2C2_MasterTRBInsert@pflag                         cstackBANK0  00006C
I2C2_MasterTRBInsert@ptrb_list                     cstackBANK0  00006A
I2C2_MasterWrite@address                           cstackBANK0  000076
I2C2_MasterWrite@length                            cstackBANK0  000075
I2C2_MasterWrite@pdata                             cstackBANK0  000073
I2C2_MasterWrite@pflag                             cstackBANK0  000078
I2C2_MasterWrite@trBlock                           bssBANK1     000179
I2C2_MasterWriteTRBBuild@address                   cstackBANK0  00006F
I2C2_MasterWriteTRBBuild@length                    cstackBANK0  00006E
I2C2_MasterWriteTRBBuild@pdata                     cstackBANK0  00006C
I2C2_MasterWriteTRBBuild@ptrb                      cstackBANK0  00006A
I2C2_Stop@completion_code                          cstackBANK0  000062
Mech_Buttons_Get_Port@check                        cstackBANK0  00007B
PCA9685_ALL_LED_BLUE_OFF@Serial_Config_Variable_1  cstackBANK0  00007B
PCA9685_ALL_LED_BLUE_OFF@Serial_Config_Variable_2  cstackBANK0  00007A
PCA9685_ALL_LED_BLUE_ON@Serial_Config_Variable_1   cstackBANK0  00007B
PCA9685_ALL_LED_BLUE_ON@Serial_Config_Variable_2   cstackBANK0  00007A
PCA9685_ALL_LED_WHITE_OFF@Serial_Config_Variable_1 cstackBANK0  00007B
PCA9685_ALL_LED_WHITE_OFF@Serial_Config_Variable_2 cstackBANK0  00007A
PCA9685_ALL_LED_WHITE_ON@Serial_Config_Variable_1  cstackBANK0  00007B
PCA9685_ALL_LED_WHITE_ON@Serial_Config_Variable_2  cstackBANK0  00007A
PCA9685_SET_LED_BLUE_ON@Serial_Config_Variable_1   cstackBANK0  00007A
PCA9685_SET_LED_BLUE_ON@Serial_Config_Variable_2   cstackBANK0  00007B
PCA9685_SET_LED_BLUE_ON@Serial_Index_LED           cstackBANK0  00007C
PCA9685_SET_LED_WHITE_ON@Serial_Config_Variable_1  cstackBANK0  00007A
PCA9685_SET_LED_WHITE_ON@Serial_Config_Variable_2  cstackBANK0  00007B
PCA9685_SET_LED_WHITE_ON@Serial_Index_LED          cstackBANK0  00007C
PCA9685_SET_MODE1@PCA9685_Address                  cstackBANK0  00007A
PCA9685_SET_MODE1@Serial_Config_Command            cstackBANK0  00007B
PCA9685_SET_MODE2@PCA9685_Address                  cstackBANK0  00007A
PCA9685_SET_MODE2@Serial_Config_Command            cstackBANK0  00007B
PCA9685_SET_PRESCALE@PCA9685_Address               cstackBANK0  00007A
PCA9685_SET_PRESCALE@Serial_Config_Command         cstackBANK0  00007B
Serial_Config_PCA9685@row                          cstackBANK0  00007E
Serial_Monitor@Index                               bssBANK1     000156
Serial_Monitor@RXcode_1                            bssCOMRAM    000053
Serial_Monitor@RXcode_2                            bssCOMRAM    000052
Serial_Monitor@RXcode_3                            bssBANK1     000158
Serial_Monitor@RXcode_4                            bssBANK1     000157
Serial_Monitor@SM_State                            bssBANK1     000159
Serial_Monitor@error                               cstackCOMRAM 000041
Serial_Monitor@i                                   cstackCOMRAM 000042
ShowVersion@F6294                                  dataBANK2    000200
ShowVersion@i                                      cstackCOMRAM 00003B
ShowVersion@version                                cstackCOMRAM 000002
TMR0_GetRegValues@counter                          cstackBANK0  000074
TMR0_GetRegValues@delay                            cstackBANK0  000070
TMR0_GetRegValues@reg                              cstackBANK0  000076
TMR0_SetInterruptHandler@InterruptHandler          cstackBANK0  00006A
_ADCON0bits                                        (abs)        000FC2
_ADCON1bits                                        (abs)        000FC1
_ADCON2bits                                        (abs)        000FC0
_ADC_ISR                                           text106      0059C4
_ADC_Initialize                                    text27       0056D6
_ADC_SelectChannel                                 text62       005888
_ADRES                                             (abs)        000FC3
_ADRESH                                            (abs)        000FC4
_ADRESL                                            (abs)        000FC3
_ANSELA                                            (abs)        000F38
_ANSELAbits                                        (abs)        000F38
_ANSELB                                            (abs)        000F39
_ANSELBbits                                        (abs)        000F39
_ANSELC                                            (abs)        000F3A
_ANSELD                                            (abs)        000F3B
_ANSELE                                            (abs)        000F3C
_ANSELEbits                                        (abs)        000F3C
_ASCIItoHEX                                        text100      005824
_BAUDCON1                                          (abs)        000FB8
_CCP5CON                                           (abs)        000F54
_CCP5_Initialize                                   text26       0058F0
_CCPR5H                                            (abs)        000F56
_CCPR5L                                            (abs)        000F55
_CCPTMRS1bits                                      (abs)        000F48
_CTMUCONHbits                                      (abs)        000F45
_CTMUCONLbits                                      (abs)        000F44
_CTMUICONbits                                      (abs)        000F43
_CTMU_Acquisition                                  text42       005706
_CTMU_ButtonEvaluation                             text29       001A50
_CTMU_ChannelCalibs                                text49       001EF0
_CTMU_ChannelEvaluation                            text38       002AE6
_CTMU_ChannelProximity                             text41       00479E
_CTMU_Enabling                                     text61       00597E
_CTMU_GetVoltage                                   text56       004E1C
_CTMU_Initialize                                   text25       0056A6
_CTMU_Inizialize_MatrixCapSense                    text24       00351E
_CTMU_Inizialize_Port                              text23       005640
_CTMU_Print                                        text37       00447A
_CTMU_ReadMatrixEE                                 text98       0040A0
_CTMU_SetCalibValue                                text95       003F7A
_CTMU_WriteButtonEE                                text96       003762
_CTMU_WriteMatrixEE                                text43       0041AA
_DATAEE_ReadByte                                   text99       0058D8
_DATAEE_WriteByte                                  text48       00543C
_EEADR                                             (abs)        000FA9
_EEADRH                                            (abs)        000FAA
_EECON1bits                                        (abs)        000FA6
_EECON2                                            (abs)        000FA7
_EEDATA                                            (abs)        000FA8
_EUSART1_BufferWrite                               text36       005076
_EUSART1_DefaultErrorHandler                       text104      0059AA
_EUSART1_DefaultFramingErrorHandler                text103      0059CA
_EUSART1_DefaultOverrunErrorHandler                text102      0059A4
_EUSART1_ErrorHandler                              bssBANK1     00014B
_EUSART1_FramingErrorHandler                       bssBANK1     00014F
_EUSART1_Initialize                                text18       004DB6
_EUSART1_OverrunErrorHandler                       bssBANK1     00014D
_EUSART1_Read                                      text94       00547A
_EUSART1_Receive_ISR                               text101      004B1A
_EUSART1_RxDataHandler                             text105      00584A
_EUSART1_RxDefaultInterruptHandler                 bssBANK1     000153
_EUSART1_SetErrorHandler                           text22       005974
_EUSART1_SetFramingErrorHandler                    text21       00596A
_EUSART1_SetOverrunErrorHandler                    text20       005960
_EUSART1_SetRxInterruptHandler                     text19       005956
_EUSART1_Write                                     text46       005932
_I2C2_BusCollisionISR                              text67       0059B8
_I2C2_FunctionComplete                             text66       0058A4
_I2C2_ISR                                          text64       0032CE
_I2C2_Initialize                                   text17       00560C
_I2C2_MasterTRBInsert                              text34       004A7A
_I2C2_MasterWrite                                  text32       005026
_I2C2_MasterWriteTRBBuild                          text33       00526A
_I2C2_Stop                                         text65       005338
_I2C2_WaitForLastPacketToComplete                  text35       00599C
_INTCON2bits                                       (abs)        000FF1
_INTCONbits                                        (abs)        000FF2
_INTERRUPT_Initialize                              text16       005916
_INTERRUPT_InterruptManagerHigh                    intcode      000008
_INTERRUPT_InterruptManagerLow                     intcodelo    000018
_IPR1bits                                          (abs)        000F9F
_IPR3bits                                          (abs)        000FA5
_LATA                                              (abs)        000F89
_LATB                                              (abs)        000F8A
_LATC                                              (abs)        000F8B
_LATCbits                                          (abs)        000F8B
_LATD                                              (abs)        000F8C
_LATE                                              (abs)        000F8D
_Led_status                                        dataBANK1    0001CD
_MatrixCapSense                                    bssBIGRAM    000509
_Mech_Buttons_Get_Port                             text28       003BA2
_Multi_PWMLeds_enabled                             bssCOMRAM    000056
_OSCCON                                            (abs)        000FD3
_OSCCON2                                           (abs)        000FD2
_OSCILLATOR_Initialize                             text15       005904
_OSCTUNE                                           (abs)        000F9B
_PCA9685_ALL_LED_BLUE_OFF                          text9        005224
_PCA9685_ALL_LED_BLUE_ON                           text8        0051DE
_PCA9685_ALL_LED_WHITE_OFF                         text7        005198
_PCA9685_ALL_LED_WHITE_ON                          text6        005152
_PCA9685_SET_LED_BLUE_ON                           text31       004F2A
_PCA9685_SET_LED_WHITE_ON                          text5        004ED4
_PCA9685_SET_MODE1                                 text4        00552C
_PCA9685_SET_MODE2                                 text3        0054F2
_PCA9685_SET_PRESCALE                              text2        0054B8
_PIE1bits                                          (abs)        000F9D
_PIE3bits                                          (abs)        000FA3
_PIN_MANAGER_Initialize                            text14       0053BC
_PIR1bits                                          (abs)        000F9E
_PIR2bits                                          (abs)        000FA1
_PIR3bits                                          (abs)        000FA4
_PIR4bits                                          (abs)        000F7B
_PLLRDY                                            (abs)        007E97
_PORTAbits                                         (abs)        000F80
_PORTBbits                                         (abs)        000F81
_PORTCbits                                         (abs)        000F82
_PORTDbits                                         (abs)        000F83
_PWM_1                                             bssBANK1     000139
_PWM_1_HIGH                                        bssBANK1     00015C
_PWM_1_LOW                                         bssBANK0     0000D0
_PWM_2                                             bssBANK1     000137
_PWM_2_HIGH                                        bssBANK1     00015A
_PWM_2_LOW                                         bssBANK1     00015B
_Parameters_LEDs                                   bssBANK1     000160
_RCONbits                                          (abs)        000FD0
_RCREG1                                            (abs)        000FAE
_RCSTA1                                            (abs)        000FAB
_RCSTA1bits                                        (abs)        000FAB
_SPBRG1                                            (abs)        000FAF
_SPBRGH1                                           (abs)        000FB0
_SSP2ADD                                           (abs)        000F6E
_SSP2BUF                                           (abs)        000F6F
_SSP2CON1                                          (abs)        000F6C
_SSP2CON1bits                                      (abs)        000F6C
_SSP2CON2bits                                      (abs)        000F6B
_SSP2CON3                                          (abs)        000F69
_SSP2STAT                                          (abs)        000F6D
_SYSTEM_Initialize                                 text10       005674
_Serial_Config_Command                             bssBANK0     0000D3
_Serial_Config_Driver                              bssBANK0     0000D2
_Serial_Config_PCA9685                             text1        002DA6
_Serial_Config_Start                               bssBANK1     00015E
_Serial_Config_Variable_1                          bssCOMRAM    000057
_Serial_Config_Variable_2                          bssBANK0     0000D5
_Serial_Index_LED                                  bssBANK0     0000D4
_Serial_Monitor                                    text71       00102C
_ShowVersion                                       text92       0053FC
_T0CON                                             (abs)        000FD5
_T0CONbits                                         (abs)        000FD5
_T1CON                                             (abs)        000FCD
_T1CONbits                                         (abs)        000FCD
_T1GCON                                            (abs)        000FCC
_T1GCONbits                                        (abs)        000FCC
_TABLAT                                            (abs)        000FF5
_TBLPTRH                                           (abs)        000FF7
_TBLPTRL                                           (abs)        000FF6
_TBLPTRU                                           (abs)        000FF8
_TMR0H                                             (abs)        000FD7
_TMR0L                                             (abs)        000FD6
_TMR0_DefaultInterruptHandler                      text70       0059C8
_TMR0_GetRegValues                                 text59       00510A
_TMR0_ISR                                          text69       00575C
_TMR0_Initialize                                   text12       0055A0
_TMR0_InterruptHandler                             bssBANK1     000151
_TMR0_SetInterruptHandler                          text13       00594C
_TMR0_StartTimer                                   text58       0059B4
_TMR0_StopTimer                                    text57       0059B0
_TMR1                                              (abs)        000FCE
_TMR1H                                             (abs)        000FCF
_TMR1L                                             (abs)        000FCE
_TMR1_Initialize                                   text11       00586C
_TRISA                                             (abs)        000F92
_TRISAbits                                         (abs)        000F92
_TRISB                                             (abs)        000F93
_TRISBbits                                         (abs)        000F93
_TRISC                                             (abs)        000F94
_TRISD                                             (abs)        000F95
_TRISE                                             (abs)        000F96
_TRISEbits                                         (abs)        000F96
_TXREG1                                            (abs)        000FAD
_TXSTA1                                            (abs)        000FAC
_TXSTA1bits                                        (abs)        000FAC
_WPUB                                              (abs)        000F61
__CFG_BOREN$SBORDIS                                (abs)        000000
__CFG_BORV$190                                     (abs)        000000
__CFG_CCP2MX$PORTC1                                (abs)        000000
__CFG_CCP3MX$PORTB5                                (abs)        000000
__CFG_CP0$OFF                                      (abs)        000000
__CFG_CP1$OFF                                      (abs)        000000
__CFG_CP2$OFF                                      (abs)        000000
__CFG_CP3$OFF                                      (abs)        000000
__CFG_CPB$OFF                                      (abs)        000000
__CFG_CPD$OFF                                      (abs)        000000
__CFG_DEBUG$OFF                                    (abs)        000000
__CFG_EBTR0$OFF                                    (abs)        000000
__CFG_EBTR1$OFF                                    (abs)        000000
__CFG_EBTR2$OFF                                    (abs)        000000
__CFG_EBTR3$OFF                                    (abs)        000000
__CFG_EBTRB$OFF                                    (abs)        000000
__CFG_FCMEN$OFF                                    (abs)        000000
__CFG_FOSC$HSMP                                    (abs)        000000
__CFG_HFOFST$ON                                    (abs)        000000
__CFG_IESO$OFF                                     (abs)        000000
__CFG_LVP$ON                                       (abs)        000000
__CFG_MCLRE$EXTMCLR                                (abs)        000000
__CFG_P2BMX$PORTD2                                 (abs)        000000
__CFG_PBADEN$ON                                    (abs)        000000
__CFG_PLLCFG$ON                                    (abs)        000000
__CFG_PRICLKEN$ON                                  (abs)        000000
__CFG_PWRTEN$OFF                                   (abs)        000000
__CFG_STVREN$ON                                    (abs)        000000
__CFG_T3CMX$PORTC0                                 (abs)        000000
__CFG_WDTEN$OFF                                    (abs)        000000
__CFG_WDTPS$32768                                  (abs)        000000
__CFG_WRT0$OFF                                     (abs)        000000
__CFG_WRT1$OFF                                     (abs)        000000
__CFG_WRT2$OFF                                     (abs)        000000
__CFG_WRT3$OFF                                     (abs)        000000
__CFG_WRTB$OFF                                     (abs)        000000
__CFG_WRTC$OFF                                     (abs)        000000
__CFG_WRTD$OFF                                     (abs)        000000
__CFG_XINST$OFF                                    (abs)        000000
__HRAM                                             (abs)        000000
__Habs1                                            abs1         000000
__Hbank0                                           bank0        000000
__Hbank1                                           bank1        000000
__Hbank10                                          bank10       000000
__Hbank11                                          bank11       000000
__Hbank12                                          bank12       000000
__Hbank13                                          bank13       000000
__Hbank14                                          bank14       000000
__Hbank15                                          bank15       000000
__Hbank2                                           bank2        000000
__Hbank3                                           bank3        000000
__Hbank4                                           bank4        000000
__Hbank5                                           bank5        000000
__Hbank6                                           bank6        000000
__Hbank7                                           bank7        000000
__Hbank8                                           bank8        000000
__Hbank9                                           bank9        000000
__Hbigbss                                          bigbss       000000
__Hbigdata                                         bigdata      000000
__Hbigram                                          bigram       000000
__Hbss                                             bss          000000
__HbssBANK0                                        bssBANK0     000000
__HbssBANK1                                        bssBANK1     000000
__HbssBIGRAM                                       bssBIGRAM    000000
__HbssCOMRAM                                       bssCOMRAM    000000
__Hcinit                                           cinit        000000
__Hclrtext                                         clrtext      000000
__Hcomram                                          comram       000000
__Hconfig                                          config       30000E
__Hconst                                           const        000000
__HcstackBANK0                                     cstackBANK0  000000
__HcstackBANK1                                     cstackBANK1  000000
__HcstackCOMRAM                                    cstackCOMRAM 000000
__Hdata                                            data         000000
__HdataBANK0                                       dataBANK0    000000
__HdataBANK1                                       dataBANK1    000000
__HdataBANK2                                       dataBANK2    000000
__Heeprom_data                                     eeprom_data  000000
__Hfarbss                                          farbss       000000
__Hfardata                                         fardata      000000
__Hibigdata                                        ibigdata     000000
__Hidata                                           idata        000000
__HidataBANK0                                      idataBANK0   000000
__HidataBANK1                                      idataBANK1   000000
__HidataBANK2                                      idataBANK2   000000
__Hidloc                                           idloc        200008
__Hifardata                                        ifardata     000000
__Hinit                                            init         000060
__Hintcode                                         intcode      00000E
__Hintcode_body                                    intcode_body 000000
__Hintcodelo                                       intcodelo    00005C
__Hintentry                                        intentry     000000
__Hintret                                          intret       000000
__Hintsave_regs                                    intsave_regs 000000
__Hirdata                                          irdata       000000
__Hmediumconst                                     mediumconst  000000
__HnvFARRAM                                        nvFARRAM     000000
__Hnvbit                                           nvbit        000000
__Hnvrram                                          nvrram       000000
__Hparam                                           rparam       000000
__Hpowerup                                         powerup      00005C
__Hram                                             ram          000000
__Hramtop                                          ramtop       001000
__Hrbit                                            rbit         000000
__Hrbss                                            rbss         000000
__Hrdata                                           rdata        000000
__Hreset_vec                                       reset_vec    000004
__Hrparam                                          rparam       000000
__Hsfr                                             sfr          000000
__Hsmallconst                                      smallconst   00102C
__Hspace_0                                         (abs)        30000E
__Hspace_1                                         (abs)        000611
__Hspace_2                                         (abs)        000000
__Hstack                                           stack        000000
__Hstruct                                          struct       000000
__Htemp                                            temp         000060
__Htext                                            text         000000
__Htext0                                           text0        000000
__Htext1                                           text1        000000
__Htext10                                          text10       000000
__Htext100                                         text100      000000
__Htext101                                         text101      000000
__Htext102                                         text102      000000
__Htext103                                         text103      000000
__Htext104                                         text104      000000
__Htext105                                         text105      000000
__Htext106                                         text106      000000
__Htext107                                         text107      000000
__Htext11                                          text11       000000
__Htext12                                          text12       000000
__Htext13                                          text13       000000
__Htext14                                          text14       000000
__Htext15                                          text15       000000
__Htext16                                          text16       000000
__Htext17                                          text17       000000
__Htext18                                          text18       000000
__Htext19                                          text19       000000
__Htext2                                           text2        000000
__Htext20                                          text20       000000
__Htext21                                          text21       000000
__Htext22                                          text22       000000
__Htext23                                          text23       000000
__Htext24                                          text24       000000
__Htext25                                          text25       000000
__Htext26                                          text26       000000
__Htext27                                          text27       000000
__Htext28                                          text28       000000
__Htext29                                          text29       000000
__Htext3                                           text3        000000
__Htext30                                          text30       000000
__Htext31                                          text31       000000
__Htext32                                          text32       000000
__Htext33                                          text33       000000
__Htext34                                          text34       000000
__Htext35                                          text35       000000
__Htext36                                          text36       000000
__Htext37                                          text37       000000
__Htext38                                          text38       000000
__Htext39                                          text39       000000
__Htext4                                           text4        000000
__Htext40                                          text40       000000
__Htext41                                          text41       000000
__Htext42                                          text42       000000
__Htext43                                          text43       000000
__Htext44                                          text44       000000
__Htext45                                          text45       000000
__Htext46                                          text46       000000
__Htext47                                          text47       000000
__Htext48                                          text48       000000
__Htext49                                          text49       000000
__Htext5                                           text5        000000
__Htext50                                          text50       000000
__Htext51                                          text51       000000
__Htext52                                          text52       000000
__Htext53                                          text53       000000
__Htext54                                          text54       000000
__Htext55                                          text55       000000
__Htext56                                          text56       000000
__Htext57                                          text57       000000
__Htext58                                          text58       000000
__Htext59                                          text59       000000
__Htext6                                           text6        000000
__Htext60                                          text60       000000
__Htext61                                          text61       000000
__Htext62                                          text62       000000
__Htext64                                          text64       000000
__Htext65                                          text65       000000
__Htext66                                          text66       000000
__Htext67                                          text67       000000
__Htext69                                          text69       000000
__Htext7                                           text7        000000
__Htext70                                          text70       000000
__Htext71                                          text71       000000
__Htext72                                          text72       000000
__Htext73                                          text73       000000
__Htext74                                          text74       000000
__Htext75                                          text75       000000
__Htext76                                          text76       000000
__Htext77                                          text77       000000
__Htext78                                          text78       000000
__Htext79                                          text79       000000
__Htext8                                           text8        000000
__Htext80                                          text80       000000
__Htext81                                          text81       000000
__Htext82                                          text82       000000
__Htext83                                          text83       000000
__Htext84                                          text84       000000
__Htext85                                          text85       000000
__Htext86                                          text86       000000
__Htext87                                          text87       000000
__Htext88                                          text88       000000
__Htext89                                          text89       000000
__Htext9                                           text9        000000
__Htext90                                          text90       000000
__Htext91                                          text91       000000
__Htext92                                          text92       000000
__Htext93                                          text93       000000
__Htext94                                          text94       000000
__Htext95                                          text95       000000
__Htext96                                          text96       000000
__Htext97                                          text97       000000
__Htext98                                          text98       000000
__Htext99                                          text99       000000
__LRAM                                             (abs)        000001
__Labs1                                            abs1         000000
__Lbank0                                           bank0        000000
__Lbank1                                           bank1        000000
__Lbank10                                          bank10       000000
__Lbank11                                          bank11       000000
__Lbank12                                          bank12       000000
__Lbank13                                          bank13       000000
__Lbank14                                          bank14       000000
__Lbank15                                          bank15       000000
__Lbank2                                           bank2        000000
__Lbank3                                           bank3        000000
__Lbank4                                           bank4        000000
__Lbank5                                           bank5        000000
__Lbank6                                           bank6        000000
__Lbank7                                           bank7        000000
__Lbank8                                           bank8        000000
__Lbank9                                           bank9        000000
__Lbigbss                                          bigbss       000000
__Lbigdata                                         bigdata      000000
__Lbigram                                          bigram       000000
__Lbss                                             bss          000000
__LbssBANK0                                        bssBANK0     000000
__LbssBANK1                                        bssBANK1     000000
__LbssBIGRAM                                       bssBIGRAM    000000
__LbssCOMRAM                                       bssCOMRAM    000000
__Lcinit                                           cinit        000000
__Lclrtext                                         clrtext      000000
__Lcomram                                          comram       000000
__Lconfig                                          config       300000
__Lconst                                           const        000000
__LcstackBANK0                                     cstackBANK0  000000
__LcstackBANK1                                     cstackBANK1  000000
__LcstackCOMRAM                                    cstackCOMRAM 000000
__Ldata                                            data         000000
__LdataBANK0                                       dataBANK0    000000
__LdataBANK1                                       dataBANK1    000000
__LdataBANK2                                       dataBANK2    000000
__Leeprom_data                                     eeprom_data  000000
__Lfarbss                                          farbss       000000
__Lfardata                                         fardata      000000
__Libigdata                                        ibigdata     000000
__Lidata                                           idata        000000
__LidataBANK0                                      idataBANK0   000000
__LidataBANK1                                      idataBANK1   000000
__LidataBANK2                                      idataBANK2   000000
__Lidloc                                           idloc        200000
__Lifardata                                        ifardata     000000
__Linit                                            init         00005C
__Lintcode                                         intcode      000008
__Lintcode_body                                    intcode_body 000000
__Lintcodelo                                       intcodelo    000018
__Lintentry                                        intentry     000000
__Lintret                                          intret       000000
__Lintsave_regs                                    intsave_regs 000000
__Lirdata                                          irdata       000000
__Lmediumconst                                     mediumconst  000000
__LnvFARRAM                                        nvFARRAM     000000
__Lnvbit                                           nvbit        000000
__Lnvrram                                          nvrram       000000
__Lparam                                           rparam       000000
__Lpowerup                                         powerup      00005C
__Lram                                             ram          000000
__Lramtop                                          ramtop       001000
__Lrbit                                            rbit         000000
__Lrbss                                            rbss         000000
__Lrdata                                           rdata        000000
__Lreset_vec                                       reset_vec    000000
__Lrparam                                          rparam       000000
__Lsfr                                             sfr          000000
__Lsmallconst                                      smallconst   001000
__Lspace_0                                         (abs)        000000
__Lspace_1                                         (abs)        000000
__Lspace_2                                         (abs)        000000
__Lstack                                           stack        000000
__Lstruct                                          struct       000000
__Ltemp                                            temp         00005F
__Ltext                                            text         000000
__Ltext0                                           text0        000000
__Ltext1                                           text1        000000
__Ltext10                                          text10       000000
__Ltext100                                         text100      000000
__Ltext101                                         text101      000000
__Ltext102                                         text102      000000
__Ltext103                                         text103      000000
__Ltext104                                         text104      000000
__Ltext105                                         text105      000000
__Ltext106                                         text106      000000
__Ltext107                                         text107      000000
__Ltext11                                          text11       000000
__Ltext12                                          text12       000000
__Ltext13                                          text13       000000
__Ltext14                                          text14       000000
__Ltext15                                          text15       000000
__Ltext16                                          text16       000000
__Ltext17                                          text17       000000
__Ltext18                                          text18       000000
__Ltext19                                          text19       000000
__Ltext2                                           text2        000000
__Ltext20                                          text20       000000
__Ltext21                                          text21       000000
__Ltext22                                          text22       000000
__Ltext23                                          text23       000000
__Ltext24                                          text24       000000
__Ltext25                                          text25       000000
__Ltext26                                          text26       000000
__Ltext27                                          text27       000000
__Ltext28                                          text28       000000
__Ltext29                                          text29       000000
__Ltext3                                           text3        000000
__Ltext30                                          text30       000000
__Ltext31                                          text31       000000
__Ltext32                                          text32       000000
__Ltext33                                          text33       000000
__Ltext34                                          text34       000000
__Ltext35                                          text35       000000
__Ltext36                                          text36       000000
__Ltext37                                          text37       000000
__Ltext38                                          text38       000000
__Ltext39                                          text39       000000
__Ltext4                                           text4        000000
__Ltext40                                          text40       000000
__Ltext41                                          text41       000000
__Ltext42                                          text42       000000
__Ltext43                                          text43       000000
__Ltext44                                          text44       000000
__Ltext45                                          text45       000000
__Ltext46                                          text46       000000
__Ltext47                                          text47       000000
__Ltext48                                          text48       000000
__Ltext49                                          text49       000000
__Ltext5                                           text5        000000
__Ltext50                                          text50       000000
__Ltext51                                          text51       000000
__Ltext52                                          text52       000000
__Ltext53                                          text53       000000
__Ltext54                                          text54       000000
__Ltext55                                          text55       000000
__Ltext56                                          text56       000000
__Ltext57                                          text57       000000
__Ltext58                                          text58       000000
__Ltext59                                          text59       000000
__Ltext6                                           text6        000000
__Ltext60                                          text60       000000
__Ltext61                                          text61       000000
__Ltext62                                          text62       000000
__Ltext64                                          text64       000000
__Ltext65                                          text65       000000
__Ltext66                                          text66       000000
__Ltext67                                          text67       000000
__Ltext69                                          text69       000000
__Ltext7                                           text7        000000
__Ltext70                                          text70       000000
__Ltext71                                          text71       000000
__Ltext72                                          text72       000000
__Ltext73                                          text73       000000
__Ltext74                                          text74       000000
__Ltext75                                          text75       000000
__Ltext76                                          text76       000000
__Ltext77                                          text77       000000
__Ltext78                                          text78       000000
__Ltext79                                          text79       000000
__Ltext8                                           text8        000000
__Ltext80                                          text80       000000
__Ltext81                                          text81       000000
__Ltext82                                          text82       000000
__Ltext83                                          text83       000000
__Ltext84                                          text84       000000
__Ltext85                                          text85       000000
__Ltext86                                          text86       000000
__Ltext87                                          text87       000000
__Ltext88                                          text88       000000
__Ltext89                                          text89       000000
__Ltext9                                           text9        000000
__Ltext90                                          text90       000000
__Ltext91                                          text91       000000
__Ltext92                                          text92       000000
__Ltext93                                          text93       000000
__Ltext94                                          text94       000000
__Ltext95                                          text95       000000
__Ltext96                                          text96       000000
__Ltext97                                          text97       000000
__Ltext98                                          text98       000000
__Ltext99                                          text99       000000
__S0                                               (abs)        30000E
__S1                                               (abs)        000611
__S2                                               (abs)        000000
___fladd                                           text40       0027D8
___fladd@a                                         cstackBANK0  000089
___fladd@aexp                                      cstackBANK0  000092
___fladd@b                                         cstackBANK0  000085
___fladd@bexp                                      cstackBANK0  000093
___fladd@grs                                       cstackBANK0  000094
___fladd@signs                                     cstackBANK0  000091
___fldiv                                           text30       003044
___fldiv@a                                         cstackBANK0  00006E
___fldiv@aexp                                      cstackBANK0  000082
___fldiv@b                                         cstackBANK0  00006A
___fldiv@bexp                                      cstackBANK0  000081
___fldiv@grs                                       cstackBANK0  00007D
___fldiv@new_exp                                   cstackBANK0  00007B
___fldiv@rem                                       cstackBANK0  000076
___fldiv@sign                                      cstackBANK0  00007A
___flge                                            text55       0043A8
___flge@ff1                                        cstackBANK0  00006A
___flge@ff2                                        cstackBANK0  00006E
___flsub                                           text39       0050C2
___flsub@a                                         cstackBANK0  000099
___flsub@b                                         cstackBANK0  000095
___fltol                                           text54       0046E2
___fltol@exp1                                      cstackBANK0  0000A6
___fltol@f1                                        cstackBANK0  00009D
___fltol@sign1                                     cstackBANK0  0000A5
___inthi_sp                                        stack        000000
___intlo_sp                                        stack        000000
___lldiv                                           text53       004C48
___lldiv@counter                                   cstackBANK0  000076
___lldiv@dividend                                  cstackBANK0  00006A
___lldiv@divisor                                   cstackBANK0  00006E
___lldiv@quotient                                  cstackBANK0  000072
___lwdiv                                           text52       004F80
___lwdiv@counter                                   cstackBANK0  000074
___lwdiv@dividend                                  cstackBANK0  000070
___lwdiv@divisor                                   cstackBANK0  000072
___lwdiv@quotient                                  cstackBANK0  000075
___lwmod                                           text47       0052B0
___lwmod@counter                                   cstackBANK0  00007B
___lwmod@dividend                                  cstackBANK0  000077
___lwmod@divisor                                   cstackBANK0  000079
___param_bank                                      (abs)        000000
___rparam_used                                     (abs)        000001
___sp                                              stack        000000
___wmul                                            text60       005786
___wmul@multiplicand                               cstackBANK0  00006C
___wmul@multiplier                                 cstackBANK0  00006A
___wmul@product                                    cstackBANK0  00006E
___xxtofl                                          text51       003CF6
___xxtofl@arg                                      cstackBANK0  000081
___xxtofl@exp                                      cstackBANK0  000080
___xxtofl@sign                                     cstackBANK0  00007F
___xxtofl@val                                      cstackBANK0  000077
__accesstop                                        (abs)        000060
__activetblptr                                     (abs)        000003
__end_of_ADC_ISR                                   text106      0059C8
__end_of_ADC_Initialize                            text27       005706
__end_of_ADC_SelectChannel                         text62       0058A4
__end_of_ASCIItoHEX                                text100      00584A
__end_of_CCP5_Initialize                           text26       005904
__end_of_CTMU_Acquisition                          text42       005732
__end_of_CTMU_ButtonEvaluation                     text29       001EF0
__end_of_CTMU_ChannelCalibs                        text49       00237A
__end_of_CTMU_ChannelEvaluation                    text38       002DA6
__end_of_CTMU_ChannelProximity                     text41       004858
__end_of_CTMU_Enabling                             text61       005988
__end_of_CTMU_GetVoltage                           text56       004E78
__end_of_CTMU_Initialize                           text25       0056D6
__end_of_CTMU_Inizialize_MatrixCapSense            text24       003762
__end_of_CTMU_Inizialize_Port                      text23       005674
__end_of_CTMU_Print                                text37       00454A
__end_of_CTMU_ReadMatrixEE                         text98       0041AA
__end_of_CTMU_SetCalibValue                        text95       0040A0
__end_of_CTMU_WriteButtonEE                        text96       0038E8
__end_of_CTMU_WriteMatrixEE                        text43       0042AC
__end_of_DATAEE_ReadByte                           text99       0058F0
__end_of_DATAEE_WriteByte                          text48       00547A
__end_of_EUSART1_BufferWrite                       text36       0050C2
__end_of_EUSART1_DefaultErrorHandler               text104      0059B0
__end_of_EUSART1_DefaultFramingErrorHandler        text103      0059CC
__end_of_EUSART1_DefaultOverrunErrorHandler        text102      0059AA
__end_of_EUSART1_Initialize                        text18       004E1C
__end_of_EUSART1_Read                              text94       0054B8
__end_of_EUSART1_Receive_ISR                       text101      004BB4
__end_of_EUSART1_RxDataHandler                     text105      00586C
__end_of_EUSART1_SetErrorHandler                   text22       00597E
__end_of_EUSART1_SetFramingErrorHandler            text21       005974
__end_of_EUSART1_SetOverrunErrorHandler            text20       00596A
__end_of_EUSART1_SetRxInterruptHandler             text19       005960
__end_of_EUSART1_Write                             text46       005940
__end_of_I2C2_BusCollisionISR                      text67       0059BC
__end_of_I2C2_FunctionComplete                     text66       0058C0
__end_of_I2C2_ISR                                  text64       00351E
__end_of_I2C2_Initialize                           text17       005640
__end_of_I2C2_MasterTRBInsert                      text34       004B1A
__end_of_I2C2_MasterWrite                          text32       005076
__end_of_I2C2_MasterWriteTRBBuild                  text33       0052B0
__end_of_I2C2_Stop                                 text65       00537A
__end_of_I2C2_WaitForLastPacketToComplete          text35       0059A4
__end_of_INTERRUPT_Initialize                      text16       005924
__end_of_INTERRUPT_InterruptManagerHigh            intcode_body 0049C8
__end_of_INTERRUPT_InterruptManagerLow             intcodelo    00005C
__end_of_Mech_Buttons_Get_Port                     text28       003CF6
__end_of_OSCILLATOR_Initialize                     text15       005916
__end_of_PCA9685_ALL_LED_BLUE_OFF                  text9        00526A
__end_of_PCA9685_ALL_LED_BLUE_ON                   text8        005224
__end_of_PCA9685_ALL_LED_WHITE_OFF                 text7        0051DE
__end_of_PCA9685_ALL_LED_WHITE_ON                  text6        005198
__end_of_PCA9685_SET_LED_BLUE_ON                   text31       004F80
__end_of_PCA9685_SET_LED_WHITE_ON                  text5        004F2A
__end_of_PCA9685_SET_MODE1                         text4        005566
__end_of_PCA9685_SET_MODE2                         text3        00552C
__end_of_PCA9685_SET_PRESCALE                      text2        0054F2
__end_of_PIN_MANAGER_Initialize                    text14       0053FC
__end_of_SYSTEM_Initialize                         text10       0056A6
__end_of_Serial_Config_PCA9685                     text1        003044
__end_of_Serial_Monitor                            text71       001A50
__end_of_ShowVersion                               text92       00543C
__end_of_TMR0_DefaultInterruptHandler              text70       0059CA
__end_of_TMR0_GetRegValues                         text59       005152
__end_of_TMR0_ISR                                  text69       005786
__end_of_TMR0_Initialize                           text12       0055D8
__end_of_TMR0_SetInterruptHandler                  text13       005956
__end_of_TMR0_StartTimer                           text58       0059B8
__end_of_TMR0_StopTimer                            text57       0059B4
__end_of_TMR1_Initialize                           text11       005888
__end_of___fladd                                   text40       002AE6
__end_of___fldiv                                   text30       0032CE
__end_of___flge                                    text55       00447A
__end_of___flsub                                   text39       00510A
__end_of___fltol                                   text54       00479E
__end_of___lldiv                                   text53       004CCC
__end_of___lwdiv                                   text52       004FD4
__end_of___lwmod                                   text47       0052F4
__end_of___wmul                                    text60       0057AE
__end_of___xxtofl                                  text51       003E3A
__end_of__initialization                           cinit        004C3E
__end_of_abs                                       text50       00575C
__end_of_dpowers                                   smallconst   00100B
__end_of_main                                      text0        00560C
__end_of_printf                                    text44       003A4A
__end_of_putch                                     text45       005932
__end_ofi2_ADC_SelectChannel                       text91       0058D8
__end_ofi2_CTMU_Acquisition                        text73       0057D6
__end_ofi2_CTMU_ChannelCalibs                      text78       0027D8
__end_ofi2_CTMU_Enabling                           text90       00599C
__end_ofi2_CTMU_GetVoltage                         text85       004ED4
__end_ofi2_CTMU_Print                              text72       0046E2
__end_ofi2_CTMU_WriteMatrixEE                      text74       0043A8
__end_ofi2_DATAEE_WriteByte                        text97       0055A0
__end_ofi2_EUSART1_Write                           text93       00594C
__end_ofi2_TMR0_GetRegValues                       text88       005338
__end_ofi2_TMR0_StartTimer                         text87       0059C4
__end_ofi2_TMR0_StopTimer                          text86       0059C0
__end_ofi2___flge                                  text84       00461A
__end_ofi2___fltol                                 text83       004912
__end_ofi2___lldiv                                 text82       004D4E
__end_ofi2___lwdiv                                 text81       005026
__end_ofi2___lwmod                                 text77       0053BC
__end_ofi2___wmul                                  text89       005824
__end_ofi2___xxtofl                                text80       003F7A
__end_ofi2_abs                                     text79       0057FE
__end_ofi2_printf                                  text75       003BA2
__end_ofi2_putch                                   text76       005992
__initialization                                   cinit        004BB4
__mediumconst                                      mediumconst  000000
__pbssBANK0                                        bssBANK0     0000D0
__pbssBANK1                                        bssBANK1     000100
__pbssBIGRAM                                       bssBIGRAM    0002B1
__pbssCOMRAM                                       bssCOMRAM    000050
__pcinit                                           cinit        004BB4
__pcstackBANK0                                     cstackBANK0  000060
__pcstackBANK1                                     cstackBANK1  0001EB
__pcstackCOMRAM                                    cstackCOMRAM 000001
__pdataBANK0                                       dataBANK0    0000EA
__pdataBANK1                                       dataBANK1    000183
__pdataBANK2                                       dataBANK2    000200
__pidataBANK0                                      idataBANK0   0059CC
__pidataBANK1                                      idataBANK1   004D4E
__pidataBANK2                                      idataBANK2   0049C8
__pintcode                                         intcode      000008
__pintcode_body                                    intcode_body 004912
__pintcodelo                                       intcodelo    000018
__psmallconst                                      smallconst   001000
__ptext0                                           text0        0055D8
__ptext1                                           text1        002DA6
__ptext10                                          text10       005674
__ptext100                                         text100      005824
__ptext101                                         text101      004B1A
__ptext102                                         text102      0059A4
__ptext103                                         text103      0059CA
__ptext104                                         text104      0059AA
__ptext105                                         text105      00584A
__ptext106                                         text106      0059C4
__ptext107                                         text107      000000
__ptext11                                          text11       00586C
__ptext12                                          text12       0055A0
__ptext13                                          text13       00594C
__ptext14                                          text14       0053BC
__ptext15                                          text15       005904
__ptext16                                          text16       005916
__ptext17                                          text17       00560C
__ptext18                                          text18       004DB6
__ptext19                                          text19       005956
__ptext2                                           text2        0054B8
__ptext20                                          text20       005960
__ptext21                                          text21       00596A
__ptext22                                          text22       005974
__ptext23                                          text23       005640
__ptext24                                          text24       00351E
__ptext25                                          text25       0056A6
__ptext26                                          text26       0058F0
__ptext27                                          text27       0056D6
__ptext28                                          text28       003BA2
__ptext29                                          text29       001A50
__ptext3                                           text3        0054F2
__ptext30                                          text30       003044
__ptext31                                          text31       004F2A
__ptext32                                          text32       005026
__ptext33                                          text33       00526A
__ptext34                                          text34       004A7A
__ptext35                                          text35       00599C
__ptext36                                          text36       005076
__ptext37                                          text37       00447A
__ptext38                                          text38       002AE6
__ptext39                                          text39       0050C2
__ptext4                                           text4        00552C
__ptext40                                          text40       0027D8
__ptext41                                          text41       00479E
__ptext42                                          text42       005706
__ptext43                                          text43       0041AA
__ptext44                                          text44       0038E8
__ptext45                                          text45       005924
__ptext46                                          text46       005932
__ptext47                                          text47       0052B0
__ptext48                                          text48       00543C
__ptext49                                          text49       001EF0
__ptext5                                           text5        004ED4
__ptext50                                          text50       005732
__ptext51                                          text51       003CF6
__ptext52                                          text52       004F80
__ptext53                                          text53       004C48
__ptext54                                          text54       0046E2
__ptext55                                          text55       0043A8
__ptext56                                          text56       004E1C
__ptext57                                          text57       0059B0
__ptext58                                          text58       0059B4
__ptext59                                          text59       00510A
__ptext6                                           text6        005152
__ptext60                                          text60       005786
__ptext61                                          text61       00597E
__ptext62                                          text62       005888
__ptext64                                          text64       0032CE
__ptext65                                          text65       005338
__ptext66                                          text66       0058A4
__ptext67                                          text67       0059B8
__ptext69                                          text69       00575C
__ptext7                                           text7        005198
__ptext70                                          text70       0059C8
__ptext71                                          text71       00102C
__ptext72                                          text72       00461A
__ptext73                                          text73       0057AE
__ptext74                                          text74       0042AC
__ptext75                                          text75       003A4A
__ptext76                                          text76       005988
__ptext77                                          text77       00537A
__ptext78                                          text78       00237A
__ptext79                                          text79       0057D6
__ptext8                                           text8        0051DE
__ptext80                                          text80       003E3A
__ptext81                                          text81       004FD4
__ptext82                                          text82       004CCC
__ptext83                                          text83       004858
__ptext84                                          text84       00454A
__ptext85                                          text85       004E78
__ptext86                                          text86       0059BC
__ptext87                                          text87       0059C0
__ptext88                                          text88       0052F4
__ptext89                                          text89       0057FE
__ptext9                                           text9        005224
__ptext90                                          text90       005992
__ptext91                                          text91       0058C0
__ptext92                                          text92       0053FC
__ptext93                                          text93       005940
__ptext94                                          text94       00547A
__ptext95                                          text95       003F7A
__ptext96                                          text96       003762
__ptext97                                          text97       005566
__ptext98                                          text98       0040A0
__ptext99                                          text99       0058D8
__ramtop                                           ramtop       001000
__size_of_ADC_ISR                                  (abs)        000000
__size_of_ADC_Initialize                           (abs)        000000
__size_of_ADC_SelectChannel                        (abs)        000000
__size_of_ASCIItoHEX                               (abs)        000000
__size_of_CCP5_Initialize                          (abs)        000000
__size_of_CTMU_Acquisition                         (abs)        000000
__size_of_CTMU_ButtonEvaluation                    (abs)        000000
__size_of_CTMU_ChannelCalibs                       (abs)        000000
__size_of_CTMU_ChannelEvaluation                   (abs)        000000
__size_of_CTMU_ChannelProximity                    (abs)        000000
__size_of_CTMU_Enabling                            (abs)        000000
__size_of_CTMU_GetVoltage                          (abs)        000000
__size_of_CTMU_Initialize                          (abs)        000000
__size_of_CTMU_Inizialize_MatrixCapSense           (abs)        000000
__size_of_CTMU_Inizialize_Port                     (abs)        000000
__size_of_CTMU_Print                               (abs)        000000
__size_of_CTMU_ReadMatrixEE                        (abs)        000000
__size_of_CTMU_SetCalibValue                       (abs)        000000
__size_of_CTMU_WriteButtonEE                       (abs)        000000
__size_of_CTMU_WriteMatrixEE                       (abs)        000000
__size_of_DATAEE_ReadByte                          (abs)        000000
__size_of_DATAEE_WriteByte                         (abs)        000000
__size_of_EUSART1_BufferWrite                      (abs)        000000
__size_of_EUSART1_DefaultErrorHandler              (abs)        000000
__size_of_EUSART1_DefaultFramingErrorHandler       (abs)        000000
__size_of_EUSART1_DefaultOverrunErrorHandler       (abs)        000000
__size_of_EUSART1_Initialize                       (abs)        000000
__size_of_EUSART1_Read                             (abs)        000000
__size_of_EUSART1_Receive_ISR                      (abs)        000000
__size_of_EUSART1_RxDataHandler                    (abs)        000000
__size_of_EUSART1_SetErrorHandler                  (abs)        000000
__size_of_EUSART1_SetFramingErrorHandler           (abs)        000000
__size_of_EUSART1_SetOverrunErrorHandler           (abs)        000000
__size_of_EUSART1_SetRxInterruptHandler            (abs)        000000
__size_of_EUSART1_Write                            (abs)        000000
__size_of_I2C2_BusCollisionISR                     (abs)        000000
__size_of_I2C2_FunctionComplete                    (abs)        000000
__size_of_I2C2_ISR                                 (abs)        000000
__size_of_I2C2_Initialize                          (abs)        000000
__size_of_I2C2_MasterTRBInsert                     (abs)        000000
__size_of_I2C2_MasterWrite                         (abs)        000000
__size_of_I2C2_MasterWriteTRBBuild                 (abs)        000000
__size_of_I2C2_Stop                                (abs)        000000
__size_of_I2C2_WaitForLastPacketToComplete         (abs)        000000
__size_of_INTERRUPT_Initialize                     (abs)        000000
__size_of_INTERRUPT_InterruptManagerHigh           (abs)        000000
__size_of_INTERRUPT_InterruptManagerLow            (abs)        000000
__size_of_Mech_Buttons_Get_Port                    (abs)        000000
__size_of_OSCILLATOR_Initialize                    (abs)        000000
__size_of_PCA9685_ALL_LED_BLUE_OFF                 (abs)        000000
__size_of_PCA9685_ALL_LED_BLUE_ON                  (abs)        000000
__size_of_PCA9685_ALL_LED_WHITE_OFF                (abs)        000000
__size_of_PCA9685_ALL_LED_WHITE_ON                 (abs)        000000
__size_of_PCA9685_SET_LED_BLUE_ON                  (abs)        000000
__size_of_PCA9685_SET_LED_WHITE_ON                 (abs)        000000
__size_of_PCA9685_SET_MODE1                        (abs)        000000
__size_of_PCA9685_SET_MODE2                        (abs)        000000
__size_of_PCA9685_SET_PRESCALE                     (abs)        000000
__size_of_PIN_MANAGER_Initialize                   (abs)        000000
__size_of_SYSTEM_Initialize                        (abs)        000000
__size_of_Serial_Config_PCA9685                    (abs)        000000
__size_of_Serial_Monitor                           (abs)        000000
__size_of_ShowVersion                              (abs)        000000
__size_of_TMR0_DefaultInterruptHandler             (abs)        000000
__size_of_TMR0_GetRegValues                        (abs)        000000
__size_of_TMR0_ISR                                 (abs)        000000
__size_of_TMR0_Initialize                          (abs)        000000
__size_of_TMR0_SetInterruptHandler                 (abs)        000000
__size_of_TMR0_StartTimer                          (abs)        000000
__size_of_TMR0_StopTimer                           (abs)        000000
__size_of_TMR1_Initialize                          (abs)        000000
__size_of___fladd                                  (abs)        000000
__size_of___fldiv                                  (abs)        000000
__size_of___flge                                   (abs)        000000
__size_of___flsub                                  (abs)        000000
__size_of___fltol                                  (abs)        000000
__size_of___lldiv                                  (abs)        000000
__size_of___lwdiv                                  (abs)        000000
__size_of___lwmod                                  (abs)        000000
__size_of___wmul                                   (abs)        000000
__size_of___xxtofl                                 (abs)        000000
__size_of_abs                                      (abs)        000000
__size_of_main                                     (abs)        000000
__size_of_printf                                   (abs)        000000
__size_of_putch                                    (abs)        000000
__size_ofi2_ADC_SelectChannel                      (abs)        000000
__size_ofi2_CTMU_Acquisition                       (abs)        000000
__size_ofi2_CTMU_ChannelCalibs                     (abs)        000000
__size_ofi2_CTMU_Enabling                          (abs)        000000
__size_ofi2_CTMU_GetVoltage                        (abs)        000000
__size_ofi2_CTMU_Print                             (abs)        000000
__size_ofi2_CTMU_WriteMatrixEE                     (abs)        000000
__size_ofi2_DATAEE_WriteByte                       (abs)        000000
__size_ofi2_EUSART1_Write                          (abs)        000000
__size_ofi2_TMR0_GetRegValues                      (abs)        000000
__size_ofi2_TMR0_StartTimer                        (abs)        000000
__size_ofi2_TMR0_StopTimer                         (abs)        000000
__size_ofi2___flge                                 (abs)        000000
__size_ofi2___fltol                                (abs)        000000
__size_ofi2___lldiv                                (abs)        000000
__size_ofi2___lwdiv                                (abs)        000000
__size_ofi2___lwmod                                (abs)        000000
__size_ofi2___wmul                                 (abs)        000000
__size_ofi2___xxtofl                               (abs)        000000
__size_ofi2_abs                                    (abs)        000000
__size_ofi2_printf                                 (abs)        000000
__size_ofi2_putch                                  (abs)        000000
__smallconst                                       smallconst   001000
_abs                                               text50       005732
_buffer                                            bssBANK1     000141
_buffer_cap_sense                                  bssBANK0     0000DD
_buffer_mec                                        bssBANK0     0000E3
_buttons                                           dataBANK1    0001D3
_cap_Hyst                                          dataBANK2    000239
_cap_limite_ins                                    dataBANK1    000183
_cap_overHyst                                      dataBANK2    000269
_cap_sample                                        dataBANK2    000251
_cap_trimH                                         dataBANK1    00019B
_cap_trimL                                         dataBANK1    0001B3
_cap_vad                                           bssBIGRAM    0002B1
_cap_vadcH                                         dataBANK2    000299
_cap_vadcL                                         dataBANK2    000281
_capsense_param_change                             bssCOMRAM    000058
_channel_to_calibrate                              bssCOMRAM    000059
_count_data_CTMU                                   bssCOMRAM    000055
_count_data_PWM                                    bssBANK0     0000D1
_cur_ix_cap                                        bssBANK1     000135
_cur_jx_cap                                        dataBANK1    0001CB
_data_CTMU                                         bssBANK1     00010C
_delay                                             dataBANK1    0001CF
_dpowers                                           smallconst   001001
_eusart1RxBuffer                                   bssBANK1     000126
_eusart1RxCount                                    bssCOMRAM    00005B
_eusart1RxHead                                     bssBANK0     0000DC
_eusart1RxLastError                                bssBANK1     00015F
_eusart1RxStatusBuffer                             bssBANK1     000116
_eusart1RxTail                                     bssCOMRAM    00005C
_eusart1TxBuffer                                   bssBANK1     00011E
_eusart1TxTail                                     bssBANK0     0000DB
_flag                                              bssBANK1     000155
_flag_analysis_CapSense                            dataBANK1    0001D1
_flag_enable_CapSense                              dataBANK1    0001D2
_flag_enable_Mec                                   dataBANK0    0000EA
_hys_CTMU                                          bssCOMRAM    000054
_i                                                 bssBANK0     0000D7
_i2c2_object                                       bssBANK1     00012E
_i2c2_state                                        bssCOMRAM    00005A
_i2c2_tr_queue                                     bssBANK1     00017E
_i2c2_trb_count                                    bssBANK0     0000DA
_keyboard_actual_mec                               bssBANK1     00013F
_keyboard_old_mec                                  bssBANK1     00013D
_main                                              text0        0055D8
_p_i2c2_current                                    bssBANK1     000147
_p_i2c2_trb_current                                bssBANK1     000149
_printf                                            text44       0038E8
_putch                                             text45       005924
_regs                                              bssBANK1     00013B
_s                                                 bssBANK0     0000D6
_status                                            bssBANK0     0000E9
_timer0ReloadVal                                   bssCOMRAM    000050
_timer1ReloadVal                                   bssBANK1     000143
_val_hys                                           bssBANK1     00015D
_writeBuffer                                       bssBANK1     00016A
abs@a                                              cstackBANK0  00006A
btemp                                              temp         00005F
end_of_initialization                              cinit        004C3E
i2ADC_SelectChannel@channel                        cstackCOMRAM 000002
i2CTMU_Acquisition@i                               cstackCOMRAM 000040
i2CTMU_ChannelCalibs@VadcLimH                      cstackCOMRAM 000022
i2CTMU_ChannelCalibs@VadcLimL                      cstackCOMRAM 000026
i2CTMU_ChannelCalibs@Vread                         cstackCOMRAM 00002C
i2CTMU_ChannelCalibs@Vread_med                     cstackCOMRAM 000039
i2CTMU_ChannelCalibs@Vsum                          cstackCOMRAM 00002E
i2CTMU_ChannelCalibs@buttons                       cstackCOMRAM 00001C
i2CTMU_ChannelCalibs@calib_ok                      cstackCOMRAM 00003D
i2CTMU_ChannelCalibs@channel                       cstackCOMRAM 00001E
i2CTMU_ChannelCalibs@current                       cstackCOMRAM 000036
i2CTMU_ChannelCalibs@delay                         cstackCOMRAM 00003E
i2CTMU_ChannelCalibs@i                             cstackCOMRAM 000037
i2CTMU_ChannelCalibs@iTrim                         cstackCOMRAM 000032
i2CTMU_ChannelCalibs@num_element                   cstackCOMRAM 00002A
i2CTMU_ChannelCalibs@var                           cstackCOMRAM 000034
i2CTMU_GetVoltage@Vread                            cstackCOMRAM 000011
i2CTMU_GetVoltage@delay                            cstackCOMRAM 00000F
i2CTMU_Print@i                                     cstackCOMRAM 000023
i2CTMU_Print@j                                     cstackCOMRAM 000024
i2CTMU_WriteMatrixEE@count_add                     cstackCOMRAM 000027
i2CTMU_WriteMatrixEE@i                             cstackCOMRAM 00002A
i2CTMU_WriteMatrixEE@j                             cstackCOMRAM 00002B
i2CTMU_WriteMatrixEE@val_mem                       cstackCOMRAM 000029
i2DATAEE_WriteByte@GIEBitValue                     cstackCOMRAM 000004
i2DATAEE_WriteByte@bAdd                            cstackCOMRAM 000001
i2DATAEE_WriteByte@bData                           cstackCOMRAM 000003
i2EUSART1_Write@txData                             cstackCOMRAM 000001
i2TMR0_GetRegValues@counter                        cstackCOMRAM 00000B
i2TMR0_GetRegValues@delay                          cstackCOMRAM 000007
i2TMR0_GetRegValues@reg                            cstackCOMRAM 00000D
i2_ADC_SelectChannel                               text91       0058C0
i2_CTMU_Acquisition                                text73       0057AE
i2_CTMU_ChannelCalibs                              text78       00237A
i2_CTMU_Enabling                                   text90       005992
i2_CTMU_GetVoltage                                 text85       004E78
i2_CTMU_Print                                      text72       00461A
i2_CTMU_WriteMatrixEE                              text74       0042AC
i2_DATAEE_WriteByte                                text97       005566
i2_EUSART1_Write                                   text93       005940
i2_TMR0_GetRegValues                               text88       0052F4
i2_TMR0_StartTimer                                 text87       0059C0
i2_TMR0_StopTimer                                  text86       0059BC
i2___flge                                          text84       00454A
i2___flge@ff1                                      cstackCOMRAM 000001
i2___flge@ff2                                      cstackCOMRAM 000005
i2___fltol                                         text83       004858
i2___fltol@exp1                                    cstackCOMRAM 00000A
i2___fltol@f1                                      cstackCOMRAM 000001
i2___fltol@sign1                                   cstackCOMRAM 000009
i2___lldiv                                         text82       004CCC
i2___lldiv@counter                                 cstackCOMRAM 00000D
i2___lldiv@dividend                                cstackCOMRAM 000001
i2___lldiv@divisor                                 cstackCOMRAM 000005
i2___lldiv@quotient                                cstackCOMRAM 000009
i2___lwdiv                                         text81       004FD4
i2___lwdiv@counter                                 cstackCOMRAM 00000D
i2___lwdiv@dividend                                cstackCOMRAM 000007
i2___lwdiv@divisor                                 cstackCOMRAM 000009
i2___lwdiv@quotient                                cstackCOMRAM 00000B
i2___lwmod                                         text77       00537A
i2___lwmod@counter                                 cstackCOMRAM 000012
i2___lwmod@dividend                                cstackCOMRAM 00000E
i2___lwmod@divisor                                 cstackCOMRAM 000010
i2___wmul                                          text89       0057FE
i2___wmul@multiplicand                             cstackCOMRAM 000003
i2___wmul@multiplier                               cstackCOMRAM 000001
i2___wmul@product                                  cstackCOMRAM 000005
i2___xxtofl                                        text80       003E3A
i2___xxtofl@arg                                    cstackCOMRAM 000018
i2___xxtofl@exp                                    cstackCOMRAM 000017
i2___xxtofl@sign                                   cstackCOMRAM 000016
i2___xxtofl@val                                    cstackCOMRAM 00000E
i2_abs                                             text79       0057D6
i2_printf                                          text75       003A4A
i2_putch                                           text76       005988
i2abs@a                                            cstackCOMRAM 000001
i2printf@ap                                        cstackCOMRAM 000019
i2printf@c                                         cstackCOMRAM 00001E
i2printf@f                                         cstackCOMRAM 000013
i2printf@flag                                      cstackCOMRAM 00001B
i2printf@prec                                      cstackCOMRAM 000018
i2printf@val                                       cstackCOMRAM 00001C
i2putch@txData                                     cstackCOMRAM 000002
int$flags                                          temp         00005F
int_func                                           intcode_body 004912
intlevel0                                          text         000000
intlevel1                                          text         000000
intlevel2                                          text         000000
intlevel3                                          text         000000
printf@ap                                          cstackBANK0  000082
printf@c                                           cstackBANK0  000087
printf@f                                           cstackBANK0  00007C
printf@flag                                        cstackBANK0  000084
printf@prec                                        cstackBANK0  000081
printf@val                                         cstackBANK0  000085
putch@txData                                       cstackBANK0  00006B
stackhi                                            (abs)        000F37
stacklo                                            (abs)        000611
start                                              init         00005C
start_initialization                               cinit        004BB4
ttemp5                                             temp         000060
ttemp6                                             temp         000063
ttemp7                                             temp         000067
wtemp8                                             temp         000060


FUNCTION INFORMATION:

 *************** function _main *****************
 Defined at:
		line 57 in file "main.c"
 Parameters:    Size  Location     Type
		None
 Auto vars:     Size  Location     Type
		None
 Return value:  Size  Location     Type
                  1    wreg      void 
 Registers used:
		wreg, fsr1l, fsr1h, fsr2l, fsr2h, status,2, status,0, tblptrl, tblptrh, tblptru, prodl, prodh, cstack
 Tracked objects:
		On entry : 
		On exit  : 
		Unchanged: 
 Data sizes:     COMRAM   BANK0   BANK1   BANK2   BANK3   BANK4   BANK5   BANK6   BANK7   BANK8   BANK9  BANK10  BANK11  BANK12  BANK13  BANK14  BANK15
      Params:         0       0       0       0       0       0       0       0       0       0       0       0       0       0       0       0       0
      Locals:         0       0       0       0       0       0       0       0       0       0       0       0       0       0       0       0       0
      Temps:          0       1       0       0       0       0       0       0       0       0       0       0       0       0       0       0       0
      Totals:         0       1       0       0       0       0       0       0       0       0       0       0       0       0       0       0       0
Total ram usage:        1 bytes
 Hardware stack levels required when called:   15
 This function calls:
		_CTMU_Acquisition
		_CTMU_ButtonEvaluation
		_Mech_Buttons_Get_Port
		_SYSTEM_Initialize
		_Serial_Config_PCA9685
		_TMR0_StopTimer
 This function is called by:
		Startup code after reset
 This function uses a non-reentrant model


 *************** function _Serial_Config_PCA9685 *****************
 Defined at:
		line 706 in file "Serial_Monitor.c"
 Parameters:    Size  Location     Type
		None
 Auto vars:     Size  Location     Type
  row             1   30[BANK0 ] unsigned char 
 Return value:  Size  Location     Type
                  1    wreg      void 
 Registers used:
		wreg, fsr2l, fsr2h, status,2, status,0, prodl, prodh, cstack
 Tracked objects:
		On entry : 
		On exit  : 
		Unchanged: 
 Data sizes:     COMRAM   BANK0   BANK1   BANK2   BANK3   BANK4   BANK5   BANK6   BANK7   BANK8   BANK9  BANK10  BANK11  BANK12  BANK13  BANK14  BANK15
      Params:         0       0       0       0       0       0       0       0       0       0       0       0       0       0       0       0       0
      Locals:         0       1       0       0       0       0       0       0       0       0       0       0       0       0       0       0       0
      Temps:          0       1       0       0       0       0       0       0       0       0       0       0       0       0       0       0       0
      Totals:         0       2       0       0       0       0       0       0       0       0       0       0       0       0       0       0       0
Total ram usage:        2 bytes
 Hardware stack levels used:    1
 Hardware stack levels required when called:   14
 This function calls:
		_PCA9685_ALL_LED_BLUE_OFF
		_PCA9685_ALL_LED_BLUE_ON
		_PCA9685_ALL_LED_WHITE_OFF
		_PCA9685_ALL_LED_WHITE_ON
		_PCA9685_SET_LED_BLUE_ON
		_PCA9685_SET_LED_WHITE_ON
		_PCA9685_SET_MODE1
		_PCA9685_SET_MODE2
		_PCA9685_SET_PRESCALE
 This function is called by:
		_main
 This function uses a non-reentrant model


 *************** function _PCA9685_SET_PRESCALE *****************
 Defined at:
		line 73 in file "PCA9685.c"
 Parameters:    Size  Location     Type
  Serial_Confi    1    wreg     unsigned char 
  PCA9685_Addr    1   26[BANK0 ] unsigned char 
 Auto vars:     Size  Location     Type
  Serial_Confi    1   27[BANK0 ] unsigned char 
 Return value:  Size  Location     Type
                  1    wreg      void 
 Registers used:
		wreg, fsr2l, fsr2h, status,2, status,0, cstack
 Tracked objects:
		On entry : 
		On exit  : 
		Unchanged: 
 Data sizes:     COMRAM   BANK0   BANK1   BANK2   BANK3   BANK4   BANK5   BANK6   BANK7   BANK8   BANK9  BANK10  BANK11  BANK12  BANK13  BANK14  BANK15
      Params:         0       1       0       0       0       0       0       0       0       0       0       0       0       0       0       0       0
      Locals:         0       1       0       0       0       0       0       0       0       0       0       0       0       0       0       0       0
      Temps:          0       0       0       0       0       0       0       0       0       0       0       0       0       0       0       0       0
      Totals:         0       2       0       0       0       0       0       0       0       0       0       0       0       0       0       0       0
Total ram usage:        2 bytes
 Hardware stack levels used:    1
 Hardware stack levels required when called:   13
 This function calls:
		_I2C2_MasterWrite
 This function is called by:
		_Serial_Config_PCA9685
 This function uses a non-reentrant model


 *************** function _PCA9685_SET_MODE2 *****************
 Defined at:
		line 64 in file "PCA9685.c"
 Parameters:    Size  Location     Type
  Serial_Confi    1    wreg     unsigned char 
  PCA9685_Addr    1   26[BANK0 ] unsigned char 
 Auto vars:     Size  Location     Type
  Serial_Confi    1   27[BANK0 ] unsigned char 
 Return value:  Size  Location     Type
                  1    wreg      void 
 Registers used:
		wreg, fsr2l, fsr2h, status,2, status,0, cstack
 Tracked objects:
		On entry : 
		On exit  : 
		Unchanged: 
 Data sizes:     COMRAM   BANK0   BANK1   BANK2   BANK3   BANK4   BANK5   BANK6   BANK7   BANK8   BANK9  BANK10  BANK11  BANK12  BANK13  BANK14  BANK15
      Params:         0       1       0       0       0       0       0       0       0       0       0       0       0       0       0       0       0
      Locals:         0       1       0       0       0       0       0       0       0       0       0       0       0       0       0       0       0
      Temps:          0       0       0       0       0       0       0       0       0       0       0       0       0       0       0       0       0
      Totals:         0       2       0       0       0       0       0       0       0       0       0       0       0       0       0       0       0
Total ram usage:        2 bytes
 Hardware stack levels used:    1
 Hardware stack levels required when called:   13
 This function calls:
		_I2C2_MasterWrite
 This function is called by:
		_Serial_Config_PCA9685
 This function uses a non-reentrant model


 *************** function _PCA9685_SET_MODE1 *****************
 Defined at:
		line 55 in file "PCA9685.c"
 Parameters:    Size  Location     Type
  Serial_Confi    1    wreg     unsigned char 
  PCA9685_Addr    1   26[BANK0 ] unsigned char 
 Auto vars:     Size  Location     Type
  Serial_Confi    1   27[BANK0 ] unsigned char 
 Return value:  Size  Location     Type
                  1    wreg      void 
 Registers used:
		wreg, fsr2l, fsr2h, status,2, status,0, cstack
 Tracked objects:
		On entry : 
		On exit  : 
		Unchanged: 
 Data sizes:     COMRAM   BANK0   BANK1   BANK2   BANK3   BANK4   BANK5   BANK6   BANK7   BANK8   BANK9  BANK10  BANK11  BANK12  BANK13  BANK14  BANK15
      Params:         0       1       0       0       0       0       0       0       0       0       0       0       0       0       0       0       0
      Locals:         0       1       0       0       0       0       0       0       0       0       0       0       0       0       0       0       0
      Temps:          0       0       0       0       0       0       0       0       0       0       0       0       0       0       0       0       0
      Totals:         0       2       0       0       0       0       0       0       0       0       0       0       0       0       0       0       0
Total ram usage:        2 bytes
 Hardware stack levels used:    1
 Hardware stack levels required when called:   13
 This function calls:
		_I2C2_MasterWrite
 This function is called by:
		_Serial_Config_PCA9685
		_Init_Config_PCA9685_Debug
 This function uses a non-reentrant model


 *************** function _PCA9685_SET_LED_WHITE_ON *****************
 Defined at:
		line 128 in file "PCA9685.c"
 Parameters:    Size  Location     Type
  Serial_Index    1    wreg     unsigned char 
  Serial_Confi    1   26[BANK0 ] unsigned char 
  Serial_Confi    1   27[BANK0 ] unsigned char 
 Auto vars:     Size  Location     Type
  Serial_Index    1   28[BANK0 ] unsigned char 
 Return value:  Size  Location     Type
                  1    wreg      void 
 Registers used:
		wreg, fsr2l, fsr2h, status,2, status,0, prodl, prodh, cstack
 Tracked objects:
		On entry : 
		On exit  : 
		Unchanged: 
 Data sizes:     COMRAM   BANK0   BANK1   BANK2   BANK3   BANK4   BANK5   BANK6   BANK7   BANK8   BANK9  BANK10  BANK11  BANK12  BANK13  BANK14  BANK15
      Params:         0       2       0       0       0       0       0       0       0       0       0       0       0       0       0       0       0
      Locals:         0       1       0       0       0       0       0       0       0       0       0       0       0       0       0       0       0
      Temps:          0       0       0       0       0       0       0       0       0       0       0       0       0       0       0       0       0
      Totals:         0       3       0       0       0       0       0       0       0       0       0       0       0       0       0       0       0
Total ram usage:        3 bytes
 Hardware stack levels used:    1
 Hardware stack levels required when called:   13
 This function calls:
		_I2C2_MasterWrite
 This function is called by:
		_Serial_Config_PCA9685
 This function uses a non-reentrant model


 *************** function _PCA9685_ALL_LED_WHITE_ON *****************
 Defined at:
		line 93 in file "PCA9685.c"
 Parameters:    Size  Location     Type
  Serial_Confi    1    wreg     unsigned char 
  Serial_Confi    1   26[BANK0 ] unsigned char 
 Auto vars:     Size  Location     Type
  Serial_Confi    1   27[BANK0 ] unsigned char 
 Return value:  Size  Location     Type
                  1    wreg      void 
 Registers used:
		wreg, fsr2l, fsr2h, status,2, status,0, cstack
 Tracked objects:
		On entry : 
		On exit  : 
		Unchanged: 
 Data sizes:     COMRAM   BANK0   BANK1   BANK2   BANK3   BANK4   BANK5   BANK6   BANK7   BANK8   BANK9  BANK10  BANK11  BANK12  BANK13  BANK14  BANK15
      Params:         0       1       0       0       0       0       0       0       0       0       0       0       0       0       0       0       0
      Locals:         0       1       0       0       0       0       0       0       0       0       0       0       0       0       0       0       0
      Temps:          0       0       0       0       0       0       0       0       0       0       0       0       0       0       0       0       0
      Totals:         0       2       0       0       0       0       0       0       0       0       0       0       0       0       0       0       0
Total ram usage:        2 bytes
 Hardware stack levels used:    1
 Hardware stack levels required when called:   13
 This function calls:
		_I2C2_MasterWrite
 This function is called by:
		_Serial_Config_PCA9685
 This function uses a non-reentrant model


 *************** function _PCA9685_ALL_LED_WHITE_OFF *****************
 Defined at:
		line 104 in file "PCA9685.c"
 Parameters:    Size  Location     Type
  Serial_Confi    1    wreg     unsigned char 
  Serial_Confi    1   26[BANK0 ] unsigned char 
 Auto vars:     Size  Location     Type
  Serial_Confi    1   27[BANK0 ] unsigned char 
 Return value:  Size  Location     Type
                  1    wreg      void 
 Registers used:
		wreg, fsr2l, fsr2h, status,2, status,0, cstack
 Tracked objects:
		On entry : 
		On exit  : 
		Unchanged: 
 Data sizes:     COMRAM   BANK0   BANK1   BANK2   BANK3   BANK4   BANK5   BANK6   BANK7   BANK8   BANK9  BANK10  BANK11  BANK12  BANK13  BANK14  BANK15
      Params:         0       1       0       0       0       0       0       0       0       0       0       0       0       0       0       0       0
      Locals:         0       1       0       0       0       0       0       0       0       0       0       0       0       0       0       0       0
      Temps:          0       0       0       0       0       0       0       0       0       0       0       0       0       0       0       0       0
      Totals:         0       2       0       0       0       0       0       0       0       0       0       0       0       0       0       0       0
Total ram usage:        2 bytes
 Hardware stack levels used:    1
 Hardware stack levels required when called:   13
 This function calls:
		_I2C2_MasterWrite
 This function is called by:
		_Serial_Config_PCA9685
		_PCA9685_Init_LED_Default
 This function uses a non-reentrant model


 *************** function _PCA9685_ALL_LED_BLUE_ON *****************
 Defined at:
		line 82 in file "PCA9685.c"
 Parameters:    Size  Location     Type
  Serial_Confi    1    wreg     unsigned char 
  Serial_Confi    1   26[BANK0 ] unsigned char 
 Auto vars:     Size  Location     Type
  Serial_Confi    1   27[BANK0 ] unsigned char 
 Return value:  Size  Location     Type
                  1    wreg      void 
 Registers used:
		wreg, fsr2l, fsr2h, status,2, status,0, cstack
 Tracked objects:
		On entry : 
		On exit  : 
		Unchanged: 
 Data sizes:     COMRAM   BANK0   BANK1   BANK2   BANK3   BANK4   BANK5   BANK6   BANK7   BANK8   BANK9  BANK10  BANK11  BANK12  BANK13  BANK14  BANK15
      Params:         0       1       0       0       0       0       0       0       0       0       0       0       0       0       0       0       0
      Locals:         0       1       0       0       0       0       0       0       0       0       0       0       0       0       0       0       0
      Temps:          0       0       0       0       0       0       0       0       0       0       0       0       0       0       0       0       0
      Totals:         0       2       0       0       0       0       0       0       0       0       0       0       0       0       0       0       0
Total ram usage:        2 bytes
 Hardware stack levels used:    1
 Hardware stack levels required when called:   13
 This function calls:
		_I2C2_MasterWrite
 This function is called by:
		_Serial_Config_PCA9685
 This function uses a non-reentrant model


 *************** function _PCA9685_ALL_LED_BLUE_OFF *****************
 Defined at:
		line 115 in file "PCA9685.c"
 Parameters:    Size  Location     Type
  Serial_Confi    1    wreg     unsigned char 
  Serial_Confi    1   26[BANK0 ] unsigned char 
 Auto vars:     Size  Location     Type
  Serial_Confi    1   27[BANK0 ] unsigned char 
 Return value:  Size  Location     Type
                  1    wreg      void 
 Registers used:
		wreg, fsr2l, fsr2h, status,2, status,0, cstack
 Tracked objects:
		On entry : 
		On exit  : 
		Unchanged: 
 Data sizes:     COMRAM   BANK0   BANK1   BANK2   BANK3   BANK4   BANK5   BANK6   BANK7   BANK8   BANK9  BANK10  BANK11  BANK12  BANK13  BANK14  BANK15
      Params:         0       1       0       0       0       0       0       0       0       0       0       0       0       0       0       0       0
      Locals:         0       1       0       0       0       0       0       0       0       0       0       0       0       0       0       0       0
      Temps:          0       0       0       0       0       0       0       0       0       0       0       0       0       0       0       0       0
      Totals:         0       2       0       0       0       0       0       0       0       0       0       0       0       0       0       0       0
Total ram usage:        2 bytes
 Hardware stack levels used:    1
 Hardware stack levels required when called:   13
 This function calls:
		_I2C2_MasterWrite
 This function is called by:
		_Serial_Config_PCA9685
		_PCA9685_Init_LED_Default
 This function uses a non-reentrant model


 *************** function _SYSTEM_Initialize *****************
 Defined at:
		line 51 in file "mcc_generated_files/mcc.c"
 Parameters:    Size  Location     Type
		None
 Auto vars:     Size  Location     Type
		None
 Return value:  Size  Location     Type
                  1    wreg      void 
 Registers used:
		wreg, fsr1l, fsr1h, fsr2l, fsr2h, status,2, status,0, prodl, prodh, cstack
 Tracked objects:
		On entry : 
		On exit  : 
		Unchanged: 
 Data sizes:     COMRAM   BANK0   BANK1   BANK2   BANK3   BANK4   BANK5   BANK6   BANK7   BANK8   BANK9  BANK10  BANK11  BANK12  BANK13  BANK14  BANK15
      Params:         0       0       0       0       0       0       0       0       0       0       0       0       0       0       0       0       0
      Locals:         0       0       0       0       0       0       0       0       0       0       0       0       0       0       0       0       0
      Temps:          0       0       0       0       0       0       0       0       0       0       0       0       0       0       0       0       0
      Totals:         0       0       0       0       0       0       0       0       0       0       0       0       0       0       0       0       0
Total ram usage:        0 bytes
 Hardware stack levels used:    1
 Hardware stack levels required when called:   12
 This function calls:
		_ADC_Initialize
		_CCP5_Initialize
		_CTMU_Initialize
		_CTMU_Inizialize_MatrixCapSense
		_CTMU_Inizialize_Port
		_EUSART1_Initialize
		_I2C2_Initialize
		_INTERRUPT_Initialize
		_OSCILLATOR_Initialize
		_PIN_MANAGER_Initialize
		_TMR0_Initialize
		_TMR1_Initialize
 This function is called by:
		_main
 This function uses a non-reentrant model


 *************** function _TMR1_Initialize *****************
 Defined at:
		line 64 in file "mcc_generated_files/tmr1.c"
 Parameters:    Size  Location     Type
		None
 Auto vars:     Size  Location     Type
		None
 Return value:  Size  Location     Type
                  1    wreg      void 
 Registers used:
		wreg, status,2
 Tracked objects:
		On entry : 
		On exit  : 
		Unchanged: 
 Data sizes:     COMRAM   BANK0   BANK1   BANK2   BANK3   BANK4   BANK5   BANK6   BANK7   BANK8   BANK9  BANK10  BANK11  BANK12  BANK13  BANK14  BANK15
      Params:         0       0       0       0       0       0       0       0       0       0       0       0       0       0       0       0       0
      Locals:         0       0       0       0       0       0       0       0       0       0       0       0       0       0       0       0       0
      Temps:          0       0       0       0       0       0       0       0       0       0       0       0       0       0       0       0       0
      Totals:         0       0       0       0       0       0       0       0       0       0       0       0       0       0       0       0       0
Total ram usage:        0 bytes
 Hardware stack levels used:    1
 Hardware stack levels required when called:   10
 This function calls:
		Nothing
 This function is called by:
		_SYSTEM_Initialize
 This function uses a non-reentrant model


 *************** function _TMR0_Initialize *****************
 Defined at:
		line 71 in file "mcc_generated_files/tmr0.c"
 Parameters:    Size  Location     Type
		None
 Auto vars:     Size  Location     Type
		None
 Return value:  Size  Location     Type
                  1    wreg      void 
 Registers used:
		wreg, status,2, status,0, cstack
 Tracked objects:
		On entry : 
		On exit  : 
		Unchanged: 
 Data sizes:     COMRAM   BANK0   BANK1   BANK2   BANK3   BANK4   BANK5   BANK6   BANK7   BANK8   BANK9  BANK10  BANK11  BANK12  BANK13  BANK14  BANK15
      Params:         0       0       0       0       0       0       0       0       0       0       0       0       0       0       0       0       0
      Locals:         0       0       0       0       0       0       0       0       0       0       0       0       0       0       0       0       0
      Temps:          0       2       0       0       0       0       0       0       0       0       0       0       0       0       0       0       0
      Totals:         0       2       0       0       0       0       0       0       0       0       0       0       0       0       0       0       0
Total ram usage:        2 bytes
 Hardware stack levels used:    1
 Hardware stack levels required when called:   11
 This function calls:
		_TMR0_SetInterruptHandler
 This function is called by:
		_SYSTEM_Initialize
 This function uses a non-reentrant model


 *************** function _TMR0_SetInterruptHandler *****************
 Defined at:
		line 167 in file "mcc_generated_files/tmr0.c"
 Parameters:    Size  Location     Type
  InterruptHan    2   10[BANK0 ] PTR FTN()void 
		 -> TMR0_DefaultInterruptHandler(1), 
 Auto vars:     Size  Location     Type
		None
 Return value:  Size  Location     Type
                  1    wreg      void 
 Registers used:
		wreg, status,2, status,0
 Tracked objects:
		On entry : 
		On exit  : 
		Unchanged: 
 Data sizes:     COMRAM   BANK0   BANK1   BANK2   BANK3   BANK4   BANK5   BANK6   BANK7   BANK8   BANK9  BANK10  BANK11  BANK12  BANK13  BANK14  BANK15
      Params:         0       2       0       0       0       0       0       0       0       0       0       0       0       0       0       0       0
      Locals:         0       0       0       0       0       0       0       0       0       0       0       0       0       0       0       0       0
      Temps:          0       0       0       0       0       0       0       0       0       0       0       0       0       0       0       0       0
      Totals:         0       2       0       0       0       0       0       0       0       0       0       0       0       0       0       0       0
Total ram usage:        2 bytes
 Hardware stack levels used:    1
 Hardware stack levels required when called:   10
 This function calls:
		Nothing
 This function is called by:
		_TMR0_Initialize
 This function uses a non-reentrant model


 *************** function _PIN_MANAGER_Initialize *****************
 Defined at:
		line 55 in file "mcc_generated_files/pin_manager.c"
 Parameters:    Size  Location     Type
		None
 Auto vars:     Size  Location     Type
		None
 Return value:  Size  Location     Type
                  1    wreg      void 
 Registers used:
		wreg, status,2
 Tracked objects:
		On entry : 
		On exit  : 
		Unchanged: 
 Data sizes:     COMRAM   BANK0   BANK1   BANK2   BANK3   BANK4   BANK5   BANK6   BANK7   BANK8   BANK9  BANK10  BANK11  BANK12  BANK13  BANK14  BANK15
      Params:         0       0       0       0       0       0       0       0       0       0       0       0       0       0       0       0       0
      Locals:         0       0       0       0       0       0       0       0       0       0       0       0       0       0       0       0       0
      Temps:          0       0       0       0       0       0       0       0       0       0       0       0       0       0       0       0       0
      Totals:         0       0       0       0       0       0       0       0       0       0       0       0       0       0       0       0       0
Total ram usage:        0 bytes
 Hardware stack levels used:    1
 Hardware stack levels required when called:   10
 This function calls:
		Nothing
 This function is called by:
		_SYSTEM_Initialize
 This function uses a non-reentrant model


 *************** function _OSCILLATOR_Initialize *****************
 Defined at:
		line 69 in file "mcc_generated_files/mcc.c"
 Parameters:    Size  Location     Type
		None
 Auto vars:     Size  Location     Type
		None
 Return value:  Size  Location     Type
                  1    wreg      void 
 Registers used:
		wreg, status,2
 Tracked objects:
		On entry : 
		On exit  : 
		Unchanged: 
 Data sizes:     COMRAM   BANK0   BANK1   BANK2   BANK3   BANK4   BANK5   BANK6   BANK7   BANK8   BANK9  BANK10  BANK11  BANK12  BANK13  BANK14  BANK15
      Params:         0       0       0       0       0       0       0       0       0       0       0       0       0       0       0       0       0
      Locals:         0       0       0       0       0       0       0       0       0       0       0       0       0       0       0       0       0
      Temps:          0       0       0       0       0       0       0       0       0       0       0       0       0       0       0       0       0
      Totals:         0       0       0       0       0       0       0       0       0       0       0       0       0       0       0       0       0
Total ram usage:        0 bytes
 Hardware stack levels used:    1
 Hardware stack levels required when called:   10
 This function calls:
		Nothing
 This function is called by:
		_SYSTEM_Initialize
 This function uses a non-reentrant model


 *************** function _INTERRUPT_Initialize *****************
 Defined at:
		line 54 in file "mcc_generated_files/interrupt_manager.c"
 Parameters:    Size  Location     Type
		None
 Auto vars:     Size  Location     Type
		None
 Return value:  Size  Location     Type
                  1    wreg      void 
 Registers used:
		None
 Tracked objects:
		On entry : 
		On exit  : 
		Unchanged: 
 Data sizes:     COMRAM   BANK0   BANK1   BANK2   BANK3   BANK4   BANK5   BANK6   BANK7   BANK8   BANK9  BANK10  BANK11  BANK12  BANK13  BANK14  BANK15
      Params:         0       0       0       0       0       0       0       0       0       0       0       0       0       0       0       0       0
      Locals:         0       0       0       0       0       0       0       0       0       0       0       0       0       0       0       0       0
      Temps:          0       0       0       0       0       0       0       0       0       0       0       0       0       0       0       0       0
      Totals:         0       0       0       0       0       0       0       0       0       0       0       0       0       0       0       0       0
Total ram usage:        0 bytes
 Hardware stack levels used:    1
 Hardware stack levels required when called:   10
 This function calls:
		Nothing
 This function is called by:
		_SYSTEM_Initialize
 This function uses a non-reentrant model


 *************** function _I2C2_Initialize *****************
 Defined at:
		line 198 in file "mcc_generated_files/i2c2.c"
 Parameters:    Size  Location     Type
		None
 Auto vars:     Size  Location     Type
		None
 Return value:  Size  Location     Type
                  1    wreg      void 
 Registers used:
		wreg, status,2, status,0
 Tracked objects:
		On entry : 
		On exit  : 
		Unchanged: 
 Data sizes:     COMRAM   BANK0   BANK1   BANK2   BANK3   BANK4   BANK5   BANK6   BANK7   BANK8   BANK9  BANK10  BANK11  BANK12  BANK13  BANK14  BANK15
      Params:         0       0       0       0       0       0       0       0       0       0       0       0       0       0       0       0       0
      Locals:         0       0       0       0       0       0       0       0       0       0       0       0       0       0       0       0       0
      Temps:          0       0       0       0       0       0       0       0       0       0       0       0       0       0       0       0       0
      Totals:         0       0       0       0       0       0       0       0       0       0       0       0       0       0       0       0       0
Total ram usage:        0 bytes
 Hardware stack levels used:    1
 Hardware stack levels required when called:   10
 This function calls:
		Nothing
 This function is called by:
		_SYSTEM_Initialize
 This function uses a non-reentrant model


 *************** function _EUSART1_Initialize *****************
 Defined at:
		line 84 in file "mcc_generated_files/eusart1.c"
 Parameters:    Size  Location     Type
		None
 Auto vars:     Size  Location     Type
		None
 Return value:  Size  Location     Type
                  1    wreg      void 
 Registers used:
		wreg, status,2, status,0, cstack
 Tracked objects:
		On entry : 
		On exit  : 
		Unchanged: 
 Data sizes:     COMRAM   BANK0   BANK1   BANK2   BANK3   BANK4   BANK5   BANK6   BANK7   BANK8   BANK9  BANK10  BANK11  BANK12  BANK13  BANK14  BANK15
      Params:         0       0       0       0       0       0       0       0       0       0       0       0       0       0       0       0       0
      Locals:         0       0       0       0       0       0       0       0       0       0       0       0       0       0       0       0       0
      Temps:          0       0       0       0       0       0       0       0       0       0       0       0       0       0       0       0       0
      Totals:         0       0       0       0       0       0       0       0       0       0       0       0       0       0       0       0       0
Total ram usage:        0 bytes
 Hardware stack levels used:    1
 Hardware stack levels required when called:   11
 This function calls:
		_EUSART1_SetErrorHandler
		_EUSART1_SetFramingErrorHandler
		_EUSART1_SetOverrunErrorHandler
		_EUSART1_SetRxInterruptHandler
 This function is called by:
		_SYSTEM_Initialize
 This function uses a non-reentrant model


 *************** function _EUSART1_SetRxInterruptHandler *****************
 Defined at:
		line 259 in file "mcc_generated_files/eusart1.c"
 Parameters:    Size  Location     Type
  interruptHan    2   10[BANK0 ] PTR FTN()void 
		 -> EUSART1_Receive_ISR(1), 
 Auto vars:     Size  Location     Type
		None
 Return value:  Size  Location     Type
                  1    wreg      void 
 Registers used:
		wreg, status,2, status,0
 Tracked objects:
		On entry : 
		On exit  : 
		Unchanged: 
 Data sizes:     COMRAM   BANK0   BANK1   BANK2   BANK3   BANK4   BANK5   BANK6   BANK7   BANK8   BANK9  BANK10  BANK11  BANK12  BANK13  BANK14  BANK15
      Params:         0       2       0       0       0       0       0       0       0       0       0       0       0       0       0       0       0
      Locals:         0       0       0       0       0       0       0       0       0       0       0       0       0       0       0       0       0
      Temps:          0       0       0       0       0       0       0       0       0       0       0       0       0       0       0       0       0
      Totals:         0       2       0       0       0       0       0       0       0       0       0       0       0       0       0       0       0
Total ram usage:        2 bytes
 Hardware stack levels used:    1
 Hardware stack levels required when called:   10
 This function calls:
		Nothing
 This function is called by:
		_EUSART1_Initialize
 This function uses a non-reentrant model


 *************** function _EUSART1_SetOverrunErrorHandler *****************
 Defined at:
		line 250 in file "mcc_generated_files/eusart1.c"
 Parameters:    Size  Location     Type
  interruptHan    2   10[BANK0 ] PTR FTN()void 
		 -> EUSART1_DefaultOverrunErrorHandler(1), 
 Auto vars:     Size  Location     Type
		None
 Return value:  Size  Location     Type
                  1    wreg      void 
 Registers used:
		wreg, status,2, status,0
 Tracked objects:
		On entry : 
		On exit  : 
		Unchanged: 
 Data sizes:     COMRAM   BANK0   BANK1   BANK2   BANK3   BANK4   BANK5   BANK6   BANK7   BANK8   BANK9  BANK10  BANK11  BANK12  BANK13  BANK14  BANK15
      Params:         0       2       0       0       0       0       0       0       0       0       0       0       0       0       0       0       0
      Locals:         0       0       0       0       0       0       0       0       0       0       0       0       0       0       0       0       0
      Temps:          0       0       0       0       0       0       0       0       0       0       0       0       0       0       0       0       0
      Totals:         0       2       0       0       0       0       0       0       0       0       0       0       0       0       0       0       0
Total ram usage:        2 bytes
 Hardware stack levels used:    1
 Hardware stack levels required when called:   10
 This function calls:
		Nothing
 This function is called by:
		_EUSART1_Initialize
 This function uses a non-reentrant model


 *************** function _EUSART1_SetFramingErrorHandler *****************
 Defined at:
		line 246 in file "mcc_generated_files/eusart1.c"
 Parameters:    Size  Location     Type
  interruptHan    2   10[BANK0 ] PTR FTN()void 
		 -> EUSART1_DefaultFramingErrorHandler(1), 
 Auto vars:     Size  Location     Type
		None
 Return value:  Size  Location     Type
                  1    wreg      void 
 Registers used:
		wreg, status,2, status,0
 Tracked objects:
		On entry : 
		On exit  : 
		Unchanged: 
 Data sizes:     COMRAM   BANK0   BANK1   BANK2   BANK3   BANK4   BANK5   BANK6   BANK7   BANK8   BANK9  BANK10  BANK11  BANK12  BANK13  BANK14  BANK15
      Params:         0       2       0       0       0       0       0       0       0       0       0       0       0       0       0       0       0
      Locals:         0       0       0       0       0       0       0       0       0       0       0       0       0       0       0       0       0
      Temps:          0       0       0       0       0       0       0       0       0       0       0       0       0       0       0       0       0
      Totals:         0       2       0       0       0       0       0       0       0       0       0       0       0       0       0       0       0
Total ram usage:        2 bytes
 Hardware stack levels used:    1
 Hardware stack levels required when called:   10
 This function calls:
		Nothing
 This function is called by:
		_EUSART1_Initialize
 This function uses a non-reentrant model


 *************** function _EUSART1_SetErrorHandler *****************
 Defined at:
		line 254 in file "mcc_generated_files/eusart1.c"
 Parameters:    Size  Location     Type
  interruptHan    2   10[BANK0 ] PTR FTN()void 
		 -> EUSART1_DefaultErrorHandler(1), 
 Auto vars:     Size  Location     Type
		None
 Return value:  Size  Location     Type
                  1    wreg      void 
 Registers used:
		wreg, status,2, status,0
 Tracked objects:
		On entry : 
		On exit  : 
		Unchanged: 
 Data sizes:     COMRAM   BANK0   BANK1   BANK2   BANK3   BANK4   BANK5   BANK6   BANK7   BANK8   BANK9  BANK10  BANK11  BANK12  BANK13  BANK14  BANK15
      Params:         0       2       0       0       0       0       0       0       0       0       0       0       0       0       0       0       0
      Locals:         0       0       0       0       0       0       0       0       0       0       0       0       0       0       0       0       0
      Temps:          0       0       0       0       0       0       0       0       0       0       0       0       0       0       0       0       0
      Totals:         0       2       0       0       0       0       0       0       0       0       0       0       0       0       0       0       0
Total ram usage:        2 bytes
 Hardware stack levels used:    1
 Hardware stack levels required when called:   10
 This function calls:
		Nothing
 This function is called by:
		_EUSART1_Initialize
 This function uses a non-reentrant model


 *************** function _CTMU_Inizialize_Port *****************
 Defined at:
		line 217 in file "CTMU.c"
 Parameters:    Size  Location     Type
		None
 Auto vars:     Size  Location     Type
		None
 Return value:  Size  Location     Type
                  1    wreg      void 
 Registers used:
		None
 Tracked objects:
		On entry : 
		On exit  : 
		Unchanged: 
 Data sizes:     COMRAM   BANK0   BANK1   BANK2   BANK3   BANK4   BANK5   BANK6   BANK7   BANK8   BANK9  BANK10  BANK11  BANK12  BANK13  BANK14  BANK15
      Params:         0       0       0       0       0       0       0       0       0       0       0       0       0       0       0       0       0
      Locals:         0       0       0       0       0       0       0       0       0       0       0       0       0       0       0       0       0
      Temps:          0       0       0       0       0       0       0       0       0       0       0       0       0       0       0       0       0
      Totals:         0       0       0       0       0       0       0       0       0       0       0       0       0       0       0       0       0
Total ram usage:        0 bytes
 Hardware stack levels used:    1
 Hardware stack levels required when called:   10
 This function calls:
		Nothing
 This function is called by:
		_SYSTEM_Initialize
 This function uses a non-reentrant model


 *************** function _CTMU_Inizialize_MatrixCapSense *****************
 Defined at:
		line 198 in file "CTMU.c"
 Parameters:    Size  Location     Type
		None
 Auto vars:     Size  Location     Type
  i               2   18[BANK0 ] int 
 Return value:  Size  Location     Type
                  1    wreg      void 
 Registers used:
		wreg, fsr1l, fsr1h, fsr2l, fsr2h, status,2, status,0, prodl, prodh, cstack
 Tracked objects:
		On entry : 
		On exit  : 
		Unchanged: 
 Data sizes:     COMRAM   BANK0   BANK1   BANK2   BANK3   BANK4   BANK5   BANK6   BANK7   BANK8   BANK9  BANK10  BANK11  BANK12  BANK13  BANK14  BANK15
      Params:         0       0       0       0       0       0       0       0       0       0       0       0       0       0       0       0       0
      Locals:         0       2       0       0       0       0       0       0       0       0       0       0       0       0       0       0       0
      Temps:          0       2       0       0       0       0       0       0       0       0       0       0       0       0       0       0       0
      Totals:         0       4       0       0       0       0       0       0       0       0       0       0       0       0       0       0       0
Total ram usage:        4 bytes
 Hardware stack levels used:    1
 Hardware stack levels required when called:   11
 This function calls:
		___wmul
 This function is called by:
		_SYSTEM_Initialize
 This function uses a non-reentrant model


 *************** function _CTMU_Initialize *****************
 Defined at:
		line 121 in file "CTMU.c"
 Parameters:    Size  Location     Type
		None
 Auto vars:     Size  Location     Type
		None
 Return value:  Size  Location     Type
                  1    wreg      void 
 Registers used:
		wreg, status,2
 Tracked objects:
		On entry : 
		On exit  : 
		Unchanged: 
 Data sizes:     COMRAM   BANK0   BANK1   BANK2   BANK3   BANK4   BANK5   BANK6   BANK7   BANK8   BANK9  BANK10  BANK11  BANK12  BANK13  BANK14  BANK15
      Params:         0       0       0       0       0       0       0       0       0       0       0       0       0       0       0       0       0
      Locals:         0       0       0       0       0       0       0       0       0       0       0       0       0       0       0       0       0
      Temps:          0       0       0       0       0       0       0       0       0       0       0       0       0       0       0       0       0
      Totals:         0       0       0       0       0       0       0       0       0       0       0       0       0       0       0       0       0
Total ram usage:        0 bytes
 Hardware stack levels used:    1
 Hardware stack levels required when called:   10
 This function calls:
		Nothing
 This function is called by:
		_SYSTEM_Initialize
 This function uses a non-reentrant model


 *************** function _CCP5_Initialize *****************
 Defined at:
		line 58 in file "mcc_generated_files/ccp5.c"
 Parameters:    Size  Location     Type
		None
 Auto vars:     Size  Location     Type
		None
 Return value:  Size  Location     Type
                  1    wreg      void 
 Registers used:
		wreg, status,2
 Tracked objects:
		On entry : 
		On exit  : 
		Unchanged: 
 Data sizes:     COMRAM   BANK0   BANK1   BANK2   BANK3   BANK4   BANK5   BANK6   BANK7   BANK8   BANK9  BANK10  BANK11  BANK12  BANK13  BANK14  BANK15
      Params:         0       0       0       0       0       0       0       0       0       0       0       0       0       0       0       0       0
      Locals:         0       0       0       0       0       0       0       0       0       0       0       0       0       0       0       0       0
      Temps:          0       0       0       0       0       0       0       0       0       0       0       0       0       0       0       0       0
      Totals:         0       0       0       0       0       0       0       0       0       0       0       0       0       0       0       0       0
Total ram usage:        0 bytes
 Hardware stack levels used:    1
 Hardware stack levels required when called:   10
 This function calls:
		Nothing
 This function is called by:
		_SYSTEM_Initialize
 This function uses a non-reentrant model


 *************** function _ADC_Initialize *****************
 Defined at:
		line 60 in file "mcc_generated_files/adc.c"
 Parameters:    Size  Location     Type
		None
 Auto vars:     Size  Location     Type
		None
 Return value:  Size  Location     Type
                  1    wreg      void 
 Registers used:
		wreg, status,2
 Tracked objects:
		On entry : 
		On exit  : 
		Unchanged: 
 Data sizes:     COMRAM   BANK0   BANK1   BANK2   BANK3   BANK4   BANK5   BANK6   BANK7   BANK8   BANK9  BANK10  BANK11  BANK12  BANK13  BANK14  BANK15
      Params:         0       0       0       0       0       0       0       0       0       0       0       0       0       0       0       0       0
      Locals:         0       0       0       0       0       0       0       0       0       0       0       0       0       0       0       0       0
      Temps:          0       0       0       0       0       0       0       0       0       0       0       0       0       0       0       0       0
      Totals:         0       0       0       0       0       0       0       0       0       0       0       0       0       0       0       0       0
Total ram usage:        0 bytes
 Hardware stack levels used:    1
 Hardware stack levels required when called:   10
 This function calls:
		Nothing
 This function is called by:
		_SYSTEM_Initialize
 This function uses a non-reentrant model


 *************** function _Mech_Buttons_Get_Port *****************
 Defined at:
		line 73 in file "Mech_Buttons.c"
 Parameters:    Size  Location     Type
		None
 Auto vars:     Size  Location     Type
  check           1   27[BANK0 ] unsigned char 
 Return value:  Size  Location     Type
                  1    wreg      void 
 Registers used:
		wreg, fsr2l, fsr2h, status,2, status,0, prodl, prodh, cstack
 Tracked objects:
		On entry : 
		On exit  : 
		Unchanged: 
 Data sizes:     COMRAM   BANK0   BANK1   BANK2   BANK3   BANK4   BANK5   BANK6   BANK7   BANK8   BANK9  BANK10  BANK11  BANK12  BANK13  BANK14  BANK15
      Params:         0       0       0       0       0       0       0       0       0       0       0       0       0       0       0       0       0
      Locals:         0       1       0       0       0       0       0       0       0       0       0       0       0       0       0       0       0
      Temps:          0       0       0       0       0       0       0       0       0       0       0       0       0       0       0       0       0
      Totals:         0       1       0       0       0       0       0       0       0       0       0       0       0       0       0       0       0
Total ram usage:        1 bytes
 Hardware stack levels used:    1
 Hardware stack levels required when called:   13
 This function calls:
		_EUSART1_BufferWrite
 This function is called by:
		_main
 This function uses a non-reentrant model


 *************** function _CTMU_ButtonEvaluation *****************
 Defined at:
		line 665 in file "CTMU.c"
 Parameters:    Size  Location     Type
		None
 Auto vars:     Size  Location     Type
  vect_cap       12    0[BANK1 ] unsigned char [12]
  avg_cap         4   12[BANK1 ] float 
  i               1   20[BANK1 ] unsigned char 
  premuto         1   19[BANK1 ] unsigned char 
  j               1   18[BANK1 ] unsigned char 
  ok_button_pr    1   17[BANK1 ] unsigned char 
  check           1   16[BANK1 ] unsigned char 
 Return value:  Size  Location     Type
                  1    wreg      void 
 Registers used:
		wreg, fsr2l, fsr2h, status,2, status,0, tblptrl, tblptrh, tblptru, prodl, prodh, cstack
 Tracked objects:
		On entry : 
		On exit  : 
		Unchanged: 
 Data sizes:     COMRAM   BANK0   BANK1   BANK2   BANK3   BANK4   BANK5   BANK6   BANK7   BANK8   BANK9  BANK10  BANK11  BANK12  BANK13  BANK14  BANK15
      Params:         0       0       0       0       0       0       0       0       0       0       0       0       0       0       0       0       0
      Locals:         0       0      21       0       0       0       0       0       0       0       0       0       0       0       0       0       0
      Temps:          0       6       0       0       0       0       0       0       0       0       0       0       0       0       0       0       0
      Totals:         0       6      21       0       0       0       0       0       0       0       0       0       0       0       0       0       0
Total ram usage:       27 bytes
 Hardware stack levels used:    1
 Hardware stack levels required when called:   14
 This function calls:
		_CTMU_ChannelEvaluation
		_CTMU_Print
		_EUSART1_BufferWrite
		_PCA9685_SET_LED_BLUE_ON
		___fladd
		___fldiv
		___fltol
		___lwmod
		___xxtofl
		_printf
 This function is called by:
		_main
 This function uses a non-reentrant model


 *************** function ___fldiv *****************
 Defined at:
		line 11 in file "C:\Program Files (x86)\Microchip\xc8\v2.05\pic\sources\c90\common\sprcdiv.c"
 Parameters:    Size  Location     Type
  b               4   10[BANK0 ] void 
  a               4   14[BANK0 ] void 
 Auto vars:     Size  Location     Type
  grs             4   29[BANK0 ] unsigned long 
  rem             4   22[BANK0 ] unsigned long 
  new_exp         2   27[BANK0 ] int 
  aexp            1   34[BANK0 ] unsigned char 
  bexp            1   33[BANK0 ] unsigned char 
  sign            1   26[BANK0 ] unsigned char 
 Return value:  Size  Location     Type
                  4   10[BANK0 ] unsigned char 
 Registers used:
		wreg, status,2, status,0
 Tracked objects:
		On entry : 
		On exit  : 
		Unchanged: 
 Data sizes:     COMRAM   BANK0   BANK1   BANK2   BANK3   BANK4   BANK5   BANK6   BANK7   BANK8   BANK9  BANK10  BANK11  BANK12  BANK13  BANK14  BANK15
      Params:         0       8       0       0       0       0       0       0       0       0       0       0       0       0       0       0       0
      Locals:         0      13       0       0       0       0       0       0       0       0       0       0       0       0       0       0       0
      Temps:          0       4       0       0       0       0       0       0       0       0       0       0       0       0       0       0       0
      Totals:         0      25       0       0       0       0       0       0       0       0       0       0       0       0       0       0       0
Total ram usage:       25 bytes
 Hardware stack levels used:    1
 Hardware stack levels required when called:   10
 This function calls:
		Nothing
 This function is called by:
		_CTMU_ButtonEvaluation
 This function uses a non-reentrant model


 *************** function _PCA9685_SET_LED_BLUE_ON *****************
 Defined at:
		line 141 in file "PCA9685.c"
 Parameters:    Size  Location     Type
  Serial_Index    1    wreg     unsigned char 
  Serial_Confi    1   26[BANK0 ] unsigned char 
  Serial_Confi    1   27[BANK0 ] unsigned char 
 Auto vars:     Size  Location     Type
  Serial_Index    1   28[BANK0 ] unsigned char 
 Return value:  Size  Location     Type
                  1    wreg      void 
 Registers used:
		wreg, fsr2l, fsr2h, status,2, status,0, prodl, prodh, cstack
 Tracked objects:
		On entry : 
		On exit  : 
		Unchanged: 
 Data sizes:     COMRAM   BANK0   BANK1   BANK2   BANK3   BANK4   BANK5   BANK6   BANK7   BANK8   BANK9  BANK10  BANK11  BANK12  BANK13  BANK14  BANK15
      Params:         0       2       0       0       0       0       0       0       0       0       0       0       0       0       0       0       0
      Locals:         0       1       0       0       0       0       0       0       0       0       0       0       0       0       0       0       0
      Temps:          0       0       0       0       0       0       0       0       0       0       0       0       0       0       0       0       0
      Totals:         0       3       0       0       0       0       0       0       0       0       0       0       0       0       0       0       0
Total ram usage:        3 bytes
 Hardware stack levels used:    1
 Hardware stack levels required when called:   13
 This function calls:
		_I2C2_MasterWrite
 This function is called by:
		_Serial_Config_PCA9685
		_CTMU_ButtonEvaluation
 This function uses a non-reentrant model


 *************** function _I2C2_MasterWrite *****************
 Defined at:
		line 600 in file "mcc_generated_files/i2c2.c"
 Parameters:    Size  Location     Type
  pdata           2   19[BANK0 ] PTR unsigned char 
		 -> writeBuffer(10), 
  length          1   21[BANK0 ] unsigned char 
  address         2   22[BANK0 ] unsigned short 
  pflag           2   24[BANK0 ] PTR enum E5856
		 -> status(1), 
 Auto vars:     Size  Location     Type
		None
 Return value:  Size  Location     Type
                  1    wreg      void 
 Registers used:
		wreg, fsr2l, fsr2h, status,2, status,0, cstack
 Tracked objects:
		On entry : 
		On exit  : 
		Unchanged: 
 Data sizes:     COMRAM   BANK0   BANK1   BANK2   BANK3   BANK4   BANK5   BANK6   BANK7   BANK8   BANK9  BANK10  BANK11  BANK12  BANK13  BANK14  BANK15
      Params:         0       7       0       0       0       0       0       0       0       0       0       0       0       0       0       0       0
      Locals:         0       0       0       0       0       0       0       0       0       0       0       0       0       0       0       0       0
      Temps:          0       0       0       0       0       0       0       0       0       0       0       0       0       0       0       0       0
      Totals:         0       7       0       0       0       0       0       0       0       0       0       0       0       0       0       0       0
Total ram usage:        7 bytes
 Hardware stack levels used:    1
 Hardware stack levels required when called:   12
 This function calls:
		_I2C2_MasterTRBInsert
		_I2C2_MasterWriteTRBBuild
 This function is called by:
		_PCA9685_SET_MODE1
		_PCA9685_SET_MODE2
		_PCA9685_SET_PRESCALE
		_PCA9685_ALL_LED_BLUE_ON
		_PCA9685_ALL_LED_WHITE_ON
		_PCA9685_ALL_LED_WHITE_OFF
		_PCA9685_ALL_LED_BLUE_OFF
		_PCA9685_SET_LED_WHITE_ON
		_PCA9685_SET_LED_BLUE_ON
		_PCA9685_Init_Default
		_PCA9685_Init_LED_Default
		_PCA9685_Init_LED_SW1
		_PCA9685_Init_LED_SW2
 This function uses a non-reentrant model


 *************** function _I2C2_MasterWriteTRBBuild *****************
 Defined at:
		line 721 in file "mcc_generated_files/i2c2.c"
 Parameters:    Size  Location     Type
  ptrb            2   10[BANK0 ] PTR struct .
		 -> I2C2_MasterWrite@trBlock(5), 
  pdata           2   12[BANK0 ] PTR unsigned char 
		 -> writeBuffer(10), 
  length          1   14[BANK0 ] unsigned char 
  address         2   15[BANK0 ] unsigned short 
 Auto vars:     Size  Location     Type
		None
 Return value:  Size  Location     Type
                  1    wreg      void 
 Registers used:
		wreg, fsr2l, fsr2h, status,2, status,0
 Tracked objects:
		On entry : 
		On exit  : 
		Unchanged: 
 Data sizes:     COMRAM   BANK0   BANK1   BANK2   BANK3   BANK4   BANK5   BANK6   BANK7   BANK8   BANK9  BANK10  BANK11  BANK12  BANK13  BANK14  BANK15
      Params:         0       7       0       0       0       0       0       0       0       0       0       0       0       0       0       0       0
      Locals:         0       0       0       0       0       0       0       0       0       0       0       0       0       0       0       0       0
      Temps:          0       2       0       0       0       0       0       0       0       0       0       0       0       0       0       0       0
      Totals:         0       9       0       0       0       0       0       0       0       0       0       0       0       0       0       0       0
Total ram usage:        9 bytes
 Hardware stack levels used:    1
 Hardware stack levels required when called:   10
 This function calls:
		Nothing
 This function is called by:
		_I2C2_MasterWrite
 This function uses a non-reentrant model


 *************** function _I2C2_MasterTRBInsert *****************
 Defined at:
		line 654 in file "mcc_generated_files/i2c2.c"
 Parameters:    Size  Location     Type
  count           1    wreg     unsigned char 
  ptrb_list       2   10[BANK0 ] PTR struct .
		 -> I2C2_MasterRead@trBlock(5), I2C2_MasterWrite@trBlock(5), 
  pflag           2   12[BANK0 ] PTR enum E5856
		 -> status(1), 
 Auto vars:     Size  Location     Type
  count           1   15[BANK0 ] unsigned char 
 Return value:  Size  Location     Type
                  1    wreg      void 
 Registers used:
		wreg, fsr2l, fsr2h, status,2, status,0, cstack
 Tracked objects:
		On entry : 
		On exit  : 
		Unchanged: 
 Data sizes:     COMRAM   BANK0   BANK1   BANK2   BANK3   BANK4   BANK5   BANK6   BANK7   BANK8   BANK9  BANK10  BANK11  BANK12  BANK13  BANK14  BANK15
      Params:         0       4       0       0       0       0       0       0       0       0       0       0       0       0       0       0       0
      Locals:         0       1       0       0       0       0       0       0       0       0       0       0       0       0       0       0       0
      Temps:          0       1       0       0       0       0       0       0       0       0       0       0       0       0       0       0       0
      Totals:         0       6       0       0       0       0       0       0       0       0       0       0       0       0       0       0       0
Total ram usage:        6 bytes
 Hardware stack levels used:    1
 Hardware stack levels required when called:   11
 This function calls:
		_I2C2_WaitForLastPacketToComplete
 This function is called by:
		_I2C2_MasterWrite
		_I2C2_MasterRead
 This function uses a non-reentrant model


 *************** function _I2C2_WaitForLastPacketToComplete *****************
 Defined at:
		line 644 in file "mcc_generated_files/i2c2.c"
 Parameters:    Size  Location     Type
		None
 Auto vars:     Size  Location     Type
		None
 Return value:  Size  Location     Type
                  1    wreg      void 
 Registers used:
		wreg, status,2
 Tracked objects:
		On entry : 
		On exit  : 
		Unchanged: 
 Data sizes:     COMRAM   BANK0   BANK1   BANK2   BANK3   BANK4   BANK5   BANK6   BANK7   BANK8   BANK9  BANK10  BANK11  BANK12  BANK13  BANK14  BANK15
      Params:         0       0       0       0       0       0       0       0       0       0       0       0       0       0       0       0       0
      Locals:         0       0       0       0       0       0       0       0       0       0       0       0       0       0       0       0       0
      Temps:          0       0       0       0       0       0       0       0       0       0       0       0       0       0       0       0       0
      Totals:         0       0       0       0       0       0       0       0       0       0       0       0       0       0       0       0       0
Total ram usage:        0 bytes
 Hardware stack levels used:    1
 Hardware stack levels required when called:   10
 This function calls:
		Nothing
 This function is called by:
		_I2C2_MasterTRBInsert
 This function uses a non-reentrant model


 *************** function _EUSART1_BufferWrite *****************
 Defined at:
		line 172 in file "mcc_generated_files/eusart1.c"
 Parameters:    Size  Location     Type
  buff            2   24[BANK0 ] PTR unsigned char 
		 -> buffer_cap_sense(6), buffer_mec(6), NULL(0), 
  num_elem        1   26[BANK0 ] unsigned char 
 Auto vars:     Size  Location     Type
		None
 Return value:  Size  Location     Type
                  1    wreg      void 
 Registers used:
		wreg, fsr2l, fsr2h, status,2, status,0, prodl, prodh, cstack
 Tracked objects:
		On entry : 
		On exit  : 
		Unchanged: 
 Data sizes:     COMRAM   BANK0   BANK1   BANK2   BANK3   BANK4   BANK5   BANK6   BANK7   BANK8   BANK9  BANK10  BANK11  BANK12  BANK13  BANK14  BANK15
      Params:         0       3       0       0       0       0       0       0       0       0       0       0       0       0       0       0       0
      Locals:         0       0       0       0       0       0       0       0       0       0       0       0       0       0       0       0       0
      Temps:          0       0       0       0       0       0       0       0       0       0       0       0       0       0       0       0       0
      Totals:         0       3       0       0       0       0       0       0       0       0       0       0       0       0       0       0       0
Total ram usage:        3 bytes
 Hardware stack levels used:    1
 Hardware stack levels required when called:   12
 This function calls:
		_EUSART1_Write
		_TMR0_GetRegValues
		_TMR0_StartTimer
		_TMR0_StopTimer
 This function is called by:
		_Mech_Buttons_Get_Port
		_CTMU_ButtonEvaluation
 This function uses a non-reentrant model


 *************** function _CTMU_Print *****************
 Defined at:
		line 623 in file "CTMU.c"
 Parameters:    Size  Location     Type
		None
 Auto vars:     Size  Location     Type
  j               1   45[BANK0 ] unsigned char 
  i               1   44[BANK0 ] unsigned char 
 Return value:  Size  Location     Type
                  1    wreg      void 
 Registers used:
		wreg, fsr2l, fsr2h, status,2, status,0, tblptrl, tblptrh, tblptru, prodl, prodh, cstack
 Tracked objects:
		On entry : 
		On exit  : 
		Unchanged: 
 Data sizes:     COMRAM   BANK0   BANK1   BANK2   BANK3   BANK4   BANK5   BANK6   BANK7   BANK8   BANK9  BANK10  BANK11  BANK12  BANK13  BANK14  BANK15
      Params:         0       0       0       0       0       0       0       0       0       0       0       0       0       0       0       0       0
      Locals:         0       2       0       0       0       0       0       0       0       0       0       0       0       0       0       0       0
      Temps:          0       4       0       0       0       0       0       0       0       0       0       0       0       0       0       0       0
      Totals:         0       6       0       0       0       0       0       0       0       0       0       0       0       0       0       0       0
Total ram usage:        6 bytes
 Hardware stack levels used:    1
 Hardware stack levels required when called:   13
 This function calls:
		_printf
 This function is called by:
		_CTMU_ButtonEvaluation
 This function uses a non-reentrant model


 *************** function _CTMU_ChannelEvaluation *****************
 Defined at:
		line 503 in file "CTMU.c"
 Parameters:    Size  Location     Type
  channel         1    wreg     unsigned char 
 Auto vars:     Size  Location     Type
  channel         1  104[BANK0 ] unsigned char 
  Vread_med       4  100[BANK0 ] float 
  Vsum            4   91[BANK0 ] unsigned long 
  delta_stop_t    2   98[BANK0 ] short 
  Vread           2   95[BANK0 ] unsigned short 
  num_element     2   89[BANK0 ] unsigned short 
  i               2   87[BANK0 ] unsigned short 
  ok_button_pr    1   97[BANK0 ] unsigned char 
 Return value:  Size  Location     Type
                  1    wreg      unsigned char 
 Registers used:
		wreg, fsr2l, fsr2h, status,2, status,0, prodl, prodh, cstack
 Tracked objects:
		On entry : 
		On exit  : 
		Unchanged: 
 Data sizes:     COMRAM   BANK0   BANK1   BANK2   BANK3   BANK4   BANK5   BANK6   BANK7   BANK8   BANK9  BANK10  BANK11  BANK12  BANK13  BANK14  BANK15
      Params:         0       0       0       0       0       0       0       0       0       0       0       0       0       0       0       0       0
      Locals:         0      18       0       0       0       0       0       0       0       0       0       0       0       0       0       0       0
      Temps:          0       2       0       0       0       0       0       0       0       0       0       0       0       0       0       0       0
      Totals:         0      20       0       0       0       0       0       0       0       0       0       0       0       0       0       0       0
Total ram usage:       20 bytes
 Hardware stack levels used:    1
 Hardware stack levels required when called:   13
 This function calls:
		_ADC_SelectChannel
		_CTMU_ChannelProximity
		_CTMU_GetVoltage
		___flsub
		___fltol
		___lldiv
		___wmul
		___xxtofl
 This function is called by:
		_CTMU_ButtonEvaluation
 This function uses a non-reentrant model


 *************** function ___flsub *****************
 Defined at:
		line 245 in file "C:\Program Files (x86)\Microchip\xc8\v2.05\pic\sources\c90\common\sprcadd.c"
 Parameters:    Size  Location     Type
  b               4   53[BANK0 ] unsigned char 
  a               4   57[BANK0 ] unsigned char 
 Auto vars:     Size  Location     Type
		None
 Return value:  Size  Location     Type
                  4   53[BANK0 ] unsigned char 
 Registers used:
		wreg, status,2, status,0, cstack
 Tracked objects:
		On entry : 
		On exit  : 
		Unchanged: 
 Data sizes:     COMRAM   BANK0   BANK1   BANK2   BANK3   BANK4   BANK5   BANK6   BANK7   BANK8   BANK9  BANK10  BANK11  BANK12  BANK13  BANK14  BANK15
      Params:         0       8       0       0       0       0       0       0       0       0       0       0       0       0       0       0       0
      Locals:         0       0       0       0       0       0       0       0       0       0       0       0       0       0       0       0       0
      Temps:          0       0       0       0       0       0       0       0       0       0       0       0       0       0       0       0       0
      Totals:         0       8       0       0       0       0       0       0       0       0       0       0       0       0       0       0       0
Total ram usage:        8 bytes
 Hardware stack levels used:    1
 Hardware stack levels required when called:   11
 This function calls:
		___fladd
 This function is called by:
		_CTMU_ChannelEvaluation
 This function uses a non-reentrant model


 *************** function ___fladd *****************
 Defined at:
		line 10 in file "C:\Program Files (x86)\Microchip\xc8\v2.05\pic\sources\c90\common\sprcadd.c"
 Parameters:    Size  Location     Type
  b               4   37[BANK0 ] unsigned char 
  a               4   41[BANK0 ] unsigned char 
 Auto vars:     Size  Location     Type
  grs             1   52[BANK0 ] unsigned char 
  bexp            1   51[BANK0 ] unsigned char 
  aexp            1   50[BANK0 ] unsigned char 
  signs           1   49[BANK0 ] unsigned char 
 Return value:  Size  Location     Type
                  4   37[BANK0 ] unsigned char 
 Registers used:
		wreg, status,2, status,0
 Tracked objects:
		On entry : 
		On exit  : 
		Unchanged: 
 Data sizes:     COMRAM   BANK0   BANK1   BANK2   BANK3   BANK4   BANK5   BANK6   BANK7   BANK8   BANK9  BANK10  BANK11  BANK12  BANK13  BANK14  BANK15
      Params:         0       8       0       0       0       0       0       0       0       0       0       0       0       0       0       0       0
      Locals:         0       4       0       0       0       0       0       0       0       0       0       0       0       0       0       0       0
      Temps:          0       4       0       0       0       0       0       0       0       0       0       0       0       0       0       0       0
      Totals:         0      16       0       0       0       0       0       0       0       0       0       0       0       0       0       0       0
Total ram usage:       16 bytes
 Hardware stack levels used:    1
 Hardware stack levels required when called:   10
 This function calls:
		Nothing
 This function is called by:
		_CTMU_ButtonEvaluation
		___flsub
 This function uses a non-reentrant model


 *************** function _CTMU_ChannelProximity *****************
 Defined at:
		line 473 in file "CTMU.c"
 Parameters:    Size  Location     Type
  channel         1    wreg     unsigned char 
  Vread           2   71[BANK0 ] unsigned short 
 Auto vars:     Size  Location     Type
  channel         1   84[BANK0 ] unsigned char 
  Vadc_L          2   81[BANK0 ] unsigned short 
  Vadc_H          2   79[BANK0 ] unsigned short 
  button_press    1   83[BANK0 ] unsigned char 
  i               1    0        unsigned char 
 Return value:  Size  Location     Type
                  1    wreg      unsigned char 
 Registers used:
		wreg, fsr2l, fsr2h, status,2, status,0, prodl, prodh
 Tracked objects:
		On entry : 
		On exit  : 
		Unchanged: 
 Data sizes:     COMRAM   BANK0   BANK1   BANK2   BANK3   BANK4   BANK5   BANK6   BANK7   BANK8   BANK9  BANK10  BANK11  BANK12  BANK13  BANK14  BANK15
      Params:         0       2       0       0       0       0       0       0       0       0       0       0       0       0       0       0       0
      Locals:         0       6       0       0       0       0       0       0       0       0       0       0       0       0       0       0       0
      Temps:          0       6       0       0       0       0       0       0       0       0       0       0       0       0       0       0       0
      Totals:         0      14       0       0       0       0       0       0       0       0       0       0       0       0       0       0       0
Total ram usage:       14 bytes
 Hardware stack levels used:    1
 Hardware stack levels required when called:   10
 This function calls:
		Nothing
 This function is called by:
		_CTMU_ChannelEvaluation
 This function uses a non-reentrant model


 *************** function _CTMU_Acquisition *****************
 Defined at:
		line 598 in file "CTMU.c"
 Parameters:    Size  Location     Type
		None
 Auto vars:     Size  Location     Type
  i               1  107[BANK0 ] unsigned char 
 Return value:  Size  Location     Type
                  1    wreg      void 
 Registers used:
		wreg, fsr2l, fsr2h, status,2, status,0, tblptrl, tblptrh, tblptru, prodl, prodh, cstack
 Tracked objects:
		On entry : 
		On exit  : 
		Unchanged: 
 Data sizes:     COMRAM   BANK0   BANK1   BANK2   BANK3   BANK4   BANK5   BANK6   BANK7   BANK8   BANK9  BANK10  BANK11  BANK12  BANK13  BANK14  BANK15
      Params:         0       0       0       0       0       0       0       0       0       0       0       0       0       0       0       0       0
      Locals:         0       1       0       0       0       0       0       0       0       0       0       0       0       0       0       0       0
      Temps:          0       0       0       0       0       0       0       0       0       0       0       0       0       0       0       0       0
      Totals:         0       1       0       0       0       0       0       0       0       0       0       0       0       0       0       0       0
Total ram usage:        1 bytes
 Hardware stack levels used:    1
 Hardware stack levels required when called:   14
 This function calls:
		_CTMU_ChannelCalibs
		_CTMU_WriteMatrixEE
		_EUSART1_Write
 This function is called by:
		_main
 This function uses a non-reentrant model


 *************** function _CTMU_WriteMatrixEE *****************
 Defined at:
		line 834 in file "CTMU.c"
 Parameters:    Size  Location     Type
		None
 Auto vars:     Size  Location     Type
  count_add       2   48[BANK0 ] unsigned short 
  j               1   52[BANK0 ] unsigned char 
  i               1   51[BANK0 ] unsigned char 
  val_mem         1   50[BANK0 ] unsigned char 
 Return value:  Size  Location     Type
                  1    wreg      void 
 Registers used:
		wreg, fsr2l, fsr2h, status,2, status,0, tblptrl, tblptrh, tblptru, prodl, prodh, cstack
 Tracked objects:
		On entry : 
		On exit  : 
		Unchanged: 
 Data sizes:     COMRAM   BANK0   BANK1   BANK2   BANK3   BANK4   BANK5   BANK6   BANK7   BANK8   BANK9  BANK10  BANK11  BANK12  BANK13  BANK14  BANK15
      Params:         0       0       0       0       0       0       0       0       0       0       0       0       0       0       0       0       0
      Locals:         0       5       0       0       0       0       0       0       0       0       0       0       0       0       0       0       0
      Temps:          0       8       0       0       0       0       0       0       0       0       0       0       0       0       0       0       0
      Totals:         0      13       0       0       0       0       0       0       0       0       0       0       0       0       0       0       0
Total ram usage:       13 bytes
 Hardware stack levels used:    1
 Hardware stack levels required when called:   13
 This function calls:
		_DATAEE_WriteByte
		_printf
 This function is called by:
		_CTMU_Acquisition
 This function uses a non-reentrant model


 *************** function _printf *****************
 Defined at:
		line 472 in file "C:\Program Files (x86)\Microchip\xc8\v2.05\pic\sources\c90\common\doprnt.c"
 Parameters:    Size  Location     Type
  f               2   28[BANK0 ] PTR const unsigned char 
		 -> STR_12(3), STR_11(4), STR_10(5), STR_9(8), 
		 -> STR_8(3), STR_7(4), STR_6(4), STR_5(3), 
		 -> STR_4(4), STR_3(3), STR_2(4), STR_1(3), 
 Auto vars:     Size  Location     Type
  tmpval          4    0        struct .
  cp              3    0        PTR const unsigned char 
  val             2   37[BANK0 ] unsigned int 
  ap              2   34[BANK0 ] PTR void [1]
		 -> ?_printf(2), 
  len             2    0        unsigned int 
  c               1   39[BANK0 ] unsigned char 
  flag            1   36[BANK0 ] unsigned char 
  prec            1   33[BANK0 ] char 
 Return value:  Size  Location     Type
                  2   28[BANK0 ] int 
 Registers used:
		wreg, fsr2l, fsr2h, status,2, status,0, tblptrl, tblptrh, tblptru, prodl, prodh, cstack
 Tracked objects:
		On entry : 
		On exit  : 
		Unchanged: 
 Data sizes:     COMRAM   BANK0   BANK1   BANK2   BANK3   BANK4   BANK5   BANK6   BANK7   BANK8   BANK9  BANK10  BANK11  BANK12  BANK13  BANK14  BANK15
      Params:         0       4       0       0       0       0       0       0       0       0       0       0       0       0       0       0       0
      Locals:         0       7       0       0       0       0       0       0       0       0       0       0       0       0       0       0       0
      Temps:          0       1       0       0       0       0       0       0       0       0       0       0       0       0       0       0       0
      Totals:         0      12       0       0       0       0       0       0       0       0       0       0       0       0       0       0       0
Total ram usage:       12 bytes
 Hardware stack levels used:    1
 Hardware stack levels required when called:   12
 This function calls:
		___lwdiv
		___lwmod
		_putch
 This function is called by:
		_CTMU_Print
		_CTMU_ButtonEvaluation
		_CTMU_WriteMatrixEE
		_PrintMatrix
		_PrintArray
 This function uses a non-reentrant model


 *************** function _putch *****************
 Defined at:
		line 192 in file "mcc_generated_files/eusart1.c"
 Parameters:    Size  Location     Type
  txData          1    wreg     unsigned char 
 Auto vars:     Size  Location     Type
  txData          1   11[BANK0 ] unsigned char 
 Return value:  Size  Location     Type
                  1    wreg      void 
 Registers used:
		wreg, status,2, cstack
 Tracked objects:
		On entry : 
		On exit  : 
		Unchanged: 
 Data sizes:     COMRAM   BANK0   BANK1   BANK2   BANK3   BANK4   BANK5   BANK6   BANK7   BANK8   BANK9  BANK10  BANK11  BANK12  BANK13  BANK14  BANK15
      Params:         0       0       0       0       0       0       0       0       0       0       0       0       0       0       0       0       0
      Locals:         0       1       0       0       0       0       0       0       0       0       0       0       0       0       0       0       0
      Temps:          0       0       0       0       0       0       0       0       0       0       0       0       0       0       0       0       0
      Totals:         0       1       0       0       0       0       0       0       0       0       0       0       0       0       0       0       0
Total ram usage:        1 bytes
 Hardware stack levels used:    1
 Hardware stack levels required when called:   11
 This function calls:
		_EUSART1_Write
 This function is called by:
		_printf
 This function uses a non-reentrant model


 *************** function _EUSART1_Write *****************
 Defined at:
		line 163 in file "mcc_generated_files/eusart1.c"
 Parameters:    Size  Location     Type
  txData          1    wreg     unsigned char 
 Auto vars:     Size  Location     Type
  txData          1   10[BANK0 ] unsigned char 
 Return value:  Size  Location     Type
                  1    wreg      void 
 Registers used:
		wreg
 Tracked objects:
		On entry : 
		On exit  : 
		Unchanged: 
 Data sizes:     COMRAM   BANK0   BANK1   BANK2   BANK3   BANK4   BANK5   BANK6   BANK7   BANK8   BANK9  BANK10  BANK11  BANK12  BANK13  BANK14  BANK15
      Params:         0       0       0       0       0       0       0       0       0       0       0       0       0       0       0       0       0
      Locals:         0       1       0       0       0       0       0       0       0       0       0       0       0       0       0       0       0
      Temps:          0       0       0       0       0       0       0       0       0       0       0       0       0       0       0       0       0
      Totals:         0       1       0       0       0       0       0       0       0       0       0       0       0       0       0       0       0
Total ram usage:        1 bytes
 Hardware stack levels used:    1
 Hardware stack levels required when called:   10
 This function calls:
		Nothing
 This function is called by:
		_EUSART1_BufferWrite
		_putch
		_CTMU_Acquisition
		_Capsense_Print
 This function uses a non-reentrant model


 *************** function ___lwmod *****************
 Defined at:
		line 7 in file "C:\Program Files (x86)\Microchip\xc8\v2.05\pic\sources\c90\common\lwmod.c"
 Parameters:    Size  Location     Type
  dividend        2   23[BANK0 ] unsigned int 
  divisor         2   25[BANK0 ] unsigned int 
 Auto vars:     Size  Location     Type
  counter         1   27[BANK0 ] unsigned char 
 Return value:  Size  Location     Type
                  2   23[BANK0 ] unsigned int 
 Registers used:
		wreg, status,2, status,0
 Tracked objects:
		On entry : 
		On exit  : 
		Unchanged: 
 Data sizes:     COMRAM   BANK0   BANK1   BANK2   BANK3   BANK4   BANK5   BANK6   BANK7   BANK8   BANK9  BANK10  BANK11  BANK12  BANK13  BANK14  BANK15
      Params:         0       4       0       0       0       0       0       0       0       0       0       0       0       0       0       0       0
      Locals:         0       1       0       0       0       0       0       0       0       0       0       0       0       0       0       0       0
      Temps:          0       0       0       0       0       0       0       0       0       0       0       0       0       0       0       0       0
      Totals:         0       5       0       0       0       0       0       0       0       0       0       0       0       0       0       0       0
Total ram usage:        5 bytes
 Hardware stack levels used:    1
 Hardware stack levels required when called:   10
 This function calls:
		Nothing
 This function is called by:
		_CTMU_ButtonEvaluation
		_printf
 This function uses a non-reentrant model


 *************** function _DATAEE_WriteByte *****************
 Defined at:
		line 176 in file "mcc_generated_files/memory.c"
 Parameters:    Size  Location     Type
  bAdd            2   10[BANK0 ] unsigned short 
  bData           1   12[BANK0 ] unsigned char 
 Auto vars:     Size  Location     Type
  GIEBitValue     1   13[BANK0 ] unsigned char 
 Return value:  Size  Location     Type
                  1    wreg      void 
 Registers used:
		wreg, status,2, status,0
 Tracked objects:
		On entry : 
		On exit  : 
		Unchanged: 
 Data sizes:     COMRAM   BANK0   BANK1   BANK2   BANK3   BANK4   BANK5   BANK6   BANK7   BANK8   BANK9  BANK10  BANK11  BANK12  BANK13  BANK14  BANK15
      Params:         0       3       0       0       0       0       0       0       0       0       0       0       0       0       0       0       0
      Locals:         0       1       0       0       0       0       0       0       0       0       0       0       0       0       0       0       0
      Temps:          0       0       0       0       0       0       0       0       0       0       0       0       0       0       0       0       0
      Totals:         0       4       0       0       0       0       0       0       0       0       0       0       0       0       0       0       0
Total ram usage:        4 bytes
 Hardware stack levels used:    1
 Hardware stack levels required when called:   10
 This function calls:
		Nothing
 This function is called by:
		_CTMU_WriteMatrixEE
 This function uses a non-reentrant model


 *************** function _CTMU_ChannelCalibs *****************
 Defined at:
		line 320 in file "CTMU.c"
 Parameters:    Size  Location     Type
  buttons         2   71[BANK0 ] PTR unsigned int 
		 -> buttons(24), 
  channel         1   73[BANK0 ] unsigned char 
 Auto vars:     Size  Location     Type
  Vread_med       4   98[BANK0 ] float 
  Vsum            4   89[BANK0 ] unsigned long 
  VadcLimL        4   81[BANK0 ] float 
  VadcLimH        4   77[BANK0 ] float 
  delay           2  105[BANK0 ] unsigned short 
  i               2  102[BANK0 ] unsigned short 
  var             2   96[BANK0 ] int 
  iTrim           2   93[BANK0 ] short 
  Vread           2   87[BANK0 ] unsigned short 
  num_element     2   85[BANK0 ] unsigned short 
  calib_ok        1  104[BANK0 ] unsigned char 
  current         1   95[BANK0 ] unsigned char 
 Return value:  Size  Location     Type
