:020000040000FA
:040000002EEF00F0EF
:060008005F8289EF24F085
:100018005F80D8CF65F0E8CF66F0E0CF67F0D9CF42
:1000280068F0DACF69F0A3BEA4AE03D067EC19F08C
:1000380005D0A3BCA4AC02D0DCEC2CF069C0DAFF7C
:1000480068C0D9FF67C0E0FF66C0E8FF65C0D8FF99
:080058005F901000DAEF25F0C3
:101000000001000A006400E80310270A20202020C5
:10101000200D001B5B324A00256909001B5B48005C
:1010200025750900257520000A0D0000780E416E17
:101030003DEC2AF0426EF2EF0CF0010E596F000EFB
:10104000576F57C158F158C152F052C053F0000EBB
:10105000566F000E566E000E0001D16F000E556ED9
:10106000000E546E000E01015D6F1200080E596FE4
:10107000000E576F57C158F158C152F052C053F08B
:10108000000E566F000E566E000E0001D16F000E5E
:10109000556E000E546E000E01015D6F12000A0EB7
:1010A000596F000E576F57C158F158C152F052C0D6
:1010B00053F0000E566F000E566E000E0001D16FF9
:1010C000000E556E000E546E000E01015D6F120091
:1010D000010E596F000E576F57C158F158C152F0A9
:1010E00052C053F0010E566E000E0001D16F000E7B
:1010F000556E000E546E000E0101566F000E5D6FAE
:101100001200D7EC2BF012000DEC23F0120050EC83
:1011100020F012000B0E596F000E576F57C158F197
:1011200058C152F052C053F0000E566F000E566E6A
:10113000000E0001D16F000E556E000E546E000EB1
:1011400001015D6F120056EC21F012000E0E596F76
:10115000000E576F57C158F158C152F052C053F0AA
:10116000000E566E000E0001D16F000E556E000E7F
:10117000546E000E01015D6F000E566F12000F0ECF
:10118000596F000E576F57C158F158C152F052C0F5
:1011900053F0000E566E000E0001D16F000E556E1A
:1011A000000E546E000E01015D6F000E566F1200AE
:1011B000100E596F000E576F57C158F158C152F0B9
:1011C00052C053F0000E566E000E0001D16F000E9B
:1011D000556E000E546E000E01015D6F000E566FCD
:1011E00012000B0E596F000E576F57C158F158C1BE
:1011F00052F052C053F0000E566E000E0001D16F37
:10120000000E556E010E546E000E01015D6F000E52
:10121000566F1200FEEC29F0000E0101596F000E0E
:10122000576F57C158F158C152F052C053F0000ED9
:10123000566E000E0001D16F000E556E000E546EFA
:10124000000E01015D6F000E566F1200000E596F07
:10125000000E576F57C158F158C152F052C053F0A9
:10126000000E566E000E0001D16F000E556E000E7E
:10127000546E000E01015D6F000E566F1200425059
:101280003F0AD8B4C7D77C0AD8B479D7040AD8B4EF
:10129000D4D60D0AD8B457D7010AD8B438D7060A1D
:1012A000D8B454D7030AD8B4E1D61F0AD8B42CD77F
:1012B000030AD8B426D7010AD8B4F1D6070AD8B49D
:1012C00029D7020AD8B404D7010AD8B48AD70D0A9C
:1012D000D8B46ED7BBD7300E4218D8B43CD0310E3C
:1012E0004218D8B438D0320E4218D8B434D0330EA5
:1012F0004218D8B430D0340E4218D8B42CD0350EA1
:101300004218D8B428D0360E4218D8B424D0370E9C
:101310004218D8B420D0380E4218D8B41CD0390E98
:101320004218D8B418D0410E4218D8B414D0420E86
:101330004218D8B410D0430E4218D8B40CD0440E82
:101340004218D8B408D0450E4218D8B404D0460E7E
:101350004218D8A405D042C053F0020E596F1200B3
:10136000550E4218D8A423D0000E596F8B94000E4E
:10137000596F000E576F57C158F158C152F052C003
:1013800053F0000E566F000E566E000E0001D16F26
:10139000000E556E000ED36F000ED26F000E0101CD
:1013A0005E6F000E576E000E0001D56F12005A0ED0
:1013B0004218D8A423D0000E596F8B84000E596FA9
:1013C000000E576F57C158F158C152F052C053F038
:1013D000000E566F000E0001D36F000ED26F000E8C
:1013E00001015E6F000E576E000E0001D56F000EFA
:1013F000566E000ED16F000E556E1200000E596F22
:10140000000E576F57C158F158C152F052C053F0F7
:10141000000E566E000E0001D16F000E556E000ECC
:101420000101566F1200300E4218D8B43CD0310E74
:101430004218D8B438D0320E4218D8B434D0330E53
:101440004218D8B430D0340E4218D8B42CD0350E4F
:101450004218D8B428D0360E4218D8B424D0370E4B
:101460004218D8B420D0380E4218D8B41CD0390E47
:101470004218D8B418D0410E4218D8B414D0420E35
:101480004218D8B410D0430E4218D8B40CD0440E31
:101490004218D8B408D0450E4218D8B404D0460E2D
:1014A0004218D8A4ABD742C052F05650D8B41ED080
:1014B00052C001F0535012EC2CF0576E600E000138
:1014C000D125D96EDA6A010EDA2257C0DFFFD12B9F
:1014D000090ED16507D0040E0101596F790E000184
:1014E000D36F1200010E0101596F1200030E596FE4
:1014F0001200690E4218D8B414D06C0E4218D8B439
:1015000010D06D0E4218D8B40CD0700E4218D8B45A
:1015100008D0710E4218D8B404D06F0E4218D8A467
:1015200005D042C0D3F0040E596F1200000E596F5F
:10153000000E576F57C158F158C152F052C053F0C6
:10154000000E566F000E566E000E0001D16F000E99
:10155000556E000ED36F1200300E4218D8B404D06E
:10156000310E4218D8A406D042C0D2F0050E0101B7
:10157000596F1200000E596F000E576F57C158F186
:1015800058C152F052C053F0000E566F000E566E06
:10159000000E0001D16F000E556E000ED36F000ECD
:1015A000D26F12005650D8B404D0010E01015E6F04
:1015B00038D0090E55641DD00C51D8B432D00D0E60
:1015C0000C612FD00DC113F00EC114F00FC115F036
:1015D00010C116F011C117F012C118F0196A13C129
:1015E0001AF014C11BF015C11CF00C51BDEC1FF01A
:1015F00018D05450D8A415D057C101F0585112EC4E
:101600002CF0576E52C001F0535012EC2CF0000138
:10161000D56F56C101F0000E12EC2CF00001D46F12
:10162000C4D7000E0101596F000E556E000E576FA2
:1016300057C158F158C152F052C053F004D6000EB1
:10164000596F000E576F57C158F158C152F052C030
:1016500053F0000E566F000E566E000E0001D16F53
:10166000000E556E000ED36F000ED26F000E0101FA
:101670005E6F12004250480AD8B494D7E0D7300EBB
:101680004218D8B43CD0310E4218D8B438D0320EFB
:101690004218D8B434D0330E4218D8B430D0340EF7
:1016A0004218D8B42CD0350E4218D8B428D0360EF3
:1016B0004218D8B424D0370E4218D8B420D0380EEF
:1016C0004218D8B41CD0390E4218D8B418D0410EE4
:1016D0004218D8B414D0420E4218D8B410D0430ED9
:1016E0004218D8B40CD0440E4218D8B408D0450ED5
:1016F0004218D8B404D0460E4218D8A47FD642C0AF
:1017000058F1090E596F1200300E4218D8B43CD06F
:10171000310E4218D8B438D0320E4218D8B434D072
:10172000330E4218D8B430D0340E4218D8B42CD06E
:10173000350E4218D8B428D0360E4218D8B424D06A
:10174000370E4218D8B420D0380E4218D8B41CD066
:10175000390E4218D8B418D0410E4218D8B414D05B
:10176000420E4218D8B410D0430E4218D8B40CD050
:10177000440E4218D8B408D0450E4218D8B404D04C
:10178000460E4218D8A43AD642C057F1ABD6300E16
:101790004218D8B43CD0310E4218D8B438D0320EEA
:1017A0004218D8B434D0330E4218D8B430D0340EE6
:1017B0004218D8B42CD0350E4218D8B428D0360EE2
:1017C0004218D8B424D0370E4218D8B420D0380EDE
:1017D0004218D8B41CD0390E4218D8B418D0410ED3
:1017E0004218D8B414D0420E4218D8B410D0430EC8
:1017F0004218D8B40CD0440E4218D8B408D0450EC4
:101800004218D8B404D0460E4218D8A4F7D542C026
:1018100056F1080E596F1200300E4218D8B43CD061
:10182000310E4218D8B438D0320E4218D8B434D061
:10183000330E4218D8B430D0340E4218D8B42CD05D
:10184000350E4218D8B428D0360E4218D8B424D059
:10185000370E4218D8B420D0380E4218D8B41CD055
:10186000390E4218D8B418D0410E4218D8B414D04A
:10187000420E4218D8B410D0430E4218D8B40CD03F
:10188000440E4218D8B408D0450E4218D8B404D03B
:10189000460E4218D8A4B2D542C053F00C0E596F70
:1018A0001200300E4218D8B43CD0310E4218D8B4D1
:1018B00038D0320E4218D8B434D0330E4218D8B4CF
:1018C00030D0340E4218D8B42CD0350E4218D8B4CB
:1018D00028D0360E4218D8B424D0370E4218D8B4C7
:1018E00020D0380E4218D8B41CD0390E4218D8B4C3
:1018F00018D0410E4218D8B414D0420E4218D8B4B1
:1019000010D0430E4218D8B40CD0440E4218D8B4AC
:1019100008D0450E4218D8B404D0460E4218D8A4B8
:101920006DD542C052F05450D8B408D052C001F026
:10193000535012EC2CF001015D6F0DD00C0E5524AC
:10194000D96EDA6A010EDA2252C001F0535012EC5D
:101950002CF0DF6E552A080E556404D00D0E0101DF
:10196000596F12005450D8A401D60B0E0101596FC3
:101970001200300E4218D8B404D0310E4218D8A448
:101980003DD50C0E5524D96EDA6A010EDA2242C01A
:10199000DFFF552AEBD5610E4218D8B408D0620E8D
:1019A0004218D8B404D0330E4218D8A427D542C068
:1019B000EAF0000E596F1200300E4218D8B404D06D
:1019C000310E4218D8A41AD542C0D2F1F2D7300E47
:1019D0004218D8B404D0310E4218D8A40FD542C052
:1019E000D1F1E7D701015951000AD8B448D4010A0E
:1019F000D8B471D4030AD8B416D5010AD8B479D5AD
:101A0000070AD8B4A9D5010AD8B434D6030AD8B481
:101A10001200010AD8B412000F0AD8B430D6010A55
:101A2000D8B472D6030AD8B4B2D6010AD8B4F4D660
:101A3000070AD8B436D7010AD8B49BD7030AD8B45A
:101A4000AAD7010AD8B4B8D71F0AD8A41200BFD7A2
:101A500021EEEBF00B0EDE6AE806FDE2000E01015E
:101A6000FB6F120EFE6F180E35250001776F000E0A
:101A7000010136210001786F000E7A6F190E796F1F
:101A800058EC29F077C0CBF178C0CCF1000E010101
:101A9000FF6F000EF76F000EF86F000EF96F000E6B
:101AA000FA6F000EFD6FFD51020DF3CFC9F0F4CFB8
:101AB000CAF0FF51320DB10E0001CB6F020ECC6F98
:101AC000F350CB27F450CC23C951CB25D96ECA5142
:101AD000CC21DA6EDECFCDF0DDCFCEF0CDC077F009
:101AE000CEC078F0796B7A6B000E7BEC1EF077C07D
:101AF00085F078C086F079C087F07AC088F0F7C1A9
:101B000089F0F8C18AF0F9C18BF0FAC18CF0ECECE5
:101B100013F085C0F7F186C0F8F187C0F9F188C0ED
:101B2000FAF10101FD2B180EFD65BDD7000E000175
:101B30006E6F000E6F6FC80E706F410E716FF7C140
:101B40006AF0F8C16BF0F9C16CF0FAC16DF022ECEB
:101B500018F06AC09DF06BC09EF06CC09FF06DC025
:101B6000A0F071EC23F00101FF51160D170EF324C4
:101B7000D96E050EF420DA6E00019DC0DEFF9EC016
:101B8000DDFF0101FF5173EC15F00101FC6FEB0E5D
:101B9000FF25D96EDA6A010EDA22FCC1DFFFFC51A3
:101BA0000001C96FCA6B0101FF51160D1D0EF32410
:101BB000D96E050EF420DA6EC9C0DEFFCAC0DDFFA3
:101BC000FB51D8A402D0010E01D0000EFC15000973
:101BD000D8B4C6D0010EFB6FFF51D8A40DD00001C0
:101BE000E1510109E16FFF0E7A6FFF0E7B6F090E65
:101BF00095EC27F0090E85D0FF05D8A40DD0000183
:101C0000E1510209E16FFF0E7A6FFF0E7B6F020E4A
:101C100095EC27F0020E75D0020EFF19D8A40DD056
:101C20000001E1510409E16FFF0E7A6FFF0E7B6F37
:101C3000010E95EC27F0010E64D0030EFF19D8A415
:101C40000DD00001E1510809E16FFF0E7A6FFF0E20
:101C50007B6F030E95EC27F0030E53D0040EFF1993
:101C6000D8A40CD00001E1511009E16FFF0E7A6F8A
:101C7000FF0E7B6F030E95EC27F0EED7050EFF19D4
:101C8000D8A40DD00001E1512009E16FFF0E7A6F59
:101C9000FF0E7B6F040E95EC27F0040E32D0060E7B
:101CA000FF19D8A40DD00001E1514009E16FFF0EEA
:101CB0007A6FFF0E7B6F050E95EC27F0050E21D095
:101CC000070EFF19D8A40DD00001E1518009E16F82
:101CD000FF0E7A6FFF0E7B6F080E95EC27F0080E53
:101CE00010D0080EFF19D8A40FD00001E05101094F
:101CF000E06FFF0E7A6FFF0E7B6F060E95EC27F0FC
:101D0000060E0101FE6F95D0090EFF19D8A40CD064
:101D10000001E0510209E06FFF0E7A6FFF0E7B6F4A
:101D2000060E95EC27F0ECD70A0EFF19D8A40CD0BC
:101D30000001E0510409E06FFF0E7A6FFF0E7B6F28
:101D4000090E95EC27F056D70001E0510809E06F25
:101D5000FF0E7A6FFF0E7B6F090E95EC27F04AD7C6
:101D6000FF51D8A404D00001E151FE0B36D0FF058D
:101D7000D8A404D00001E151FD0B2FD0020EFF19B1
:101D8000D8A404D00001E151FB0B27D0030EFF19AA
:101D9000D8A404D00001E151F70B1FD0040EFF19A5
:101DA000D8A404D00001E151EF0B17D0050EFF19A4
:101DB000D8A404D00001E151DF0B0FD0060EFF19AB
:101DC000D8A404D00001E151BF0B07D0070EFF19C2
:101DD000D8A405D00001E1517F0BE16F1CD0080EA3
:101DE000FF19D8A404D00001E051FE0B13D0090E56
:101DF000FF19D8A404D00001E051FD0B0BD00A0E4E
:101E0000FF19D8A404D00001E051FB0B03D000015E
:101E1000E051F70BE06F0101FF51FE19D8B409D072
:101E2000000E00017A6F000E7B6F0101FF5195ECEF
:101E300027F00101FF2B0B0EFF652BD6010E352578
:101E40000001776F000E010136210001786F000E4E
:101E50007A6F190E796F58EC29F077C035F178C098
:101E600036F1310E0101D219D8A41FD0FB05D8A438
:101E70001CD0410E0001DD6F430EDE6F0C0EDF6FD4
:101E8000DE51DF25E125E025DD25200FE26FDD0EA7
:101E90000101416F000E426F41C178F042C179F0FB
:101EA000060E00017A6F3BEC28F0310E0101D119CA
:101EB000D8A412003DEC22F0130E0001CA6F440EAC
:101EC000C96F440EE82EFED7C92FFCD7CA2FFAD708
:101ED00000F0130E00017C6F100E7D6F74EC1CF08F
:101EE0001C0E00017C6F100E7D6F74EC1CF0120054
:101EF000000E0001C86F000EB96F000EBA6F000E21
:101F0000BB6F000EBC6FA951160D190EF324D96ECC
:101F1000050EF420DA6EDECF6AF0DDCF6BF0000E36
:101F20006D6F0A0E6C6FC3EC2BF000016AC077F086
:101F30006BC078F0796B7A6B000E7BEC1EF077C08B
:101F4000ADF078C0AEF079C0AFF07AC0B0F000016B
:101F5000A951160D1B0EF324D96E050EF420DA6E6E
:101F6000DECF6AF0DDCF6BF0000E6D6F0A0E6C6F86
:101F7000C3EC2BF000016AC077F06BC078F0796B8E
:101F80007A6B000E7BEC1EF077C0B1F078C0B2F037
:101F900079C0B3F07AC0B4F00001A951020DF3CFBB
:101FA000AAF0F4CFABF0AA51A725D96EAB51A82166
:101FB000DA6EDF5044EC2CF0010E0001BF6F0F0110
:101FC00043510001BF19FC0BBF190F01436F000102
:101FD000A951020DB30EF324D96E010EF420DA6E6E
:101FE000DECFBDF0DDCFBEF0EBD0BDC0AAF03F0E1E
:101FF000AA17AA47AA470F0143510001AA19030BC8
:10200000AA190F01436F000E0001C16F000EC06FCF
:10201000000ECA6FFA0EC96FA951160D130EF324E4
:10202000D96E050EF420DA6EDECFB5F0DDCFB6F056
:10203000000EB96F000EBA6F000EBB6F000EBC6FC2
:10204000000EC76F000EC66F23D0C9C078F0CAC09B
:1020500079F00EEC27F078C0B7F079C0B8F0000145
:10206000B85104E10B0EB75DD8A00DD0B751B9251A
:10207000B96FB851BA21BA6F000EBB21BB6F000E09
:10208000BC21BC6F03D0B507D8A0B607C64BC72B81
:10209000A951160D130EF324D96E050EF420DA6E35
:1020A000DE50C65DDE50C759D8A0CFD7B5C06EF0A0
:1020B000B6C06FF0706B716BB9C06AF0BAC06BF0EC
:1020C000BBC06CF0BCC06DF024EC26F06AC077F0A9
:1020D0006BC078F06CC079F06DC07AF0000E7BECCC
:1020E0001EF077C0C2F078C0C3F079C0C4F07AC0E7
:1020F000C5F0C2C06AF0C3C06BF0C4C06CF0C5C00C
:102100006DF0ADC06EF0AEC06FF0AFC070F0B0C09B
:1021100071F0D4EC21F00001D8B017D0B1C06AF052
:10212000B2C06BF0B3C06CF0B4C06DF0C2C06EF062
:10213000C3C06FF0C4C070F0C5C071F0D4EC21F022
:102140000001D8B002D0010E01D0000EC86FC851F6
:10215000D8A431D0C0C06AF0C1C06BF099EC2BF0AC
:1021600000016AB10ED0C0C06AF0C1C06BF099EC3A
:102170002BF0020E00016A25C06F000E6B21C16FAB
:102180000ED0020EC025AA6F000EC121AB6FAA1F90
:10219000AB1FAA4BAB2BAAC0C0F0ABC0C1F0C9515A
:1021A000C025C96FCA51C121CA6FF40EC95D010EA5
:1021B000CA59D8A031D7C851D8A414D0BD4BBE2B12
:1021C000A951020D9B0EF324D96E010EF420DA6E94
:1021D000DE50BD5DBE51800AAC6FDE50800AAC5946
:1021E000D8A003D7C851D8A404D0BF2B030EBF6515
:1021F000E6D6C851D8B41200A951AA6FAB6B010E34
:10220000AA27000EAB23A951160D090EF324D96E8F
:10221000050EF420DA6EAAC0DEFFABC0DDFFA951C7
:10222000160D0B0EF324D96E050EF420DA6EC9C01C
:10223000DEFFCAC0DDFFBF51AA6FAB6BA951160DFF
:102240000D0EF324D96E050EF420DA6EAAC0DEFF5F
:10225000ABC0DDFFA951160D0F0EF324D96E050E8C
:10226000F420DA6EBDC0DEFFBEC0DDFFC2C09DF04F
:10227000C3C09EF0C4C09FF0C5C0A0F071EC23F0B5
:102280000001A951160D110EF324D96E050EF4208C
:10229000DA6E9DC0DEFF9EC0DDFFC2C09DF0C3C0F0
:1022A0009EF0C4C09FF0C5C0A0F071EC23F0000107
:1022B000A951160D170EF324D96E050EF420DA6E0F
:1022C0009DC0DEFF9EC0DDFF000EC76F000EC66F13
:1022D000C2C09DF0C3C09EF0C4C09FF0C5C0A0F0B6
:1022E00071EC23F00001A951320DB10EAA6F020E5C
:1022F000AB6FF350AA27F450AB23D890C635D96EF4
:10230000C735DA6EAA51D926AB51DA229DC0DEFF5D
:102310009EC0DDFFC64BC72BC75104E1190EC65D39
:10232000D8A0D6D7A951020D830EF324D96E010E81
:10233000F420DA6EDECF6AF0DDCF6BF0000E6D6F49
:10234000140E6C6FC3EC2BF06AC070F06BC071F0B0
:10235000000E0001736F640E726FC0EC27F0000175
:10236000A951020D830EF324D96E010EF420DA6E0A
:102370007051DE267151DD221200000E3D6E000EFE
:102380002E6E000E2F6E000E306E000E316E1E503F
:10239000160D190EF324D96E050EF420DA6EDECF79
:1023A00001F0DDCF02F0000E046E0A0E036EFFECAA
:1023B0002BF001C00EF002C00FF0106A116A000E7F
:1023C0001DEC1FF00EC022F00FC023F010C024F04F
:1023D00011C025F01E50160D1B0EF324D96E050EEC
:1023E000F420DA6EDECF01F0DDCF02F0000E046ED5
:1023F0000A0E036EFFEC2BF001C00EF002C00FF0CE
:10240000106A116A000E1DEC1FF00EC026F00FC0FE
:1024100027F010C028F011C029F01E50020DF3CF94
:102420001FF0F4CF20F01F501C24D96E20501D2027
:10243000DA6EDF5060EC2CF0010E366E0F01435166
:102440003618FC0B3618436F1E50020DB30EF324E2
:10245000D96E010EF420DA6EDECF32F0DDCF33F02C
:10246000E3D032C01FF03F0E1F161F461F460F015C
:1024700043511F18030B1F18436F000E356E000EDB
:10248000346E000E3F6EFA0E3E6E1E50160D130E89
:10249000F324D96E050EF420DA6EDECF2AF0DDCFFC
:1024A0002BF0000E2E6E000E2F6E000E306E000E02
:1024B000316E000E386E000E376E22D03EC00FF027
:1024C0003FC010F03CEC27F00FC02CF010C02DF0F6
:1024D0002D5004E10B0E2C5CD8A00DD02C502E24D6
:1024E0002E6E2D502F202F6E000E3020306E000EDD
:1024F0003120316E03D02A06D8A02B06374A382A5D
:102500001E50160D130EF324D96E050EF420DA6E4C
:10251000DE50375CDE503858D8A0D0D72AC005F03E
:102520002BC006F0076A086A2EC001F02FC002F027
:1025300030C003F031C004F066EC26F001C00EF0AC
:1025400002C00FF003C010F004C011F0000E1DEC2B
:102550001FF00EC039F00FC03AF010C03BF011C0B0
:102560003CF039C001F03AC002F03BC003F03CC07F
:1025700004F022C005F023C006F024C007F025C0F7
:1025800008F0A5EC22F0D8B016D026C001F027C084
:1025900002F028C003F029C004F039C005F03AC0A9
:1025A00006F03BC007F03CC008F0A5EC22F0D8B024
:1025B00002D0010E01D0000E3D6E3D50D8A42FD0A8
:1025C00034C001F035C002F0EBEC2BF001B00DD0BF
:1025D00034C001F035C002F0EBEC2BF0020E012408
:1025E000346E000E0220356E0ED0020E34241F6EA3
:1025F000000E3520206E1F1E201E1F4A202A1FC0DD
:1026000034F020C035F03E5034243E6E3F5035202B
:102610003F6EF40E3E5C010E3F58D8A036D73D50B9
:10262000D8A414D0324A332A1E50020D9B0EF32434
:10263000D96E010EF420DA6EDE50325C3350800A1F
:10264000216EDE50800A2158D8A00BD73D50D8A467
:1026500004D0362A030E3664F1D63D50D8B41200A9
:102660001E501F6E206A010E1F26000E20221E50D3
:10267000160D090EF324D96E050EF420DA6E1FC074
:10268000DEFF20C0DDFF1E50160D0B0EF324D96EA9
:10269000050EF420DA6E3EC0DEFF3FC0DDFF36508F
:1026A0001F6E206A1E50160D0D0EF324D96E050EF6
:1026B000F420DA6E1FC0DEFF20C0DDFF1E50160DB5
:1026C0000F0EF324D96E050EF420DA6E32C0DEFF51
:1026D00033C0DDFF39C001F03AC002F03BC003F067
:1026E0003CC004F02CEC24F01E50160D110EF32407
:1026F000D96E050EF420DA6E01C0DEFF02C0DDFFE8
:1027000039C001F03AC002F03BC003F03CC004F015
:102710002CEC24F01E50160D170EF324D96E050E66
:10272000F420DA6E01C0DEFF02C0DDFF000E386E5D
:10273000000E376E39C001F03AC002F03BC003F022
:102740003CC004F02CEC24F01E50320DB10E1F6E74
:10275000020E206EF3501F26F4502022D8903734FA
:10276000D96E3834DA6E1F50D9262050DA2201C0D3
:10277000DEFF02C0DDFF374A382A385004E1190E67
:10278000375CD8A0D7D71E50020D830EF324D96E24
:10279000010EF420DA6EDECF01F0DDCF02F0000E84
:1027A000046E140E036EFFEC2BF001C007F002C0A4
:1027B00008F0000E0A6E640E096EEAEC27F01E5057
:1027C000020D830EF324D96E010EF420DA6E075049
:1027D000DE260850DD22120000018851800B916F27
:1027E00088518825936F87BF93819351D8B40DD0BA
:1027F0009329D8A408D0000E856F000E866F000EB6
:10280000876F000E886F878F06D0000E856F000ED1
:10281000866F000E876F000E886F8C51800B926F51
:1028200091519219D8A4918D8C518C25926F8BBFA8
:1028300092819251D8B40DD09229D8A408D0000E1C
:10284000896F000E8A6F000E8B6F000E8C6F8B8F5E
:1028500006D0000E896F000E8A6F000E8B6F000E7F
:102860008C6F9351925DD8B022D091AD02D0800E82
:10287000911B93C094F092C093F094C092F085C0E5
:1028800094F089C085F094C089F086C094F08AC025
:1028900086F094C08AF087C094F08BC087F094C013
:1028A0008BF088C094F08CC088F094C08CF0000E3F
:1028B000946F935192C08DF08E6B8D5F000E8E5B86
:1028C0008EBF2CD08E5104E11A0E8D5DD8A026D07B
:1028D0008551861187118811D8B402D0010E01D01C
:1028E000000E946F000E856F000E866F000E876FCE
:1028F000000E886F92C093F015D094A105D0D890A7
:1029000094310109946F02D0D890943385B1948F9B
:1029100088358833873386338533932B9251935D83
:10292000D8A0EBD791BD28D09351D8A409D0000EE0
:10293000856F000E866F000E876F000E886F120085
:10294000895185278A5186238B5187238C5188236F
:1029500088A171D094A105D0D89094310109946FC9
:1029600002D0D890943385B1948F883588338733DB
:1029700086338533932B5FD08951855D8A51865983
:102980008B5187598851800A8D6F8C51800A8D59DF
:10299000D8B025D08551895D8D6F86518A598E6F4B
:1029A00087518B598F6F88518C59906FFF0E8D25F1
:1029B000856FFF0E8E21866FFF0E8F21876FFF0EB2
:1029C0009021886F800E911B946D9451D8A40FD0E4
:1029D000010E8527000E86238723882308D089517E
:1029E000855F8A51865B8B51875B8C51885B8551F3
:1029F000861187118811D8A41CD09451D8A419D05D
:102A0000000E856F000E866F000E876F000E886FB8
:102A10001200D890853786378737883794BF8581ED
:102A200094A102D0D88001D0D89094379351D8A4E3
:102A3000930787AFEED7000E926F94AF0BD094C080
:102A40008DF07F0E8D17D8B403D0010E926F02D097
:102A500085B1FBD79251D8B420D0010E8527000E46
:102A600086238723882388A118D085C08DF086C04F
:102A70008EF087C08FF088C090F0903590338F3300
:102A80008E338D338DC085F08EC086F08FC087F079
:102A900090C088F09329D8A4932B9329D8B403D05D
:102AA0009351D8A40DD0000E856F000E866F000ED6
:102AB000876F000E886F9351D8A402D0000E916FDB
:102AC00093A102D0878F01D0879FD8909331886FD0
:102AD00091BF888F85C085F086C086F087C087F05B
:102AE00088C088F012000001C86F000E0001C46F9A
:102AF000000EC56F000EC66F000EC76F000EC36FCD
:102B0000000EC26F000EC16FC851020DD30EF32428
:102B1000D96E010EF420DA6EDF5044EC2CF0000187
:102B2000C851160D0D0EF324D96E050EF420DA6E81
:102B3000DF50B56F0F0143510001B519FC0BB519FA
:102B40000F01436F0001C851160D0F0EF324D96E0B
:102B5000050EF420DA6EDF50B56FB547B5470F01AB
:102B600043510001B519030BB5190F01436F000E56
:102B70000001BB6F000EBC6F000EBD6F000EBE6F7C
:102B8000C851160D130EF324D96E050EF420DA6E1B
:102B9000DECFB9F0DDCFBAF0000EB86F000EB76F20
:102BA0002BD0C851160D0B0EF324D96E050EF42050
:102BB000DA6EDECF78F0DDCF79F00EEC27F078C05A
:102BC000BFF079C0C0F00001C05104E10B0EBF5D41
:102BD000D8A00DD0BF51BB25BB6FC051BC21BC6F6D
:102BE000000EBD21BD6F000EBE21BE6F03D0B90720
:102BF000D8A0BA07B74BB82BC851160D130EF32443
:102C0000D96E050EF420DA6EDE50B75DDE50B8598D
:102C1000D8A0C7D7B9C06EF0BAC06FF0706B716B37
:102C2000BBC06AF0BCC06BF0BDC06CF0BEC06DF044
:102C300024EC26F06AC077F06BC078F06CC079F0B5
:102C40006DC07AF0000E7BEC1EF077C0C4F078C047
:102C5000C5F079C0C6F07AC0C7F0C4C099F0C5C04D
:102C60009AF0C6C09BF0C7C09CF00001C851160D79
:102C7000170EF324D96E050EF420DA6EDECFB5F010
:102C8000DDCFB6F0B5C077F0B6C078F0796B7A6B6F
:102C9000000E7BEC1EF077C095F078C096F079C0FE
:102CA00097F07AC098F061EC28F095C09DF096C03E
:102CB0009EF097C09FF098C0A0F071EC23F09DC0EB
:102CC000C2F09EC0C3F00001C3AF0DD0C2C06AF015
:102CD000C3C06BF0FF0E6D6F6C69C3EC2BF06AC064
:102CE000C2F06BC0C3F00001C851020D830EF32483
:102CF000D96E010EF420DA6EDE50C25DDE50C3598B
:102D0000D8B024D0C4C09DF0C5C09EF0C6C09FF00E
:102D1000C7C0A0F071EC23F00001C851320DB10E14
:102D2000B56F020EB66FF350B527F450B623D890A6
:102D30000101CB35D96ECC35DA6E0001B551D926FB
:102D4000B651DA229DC0DEFF9EC0DDFFC4C09DF0FB
:102D5000C5C09EF0C6C09FF0C7C0A0F071EC23F0C4
:102D60009DC0A7F09EC0A8F00001C851CFEC23F091
:102D70000001C16FC4C09DF0C5C09EF0C6C09FF0E9
:102D8000C7C0A0F071EC23F00001C851160D110E60
:102D9000F324D96E050EF420DA6E9DC0DEFF9EC0CE
:102DA000DDFFC15112000001D351D8B41200D2513D
:102DB000D8B4120001015E51D8B412003AD1565075
:102DC000D8B42ED0000E7E6F600E7E25D96EDA6AE2
:102DD000010EDA22DF507D6F7D51280DF3CF39F1DE
:102DE000F4CF3AF101013A515C6F39C1D0F05CC1C6
:102DF0007AF0D0C07BF000017E5195EC27F0000EF8
:102E000001013A6F000E396F000E0001D06F000E05
:102E100001015C6F00017E2B090E7E65D5D75ED067
:102E2000690ED319D8A405D0400E7A6FD35196EC11
:102E30002AF06C0E0001D319D8A405D0400E7A6F89
:102E4000D35179EC2AF06D0E0001D319D8A405D026
:102E5000400E7A6FD3515CEC2AF0700E0001D3194A
:102E6000D8A405D0D5C07AF0575012EC29F0710ED5
:102E70000001D319D8A405D0D5C07AF05750EFEC93
:102E800028F06F0E0001D319D8A428D0D405D8A4F7
:102E900002D0020E1BD0020ED419D8A402D0010E0B
:102EA00015D0060ED419D8A402D0080E0FD0070EE4
:102EB000D419D8A402D0060E09D0090ED419D8B45A
:102EC00006D0080ED419D8A402D0070ED46F57C06C
:102ED0007AF0D5C07BF0D45195EC27F0000E0001BC
:102EE000D36F000ED26F000E01015E6F12005650BC
:102EF000D8B432D0000E7E6F600E7E25D96EDA6AAD
:102F0000010EDA22DF507D6F7D51280DF3CF39F1AC
:102F1000F4CF3AF101013A515C6F39C1D0F05CC194
:102F20007AF0D0C07BF000017E516AEC27F0000EF1
:102F300001013A6F000E396F000E0001D06F000ED4
:102F400001015C6F00017E2B090E7E65D5D7000E56
:102F5000566E000ED16FC2D7690ED319D8A405D012
:102F6000410E7A6FD35196EC2AF06C0E0001D31902
:102F7000D8A405D0410E7A6FD35179EC2AF06D0EAA
:102F80000001D319D8A405D0410E7A6FD3515CEC5F
:102F90002AF0700E0001D319D8A405D0D5C07AF05C
:102FA0005750CCEC28F0710E0001D319D8A405D0ED
:102FB000D5C07AF05750A9EC28F06F0E0001D31954
:102FC000D8A48CD7D405D8A402D0020E1BD0020EF0
:102FD000D419D8A402D0010E15D0060ED419D8A445
:102FE00002D0080E0FD0070ED419D8A402D0060EB6
:102FF00009D0090ED419D8B406D0080ED419D8A413
:1030000002D0070ED46F57C07AF0D5C07BF0D451F0
:103010006AEC27F063D7000E576E000ED56F000ED6
:10302000D46F000ED36F000ED26F000E01015E6FE1
:1030300012000001D251300AD8B4C1D6010AD8B466
:1030400056D7E9D700016D51800B7A6F6D516D2510
:10305000816F6CBF81818151D8B40DD08129D8A4F2
:1030600008D0000E6A6F000E6B6F000E6C6F000EC2
:103070006D6F6C8F06D0000E6A6F000E6B6F000EC6
:103080006C6F000E6D6F7151800B7A1B7151712541
:10309000826F70BF82818251D8B40DD08229D8A4AA
:1030A00008D0000E6E6F000E6F6F000E706F000E76
:1030B000716F708F06D0000E6E6F000E6F6F000E76
:1030C000706F000E716F6E516F1170117111D8A475
:1030D00017D0000E6A6F000E6B6F000E6C6F000E43
:1030E0006D6F800E6C137F0E6D137A516D136AC075
:1030F0006AF06BC06BF06CC06CF06DC06DF01200CC
:103100008151D8A409D0000E6A6F000E6B6F000EBB
:103110006C6F000E6D6F1200825181C072F0736B84
:10312000725F000E735B7F0E72257B6F000E732142
:103130007C6F6AC076F06BC077F06CC078F06DC0C1
:1031400079F0000E6A6F000E6B6F000E6C6F000E50
:103150006D6F000E7D6F000E7E6F000E7F6F000E94
:10316000806F000E826F28D08251D8B411D0D890D1
:103170007637773778377937D8906A376B376C3747
:103180006D3780BF6A81D8907D377E377F37803733
:103190006E51765D6F5177597051785971517959E7
:1031A000D8A009D0808D6E51765F6F51775B7051DA
:1031B000785B7151795B822B190E8265D5D7765178
:1031C000771178117911D8B411D07D810FD0D890B2
:1031D0006A376B376C376D3780BF6A81D8907D371F
:1031E0007E377F3780377B07D8A07C076CAFEFD75F
:1031F000000E826F80AF17D0FF0E7D15726FFF0E2D
:103200007E15736FFF0E7F15746F7F0E8015756FBF
:103210007251731174117511D8B403D0010E826FFD
:1032200002D06AB1FBD78251D8B41FD0010E6A27F1
:10323000000E6B236C236D236DA117D06AC072F052
:103240006BC073F06CC074F06DC075F0753575337C
:1032500074337333723372C06AF073C06BF074C02E
:103260006CF075C06DF07B4B7C2B7CBF10D07C511B
:1032700003E17B29D8A00BD0000E7C6F7B69000E88
:103280006A6F000E6B6F000E6C6F000E6D6F7CBF6F
:1032900005D07C5111E17B05D8B00ED0000E7C6FBB
:1032A000000E7B6F000E6A6F000E6B6F000E6C6F6E
:1032B000000E6D6F000E7A6F7BC081F081A102D08D
:1032C0006C8F01D06C9FD89081316D6F0ED7A49E0A
:1032D0006CAE02D16C9E000E5A6E010120EE03F01E
:1032E0004751D9264851DA22DECF63F0DDCF64F0B2
:1032F00063C0D9FF64C0DAFF010EDF6E000E476FB6
:10330000000E486F1200010132B3120030C147F1C4
:1033100031C148F130C1D9FF31C1DAFFDF500001BE
:10332000DA6F010120EE01F03051D9263151DA2255
:10333000DECF49F1DDCF4AF1050E3027000E3123F3
:10334000830E301908E1010E3119D8A404D07E0E85
:10335000306F010E316F32912E51301904E12F512F
:103360003119D8B432836B80020E5A6E12006BACE6
:1033700006D00101342B040E9CEC29F01200D890E9
:103380005E300001646F5D30636F63516F6E5DA0EE
:1033900003D00B0E5A6E1200030E5A6E12006BAC65
:1033A00006D00101342B040E9CEC29F012006B8234
:1033B0005DC063F05EC064F064C063F00001646BE4
:1033C000060E6317000E6417F00E63115D6E6451F4
:1033D0005E6E5D80010ED86FC7D70001D805D8B4E6
:1033E0001CD049C1D9FF4AC1DAFFDECF5DF0DDCF85
:1033F0005EF0010120EE03F04951D9264A51DA224C
:10340000DECF45F1DDCF46F120EE02F04951D9265D
:103410004A51DA22DF500001D96F5DC06FFF5DA015
:10342000BBD7050E5A6E12006BAC07D00101342BCE
:103430006B9C050E9CEC29F012000001D907D929DC
:10344000D8A40ED0050E01014927000E4A23000121
:10345000DA2F04D0000E9CEC29F012006B8284D786
:1034600045C1D9FF46C1DAFFDF506F6E0101454B00
:10347000462B12006BAC07D00101342B040E9CECE0
:1034800029F06B9C12006B86080E5A6E1200080E13
:103490005A6E6B86120045C1D9FF46C1DAFF6FCF65
:1034A000DFFF0101454B462B010E0001D95FD8B467
:1034B00004D06B9A060E5A6E03D06B8A52EC2CF035
:1034C0006B881200000E9CEC29F012000101342BD5
:1034D000060E9CEC29F012005A50000AD8B413D7FB
:1034E000010AD8B4BBD7030AD8B477D7010AD8B435
:1034F0009BD7070AD8B4E6D7010AD8B4BBD7030ACA
:10350000D8B4C5D7010AD8B4DDD70F0AD8B4C3D709
:10351000020AD8B42CD7010AD8B441D7D7D7000EA5
:103520000001736F000E726F010E7225706F000E36
:103530007321716F72C06AF073C06BF0000E6D6F13
:10354000160E6C6FC3EC2BF0090E00016A25D96EC4
:10355000050E6B21DA6E70C0DEFF71C0DDFF72C038
:103560006AF073C06BF0000E6D6F160E6C6FC3ECDB
:103570002BF00B0E00016A25D96E050E6B21DA6E59
:10358000000EDE6E000EDD6E72C06AF073C06BF06E
:10359000000E6D6F160E6C6FC3EC2BF00D0E00015C
:1035A0006A25D96E050E6B21DA6E000EDE6E000EF6
:1035B000DD6E72C06AF073C06BF0000E6D6F160E98
:1035C0006C6FC3EC2BF00F0E00016A25D96E050E4F
:1035D0006B21DA6E000EDE6E000EDD6E72C06AF0D8
:1035E00073C06BF0000E6D6F160E6C6FC3EC2BF09A
:1035F000110E00016A25D96E050E6B21DA6E000EE0
:10360000DE6E000EDD6ED8907235D96E7335DA6ECF
:10361000510ED926020EDA2272C06AF073C06BF026
:10362000000E6D6F160E6C6FC3EC2BF0130E0001C5
:103630006A25E16E050E6B21E26EDECFE6FFDDCF7F
:10364000E5FFD8907235D96E7335DA6E390ED9260A
:10365000020EDA2272C06AF073C06BF0000E6D6F5A
:10366000160E6C6FC3EC2BF0150E00016A25E16E8F
:10367000050E6B21E26EDECFE6FFDDCFE5FF72C007
:103680006AF073C06BF0000E6D6F160E6C6FC3ECBA
:103690002BF0170E00016A25D96E050E6B21DA6E2C
:1036A000D00EDE6E020EDD6ED8907235D96E733597
:1036B000DA6E990ED926020EDA2272C06AF073C051
:1036C0006BF0000E6D6F160E6C6FC3EC2BF0190EC5
:1036D00000016A25E16E050E6B21E26EDECFE6FF8A
:1036E000DDCFE5FFD8907235D96E7335DA6E810E75
:1036F000D926020EDA2272C06AF073C06BF0000E97
:103700006D6F160E6C6FC3EC2BF01B0E00016A255B
:10371000E16E050E6B21E26EDECFE6FFDDCFE5FF49
:1037200072C06AF073C06BF0000E6D6F160E6C6F96
:10373000C3EC2BF01D0E00016A25D96E050E6B211E
:10374000DA6E000EDE6E000EDD6E724B732B73BFF1
:10375000EBD6735105E10C0E725DD8B01200E4D6C1
:103760001200126E1250D8A402D0000E40D01204E3
:10377000D8A402D0090E3BD0020E1218D8A402D051
:10378000120E35D0030E1218D8A402D01B0E2FD063
:10379000040E1218D8A402D0240E29D0050E121837
:1037A000D8A402D02D0E23D0060E1218D8A402D011
:1037B000360E1DD0070E1218D8A402D03F0E17D017
:1037C000080E1218D8A402D0480E11D0090E1218F3
:1037D000D8A402D0510E0BD00A0E1218D8A402D0D1
:1037E0005A0E05D00B0E1218D8A402D0630E106E1C
:1037F000000E116E10C00EF00F6A68D01104D8A42C
:1038000021D01150020DF3CF05F0F4CF06F0125085
:10381000160D090E076E050E086EF3500726F450BC
:10382000082205500724D96E06500820DA6EDECF34
:1038300009F0DDCF0AF0D8900A300C6E09300B6E1B
:103840000B5034D0030E1118D8A419D01150020D0A
:10385000F3CF05F0F4CF06F01250160D090E076EE7
:10386000050E086EF3500726F45008220550072471
:10387000D96E06500820DA6EDF501F0F17D0115096
:10388000020DF3CF05F0F4CF06F01250160D090E1D
:10389000076E050E086EF3500726F45008220550F7
:1038A0000724D96E06500820DA6EDF500D6E0EC068
:1038B00001F00FC002F00DC003F0B3EC2AF0112AA2
:1038C000040E1118D8B4112A0E4A0F2A1050056E92
:1038D000066A090E0526000E062205500E5C0650EB
:1038E0000F58D8B012008AD77E0E0001826F000EEA
:1038F000836F9CD0250E8719D8B404D0875192ECE1
:103900002CF094D0000E846F02D0848D18D07CC02F
:10391000F6FF7DC0F7FF7C4B7D2BF86A0800F5CFE2
:1039200087F08751000AD8B41200640AD8B407D0CF
:103930000D0AD8B404D01C0AD8B4E7D777D084BD18
:1039400015D082C0D9FF83C0DAFFDECF85F0DDCF8E
:1039500086F0020E8227000E832386AF13D0030E5B
:103960008413856D861FD8B0862B0CD082C0D9FFFA
:1039700083C0DAFFDECF85F0DDCF86F0020E82272E
:10398000000E8323010E876F8751020D010EF32471
:10399000F66E100EF420F76EF86A000EF822090099
:1039A000F550855D0900F5508659D8A005D0872BC4
:1039B000050E8719D8A4E8D784C080F0030E8017BD
:1039C000D8B403D02D0E92EC2CF087C081F029D012
:1039D0008151020D010EF324F66E100EF420F76EE5
:1039E000F86A000EF8220900F5CF72F00A00F5CF50
:1039F00073F085C070F086C071F0C0EC27F070C025
:103A000077F071C078F0000E00017A6F0A0E796FBE
:103A100058EC29F000017751300F876F875192ECF5
:103A20002CF0000181078129D8A4D2D77CC0F6FFF1
:103A30007DC0F7FF00017C4B7D2BF86A0800F5CFB5
:103A400087F08751D8B4120055D7150E196E000EA5
:103A50001A6E99D0250E1E18D8B404D01E50C4EC8E
:103A60002CF091D0000E1B6E02D01B8C18D013C00E
:103A7000F6FF14C0F7FF134A142AF86A0800F5CFBE
:103A80001EF01E50000AD8B41200640AD8B407D041
:103A90000D0AD8B404D01C0AD8B4E7D774D01BBC24
:103AA00015D019C0D9FF1AC0DAFFDECF1CF0DDCF68
:103AB0001DF0020E1926000E1A221DAE13D0030EA1
:103AC0001B121C6C1D1ED8B01D2A0CD019C0D9FFAA
:103AD0001AC0DAFFDECF1CF0DDCF1DF0020E192672
:103AE000000E1A22010E1E6E1E50020D010EF3244E
:103AF000F66E100EF420F76EF86A000EF822090038
:103B0000F5501C5C0900F5501D58D8A005D01E2AA0
:103B1000050E1E18D8A4E8D71BC017F0030E171601
:103B2000D8B403D02D0EC4EC2CF01EC018F027D052
:103B30001850020D010EF324F66E100EF420F76EED
:103B4000F86A000EF8220900F5CF09F00A00F5CF57
:103B50000AF01CC007F01DC008F0EAEC27F007C00F
:103B60000EF008C00FF0000E116E0A0E106EBDECC4
:103B700029F00E50300F1E6E1E50C4EC2CF01806AB
:103B80001828D8A4D5D713C0F6FF14C0F7FF134ADE
:103B9000142AF86A0800F5CF1EF01E50D8B412009F
:103BA00059D7000E00017B6F000EE66F000EE76F25
:103BB000610EEA19D8A46ED083BE06D0E751010980
:103BC000E76F010E7B6F03D0E751FE0BE76F83BCFD
:103BD00006D0E7510209E76F010E7B6F03D0E75172
:103BE000FD0BE76F83BA06D0E7510409E76F010EBA
:103BF0007B6F03D0E751FB0BE76F83B806D0E7512B
:103C00000809E76F010E7B6F03D0E751F70BE76FF1
:103C100083B606D0E7511009E76F010E7B6F03D022
:103C2000E751EF0BE76F83B406D0E7512009E76F48
:103C3000010E7B6F03D0E751DF0BE76F81BC06D02D
:103C4000E7514009E76F010E7B6F03D0E751BF0BCF
:103C5000E76F81BE06D0E7518009E76F010E7B6FE9
:103C600003D0E7517F0BE76F80B806D0E65101091A
:103C7000E66F010E7B6F03D0E651FE0BE66F82B25A
:103C800006D0E6510209E66F010E7B6F03D0E651C4
:103C9000FB0BE66F330EEA19D8B483B805D0E751B1
:103CA0000809E76F010E7B6F610EEA19D8A402D0F4
:103CB000010E01D0000E7B150009D8B41200410E90
:103CC000E36F570EE46F0A0EE56FE451E525E72533
:103CD000E625E325200FE86FE30E0101416F000E9A
:103CE000426F41C178F042C179F0060E00017A6F4F
:103CF0003BEC28F0120000017F6F00017F51D8A437
:103D00007AAF1AD077C07BF078C07CF079C07DF0B4
:103D10007AC07EF07B1F7C1F7D1F7E1F7B2B000ED9
:103D20007C237D237E237BC081F07CC082F07DC01C
:103D300083F07EC084F008D077C081F078C082F034
:103D400079C083F07AC084F07751781179117A11B3
:103D5000D8A409D0000E776F000E786F000E796F2F
:103D6000000E7A6F1200960E806F06D0802BD890CE
:103D70008433833382338133000E81157B6F000ED1
:103D800082157C6F000E83157D6FFE0E84157E6F8D
:103D90007B517C117D117E11D8B40DD0E7D7802BDB
:103DA000010E8127000E822383238423D89084333D
:103DB000833382338133000E81157B6F000E8215B1
:103DC0007C6F000E83157D6FFF0E84157E6F7B5117
:103DD0007C117D117E11D8B407D0E1D78007D8902F
:103DE000813782378337843783BF03D0020E8061E7
:103DF000F5D780A1839FD890803380C07BF07C6B07
:103E00007D6B7E6B7BC07EF07D6B7C6B7B6B7B51B7
:103E100081137C5182137D5183137E5184137F5112
:103E2000D8A47AAF01D0848F81C077F082C078F0B7
:103E300083C079F084C07AF01200166E1650D8A4B0
:103E400011AE1AD00EC012F00FC013F010C014F053
:103E500011C015F0121E131E141E151E122A000E7C
:103E600013221422152212C018F013C019F014C026
:103E70001AF015C01BF008D00EC018F00FC019F0D2
:103E800010C01AF011C01BF00E500F1010101110BE
:103E9000D8A409D0000E0E6E000E0F6E000E106E2C
:103EA000000E116E1200960E176E06D0172AD890CB
:103EB0001B321A3219321832000E1814126E000E0C
:103EC0001914136E000E1A14146EFE0E1B14156EC8
:103ED0001250131014101510D8B40DD0E7D7172AAC
:103EE000010E1826000E19221A221B22D8901B320E
:103EF0001A3219321832000E1814126E000E1914EC
:103F0000136E000E1A14146EFF0E1B14156E125051
:103F1000131014101510D8B407D0E1D71706D89095
:103F2000183619361A361B361ABE03D0020E176021
:103F3000F5D717A01A9ED890173217C012F0136A3F
:103F4000146A156A12C015F0146A136A126A1250C4
:103F500018121350191214501A1215501B12165021
:103F6000D8A411AE01D01B8E18C00EF019C00FF0EE
:103F70001AC010F01BC011F01200216E21501D6EEE
:103F80001E6A2150160DF30EF324D96E040EF42090
:103F9000DA6E1DC0DEFF1EC0DDFF2150160DF50ECE
:103FA000F324D96E040EF420DA6E1350020DF3CF11
:103FB000DEFFF4CFDDFF14501D6E1E6A2150160D7A
:103FC000F70EF324D96E040EF420DA6E1DC0DEFF66
:103FD0001EC0DDFFE10E1D6EFF0E1E6E15501F6E22
:103FE000206A1D501F261E5020222150160DF90E4A
:103FF000F324D96E040EF420DA6E1FC0DEFF20C059
:10400000DDFF16501D6E1E6A2150160DFD0EF324A5
:10401000D96E040EF420DA6E1DC0DEFF1EC0DDFF77
:1040200017501D6E1E6A2150160DFF0EF324D96E17
:10403000040EF420DA6E1DC0DEFF1EC0DDFF21502D
:10404000160D010EF324D96E050EF420DA6E18C099
:10405000DEFF19C0DDFF1A501D6E1E6A2150160DBD
:10406000030EF324D96E050EF420DA6E1DC0DEFFB8
:104070001EC0DDFF1B501D6E1E6A2150160D050E61
:10408000F324D96E050EF420DA6E1DC0DEFF1EC0CB
:10409000DDFF1C50D8B412002104B1EC1BF012005B
:1040A000000E0C6E000E0B6E000E0E6E000E0F6EEC
:1040B000040E0F18D8B470D00BC001F00CC002F081
:1040C0006CEC2CF00D6E0F04D8A41DD00F50020D17
:1040D000F3CF03F0F4CF04F00E50160D090E056E69
:1040E000050E066EF3500526F450062203500524F3
:1040F000D96E04500620DA6E0D50020DF3CFDEFFAC
:10410000F4CFDDFF47D0030E0F18D8A426D0E10E60
:10411000036EFF0E046E0D50056E066A03500526F1
:10412000045006220F50020DF3CF07F0F4CF08F031
:104130000E50160D090E096E050E0A6EF350092673
:10414000F4500A2207500924D96E08500A20DA6E6A
:1041500005C0DEFF06C0DDFF1DD00D50036E046AF2
:104160000F50020DF3CF05F0F4CF06F00E50160DF0
:10417000090E076E050E086EF3500726F45008224C
:1041800005500724D96E06500820DA6E03C0DEFF02
:1041900004C0DDFF0B4A0C2A0F2A0A0E0F6488D7D1
:1041A0000E2A0B0E0E6482D71200000E0001916FD2
:1041B000000E906F000E936F280E7C6F100E7D6FB7
:1041C00074EC1CF0000E0001946F040E9419D8B426
:1041D00064D09405D8A421D09451020DF3CF88F077
:1041E000F4CF89F09351160D090E8A6F050E8B6F6F
:1041F000F3508A27F4508B2388518A25D96E895130
:104200008B21DA6EDECF8CF0DDCF8DF0D8908D3142
:104210008F6F8C318E6F8E5134D0030E9419D8A4C9
:1042200019D09451020DF3CF88F0F4CF89F0935157
:10423000160D090E8A6F050E8B6FF3508A27F45006
:104240008B2388518A25D96E89518B21DA6EDF50F4
:104250001F0F17D09451020DF3CF88F0F4CF89F0DF
:104260009351160D090E8A6F050E8B6FF3508A2736
:10427000F4508B2388518A25D96E89518B21DA6EAF
:10428000DF50926F90C06AF091C06BF092C06CF0FA
:104290001EEC2AF00001904B912B942B0A0E946592
:1042A00094D7932B0B0E936587D71200000E286EC0
:1042B000000E276E000E2A6E280E136E100E146E5E
:1042C00025EC1DF0000E2B6E040E2B18D8B463D015
:1042D0002B04D8A421D02B50020DF3CF1FF0F4CF24
:1042E00020F02A50160D090E216E050E226EF35095
:1042F0002126F45022221F502124D96E2050222042
:10430000DA6EDECF23F0DDCF24F0D8902430266E95
:104310002330256E255034D0030E2B18D8A419D085
:104320002B50020DF3CF1FF0F4CF20F02A50160DC2
:10433000090E216E050E226EF3502126F450222222
:104340001F502124D96E20502220DA6EDF501F0F1B
:1043500017D02B50020DF3CF1FF0F4CF20F02A50CE
:10436000160D090E216E050E226EF3502126F45013
:1043700022221F502124D96E20502220DA6EDF50D5
:10438000296E27C001F028C002F029C003F0B3EC69
:104390002AF0274A282A2B2A0A0E2B6495D72A2A84
:1043A0000B0E2A6489D71200000E00016A15726F85
:1043B000000E6B15736F800E6C15746F7F0E6D158C
:1043C000756F7251731174117511D8A408D0000E55
:1043D0006A6F000E6B6F000E6C6F000E6D6F000E3B
:1043E0006E15726F000E6F15736F800E7015746FFF
:1043F0007F0E7115756F7251731174117511D8A4F8
:1044000008D0000E6E6F000E6F6F000E706F000E02
:10441000716F6DAF09D06A6D6B1FD8B06B2B6C1FBD
:10442000D8B06C2B800E6D5771AF09D06E6D6F1FB9
:10443000D8B06F2B701FD8B0702B800E7157000E44
:104440006A1B000E6B1B000E6C1B800E6D1B000E9A
:104450006E1B000E6F1B000E701B800E711B6E51C9
:104460006A5D6F516B5970516C5971516D59D8B06B
:1044700002D0D8901200D8801200280E00017C6F64
:10448000100E7D6F74EC1CF0000E00018C6F000E9E
:104490008D6F030E8D19D8A421D0180E7C6F100ECD
:1044A0007D6F8D51020DF3CF88F0F4CF89F08C51E0
:1044B000160D090E8A6F050E8B6FF3508A27F45084
:1044C0008B2388518A25D96E89518B21DA6EDECFF4
:1044D0007EF0DDCF7FF074EC1CF020D0200E7C6FDE
:1044E000100E7D6F8D51020DF3CF88F0F4CF89F05F
:1044F0008C51160D090E8A6F050E8B6FF3508A27AB
:10450000F4508B2388518A25D96E89518B21DA6E1C
:10451000DECF7EF0DDCF7FF074EC1CF000018D2B40
:104520000A0E8D65B6D7280E7C6F100E7D6F74EC69
:104530001CF000018C2B0B0E8C65A9D70B0E7C6F29
:10454000100E7D6F74EC1CF01200000E0114096E49
:10455000000E02140A6E800E03140B6E7F0E0414FC
:104560000C6E09500A100B100C10D8A408D0000EC5
:10457000016E000E026E000E036E000E046E000E41
:104580000514096E000E06140A6E800E07140B6ED9
:104590007F0E08140C6E09500A100B100C10D8A4D2
:1045A00008D0000E056E000E066E000E076E000E9F
:1045B000086E04AE09D0016C021ED8B0022A031E98
:1045C000D8B0032A800E045608AE09D0056C061E2A
:1045D000D8B0062A071ED8B0072A800E0856000E4B
:1045E000011A000E021A000E031A800E041A000EA1
:1045F000051A000E061A000E071A800E081A05503A
:10460000015C065002580750035808500458D8B0AF
:1046100002D0D8901200D8801200280E136E100E0F
:10462000146E25EC1DF0000E236E000E246E030E9A
:104630002418D8A421D0180E136E100E146E245016
:10464000020DF3CF1FF0F4CF20F02350160D090E0A
:10465000216E050E226EF3502126F45022221F50A7
:104660002124D96E20502220DA6EDECF15F0DDCF66
:1046700016F025EC1DF020D0200E136E100E146ED7
:104680002450020DF3CF1FF0F4CF20F02350160D6D
:10469000090E216E050E226EF3502126F4502222BF
:1046A0001F502124D96E20502220DA6EDECF15F063
:1046B000DDCF16F025EC1DF0242A0A0E2464B7D7AE
:1046C000280E136E100E146E25EC1DF0232A0B0E0F
:1046D0002364ABD70B0E136E100E146E25EC1DF079
:1046E000120000019F35A035A66FA651D8A409D0AD
:1046F000000E9D6F000E9E6F000E9F6F000EA06F4C
:1047000012009DC0A1F09EC0A2F09FC0A3F0A0C067
:10471000A4F0200E05D0D890A433A333A233A13344
:10472000E82EF9D7A151A56F9F8FFF0E9D17FF0EA1
:104730009E17FF0E9F17000EA017960EA65FA6AF3E
:104740000DD0A651800A970FD8A0D2D7D890A03309
:104750009F339E339D33A63FF9D70DD01F0EA6651C
:1047600007D0C6D7D8909D379E379F37A037A6076A
:10477000A651D8A4F7D7A551D8B408D0A01F9F1F21
:104780009E1F9D6D000E9E239F23A0239DC09DF024
:104790009EC09EF09FC09FF0A0C0A0F0120000013C
:1047A000B46F000E0001B36FB451160D170EF32451
:1047B000D96E050EF420DA6EDECFA9F0DDCFAAF0B7
:1047C000B451160D150EF324D96E050EF420DA6ED1
:1047D000DECFABF0DDCFACF0D890AC31AE6FAB310B
:1047E000AD6FA951AD25AF6FAA51AE21B06FB451D5
:1047F000160D150EF324D96E050EF420DA6EDECFF9
:10480000A9F0DDCFAAF0D890AA31AC6FA931AB6F77
:10481000B451160D170EF324D96E050EF420DA6E7E
:10482000DECFADF0DDCFAEF0AB51AD5DB16FAC51D1
:10483000AE59B26FA751AF5DA851B059D8B002D0F0
:10484000000E07D0B151A75DB251A859D8B002D01F
:10485000010EB36FB3511200033404340A6E0A50D0
:10486000D8A409D0000E016E000E026E000E036E79
:10487000000E046E120001C005F002C006F003C075
:1048800007F004C008F0200E05D0D8900832073297
:1048900006320532E82EF9D70550096E038EFF0E59
:1048A0000116FF0E0216FF0E0316000E0416960EDA
:1048B0000A5E0AAE0DD00A50800A970FD8A0D2D750
:1048C000D89004320332023201320A3EF9D70DD0B9
:1048D0001F0E0A6407D0C6D7D890013602360336B9
:1048E00004360A060A50D8A4F7D70950D8B408D01D
:1048F000041E031E021E016C000E0222032204226B
:1049000001C001F002C002F003C003F004C004F0D3
:104910001200FACF44F0FBCF45F0E1CF46F0E2CFF2
:1049200047F0D9CF48F0DACF49F0F3CF4AF0F4CFCF
:104930004BF0F6CF4CF0F7CF4DF0F8CF4EF0F5CF6F
:104940004FF09DBA9EAA0FD001D80AD00500FA6E8A
:1049500001015351FD6E5451FE6EFF6AFA50120070
:1049600016EC08F017D09DBC9EAC0FD0E2EC2CF0FA
:104970008BA002D0010E01D0000EFF0A436E8B50B7
:104980004318FE0B43188B6E05D0F2BAF2A402D086
:10499000AEEC2BF04FC0F5FF4EC0F8FF4DC0F7FF57
:1049A0004CC0F6FF4BC0F4FF4AC0F3FF49C0DAFF2A
:1049B00048C0D9FF47C0E2FF46C0E1FF45C0FBFF4A
:1049C00044C0FAFF5F9211002449643A42454E54B4
:1049D000574F4F4420284329204B2D54524F4E49C6
:1049E0004320732E722E6C2E3B2020566572203190
:1049F0002E302E30202D2031352E30352E31390FEE
:104A0000001C001E00140014001600110015001EEA
:104A1000000D001100180018000500050005000534
:104A2000000500050005000500050005000500055E
:104A30000002000200020002000200020002000266
:104A4000000200020002000200450045004500454A
:104A5000004500450045004500450045004500452E
:104A6000004700470047004700470047004700470E
:094A700000470047004700470021
:104A7A0000016F6F010132B139D06CC0D9FF6DC02E
:104A8A00DAFF020EDF6E20EE01F02E51D9262F51E9
:104A9A00DA226AC0DEFF6BC0DDFF2EC1D9FF2FC14B
:104AAA00DAFF6FC0DFFF20EE03F02E51D9262F5117
:104ABA00DA226CC0DEFF6DC0DDFF050E2E27000E68
:104ACA002F23830E2E1908E1010E2F19D8A404D022
:104ADA007E0E2E6F010E2F6F32932E5130190CE17C
:104AEA002F513119D8A408D0328106D06CC0D9FF11
:104AFA006DC0DAFF010EDF6E6CC0D9FF6DC0DAFF40
:104B0A00020EDE18D8A41200CEEC2CF0A48E1200ED
:104B1A00160E0001DC25D96EDA6A010EDA22000EC1
:104B2A00DF6EABA413D0160EDC25D96EDA6A010E3D
:104B3A00DA220101DF8201D809D00500FA6E4F514D
:104B4A00FD6E5051FE6EFF6AFA501200ABA214D0ED
:104B5A00160E0001DC25D96EDA6A010EDA2201018D
:104B6A00DF8401D809D00500FA6E4D51FD6E4E5111
:104B7A00FE6EFF6AFA501200160E0001DC25D96E8D
:104B8A00DA6A010EDA22DF50D8B40CD001D812004A
:104B9A000500FA6E01014B51FD6E4C51FE6EFF6A23
:104BAA00FA50120025EC2CF01200C80EF66E490ECF
:104BBA00F76E000EF86E02EE00F010EEB1F009008A
:104BCA00F5CFEEFFE550E150FAE14E0EF66E4D0ECE
:104BDA00F76E000EF86E01EE83F010EE68F0090031
:104BEA00F5CFEEFFE550E150FAE1CC0EF66E590E24
:104BFA00F76E000EF86E0900F5CFEAF002EEB1F09A
:104C0A0013EE60F0EE6AE550E150FCE1E250FAE1A1
:104C1A0001EE00F0830EEE6AE806FDE100EED0F048
:104C2A001A0EEE6AE806FDE100EE50F00F0EEE6A8B
:104C3A00E806FDE15F905F920001ECEF2AF0000EBA
:104C4A000001726F000E736F000E746F000E756FA5
:104C5A006E516F1170117111D8B42AD0010E766F8E
:104C6A0006D0D8906E376F3770377137762B71AFA1
:104C7A00F8D7D89072377337743775376E516A5DC3
:104C8A006F516B5970516C5971516D59D8A009D037
:104C9A006E516A5F6F516B5B70516C5B71516D5BEA
:104CAA007281D890713370336F336E33762FE1D7B8
:104CBA0072C06AF073C06BF074C06CF075C06DF0AE
:104CCA001200000E096E000E0A6E000E0B6E000E28
:104CDA000C6E0550061007100810D8B42AD0010E21
:104CEA000D6E06D0D89005360636073608360D2AD8
:104CFA0008AEF8D7D89009360A360B360C36055066
:104D0A00015C065002580750035808500458D8A0AE
:104D1A0009D00550015E0650025A0750035A08503E
:104D2A00045A0980D89008320732063205320D2E0D
:104D3A00E1D709C001F00AC002F00BC003F00CC0B1
:104D4A0004F012000B000C000D000D000C000D0009
:104D5A0009000A000A000A0009000B001F002000CF
:104D6A002000200020002000200020002000200039
:104D7A0020002000E1FFE1FFE1FFE1FFE1FFE1FFA9
:104D8A00E1FFE1FFE1FFE1FFE1FFE1FF180010278A
:104D9A00007D30300A00080009000B000D000000F9
:104DAA00010002000300050006000C009D9A1A0E7D
:104DBA0000016A6F4B0E6B6FABEC2CF0080EB86EED
:104DCA00900EAB6E240EAC6EE10EAF6E040EB06E9A
:104DDA00CA0E00016A6F590E6B6FB5EC2CF0A40E67
:104DEA0000016A6F590E6B6FB0EC2CF0AA0E00012D
:104DFA006A6F590E6B6FBAEC2CF0000E01015F6FEF
:104E0A00000E0001DC6F000E5C6E000E5B6E9D8A68
:104E1A001200F29C9D9ABFEC2CF00F014583D60E2E
:104E2A0000D000D0E82EFCD700D00F014593448172
:104E3A0078C070F079C071F085EC28F0DAEC2CF0CB
:104E4A00F294F2A4FED7D8EC2CF00F0144919E9C68
:104E5A00C2829EACFED7C3CF7AF0C4CF7BF09E9CB1
:104E6A00F28C9D8A7AC078F07BC079F01200F29CAD
:104E7A009D9AC9EC2CF00F014583D60E00D000D0C4
:104E8A00E82EFCD700D00F01459344810FC007F0EC
:104E9A0010C008F07AEC29F0E0EC2CF0F294F2A4BD
:104EAA00FED7DEEC2CF00F0144919E9CC2829EAC90
:104EBA00FED7C3CF11F0C4CF12F09E9CF28C9D8A0C
:104ECA0011C00FF012C010F0120000017C6F000137
:104EDA007C51040DF350060F01016A6F000E6B6FCF
:104EEA00000E6C6F7BC06DF100017A510F0B01014E
:104EFA006E6F6A0E0001736F010E746F050E756F87
:104F0A00000E776F410E766FE90E786F000E796F9B
:104F1A0013EC28F0020E0001E919D8A41200FAD7FE
:104F2A0000017C6F00017C51040DF350060F010152
:104F3A006A6F000E6B6F000E6C6F7BC06DF1000123
:104F4A007A510F0B01016E6F6A0E0001736F010E29
:104F5A00746F050E756F000E776F400E766FE90E4F
:104F6A00786F000E796F13EC28F0020E0001E91930
:104F7A00D8A41200FAD7000E0001766F000E756FE2
:104F8A0072517311D8B41CD0010E746F04D0D8902A
:104F9A0072377337742B73AFFAD7D8907537763761
:104FAA007251705D73517159D8A005D07251705FFA
:104FBA007351715B7581D89073337233742FEDD747
:104FCA0075C070F076C071F01200000E0C6E000E03
:104FDA000B6E09500A10D8B41CD0010E0D6E04D005
:104FEA00D89009360A360D2A0AAEFAD7D8900B3667
:104FFA000C360950075C0A500858D8A005D0095049
:10500A00075E0A50085A0B80D8900A3209320D2ED0
:10501A00EDD70BC007F00CC008F01200010132B145
:10502A001ED0790E00016A6F010E6B6F73C06CF0AF
:10503A0074C06DF075C06EF076C06FF077C070F016
:10504A0035EC29F0790E00016A6F010E6B6F78C09A
:10505A006CF079C06DF0010E3DEC25F0120078C0BD
:10506A00D9FF79C0DAFF010EDF6E120019D0DB51C9
:10507A007825D96E000E7921DA6EDF5099EC2CF082
:10508A007D0E0001716F000E706F85EC28F0DAEC6E
:10509A002CF0F294F2A4FED7D8EC2CF00001DB2B12
:1050AA0000017A51DB5DD8A0E2D77A51DB19D8A486
:1050BA001200000EDB6F1200000E0001991B000E99
:1050CA009A1B000E9B1B800E9C1B95C085F096C0F8
:1050DA0086F097C087F098C088F099C089F09AC086
:1050EA008AF09BC08BF09CC08CF0ECEC13F085C06E
:1050FA0095F086C096F087C097F088C098F01200A5
:10510A0070C06AF071C06BF0000E00016D6F0C0E7A
:10511A006C6FC3EC2BF06AC074F06BC075F00001C1
:10512A00741D766F751D776F7751D76E76C0D6FF6F
:10513A00D650D7CF72F0736B72C073F0726B721164
:10514A00506E7351516E120000017B6FFA0E01010D
:10515A006A6F7AC06BF100017B510F0B01016C6F12
:10516A006A0E0001736F010E746F030E756F000EE5
:10517A00776F410E766FE90E786F000E796F13EC38
:10518A0028F0020E0001E919D8A41200FAD700018A
:10519A007B6FFC0E01016A6F7AC06BF100017B51D3
:1051AA000F0B01016C6F6A0E0001736F010E746FB1
:1051BA00030E756F000E776F410E766FE90E786FEA
:1051CA00000E796F13EC28F0020E0001E919D8A439
:1051DA001200FAD700017B6FFA0E01016A6F7AC0DA
:1051EA006BF100017B510F0B01016C6F6A0E00011C
:1051FA00736F010E746F030E756F000E776F400E9A
:10520A00766FE90E786F000E796F13EC28F0020EB4
:10521A000001E919D8A41200FAD700017B6FFC0E2D
:10522A0001016A6F7AC06BF100017B510F0B01011A
:10523A006C6F6A0E0001736F010E746F030E756F47
:10524A00000E776F400E766FE90E786F000E796F59
:10525A0013EC28F0020E0001E919D8A41200FAD7BB
:10526A006FC071F070C072F0D89000017137723758
:10527A006AC0D9FF6BC0DAFF71C0DEFF72C0DDFF02
:10528A0020EE02F06A51D9266B51DA226EC0DFFF96
:10529A0020EE03F06A51D9266B51DA226CC0DEFF88
:1052AA006DC0DDFF1200000179517A11D8B418D00F
:1052BA00010E7B6F04D0D89079377A377B2B7AAF7F
:1052CA00FAD77951775D7A517859D8A004D07951B3
:1052DA00775F7A51785BD8907A3379337B2FF1D71D
:1052EA0077C077F078C078F0120007C001F008C0E4
:1052FA0002F0000E046E0C0E036EFFEC2BF001C0E0
:10530A000BF002C00CF00B1C0D6E0C1C0E6E0E5036
:10531A00D76E0DC0D6FFD650D7CF09F00A6A09C09A
:10532A000AF0096A0910506E0A50516E1200000103
:10533A00626F6B84010120EE03F04751D926485170
:10534A00DA22DE50DE10D8B410D020EE03F0475136
:10535A00D9264851DA22DECF60F0DDCF61F060C095
:10536A00D9FF61C0DAFF62C0DFFF000E5A6E120079
:10537A0010501110D8B418D0010E126E04D0D89063
:10538A0010361136122A11AEFAD710500E5C11508F
:10539A000F58D8A004D010500E5E11500F5AD89052
:1053AA0011321032122EF1D70EC00EF00FC00FF0CC
:1053BA001200000E8D6E000E8C6E000E896E000EAD
:1053CA008A6E000E8B6E030E966E92689368BA0E02
:1053DA00946E9568000E0F013B6F3C0E3A6F3F0EBC
:1053EA00396F070E3C6F2F0E386F000E616EF18E0B
:1053FA00120022EE00F010EE02F0380EDBCFE3FFCF
:10540A00E806FCE2000E3C6E000E3B6E020E3B24E8
:10541A00D96E000E3C20DA6EDF50A0EC2CF03B4A2D
:10542A003C2A3C5005E1390E3B5CD8B01200EED75D
:10543A001200000EF2BE010E00016D6F6B51030BDC
:10544A00AA6E6AC0A9FF6CC0A8FFA69EA69CA684E5
:10545A00F29E550EA76EAA0EA76EA682A6B2FED718
:10546A00A69400016DB102D0F29E01D0F28E120014
:10547A005B50D8B4FDD7160E5C24D96EDA6A010ED9
:10548A00DA22DF5001015F6F260E5C24D96EDA6AD8
:10549A00010EDA22DF50016E5C2A070E5C6402D02C
:1054AA00000E5C6E9D9A5B069D8A015012000001F7
:1054BA007B6FFE0E01016A6F7BC06BF16A0E000101
:1054CA00736F010E746F020E756F7AC076F0776B88
:1054DA00E90E786F000E796F13EC28F0020E0001C6
:1054EA00E919D8A41200FAD700017B6F010E010155
:1054FA006A6F7BC06BF16A0E0001736F010E746FE5
:10550A00020E756F7AC076F0776BE90E786F000E2F
:10551A00796F13EC28F0020E0001E919D8A41200E1
:10552A00FAD700017B6F000E01016A6F7BC06BF135
:10553A006A0E0001736F010E746F020E756F7AC0E6
:10554A0076F0776BE90E786F000E796F13EC28F01E
:10555A00020E0001E919D8A41200FAD7000EF2BE11
:10556A00010E046E0250030BAA6E01C0A9FF03C00C
:10557A00A8FFA69EA69CA684F29E550EA76EAA0E0A
:10558A00A76EA682A6B2FED7A69404B002D0F29E57
:10559A0001D0F28E1200D59CD7680F0ED66ED65067
:1055AA00D7CF6CF000016D6B6CC06DF06C6B6C1139
:1055BA00506E6D51516EF294F28AC80E6A6F590E8E
:1055CA006B6FA6EC2CF09C0ED56ED59E12003AECB1
:1055DA002BF0F28EF28CF28CD58CF29AD8EC2CF05D
:1055EA004E0E0001CF6FEB0EE82EFED7CF2FFCD761
:1055FA0083EC2BF028EC0DF0D3EC16F0D1EC1DF077
:10560A00F9D77E0E0101306F010E316F7E0E2E6FBB
:10561A00010E2F6F32833291000E346F800E6D6E41
:10562A00280E6C6E000E696E200E6E6EA49EA49CEF
:10563A00A38EA38C120093820F0139839384398538
:10564A009386398793883989938A398B92803881EE
:10565A0092823883928438859286388796803C81F4
:10566A0096823C839380398112008BEC2CF0DEEC1D
:10567A0029F082EC2CF006EC2BF078EC2CF06BEC99
:10568A002BF036EC2CF0D0EC2AF0DBEC26F020ECF8
:10569A002BF053EC2BF08FEC1AF012000F01459F00
:1056AA00459B45994597459545934591448F9F0E4E
:1056BA0044174489F30E441744934491030E431745
:1056CA004351FC0B0109436FA4961200830EC216C4
:1056DA00C292C280C19EFC0EC116F30EC116C08EC4
:1056EA00C050C70B0809C06EC050F80B0609C06E3F
:1056FA00000EC36E000EC46E9D8C1200000E0001D7
:10570A00CB6FD30EA76F010EA86FCBC0A9F078ECB0
:10571A000FF00001CB2B0B0ECB65F3D7D5EC20F0A5
:10572A00590E99EC2CF0120000016BAF0DD06AC033
:10573A006CF06BC06DF06C1F6D1F6C4B6D2B6CC0E9
:10574A006AF06DC06BF012006AC06AF06BC06BF051
:10575A001200F2945150D76E50C0D6FF0101515138
:10576A005211D8B4120001D812000500FA6E515134
:10577A00FD6E5251FE6EFF6AFA50120000016A5124
:10578A006C03F3CF6EF0F4CF6FF06A516D03F350F0
:10579A006F276B516C03F3506F276EC06AF06FC0AE
:1057AA006BF01200000E406ED30E1C6E010E1D6EC1
:1057BA0040C01EF0BDEC11F0402A0B0E4064F4D735
:1057CA0056EC21F0590EA0EC2CF0120002AE0DD0CE
:1057DA0001C003F002C004F0031E041E034A042A97
:1057EA0003C001F004C002F0120001C001F002C0BF
:1057FA0002F0120001500302F3CF05F0F4CF06F0D5
:10580A0001500402F350062602500302F350062602
:10581A0005C001F006C002F01200036E390E0364DF
:10582A0002D0090E0326390E016402D0090E0126A0
:10583A0001C002F00F0E02160338F00B021012001C
:10584A00260E0001DC25D96EDA6A010EDA22AECF05
:10585A00DFFFDC2B070EDC6502D0000EDC6F5B2A53
:10586A001200000ECC6EFB0ECF6E500ECE6ECECF57
:10587A0043F1CFCF44F19E90010ECD6E120000018C
:10588A006B6F6BC06AF000016A476A47C2506A19B7
:10589A00830B6A19C26EC2801200050E01014927E4
:1058AA00000E4A230001DA2F03D0040E5A6E1200AA
:1058BA00010E5A6E1200026E02C001F00146014644
:1058CA00C2500118830B0118C26EC2801200025026
:1058DA00030BAA6E01C0A9FFA69CA69EA68000F093
:1058EA0000F0A85012000A0E0F01546F000E556FF7
:1058FA00000E566FF30E48171200500ED36E040EA8
:10590A00D26E000E9B6ED2BE1200FDD7D08E9F8A39
:10591A009F8CF184A59EA59C120000016B6F00016B
:10592A006B5199EC2CF0120000016A6F9EA8FED709
:10593A006AC0ADFF1200016E9EA8FED701C0ADFF7E
:10594A0012006AC051F16BC052F112006AC053F1E1
:10595A006BC054F112006AC04DF16BC04EF11200D7
:10596A006AC04FF16BC050F112006AC04BF16BC0B4
:10597A004CF112000F01458F449144931200026EBC
:10598A000250A0EC2CF012000F01458F4491449371
:10599A0012005A50D8B41200FCD7AB98AB88120048
:1059AA0025EC2CF01200D59E1200D58E1200A49C74
:1059BA001200D59E1200D58E12009E9C1200120073
:0359CA0012006266
:020000040020DA
:08000000FFFFFFFFFFFFFFFF00
:020000040030CA
:0E000000FF331F3CFFBF85FF0FC00FE00F4016
:00000001FF
